{
	"contracts/advance solidity/calling contract from other contract/calling-smart-contract-from-other-con.sol": {
		"testContract": {
			"abi": [
				{
					"inputs": [],
					"name": "getX",
					"outputs": [
						{
							"internalType": "uint256",
							"name": "",
							"type": "uint256"
						}
					],
					"stateMutability": "view",
					"type": "function"
				},
				{
					"inputs": [],
					"name": "getXAndValue",
					"outputs": [
						{
							"internalType": "uint256",
							"name": "",
							"type": "uint256"
						},
						{
							"internalType": "uint256",
							"name": "",
							"type": "uint256"
						}
					],
					"stateMutability": "view",
					"type": "function"
				},
				{
					"inputs": [
						{
							"internalType": "uint256",
							"name": "_x",
							"type": "uint256"
						}
					],
					"name": "setX",
					"outputs": [],
					"stateMutability": "nonpayable",
					"type": "function"
				},
				{
					"inputs": [
						{
							"internalType": "uint256",
							"name": "_x",
							"type": "uint256"
						}
					],
					"name": "setXAndReceiveEther",
					"outputs": [],
					"stateMutability": "payable",
					"type": "function"
				},
				{
					"inputs": [],
					"name": "valueInContract",
					"outputs": [
						{
							"internalType": "uint256",
							"name": "",
							"type": "uint256"
						}
					],
					"stateMutability": "view",
					"type": "function"
				},
				{
					"inputs": [],
					"name": "x",
					"outputs": [
						{
							"internalType": "uint256",
							"name": "",
							"type": "uint256"
						}
					],
					"stateMutability": "view",
					"type": "function"
				}
			],
			"devdoc": {
				"kind": "dev",
				"methods": {},
				"version": 1
			},
			"evm": {
				"assembly": "    /* \"contracts/advance solidity/calling contract from other contract/calling-smart-contract-from-other-con.sol\":980:1442  contract testContract {... */\n  mstore(0x40, 0x80)\n  callvalue\n  dup1\n  iszero\n  tag_1\n  jumpi\n  0x00\n  dup1\n  revert\ntag_1:\n  pop\n  dataSize(sub_0)\n  dup1\n  dataOffset(sub_0)\n  0x00\n  codecopy\n  0x00\n  return\nstop\n\nsub_0: assembly {\n        /* \"contracts/advance solidity/calling contract from other contract/calling-smart-contract-from-other-con.sol\":980:1442  contract testContract {... */\n      mstore(0x40, 0x80)\n      jumpi(tag_1, lt(calldatasize, 0x04))\n      shr(0xe0, calldataload(0x00))\n      dup1\n      0x0c55699c\n      eq\n      tag_2\n      jumpi\n      dup1\n      0x2b5d6086\n      eq\n      tag_3\n      jumpi\n      dup1\n      0x4018d9aa\n      eq\n      tag_4\n      jumpi\n      dup1\n      0x5197c7aa\n      eq\n      tag_5\n      jumpi\n      dup1\n      0xba2cc278\n      eq\n      tag_6\n      jumpi\n      dup1\n      0xc9c4e00f\n      eq\n      tag_7\n      jumpi\n    tag_1:\n      0x00\n      dup1\n      revert\n        /* \"contracts/advance solidity/calling contract from other contract/calling-smart-contract-from-other-con.sol\":1011:1024  uint public x */\n    tag_2:\n      callvalue\n      dup1\n      iszero\n      tag_8\n      jumpi\n      0x00\n      dup1\n      revert\n    tag_8:\n      pop\n      tag_9\n      tag_10\n      jump\t// in\n    tag_9:\n      mload(0x40)\n      tag_11\n      swap2\n      swap1\n      tag_12\n      jump\t// in\n    tag_11:\n      mload(0x40)\n      dup1\n      swap2\n      sub\n      swap1\n      return\n        /* \"contracts/advance solidity/calling contract from other contract/calling-smart-contract-from-other-con.sol\":1332:1437  function getXAndValue() external view returns(uint , uint){... */\n    tag_3:\n      callvalue\n      dup1\n      iszero\n      tag_13\n      jumpi\n      0x00\n      dup1\n      revert\n    tag_13:\n      pop\n      tag_14\n      tag_15\n      jump\t// in\n    tag_14:\n      mload(0x40)\n      tag_16\n      swap3\n      swap2\n      swap1\n      tag_17\n      jump\t// in\n    tag_16:\n      mload(0x40)\n      dup1\n      swap2\n      sub\n      swap1\n      return\n        /* \"contracts/advance solidity/calling contract from other contract/calling-smart-contract-from-other-con.sol\":1067:1122  function setX(uint _x) public {... */\n    tag_4:\n      callvalue\n      dup1\n      iszero\n      tag_18\n      jumpi\n      0x00\n      dup1\n      revert\n    tag_18:\n      pop\n      tag_19\n      0x04\n      dup1\n      calldatasize\n      sub\n      dup2\n      add\n      swap1\n      tag_20\n      swap2\n      swap1\n      tag_21\n      jump\t// in\n    tag_20:\n      tag_22\n      jump\t// in\n    tag_19:\n      stop\n        /* \"contracts/advance solidity/calling contract from other contract/calling-smart-contract-from-other-con.sol\":1130:1198  function getX() public view returns(uint){... */\n    tag_5:\n      callvalue\n      dup1\n      iszero\n      tag_23\n      jumpi\n      0x00\n      dup1\n      revert\n    tag_23:\n      pop\n      tag_24\n      tag_25\n      jump\t// in\n    tag_24:\n      mload(0x40)\n      tag_26\n      swap2\n      swap1\n      tag_12\n      jump\t// in\n    tag_26:\n      mload(0x40)\n      dup1\n      swap2\n      sub\n      swap1\n      return\n        /* \"contracts/advance solidity/calling contract from other contract/calling-smart-contract-from-other-con.sol\":1031:1058  uint public valueInContract */\n    tag_6:\n      callvalue\n      dup1\n      iszero\n      tag_27\n      jumpi\n      0x00\n      dup1\n      revert\n    tag_27:\n      pop\n      tag_28\n      tag_29\n      jump\t// in\n    tag_28:\n      mload(0x40)\n      tag_30\n      swap2\n      swap1\n      tag_12\n      jump\t// in\n    tag_30:\n      mload(0x40)\n      dup1\n      swap2\n      sub\n      swap1\n      return\n        /* \"contracts/advance solidity/calling contract from other contract/calling-smart-contract-from-other-con.sol\":1206:1324  function setXAndReceiveEther(uint _x) external payable {... */\n    tag_7:\n      tag_31\n      0x04\n      dup1\n      calldatasize\n      sub\n      dup2\n      add\n      swap1\n      tag_32\n      swap2\n      swap1\n      tag_21\n      jump\t// in\n    tag_32:\n      tag_33\n      jump\t// in\n    tag_31:\n      stop\n        /* \"contracts/advance solidity/calling contract from other contract/calling-smart-contract-from-other-con.sol\":1011:1024  uint public x */\n    tag_10:\n      sload(0x00)\n      dup2\n      jump\t// out\n        /* \"contracts/advance solidity/calling contract from other contract/calling-smart-contract-from-other-con.sol\":1332:1437  function getXAndValue() external view returns(uint , uint){... */\n    tag_15:\n        /* \"contracts/advance solidity/calling contract from other contract/calling-smart-contract-from-other-con.sol\":1378:1382  uint */\n      0x00\n        /* \"contracts/advance solidity/calling contract from other contract/calling-smart-contract-from-other-con.sol\":1385:1389  uint */\n      dup1\n        /* \"contracts/advance solidity/calling contract from other contract/calling-smart-contract-from-other-con.sol\":1410:1411  x */\n      sload(0x00)\n        /* \"contracts/advance solidity/calling contract from other contract/calling-smart-contract-from-other-con.sol\":1413:1428  valueInContract */\n      sload(0x01)\n        /* \"contracts/advance solidity/calling contract from other contract/calling-smart-contract-from-other-con.sol\":1401:1429  return ( x, valueInContract) */\n      swap2\n      pop\n      swap2\n      pop\n        /* \"contracts/advance solidity/calling contract from other contract/calling-smart-contract-from-other-con.sol\":1332:1437  function getXAndValue() external view returns(uint , uint){... */\n      swap1\n      swap2\n      jump\t// out\n        /* \"contracts/advance solidity/calling contract from other contract/calling-smart-contract-from-other-con.sol\":1067:1122  function setX(uint _x) public {... */\n    tag_22:\n        /* \"contracts/advance solidity/calling contract from other contract/calling-smart-contract-from-other-con.sol\":1112:1114  _x */\n      dup1\n        /* \"contracts/advance solidity/calling contract from other contract/calling-smart-contract-from-other-con.sol\":1108:1109  x */\n      0x00\n        /* \"contracts/advance solidity/calling contract from other contract/calling-smart-contract-from-other-con.sol\":1108:1114  x = _x */\n      dup2\n      swap1\n      sstore\n      pop\n        /* \"contracts/advance solidity/calling contract from other contract/calling-smart-contract-from-other-con.sol\":1067:1122  function setX(uint _x) public {... */\n      pop\n      jump\t// out\n        /* \"contracts/advance solidity/calling contract from other contract/calling-smart-contract-from-other-con.sol\":1130:1198  function getX() public view returns(uint){... */\n    tag_25:\n        /* \"contracts/advance solidity/calling contract from other contract/calling-smart-contract-from-other-con.sol\":1166:1170  uint */\n      0x00\n        /* \"contracts/advance solidity/calling contract from other contract/calling-smart-contract-from-other-con.sol\":1189:1190  x */\n      dup1\n      sload\n        /* \"contracts/advance solidity/calling contract from other contract/calling-smart-contract-from-other-con.sol\":1182:1190  return x */\n      swap1\n      pop\n        /* \"contracts/advance solidity/calling contract from other contract/calling-smart-contract-from-other-con.sol\":1130:1198  function getX() public view returns(uint){... */\n      swap1\n      jump\t// out\n        /* \"contracts/advance solidity/calling contract from other contract/calling-smart-contract-from-other-con.sol\":1031:1058  uint public valueInContract */\n    tag_29:\n      sload(0x01)\n      dup2\n      jump\t// out\n        /* \"contracts/advance solidity/calling contract from other contract/calling-smart-contract-from-other-con.sol\":1206:1324  function setXAndReceiveEther(uint _x) external payable {... */\n    tag_33:\n        /* \"contracts/advance solidity/calling contract from other contract/calling-smart-contract-from-other-con.sol\":1276:1278  _x */\n      dup1\n        /* \"contracts/advance solidity/calling contract from other contract/calling-smart-contract-from-other-con.sol\":1272:1273  x */\n      0x00\n        /* \"contracts/advance solidity/calling contract from other contract/calling-smart-contract-from-other-con.sol\":1272:1278  x = _x */\n      dup2\n      swap1\n      sstore\n      pop\n        /* \"contracts/advance solidity/calling contract from other contract/calling-smart-contract-from-other-con.sol\":1307:1316  msg.value */\n      callvalue\n        /* \"contracts/advance solidity/calling contract from other contract/calling-smart-contract-from-other-con.sol\":1289:1304  valueInContract */\n      0x01\n        /* \"contracts/advance solidity/calling contract from other contract/calling-smart-contract-from-other-con.sol\":1289:1316  valueInContract = msg.value */\n      dup2\n      swap1\n      sstore\n      pop\n        /* \"contracts/advance solidity/calling contract from other contract/calling-smart-contract-from-other-con.sol\":1206:1324  function setXAndReceiveEther(uint _x) external payable {... */\n      pop\n      jump\t// out\n        /* \"#utility.yul\":7:84   */\n    tag_38:\n        /* \"#utility.yul\":44:51   */\n      0x00\n        /* \"#utility.yul\":73:78   */\n      dup2\n        /* \"#utility.yul\":62:78   */\n      swap1\n      pop\n        /* \"#utility.yul\":7:84   */\n      swap2\n      swap1\n      pop\n      jump\t// out\n        /* \"#utility.yul\":90:208   */\n    tag_39:\n        /* \"#utility.yul\":177:201   */\n      tag_48\n        /* \"#utility.yul\":195:200   */\n      dup2\n        /* \"#utility.yul\":177:201   */\n      tag_38\n      jump\t// in\n    tag_48:\n        /* \"#utility.yul\":172:175   */\n      dup3\n        /* \"#utility.yul\":165:202   */\n      mstore\n        /* \"#utility.yul\":90:208   */\n      pop\n      pop\n      jump\t// out\n        /* \"#utility.yul\":214:436   */\n    tag_12:\n        /* \"#utility.yul\":307:311   */\n      0x00\n        /* \"#utility.yul\":345:347   */\n      0x20\n        /* \"#utility.yul\":334:343   */\n      dup3\n        /* \"#utility.yul\":330:348   */\n      add\n        /* \"#utility.yul\":322:348   */\n      swap1\n      pop\n        /* \"#utility.yul\":358:429   */\n      tag_50\n        /* \"#utility.yul\":426:427   */\n      0x00\n        /* \"#utility.yul\":415:424   */\n      dup4\n        /* \"#utility.yul\":411:428   */\n      add\n        /* \"#utility.yul\":402:408   */\n      dup5\n        /* \"#utility.yul\":358:429   */\n      tag_39\n      jump\t// in\n    tag_50:\n        /* \"#utility.yul\":214:436   */\n      swap3\n      swap2\n      pop\n      pop\n      jump\t// out\n        /* \"#utility.yul\":442:774   */\n    tag_17:\n        /* \"#utility.yul\":563:567   */\n      0x00\n        /* \"#utility.yul\":601:603   */\n      0x40\n        /* \"#utility.yul\":590:599   */\n      dup3\n        /* \"#utility.yul\":586:604   */\n      add\n        /* \"#utility.yul\":578:604   */\n      swap1\n      pop\n        /* \"#utility.yul\":614:685   */\n      tag_52\n        /* \"#utility.yul\":682:683   */\n      0x00\n        /* \"#utility.yul\":671:680   */\n      dup4\n        /* \"#utility.yul\":667:684   */\n      add\n        /* \"#utility.yul\":658:664   */\n      dup6\n        /* \"#utility.yul\":614:685   */\n      tag_39\n      jump\t// in\n    tag_52:\n        /* \"#utility.yul\":695:767   */\n      tag_53\n        /* \"#utility.yul\":763:765   */\n      0x20\n        /* \"#utility.yul\":752:761   */\n      dup4\n        /* \"#utility.yul\":748:766   */\n      add\n        /* \"#utility.yul\":739:745   */\n      dup5\n        /* \"#utility.yul\":695:767   */\n      tag_39\n      jump\t// in\n    tag_53:\n        /* \"#utility.yul\":442:774   */\n      swap4\n      swap3\n      pop\n      pop\n      pop\n      jump\t// out\n        /* \"#utility.yul\":861:978   */\n    tag_41:\n        /* \"#utility.yul\":970:971   */\n      0x00\n        /* \"#utility.yul\":967:968   */\n      dup1\n        /* \"#utility.yul\":960:972   */\n      revert\n        /* \"#utility.yul\":1107:1229   */\n    tag_43:\n        /* \"#utility.yul\":1180:1204   */\n      tag_58\n        /* \"#utility.yul\":1198:1203   */\n      dup2\n        /* \"#utility.yul\":1180:1204   */\n      tag_38\n      jump\t// in\n    tag_58:\n        /* \"#utility.yul\":1173:1178   */\n      dup2\n        /* \"#utility.yul\":1170:1205   */\n      eq\n        /* \"#utility.yul\":1160:1223   */\n      tag_59\n      jumpi\n        /* \"#utility.yul\":1219:1220   */\n      0x00\n        /* \"#utility.yul\":1216:1217   */\n      dup1\n        /* \"#utility.yul\":1209:1221   */\n      revert\n        /* \"#utility.yul\":1160:1223   */\n    tag_59:\n        /* \"#utility.yul\":1107:1229   */\n      pop\n      jump\t// out\n        /* \"#utility.yul\":1235:1374   */\n    tag_44:\n        /* \"#utility.yul\":1281:1286   */\n      0x00\n        /* \"#utility.yul\":1319:1325   */\n      dup2\n        /* \"#utility.yul\":1306:1326   */\n      calldataload\n        /* \"#utility.yul\":1297:1326   */\n      swap1\n      pop\n        /* \"#utility.yul\":1335:1368   */\n      tag_61\n        /* \"#utility.yul\":1362:1367   */\n      dup2\n        /* \"#utility.yul\":1335:1368   */\n      tag_43\n      jump\t// in\n    tag_61:\n        /* \"#utility.yul\":1235:1374   */\n      swap3\n      swap2\n      pop\n      pop\n      jump\t// out\n        /* \"#utility.yul\":1380:1709   */\n    tag_21:\n        /* \"#utility.yul\":1439:1445   */\n      0x00\n        /* \"#utility.yul\":1488:1490   */\n      0x20\n        /* \"#utility.yul\":1476:1485   */\n      dup3\n        /* \"#utility.yul\":1467:1474   */\n      dup5\n        /* \"#utility.yul\":1463:1486   */\n      sub\n        /* \"#utility.yul\":1459:1491   */\n      slt\n        /* \"#utility.yul\":1456:1575   */\n      iszero\n      tag_63\n      jumpi\n        /* \"#utility.yul\":1494:1573   */\n      tag_64\n      tag_41\n      jump\t// in\n    tag_64:\n        /* \"#utility.yul\":1456:1575   */\n    tag_63:\n        /* \"#utility.yul\":1614:1615   */\n      0x00\n        /* \"#utility.yul\":1639:1692   */\n      tag_65\n        /* \"#utility.yul\":1684:1691   */\n      dup5\n        /* \"#utility.yul\":1675:1681   */\n      dup3\n        /* \"#utility.yul\":1664:1673   */\n      dup6\n        /* \"#utility.yul\":1660:1682   */\n      add\n        /* \"#utility.yul\":1639:1692   */\n      tag_44\n      jump\t// in\n    tag_65:\n        /* \"#utility.yul\":1629:1692   */\n      swap2\n      pop\n        /* \"#utility.yul\":1585:1702   */\n      pop\n        /* \"#utility.yul\":1380:1709   */\n      swap3\n      swap2\n      pop\n      pop\n      jump\t// out\n\n    auxdata: 0xa26469706673582212208ee40e526c87cf675434c175d6416aaca0b0e9813ddf336ec66374555700116f64736f6c63430008120033\n}\n",
				"bytecode": {
					"linkReferences": {},
					"object": "608060405234801561001057600080fd5b5061027e806100206000396000f3fe6080604052600436106100555760003560e01c80630c55699c1461005a5780632b5d6086146100855780634018d9aa146100b15780635197c7aa146100da578063ba2cc27814610105578063c9c4e00f14610130575b600080fd5b34801561006657600080fd5b5061006f61014c565b60405161007c91906101a6565b60405180910390f35b34801561009157600080fd5b5061009a610152565b6040516100a89291906101c1565b60405180910390f35b3480156100bd57600080fd5b506100d860048036038101906100d3919061021b565b610163565b005b3480156100e657600080fd5b506100ef61016d565b6040516100fc91906101a6565b60405180910390f35b34801561011157600080fd5b5061011a610176565b60405161012791906101a6565b60405180910390f35b61014a6004803603810190610145919061021b565b61017c565b005b60005481565b600080600054600154915091509091565b8060008190555050565b60008054905090565b60015481565b806000819055503460018190555050565b6000819050919050565b6101a08161018d565b82525050565b60006020820190506101bb6000830184610197565b92915050565b60006040820190506101d66000830185610197565b6101e36020830184610197565b9392505050565b600080fd5b6101f88161018d565b811461020357600080fd5b50565b600081359050610215816101ef565b92915050565b600060208284031215610231576102306101ea565b5b600061023f84828501610206565b9150509291505056fea26469706673582212208ee40e526c87cf675434c175d6416aaca0b0e9813ddf336ec66374555700116f64736f6c63430008120033",
					"opcodes": "PUSH1 0x80 PUSH1 0x40 MSTORE CALLVALUE DUP1 ISZERO PUSH2 0x10 JUMPI PUSH1 0x0 DUP1 REVERT JUMPDEST POP PUSH2 0x27E DUP1 PUSH2 0x20 PUSH1 0x0 CODECOPY PUSH1 0x0 RETURN INVALID PUSH1 0x80 PUSH1 0x40 MSTORE PUSH1 0x4 CALLDATASIZE LT PUSH2 0x55 JUMPI PUSH1 0x0 CALLDATALOAD PUSH1 0xE0 SHR DUP1 PUSH4 0xC55699C EQ PUSH2 0x5A JUMPI DUP1 PUSH4 0x2B5D6086 EQ PUSH2 0x85 JUMPI DUP1 PUSH4 0x4018D9AA EQ PUSH2 0xB1 JUMPI DUP1 PUSH4 0x5197C7AA EQ PUSH2 0xDA JUMPI DUP1 PUSH4 0xBA2CC278 EQ PUSH2 0x105 JUMPI DUP1 PUSH4 0xC9C4E00F EQ PUSH2 0x130 JUMPI JUMPDEST PUSH1 0x0 DUP1 REVERT JUMPDEST CALLVALUE DUP1 ISZERO PUSH2 0x66 JUMPI PUSH1 0x0 DUP1 REVERT JUMPDEST POP PUSH2 0x6F PUSH2 0x14C JUMP JUMPDEST PUSH1 0x40 MLOAD PUSH2 0x7C SWAP2 SWAP1 PUSH2 0x1A6 JUMP JUMPDEST PUSH1 0x40 MLOAD DUP1 SWAP2 SUB SWAP1 RETURN JUMPDEST CALLVALUE DUP1 ISZERO PUSH2 0x91 JUMPI PUSH1 0x0 DUP1 REVERT JUMPDEST POP PUSH2 0x9A PUSH2 0x152 JUMP JUMPDEST PUSH1 0x40 MLOAD PUSH2 0xA8 SWAP3 SWAP2 SWAP1 PUSH2 0x1C1 JUMP JUMPDEST PUSH1 0x40 MLOAD DUP1 SWAP2 SUB SWAP1 RETURN JUMPDEST CALLVALUE DUP1 ISZERO PUSH2 0xBD JUMPI PUSH1 0x0 DUP1 REVERT JUMPDEST POP PUSH2 0xD8 PUSH1 0x4 DUP1 CALLDATASIZE SUB DUP2 ADD SWAP1 PUSH2 0xD3 SWAP2 SWAP1 PUSH2 0x21B JUMP JUMPDEST PUSH2 0x163 JUMP JUMPDEST STOP JUMPDEST CALLVALUE DUP1 ISZERO PUSH2 0xE6 JUMPI PUSH1 0x0 DUP1 REVERT JUMPDEST POP PUSH2 0xEF PUSH2 0x16D JUMP JUMPDEST PUSH1 0x40 MLOAD PUSH2 0xFC SWAP2 SWAP1 PUSH2 0x1A6 JUMP JUMPDEST PUSH1 0x40 MLOAD DUP1 SWAP2 SUB SWAP1 RETURN JUMPDEST CALLVALUE DUP1 ISZERO PUSH2 0x111 JUMPI PUSH1 0x0 DUP1 REVERT JUMPDEST POP PUSH2 0x11A PUSH2 0x176 JUMP JUMPDEST PUSH1 0x40 MLOAD PUSH2 0x127 SWAP2 SWAP1 PUSH2 0x1A6 JUMP JUMPDEST PUSH1 0x40 MLOAD DUP1 SWAP2 SUB SWAP1 RETURN JUMPDEST PUSH2 0x14A PUSH1 0x4 DUP1 CALLDATASIZE SUB DUP2 ADD SWAP1 PUSH2 0x145 SWAP2 SWAP1 PUSH2 0x21B JUMP JUMPDEST PUSH2 0x17C JUMP JUMPDEST STOP JUMPDEST PUSH1 0x0 SLOAD DUP2 JUMP JUMPDEST PUSH1 0x0 DUP1 PUSH1 0x0 SLOAD PUSH1 0x1 SLOAD SWAP2 POP SWAP2 POP SWAP1 SWAP2 JUMP JUMPDEST DUP1 PUSH1 0x0 DUP2 SWAP1 SSTORE POP POP JUMP JUMPDEST PUSH1 0x0 DUP1 SLOAD SWAP1 POP SWAP1 JUMP JUMPDEST PUSH1 0x1 SLOAD DUP2 JUMP JUMPDEST DUP1 PUSH1 0x0 DUP2 SWAP1 SSTORE POP CALLVALUE PUSH1 0x1 DUP2 SWAP1 SSTORE POP POP JUMP JUMPDEST PUSH1 0x0 DUP2 SWAP1 POP SWAP2 SWAP1 POP JUMP JUMPDEST PUSH2 0x1A0 DUP2 PUSH2 0x18D JUMP JUMPDEST DUP3 MSTORE POP POP JUMP JUMPDEST PUSH1 0x0 PUSH1 0x20 DUP3 ADD SWAP1 POP PUSH2 0x1BB PUSH1 0x0 DUP4 ADD DUP5 PUSH2 0x197 JUMP JUMPDEST SWAP3 SWAP2 POP POP JUMP JUMPDEST PUSH1 0x0 PUSH1 0x40 DUP3 ADD SWAP1 POP PUSH2 0x1D6 PUSH1 0x0 DUP4 ADD DUP6 PUSH2 0x197 JUMP JUMPDEST PUSH2 0x1E3 PUSH1 0x20 DUP4 ADD DUP5 PUSH2 0x197 JUMP JUMPDEST SWAP4 SWAP3 POP POP POP JUMP JUMPDEST PUSH1 0x0 DUP1 REVERT JUMPDEST PUSH2 0x1F8 DUP2 PUSH2 0x18D JUMP JUMPDEST DUP2 EQ PUSH2 0x203 JUMPI PUSH1 0x0 DUP1 REVERT JUMPDEST POP JUMP JUMPDEST PUSH1 0x0 DUP2 CALLDATALOAD SWAP1 POP PUSH2 0x215 DUP2 PUSH2 0x1EF JUMP JUMPDEST SWAP3 SWAP2 POP POP JUMP JUMPDEST PUSH1 0x0 PUSH1 0x20 DUP3 DUP5 SUB SLT ISZERO PUSH2 0x231 JUMPI PUSH2 0x230 PUSH2 0x1EA JUMP JUMPDEST JUMPDEST PUSH1 0x0 PUSH2 0x23F DUP5 DUP3 DUP6 ADD PUSH2 0x206 JUMP JUMPDEST SWAP2 POP POP SWAP3 SWAP2 POP POP JUMP INVALID LOG2 PUSH5 0x6970667358 0x22 SLT KECCAK256 DUP15 0xE4 0xE MSTORE PUSH13 0x87CF675434C175D6416AACA0B0 0xE9 DUP2 RETURNDATASIZE 0xDF CALLER PUSH15 0xC66374555700116F64736F6C634300 ADDMOD SLT STOP CALLER "
				},
				"gasEstimates": {
					"creation": {
						"codeDepositCost": "127600",
						"executionCost": "171",
						"totalCost": "127771"
					},
					"external": {
						"getX()": "2481",
						"getXAndValue()": "infinite",
						"setX(uint256)": "22542",
						"setXAndReceiveEther(uint256)": "44697",
						"valueInContract()": "2495",
						"x()": "2407"
					}
				},
				"methodIdentifiers": {
					"getX()": "5197c7aa",
					"getXAndValue()": "2b5d6086",
					"setX(uint256)": "4018d9aa",
					"setXAndReceiveEther(uint256)": "c9c4e00f",
					"valueInContract()": "ba2cc278",
					"x()": "0c55699c"
				}
			},
			"storageLayout": {
				"storage": [
					{
						"astId": 87,
						"contract": "contracts/advance solidity/calling contract from other contract/calling-smart-contract-from-other-con.sol:testContract",
						"label": "x",
						"offset": 0,
						"slot": "0",
						"type": "t_uint256"
					},
					{
						"astId": 89,
						"contract": "contracts/advance solidity/calling contract from other contract/calling-smart-contract-from-other-con.sol:testContract",
						"label": "valueInContract",
						"offset": 0,
						"slot": "1",
						"type": "t_uint256"
					}
				],
				"types": {
					"t_uint256": {
						"encoding": "inplace",
						"label": "uint256",
						"numberOfBytes": "32"
					}
				}
			},
			"userdoc": {
				"kind": "user",
				"methods": {},
				"version": 1
			}
		}
	}
}