{
	"contracts/advance solidity/calling contract from other contract/calling-smart-contract-from-other-con.sol": {
		"callTestContract": {
			"abi": [
				{
					"inputs": [
						{
							"internalType": "contract testContract",
							"name": "_test",
							"type": "address"
						}
					],
					"name": "get1",
					"outputs": [
						{
							"internalType": "uint256",
							"name": "_x",
							"type": "uint256"
						}
					],
					"stateMutability": "view",
					"type": "function"
				},
				{
					"inputs": [
						{
							"internalType": "address",
							"name": "_test",
							"type": "address"
						}
					],
					"name": "getXAndValue1",
					"outputs": [
						{
							"internalType": "uint256",
							"name": "_x",
							"type": "uint256"
						},
						{
							"internalType": "uint256",
							"name": "_valueInContract",
							"type": "uint256"
						}
					],
					"stateMutability": "view",
					"type": "function"
				},
				{
					"inputs": [
						{
							"internalType": "address",
							"name": "_testContractAdd",
							"type": "address"
						},
						{
							"internalType": "uint256",
							"name": "_x",
							"type": "uint256"
						}
					],
					"name": "set1",
					"outputs": [],
					"stateMutability": "nonpayable",
					"type": "function"
				},
				{
					"inputs": [
						{
							"internalType": "contract testContract",
							"name": "_test",
							"type": "address"
						},
						{
							"internalType": "uint256",
							"name": "_x",
							"type": "uint256"
						}
					],
					"name": "set2",
					"outputs": [],
					"stateMutability": "nonpayable",
					"type": "function"
				},
				{
					"inputs": [
						{
							"internalType": "contract testContract",
							"name": "_test",
							"type": "address"
						},
						{
							"internalType": "uint256",
							"name": "_x",
							"type": "uint256"
						}
					],
					"name": "setXAndGetEth1",
					"outputs": [],
					"stateMutability": "payable",
					"type": "function"
				}
			],
			"devdoc": {
				"kind": "dev",
				"methods": {},
				"version": 1
			},
			"evm": {
				"assembly": "    /* \"contracts/advance solidity/calling contract from other contract/calling-smart-contract-from-other-con.sol\":61:976  contract callTestContract {... */\n  mstore(0x40, 0x80)\n  callvalue\n  dup1\n  iszero\n  tag_1\n  jumpi\n  0x00\n  dup1\n  revert\ntag_1:\n  pop\n  dataSize(sub_0)\n  dup1\n  dataOffset(sub_0)\n  0x00\n  codecopy\n  0x00\n  return\nstop\n\nsub_0: assembly {\n        /* \"contracts/advance solidity/calling contract from other contract/calling-smart-contract-from-other-con.sol\":61:976  contract callTestContract {... */\n      mstore(0x40, 0x80)\n      jumpi(tag_1, lt(calldatasize, 0x04))\n      shr(0xe0, calldataload(0x00))\n      dup1\n      0x169f449e\n      eq\n      tag_2\n      jumpi\n      dup1\n      0x24c4b45a\n      eq\n      tag_3\n      jumpi\n      dup1\n      0x5a5f2295\n      eq\n      tag_4\n      jumpi\n      dup1\n      0xb42f1b97\n      eq\n      tag_5\n      jumpi\n      dup1\n      0xb79630f4\n      eq\n      tag_6\n      jumpi\n    tag_1:\n      0x00\n      dup1\n      revert\n        /* \"contracts/advance solidity/calling contract from other contract/calling-smart-contract-from-other-con.sol\":600:736  function setXAndGetEth1(testContract _test, uint _x) external payable {... */\n    tag_2:\n      tag_7\n      0x04\n      dup1\n      calldatasize\n      sub\n      dup2\n      add\n      swap1\n      tag_8\n      swap2\n      swap1\n      tag_9\n      jump\t// in\n    tag_8:\n      tag_10\n      jump\t// in\n    tag_7:\n      stop\n        /* \"contracts/advance solidity/calling contract from other contract/calling-smart-contract-from-other-con.sol\":445:546  function get1(testContract _test) external view returns(uint _x){... */\n    tag_3:\n      callvalue\n      dup1\n      iszero\n      tag_11\n      jumpi\n      0x00\n      dup1\n      revert\n    tag_11:\n      pop\n      tag_12\n      0x04\n      dup1\n      calldatasize\n      sub\n      dup2\n      add\n      swap1\n      tag_13\n      swap2\n      swap1\n      tag_14\n      jump\t// in\n    tag_13:\n      tag_15\n      jump\t// in\n    tag_12:\n      mload(0x40)\n      tag_16\n      swap2\n      swap1\n      tag_17\n      jump\t// in\n    tag_16:\n      mload(0x40)\n      dup1\n      swap2\n      sub\n      swap1\n      return\n        /* \"contracts/advance solidity/calling contract from other contract/calling-smart-contract-from-other-con.sol\":142:258  function set1(address _testContractAdd, uint _x) external {... */\n    tag_4:\n      callvalue\n      dup1\n      iszero\n      tag_18\n      jumpi\n      0x00\n      dup1\n      revert\n    tag_18:\n      pop\n      tag_19\n      0x04\n      dup1\n      calldatasize\n      sub\n      dup2\n      add\n      swap1\n      tag_20\n      swap2\n      swap1\n      tag_21\n      jump\t// in\n    tag_20:\n      tag_22\n      jump\t// in\n    tag_19:\n      stop\n        /* \"contracts/advance solidity/calling contract from other contract/calling-smart-contract-from-other-con.sol\":807:973  function getXAndValue1(address _test) public view returns(uint _x,uint _valueInContract){... */\n    tag_5:\n      callvalue\n      dup1\n      iszero\n      tag_23\n      jumpi\n      0x00\n      dup1\n      revert\n    tag_23:\n      pop\n      tag_24\n      0x04\n      dup1\n      calldatasize\n      sub\n      dup2\n      add\n      swap1\n      tag_25\n      swap2\n      swap1\n      tag_26\n      jump\t// in\n    tag_25:\n      tag_27\n      jump\t// in\n    tag_24:\n      mload(0x40)\n      tag_28\n      swap3\n      swap2\n      swap1\n      tag_29\n      jump\t// in\n    tag_28:\n      mload(0x40)\n      dup1\n      swap2\n      sub\n      swap1\n      return\n        /* \"contracts/advance solidity/calling contract from other contract/calling-smart-contract-from-other-con.sol\":305:390  function set2(testContract _test, uint _x) external {... */\n    tag_6:\n      callvalue\n      dup1\n      iszero\n      tag_30\n      jumpi\n      0x00\n      dup1\n      revert\n    tag_30:\n      pop\n      tag_31\n      0x04\n      dup1\n      calldatasize\n      sub\n      dup2\n      add\n      swap1\n      tag_32\n      swap2\n      swap1\n      tag_9\n      jump\t// in\n    tag_32:\n      tag_33\n      jump\t// in\n    tag_31:\n      stop\n        /* \"contracts/advance solidity/calling contract from other contract/calling-smart-contract-from-other-con.sol\":600:736  function setXAndGetEth1(testContract _test, uint _x) external payable {... */\n    tag_10:\n        /* \"contracts/advance solidity/calling contract from other contract/calling-smart-contract-from-other-con.sol\":681:686  _test */\n      dup2\n        /* \"contracts/advance solidity/calling contract from other contract/calling-smart-contract-from-other-con.sol\":681:706  _test.setXAndReceiveEther */\n      0xffffffffffffffffffffffffffffffffffffffff\n      and\n      0xc9c4e00f\n        /* \"contracts/advance solidity/calling contract from other contract/calling-smart-contract-from-other-con.sol\":714:723  msg.value */\n      callvalue\n        /* \"contracts/advance solidity/calling contract from other contract/calling-smart-contract-from-other-con.sol\":725:727  _x */\n      dup4\n        /* \"contracts/advance solidity/calling contract from other contract/calling-smart-contract-from-other-con.sol\":681:728  _test.setXAndReceiveEther{value: msg.value}(_x) */\n      mload(0x40)\n      dup4\n      0xffffffff\n      and\n      0xe0\n      shl\n      dup2\n      mstore\n      0x04\n      add\n      tag_35\n      swap2\n      swap1\n      tag_17\n      jump\t// in\n    tag_35:\n      0x00\n      mload(0x40)\n      dup1\n      dup4\n      sub\n      dup2\n      dup6\n      dup9\n      dup1\n      extcodesize\n      iszero\n      dup1\n      iszero\n      tag_36\n      jumpi\n      0x00\n      dup1\n      revert\n    tag_36:\n      pop\n      gas\n      call\n      iszero\n      dup1\n      iszero\n      tag_38\n      jumpi\n      returndatasize\n      0x00\n      dup1\n      returndatacopy\n      revert(0x00, returndatasize)\n    tag_38:\n      pop\n      pop\n      pop\n      pop\n      pop\n        /* \"contracts/advance solidity/calling contract from other contract/calling-smart-contract-from-other-con.sol\":600:736  function setXAndGetEth1(testContract _test, uint _x) external payable {... */\n      pop\n      pop\n      jump\t// out\n        /* \"contracts/advance solidity/calling contract from other contract/calling-smart-contract-from-other-con.sol\":445:546  function get1(testContract _test) external view returns(uint _x){... */\n    tag_15:\n        /* \"contracts/advance solidity/calling contract from other contract/calling-smart-contract-from-other-con.sol\":501:508  uint _x */\n      0x00\n        /* \"contracts/advance solidity/calling contract from other contract/calling-smart-contract-from-other-con.sol\":525:530  _test */\n      dup2\n        /* \"contracts/advance solidity/calling contract from other contract/calling-smart-contract-from-other-con.sol\":525:535  _test.getX */\n      0xffffffffffffffffffffffffffffffffffffffff\n      and\n      0x5197c7aa\n        /* \"contracts/advance solidity/calling contract from other contract/calling-smart-contract-from-other-con.sol\":525:537  _test.getX() */\n      mload(0x40)\n      dup2\n      0xffffffff\n      and\n      0xe0\n      shl\n      dup2\n      mstore\n      0x04\n      add\n      0x20\n      mload(0x40)\n      dup1\n      dup4\n      sub\n      dup2\n      dup7\n      gas\n      staticcall\n      iszero\n      dup1\n      iszero\n      tag_41\n      jumpi\n      returndatasize\n      0x00\n      dup1\n      returndatacopy\n      revert(0x00, returndatasize)\n    tag_41:\n      pop\n      pop\n      pop\n      pop\n      mload(0x40)\n      returndatasize\n      not(0x1f)\n      0x1f\n      dup3\n      add\n      and\n      dup3\n      add\n      dup1\n      0x40\n      mstore\n      pop\n      dup2\n      add\n      swap1\n      tag_42\n      swap2\n      swap1\n      tag_43\n      jump\t// in\n    tag_42:\n        /* \"contracts/advance solidity/calling contract from other contract/calling-smart-contract-from-other-con.sol\":520:537  _x = _test.getX() */\n      swap1\n      pop\n        /* \"contracts/advance solidity/calling contract from other contract/calling-smart-contract-from-other-con.sol\":445:546  function get1(testContract _test) external view returns(uint _x){... */\n      swap2\n      swap1\n      pop\n      jump\t// out\n        /* \"contracts/advance solidity/calling contract from other contract/calling-smart-contract-from-other-con.sol\":142:258  function set1(address _testContractAdd, uint _x) external {... */\n    tag_22:\n        /* \"contracts/advance solidity/calling contract from other contract/calling-smart-contract-from-other-con.sol\":224:240  _testContractAdd */\n      dup2\n        /* \"contracts/advance solidity/calling contract from other contract/calling-smart-contract-from-other-con.sol\":211:246  testContract(_testContractAdd).setX */\n      0xffffffffffffffffffffffffffffffffffffffff\n      and\n      0x4018d9aa\n        /* \"contracts/advance solidity/calling contract from other contract/calling-smart-contract-from-other-con.sol\":247:249  _x */\n      dup3\n        /* \"contracts/advance solidity/calling contract from other contract/calling-smart-contract-from-other-con.sol\":211:250  testContract(_testContractAdd).setX(_x) */\n      mload(0x40)\n      dup3\n      0xffffffff\n      and\n      0xe0\n      shl\n      dup2\n      mstore\n      0x04\n      add\n      tag_45\n      swap2\n      swap1\n      tag_17\n      jump\t// in\n    tag_45:\n      0x00\n      mload(0x40)\n      dup1\n      dup4\n      sub\n      dup2\n      0x00\n      dup8\n      dup1\n      extcodesize\n      iszero\n      dup1\n      iszero\n      tag_46\n      jumpi\n      0x00\n      dup1\n      revert\n    tag_46:\n      pop\n      gas\n      call\n      iszero\n      dup1\n      iszero\n      tag_48\n      jumpi\n      returndatasize\n      0x00\n      dup1\n      returndatacopy\n      revert(0x00, returndatasize)\n    tag_48:\n      pop\n      pop\n      pop\n      pop\n        /* \"contracts/advance solidity/calling contract from other contract/calling-smart-contract-from-other-con.sol\":142:258  function set1(address _testContractAdd, uint _x) external {... */\n      pop\n      pop\n      jump\t// out\n        /* \"contracts/advance solidity/calling contract from other contract/calling-smart-contract-from-other-con.sol\":807:973  function getXAndValue1(address _test) public view returns(uint _x,uint _valueInContract){... */\n    tag_27:\n        /* \"contracts/advance solidity/calling contract from other contract/calling-smart-contract-from-other-con.sol\":865:872  uint _x */\n      0x00\n        /* \"contracts/advance solidity/calling contract from other contract/calling-smart-contract-from-other-con.sol\":873:894  uint _valueInContract */\n      dup1\n        /* \"contracts/advance solidity/calling contract from other contract/calling-smart-contract-from-other-con.sol\":944:949  _test */\n      dup3\n        /* \"contracts/advance solidity/calling contract from other contract/calling-smart-contract-from-other-con.sol\":931:963  testContract(_test).getXAndValue */\n      0xffffffffffffffffffffffffffffffffffffffff\n      and\n      0x2b5d6086\n        /* \"contracts/advance solidity/calling contract from other contract/calling-smart-contract-from-other-con.sol\":931:965  testContract(_test).getXAndValue() */\n      mload(0x40)\n      dup2\n      0xffffffff\n      and\n      0xe0\n      shl\n      dup2\n      mstore\n      0x04\n      add\n      0x40\n      dup1\n      mload\n      dup1\n      dup4\n      sub\n      dup2\n      dup7\n      gas\n      staticcall\n      iszero\n      dup1\n      iszero\n      tag_51\n      jumpi\n      returndatasize\n      0x00\n      dup1\n      returndatacopy\n      revert(0x00, returndatasize)\n    tag_51:\n      pop\n      pop\n      pop\n      pop\n      mload(0x40)\n      returndatasize\n      not(0x1f)\n      0x1f\n      dup3\n      add\n      and\n      dup3\n      add\n      dup1\n      0x40\n      mstore\n      pop\n      dup2\n      add\n      swap1\n      tag_52\n      swap2\n      swap1\n      tag_53\n      jump\t// in\n    tag_52:\n        /* \"contracts/advance solidity/calling contract from other contract/calling-smart-contract-from-other-con.sol\":906:965  (_x, _valueInContract) = testContract(_test).getXAndValue() */\n      dup1\n      swap3\n      pop\n      dup2\n      swap4\n      pop\n      pop\n      pop\n        /* \"contracts/advance solidity/calling contract from other contract/calling-smart-contract-from-other-con.sol\":807:973  function getXAndValue1(address _test) public view returns(uint _x,uint _valueInContract){... */\n      swap2\n      pop\n      swap2\n      jump\t// out\n        /* \"contracts/advance solidity/calling contract from other contract/calling-smart-contract-from-other-con.sol\":305:390  function set2(testContract _test, uint _x) external {... */\n    tag_33:\n        /* \"contracts/advance solidity/calling contract from other contract/calling-smart-contract-from-other-con.sol\":368:373  _test */\n      dup2\n        /* \"contracts/advance solidity/calling contract from other contract/calling-smart-contract-from-other-con.sol\":368:378  _test.setX */\n      0xffffffffffffffffffffffffffffffffffffffff\n      and\n      0x4018d9aa\n        /* \"contracts/advance solidity/calling contract from other contract/calling-smart-contract-from-other-con.sol\":379:381  _x */\n      dup3\n        /* \"contracts/advance solidity/calling contract from other contract/calling-smart-contract-from-other-con.sol\":368:382  _test.setX(_x) */\n      mload(0x40)\n      dup3\n      0xffffffff\n      and\n      0xe0\n      shl\n      dup2\n      mstore\n      0x04\n      add\n      tag_55\n      swap2\n      swap1\n      tag_17\n      jump\t// in\n    tag_55:\n      0x00\n      mload(0x40)\n      dup1\n      dup4\n      sub\n      dup2\n      0x00\n      dup8\n      dup1\n      extcodesize\n      iszero\n      dup1\n      iszero\n      tag_56\n      jumpi\n      0x00\n      dup1\n      revert\n    tag_56:\n      pop\n      gas\n      call\n      iszero\n      dup1\n      iszero\n      tag_58\n      jumpi\n      returndatasize\n      0x00\n      dup1\n      returndatacopy\n      revert(0x00, returndatasize)\n    tag_58:\n      pop\n      pop\n      pop\n      pop\n        /* \"contracts/advance solidity/calling contract from other contract/calling-smart-contract-from-other-con.sol\":305:390  function set2(testContract _test, uint _x) external {... */\n      pop\n      pop\n      jump\t// out\n        /* \"#utility.yul\":88:205   */\n    tag_60:\n        /* \"#utility.yul\":197:198   */\n      0x00\n        /* \"#utility.yul\":194:195   */\n      dup1\n        /* \"#utility.yul\":187:199   */\n      revert\n        /* \"#utility.yul\":334:460   */\n    tag_62:\n        /* \"#utility.yul\":371:378   */\n      0x00\n        /* \"#utility.yul\":411:453   */\n      0xffffffffffffffffffffffffffffffffffffffff\n        /* \"#utility.yul\":404:409   */\n      dup3\n        /* \"#utility.yul\":400:454   */\n      and\n        /* \"#utility.yul\":389:454   */\n      swap1\n      pop\n        /* \"#utility.yul\":334:460   */\n      swap2\n      swap1\n      pop\n      jump\t// out\n        /* \"#utility.yul\":466:562   */\n    tag_63:\n        /* \"#utility.yul\":503:510   */\n      0x00\n        /* \"#utility.yul\":532:556   */\n      tag_80\n        /* \"#utility.yul\":550:555   */\n      dup3\n        /* \"#utility.yul\":532:556   */\n      tag_62\n      jump\t// in\n    tag_80:\n        /* \"#utility.yul\":521:556   */\n      swap1\n      pop\n        /* \"#utility.yul\":466:562   */\n      swap2\n      swap1\n      pop\n      jump\t// out\n        /* \"#utility.yul\":568:684   */\n    tag_64:\n        /* \"#utility.yul\":625:632   */\n      0x00\n        /* \"#utility.yul\":654:678   */\n      tag_82\n        /* \"#utility.yul\":672:677   */\n      dup3\n        /* \"#utility.yul\":654:678   */\n      tag_63\n      jump\t// in\n    tag_82:\n        /* \"#utility.yul\":643:678   */\n      swap1\n      pop\n        /* \"#utility.yul\":568:684   */\n      swap2\n      swap1\n      pop\n      jump\t// out\n        /* \"#utility.yul\":690:852   */\n    tag_65:\n        /* \"#utility.yul\":783:827   */\n      tag_84\n        /* \"#utility.yul\":821:826   */\n      dup2\n        /* \"#utility.yul\":783:827   */\n      tag_64\n      jump\t// in\n    tag_84:\n        /* \"#utility.yul\":776:781   */\n      dup2\n        /* \"#utility.yul\":773:828   */\n      eq\n        /* \"#utility.yul\":763:846   */\n      tag_85\n      jumpi\n        /* \"#utility.yul\":842:843   */\n      0x00\n        /* \"#utility.yul\":839:840   */\n      dup1\n        /* \"#utility.yul\":832:844   */\n      revert\n        /* \"#utility.yul\":763:846   */\n    tag_85:\n        /* \"#utility.yul\":690:852   */\n      pop\n      jump\t// out\n        /* \"#utility.yul\":858:1037   */\n    tag_66:\n        /* \"#utility.yul\":924:929   */\n      0x00\n        /* \"#utility.yul\":962:968   */\n      dup2\n        /* \"#utility.yul\":949:969   */\n      calldataload\n        /* \"#utility.yul\":940:969   */\n      swap1\n      pop\n        /* \"#utility.yul\":978:1031   */\n      tag_87\n        /* \"#utility.yul\":1025:1030   */\n      dup2\n        /* \"#utility.yul\":978:1031   */\n      tag_65\n      jump\t// in\n    tag_87:\n        /* \"#utility.yul\":858:1037   */\n      swap3\n      swap2\n      pop\n      pop\n      jump\t// out\n        /* \"#utility.yul\":1043:1120   */\n    tag_67:\n        /* \"#utility.yul\":1080:1087   */\n      0x00\n        /* \"#utility.yul\":1109:1114   */\n      dup2\n        /* \"#utility.yul\":1098:1114   */\n      swap1\n      pop\n        /* \"#utility.yul\":1043:1120   */\n      swap2\n      swap1\n      pop\n      jump\t// out\n        /* \"#utility.yul\":1126:1248   */\n    tag_68:\n        /* \"#utility.yul\":1199:1223   */\n      tag_90\n        /* \"#utility.yul\":1217:1222   */\n      dup2\n        /* \"#utility.yul\":1199:1223   */\n      tag_67\n      jump\t// in\n    tag_90:\n        /* \"#utility.yul\":1192:1197   */\n      dup2\n        /* \"#utility.yul\":1189:1224   */\n      eq\n        /* \"#utility.yul\":1179:1242   */\n      tag_91\n      jumpi\n        /* \"#utility.yul\":1238:1239   */\n      0x00\n        /* \"#utility.yul\":1235:1236   */\n      dup1\n        /* \"#utility.yul\":1228:1240   */\n      revert\n        /* \"#utility.yul\":1179:1242   */\n    tag_91:\n        /* \"#utility.yul\":1126:1248   */\n      pop\n      jump\t// out\n        /* \"#utility.yul\":1254:1393   */\n    tag_69:\n        /* \"#utility.yul\":1300:1305   */\n      0x00\n        /* \"#utility.yul\":1338:1344   */\n      dup2\n        /* \"#utility.yul\":1325:1345   */\n      calldataload\n        /* \"#utility.yul\":1316:1345   */\n      swap1\n      pop\n        /* \"#utility.yul\":1354:1387   */\n      tag_93\n        /* \"#utility.yul\":1381:1386   */\n      dup2\n        /* \"#utility.yul\":1354:1387   */\n      tag_68\n      jump\t// in\n    tag_93:\n        /* \"#utility.yul\":1254:1393   */\n      swap3\n      swap2\n      pop\n      pop\n      jump\t// out\n        /* \"#utility.yul\":1399:1913   */\n    tag_9:\n        /* \"#utility.yul\":1487:1493   */\n      0x00\n        /* \"#utility.yul\":1495:1501   */\n      dup1\n        /* \"#utility.yul\":1544:1546   */\n      0x40\n        /* \"#utility.yul\":1532:1541   */\n      dup4\n        /* \"#utility.yul\":1523:1530   */\n      dup6\n        /* \"#utility.yul\":1519:1542   */\n      sub\n        /* \"#utility.yul\":1515:1547   */\n      slt\n        /* \"#utility.yul\":1512:1631   */\n      iszero\n      tag_95\n      jumpi\n        /* \"#utility.yul\":1550:1629   */\n      tag_96\n      tag_60\n      jump\t// in\n    tag_96:\n        /* \"#utility.yul\":1512:1631   */\n    tag_95:\n        /* \"#utility.yul\":1670:1671   */\n      0x00\n        /* \"#utility.yul\":1695:1768   */\n      tag_97\n        /* \"#utility.yul\":1760:1767   */\n      dup6\n        /* \"#utility.yul\":1751:1757   */\n      dup3\n        /* \"#utility.yul\":1740:1749   */\n      dup7\n        /* \"#utility.yul\":1736:1758   */\n      add\n        /* \"#utility.yul\":1695:1768   */\n      tag_66\n      jump\t// in\n    tag_97:\n        /* \"#utility.yul\":1685:1768   */\n      swap3\n      pop\n        /* \"#utility.yul\":1641:1778   */\n      pop\n        /* \"#utility.yul\":1817:1819   */\n      0x20\n        /* \"#utility.yul\":1843:1896   */\n      tag_98\n        /* \"#utility.yul\":1888:1895   */\n      dup6\n        /* \"#utility.yul\":1879:1885   */\n      dup3\n        /* \"#utility.yul\":1868:1877   */\n      dup7\n        /* \"#utility.yul\":1864:1886   */\n      add\n        /* \"#utility.yul\":1843:1896   */\n      tag_69\n      jump\t// in\n    tag_98:\n        /* \"#utility.yul\":1833:1896   */\n      swap2\n      pop\n        /* \"#utility.yul\":1788:1906   */\n      pop\n        /* \"#utility.yul\":1399:1913   */\n      swap3\n      pop\n      swap3\n      swap1\n      pop\n      jump\t// out\n        /* \"#utility.yul\":1919:2288   */\n    tag_14:\n        /* \"#utility.yul\":1998:2004   */\n      0x00\n        /* \"#utility.yul\":2047:2049   */\n      0x20\n        /* \"#utility.yul\":2035:2044   */\n      dup3\n        /* \"#utility.yul\":2026:2033   */\n      dup5\n        /* \"#utility.yul\":2022:2045   */\n      sub\n        /* \"#utility.yul\":2018:2050   */\n      slt\n        /* \"#utility.yul\":2015:2134   */\n      iszero\n      tag_100\n      jumpi\n        /* \"#utility.yul\":2053:2132   */\n      tag_101\n      tag_60\n      jump\t// in\n    tag_101:\n        /* \"#utility.yul\":2015:2134   */\n    tag_100:\n        /* \"#utility.yul\":2173:2174   */\n      0x00\n        /* \"#utility.yul\":2198:2271   */\n      tag_102\n        /* \"#utility.yul\":2263:2270   */\n      dup5\n        /* \"#utility.yul\":2254:2260   */\n      dup3\n        /* \"#utility.yul\":2243:2252   */\n      dup6\n        /* \"#utility.yul\":2239:2261   */\n      add\n        /* \"#utility.yul\":2198:2271   */\n      tag_66\n      jump\t// in\n    tag_102:\n        /* \"#utility.yul\":2188:2271   */\n      swap2\n      pop\n        /* \"#utility.yul\":2144:2281   */\n      pop\n        /* \"#utility.yul\":1919:2288   */\n      swap3\n      swap2\n      pop\n      pop\n      jump\t// out\n        /* \"#utility.yul\":2294:2412   */\n    tag_70:\n        /* \"#utility.yul\":2381:2405   */\n      tag_104\n        /* \"#utility.yul\":2399:2404   */\n      dup2\n        /* \"#utility.yul\":2381:2405   */\n      tag_67\n      jump\t// in\n    tag_104:\n        /* \"#utility.yul\":2376:2379   */\n      dup3\n        /* \"#utility.yul\":2369:2406   */\n      mstore\n        /* \"#utility.yul\":2294:2412   */\n      pop\n      pop\n      jump\t// out\n        /* \"#utility.yul\":2418:2640   */\n    tag_17:\n        /* \"#utility.yul\":2511:2515   */\n      0x00\n        /* \"#utility.yul\":2549:2551   */\n      0x20\n        /* \"#utility.yul\":2538:2547   */\n      dup3\n        /* \"#utility.yul\":2534:2552   */\n      add\n        /* \"#utility.yul\":2526:2552   */\n      swap1\n      pop\n        /* \"#utility.yul\":2562:2633   */\n      tag_106\n        /* \"#utility.yul\":2630:2631   */\n      0x00\n        /* \"#utility.yul\":2619:2628   */\n      dup4\n        /* \"#utility.yul\":2615:2632   */\n      add\n        /* \"#utility.yul\":2606:2612   */\n      dup5\n        /* \"#utility.yul\":2562:2633   */\n      tag_70\n      jump\t// in\n    tag_106:\n        /* \"#utility.yul\":2418:2640   */\n      swap3\n      swap2\n      pop\n      pop\n      jump\t// out\n        /* \"#utility.yul\":2646:2768   */\n    tag_71:\n        /* \"#utility.yul\":2719:2743   */\n      tag_108\n        /* \"#utility.yul\":2737:2742   */\n      dup2\n        /* \"#utility.yul\":2719:2743   */\n      tag_63\n      jump\t// in\n    tag_108:\n        /* \"#utility.yul\":2712:2717   */\n      dup2\n        /* \"#utility.yul\":2709:2744   */\n      eq\n        /* \"#utility.yul\":2699:2762   */\n      tag_109\n      jumpi\n        /* \"#utility.yul\":2758:2759   */\n      0x00\n        /* \"#utility.yul\":2755:2756   */\n      dup1\n        /* \"#utility.yul\":2748:2760   */\n      revert\n        /* \"#utility.yul\":2699:2762   */\n    tag_109:\n        /* \"#utility.yul\":2646:2768   */\n      pop\n      jump\t// out\n        /* \"#utility.yul\":2774:2913   */\n    tag_72:\n        /* \"#utility.yul\":2820:2825   */\n      0x00\n        /* \"#utility.yul\":2858:2864   */\n      dup2\n        /* \"#utility.yul\":2845:2865   */\n      calldataload\n        /* \"#utility.yul\":2836:2865   */\n      swap1\n      pop\n        /* \"#utility.yul\":2874:2907   */\n      tag_111\n        /* \"#utility.yul\":2901:2906   */\n      dup2\n        /* \"#utility.yul\":2874:2907   */\n      tag_71\n      jump\t// in\n    tag_111:\n        /* \"#utility.yul\":2774:2913   */\n      swap3\n      swap2\n      pop\n      pop\n      jump\t// out\n        /* \"#utility.yul\":2919:3393   */\n    tag_21:\n        /* \"#utility.yul\":2987:2993   */\n      0x00\n        /* \"#utility.yul\":2995:3001   */\n      dup1\n        /* \"#utility.yul\":3044:3046   */\n      0x40\n        /* \"#utility.yul\":3032:3041   */\n      dup4\n        /* \"#utility.yul\":3023:3030   */\n      dup6\n        /* \"#utility.yul\":3019:3042   */\n      sub\n        /* \"#utility.yul\":3015:3047   */\n      slt\n        /* \"#utility.yul\":3012:3131   */\n      iszero\n      tag_113\n      jumpi\n        /* \"#utility.yul\":3050:3129   */\n      tag_114\n      tag_60\n      jump\t// in\n    tag_114:\n        /* \"#utility.yul\":3012:3131   */\n    tag_113:\n        /* \"#utility.yul\":3170:3171   */\n      0x00\n        /* \"#utility.yul\":3195:3248   */\n      tag_115\n        /* \"#utility.yul\":3240:3247   */\n      dup6\n        /* \"#utility.yul\":3231:3237   */\n      dup3\n        /* \"#utility.yul\":3220:3229   */\n      dup7\n        /* \"#utility.yul\":3216:3238   */\n      add\n        /* \"#utility.yul\":3195:3248   */\n      tag_72\n      jump\t// in\n    tag_115:\n        /* \"#utility.yul\":3185:3248   */\n      swap3\n      pop\n        /* \"#utility.yul\":3141:3258   */\n      pop\n        /* \"#utility.yul\":3297:3299   */\n      0x20\n        /* \"#utility.yul\":3323:3376   */\n      tag_116\n        /* \"#utility.yul\":3368:3375   */\n      dup6\n        /* \"#utility.yul\":3359:3365   */\n      dup3\n        /* \"#utility.yul\":3348:3357   */\n      dup7\n        /* \"#utility.yul\":3344:3366   */\n      add\n        /* \"#utility.yul\":3323:3376   */\n      tag_69\n      jump\t// in\n    tag_116:\n        /* \"#utility.yul\":3313:3376   */\n      swap2\n      pop\n        /* \"#utility.yul\":3268:3386   */\n      pop\n        /* \"#utility.yul\":2919:3393   */\n      swap3\n      pop\n      swap3\n      swap1\n      pop\n      jump\t// out\n        /* \"#utility.yul\":3399:3728   */\n    tag_26:\n        /* \"#utility.yul\":3458:3464   */\n      0x00\n        /* \"#utility.yul\":3507:3509   */\n      0x20\n        /* \"#utility.yul\":3495:3504   */\n      dup3\n        /* \"#utility.yul\":3486:3493   */\n      dup5\n        /* \"#utility.yul\":3482:3505   */\n      sub\n        /* \"#utility.yul\":3478:3510   */\n      slt\n        /* \"#utility.yul\":3475:3594   */\n      iszero\n      tag_118\n      jumpi\n        /* \"#utility.yul\":3513:3592   */\n      tag_119\n      tag_60\n      jump\t// in\n    tag_119:\n        /* \"#utility.yul\":3475:3594   */\n    tag_118:\n        /* \"#utility.yul\":3633:3634   */\n      0x00\n        /* \"#utility.yul\":3658:3711   */\n      tag_120\n        /* \"#utility.yul\":3703:3710   */\n      dup5\n        /* \"#utility.yul\":3694:3700   */\n      dup3\n        /* \"#utility.yul\":3683:3692   */\n      dup6\n        /* \"#utility.yul\":3679:3701   */\n      add\n        /* \"#utility.yul\":3658:3711   */\n      tag_72\n      jump\t// in\n    tag_120:\n        /* \"#utility.yul\":3648:3711   */\n      swap2\n      pop\n        /* \"#utility.yul\":3604:3721   */\n      pop\n        /* \"#utility.yul\":3399:3728   */\n      swap3\n      swap2\n      pop\n      pop\n      jump\t// out\n        /* \"#utility.yul\":3734:4066   */\n    tag_29:\n        /* \"#utility.yul\":3855:3859   */\n      0x00\n        /* \"#utility.yul\":3893:3895   */\n      0x40\n        /* \"#utility.yul\":3882:3891   */\n      dup3\n        /* \"#utility.yul\":3878:3896   */\n      add\n        /* \"#utility.yul\":3870:3896   */\n      swap1\n      pop\n        /* \"#utility.yul\":3906:3977   */\n      tag_122\n        /* \"#utility.yul\":3974:3975   */\n      0x00\n        /* \"#utility.yul\":3963:3972   */\n      dup4\n        /* \"#utility.yul\":3959:3976   */\n      add\n        /* \"#utility.yul\":3950:3956   */\n      dup6\n        /* \"#utility.yul\":3906:3977   */\n      tag_70\n      jump\t// in\n    tag_122:\n        /* \"#utility.yul\":3987:4059   */\n      tag_123\n        /* \"#utility.yul\":4055:4057   */\n      0x20\n        /* \"#utility.yul\":4044:4053   */\n      dup4\n        /* \"#utility.yul\":4040:4058   */\n      add\n        /* \"#utility.yul\":4031:4037   */\n      dup5\n        /* \"#utility.yul\":3987:4059   */\n      tag_70\n      jump\t// in\n    tag_123:\n        /* \"#utility.yul\":3734:4066   */\n      swap4\n      swap3\n      pop\n      pop\n      pop\n      jump\t// out\n        /* \"#utility.yul\":4072:4215   */\n    tag_73:\n        /* \"#utility.yul\":4129:4134   */\n      0x00\n        /* \"#utility.yul\":4160:4166   */\n      dup2\n        /* \"#utility.yul\":4154:4167   */\n      mload\n        /* \"#utility.yul\":4145:4167   */\n      swap1\n      pop\n        /* \"#utility.yul\":4176:4209   */\n      tag_125\n        /* \"#utility.yul\":4203:4208   */\n      dup2\n        /* \"#utility.yul\":4176:4209   */\n      tag_68\n      jump\t// in\n    tag_125:\n        /* \"#utility.yul\":4072:4215   */\n      swap3\n      swap2\n      pop\n      pop\n      jump\t// out\n        /* \"#utility.yul\":4221:4572   */\n    tag_43:\n        /* \"#utility.yul\":4291:4297   */\n      0x00\n        /* \"#utility.yul\":4340:4342   */\n      0x20\n        /* \"#utility.yul\":4328:4337   */\n      dup3\n        /* \"#utility.yul\":4319:4326   */\n      dup5\n        /* \"#utility.yul\":4315:4338   */\n      sub\n        /* \"#utility.yul\":4311:4343   */\n      slt\n        /* \"#utility.yul\":4308:4427   */\n      iszero\n      tag_127\n      jumpi\n        /* \"#utility.yul\":4346:4425   */\n      tag_128\n      tag_60\n      jump\t// in\n    tag_128:\n        /* \"#utility.yul\":4308:4427   */\n    tag_127:\n        /* \"#utility.yul\":4466:4467   */\n      0x00\n        /* \"#utility.yul\":4491:4555   */\n      tag_129\n        /* \"#utility.yul\":4547:4554   */\n      dup5\n        /* \"#utility.yul\":4538:4544   */\n      dup3\n        /* \"#utility.yul\":4527:4536   */\n      dup6\n        /* \"#utility.yul\":4523:4545   */\n      add\n        /* \"#utility.yul\":4491:4555   */\n      tag_73\n      jump\t// in\n    tag_129:\n        /* \"#utility.yul\":4481:4555   */\n      swap2\n      pop\n        /* \"#utility.yul\":4437:4565   */\n      pop\n        /* \"#utility.yul\":4221:4572   */\n      swap3\n      swap2\n      pop\n      pop\n      jump\t// out\n        /* \"#utility.yul\":4578:5085   */\n    tag_53:\n        /* \"#utility.yul\":4657:4663   */\n      0x00\n        /* \"#utility.yul\":4665:4671   */\n      dup1\n        /* \"#utility.yul\":4714:4716   */\n      0x40\n        /* \"#utility.yul\":4702:4711   */\n      dup4\n        /* \"#utility.yul\":4693:4700   */\n      dup6\n        /* \"#utility.yul\":4689:4712   */\n      sub\n        /* \"#utility.yul\":4685:4717   */\n      slt\n        /* \"#utility.yul\":4682:4801   */\n      iszero\n      tag_131\n      jumpi\n        /* \"#utility.yul\":4720:4799   */\n      tag_132\n      tag_60\n      jump\t// in\n    tag_132:\n        /* \"#utility.yul\":4682:4801   */\n    tag_131:\n        /* \"#utility.yul\":4840:4841   */\n      0x00\n        /* \"#utility.yul\":4865:4929   */\n      tag_133\n        /* \"#utility.yul\":4921:4928   */\n      dup6\n        /* \"#utility.yul\":4912:4918   */\n      dup3\n        /* \"#utility.yul\":4901:4910   */\n      dup7\n        /* \"#utility.yul\":4897:4919   */\n      add\n        /* \"#utility.yul\":4865:4929   */\n      tag_73\n      jump\t// in\n    tag_133:\n        /* \"#utility.yul\":4855:4929   */\n      swap3\n      pop\n        /* \"#utility.yul\":4811:4939   */\n      pop\n        /* \"#utility.yul\":4978:4980   */\n      0x20\n        /* \"#utility.yul\":5004:5068   */\n      tag_134\n        /* \"#utility.yul\":5060:5067   */\n      dup6\n        /* \"#utility.yul\":5051:5057   */\n      dup3\n        /* \"#utility.yul\":5040:5049   */\n      dup7\n        /* \"#utility.yul\":5036:5058   */\n      add\n        /* \"#utility.yul\":5004:5068   */\n      tag_73\n      jump\t// in\n    tag_134:\n        /* \"#utility.yul\":4994:5068   */\n      swap2\n      pop\n        /* \"#utility.yul\":4949:5078   */\n      pop\n        /* \"#utility.yul\":4578:5085   */\n      swap3\n      pop\n      swap3\n      swap1\n      pop\n      jump\t// out\n\n    auxdata: 0xa2646970667358221220ac5e60e96aff1929b86daabf6e0a4f54d716399f5487c9c3aefed2996136ed7064736f6c63430008120033\n}\n",
				"bytecode": {
					"linkReferences": {},
					"object": "608060405234801561001057600080fd5b50610638806100206000396000f3fe60806040526004361061004a5760003560e01c8063169f449e1461004f57806324c4b45a1461006b5780635a5f2295146100a8578063b42f1b97146100d1578063b79630f41461010f575b600080fd5b61006960048036038101906100649190610427565b610138565b005b34801561007757600080fd5b50610092600480360381019061008d9190610467565b6101a8565b60405161009f91906104a3565b60405180910390f35b3480156100b457600080fd5b506100cf60048036038101906100ca91906104ea565b610220565b005b3480156100dd57600080fd5b506100f860048036038101906100f3919061052a565b61028f565b604051610106929190610557565b60405180910390f35b34801561011b57600080fd5b5061013660048036038101906101319190610427565b61030d565b005b8173ffffffffffffffffffffffffffffffffffffffff1663c9c4e00f34836040518363ffffffff1660e01b815260040161017291906104a3565b6000604051808303818588803b15801561018b57600080fd5b505af115801561019f573d6000803e3d6000fd5b50505050505050565b60008173ffffffffffffffffffffffffffffffffffffffff16635197c7aa6040518163ffffffff1660e01b8152600401602060405180830381865afa1580156101f5573d6000803e3d6000fd5b505050506040513d601f19601f820116820180604052508101906102199190610595565b9050919050565b8173ffffffffffffffffffffffffffffffffffffffff16634018d9aa826040518263ffffffff1660e01b815260040161025991906104a3565b600060405180830381600087803b15801561027357600080fd5b505af1158015610287573d6000803e3d6000fd5b505050505050565b6000808273ffffffffffffffffffffffffffffffffffffffff16632b5d60866040518163ffffffff1660e01b81526004016040805180830381865afa1580156102dc573d6000803e3d6000fd5b505050506040513d601f19601f8201168201806040525081019061030091906105c2565b8092508193505050915091565b8173ffffffffffffffffffffffffffffffffffffffff16634018d9aa826040518263ffffffff1660e01b815260040161034691906104a3565b600060405180830381600087803b15801561036057600080fd5b505af1158015610374573d6000803e3d6000fd5b505050505050565b600080fd5b600073ffffffffffffffffffffffffffffffffffffffff82169050919050565b60006103ac82610381565b9050919050565b60006103be826103a1565b9050919050565b6103ce816103b3565b81146103d957600080fd5b50565b6000813590506103eb816103c5565b92915050565b6000819050919050565b610404816103f1565b811461040f57600080fd5b50565b600081359050610421816103fb565b92915050565b6000806040838503121561043e5761043d61037c565b5b600061044c858286016103dc565b925050602061045d85828601610412565b9150509250929050565b60006020828403121561047d5761047c61037c565b5b600061048b848285016103dc565b91505092915050565b61049d816103f1565b82525050565b60006020820190506104b86000830184610494565b92915050565b6104c7816103a1565b81146104d257600080fd5b50565b6000813590506104e4816104be565b92915050565b600080604083850312156105015761050061037c565b5b600061050f858286016104d5565b925050602061052085828601610412565b9150509250929050565b6000602082840312156105405761053f61037c565b5b600061054e848285016104d5565b91505092915050565b600060408201905061056c6000830185610494565b6105796020830184610494565b9392505050565b60008151905061058f816103fb565b92915050565b6000602082840312156105ab576105aa61037c565b5b60006105b984828501610580565b91505092915050565b600080604083850312156105d9576105d861037c565b5b60006105e785828601610580565b92505060206105f885828601610580565b915050925092905056fea2646970667358221220ac5e60e96aff1929b86daabf6e0a4f54d716399f5487c9c3aefed2996136ed7064736f6c63430008120033",
					"opcodes": "PUSH1 0x80 PUSH1 0x40 MSTORE CALLVALUE DUP1 ISZERO PUSH2 0x10 JUMPI PUSH1 0x0 DUP1 REVERT JUMPDEST POP PUSH2 0x638 DUP1 PUSH2 0x20 PUSH1 0x0 CODECOPY PUSH1 0x0 RETURN INVALID PUSH1 0x80 PUSH1 0x40 MSTORE PUSH1 0x4 CALLDATASIZE LT PUSH2 0x4A JUMPI PUSH1 0x0 CALLDATALOAD PUSH1 0xE0 SHR DUP1 PUSH4 0x169F449E EQ PUSH2 0x4F JUMPI DUP1 PUSH4 0x24C4B45A EQ PUSH2 0x6B JUMPI DUP1 PUSH4 0x5A5F2295 EQ PUSH2 0xA8 JUMPI DUP1 PUSH4 0xB42F1B97 EQ PUSH2 0xD1 JUMPI DUP1 PUSH4 0xB79630F4 EQ PUSH2 0x10F JUMPI JUMPDEST PUSH1 0x0 DUP1 REVERT JUMPDEST PUSH2 0x69 PUSH1 0x4 DUP1 CALLDATASIZE SUB DUP2 ADD SWAP1 PUSH2 0x64 SWAP2 SWAP1 PUSH2 0x427 JUMP JUMPDEST PUSH2 0x138 JUMP JUMPDEST STOP JUMPDEST CALLVALUE DUP1 ISZERO PUSH2 0x77 JUMPI PUSH1 0x0 DUP1 REVERT JUMPDEST POP PUSH2 0x92 PUSH1 0x4 DUP1 CALLDATASIZE SUB DUP2 ADD SWAP1 PUSH2 0x8D SWAP2 SWAP1 PUSH2 0x467 JUMP JUMPDEST PUSH2 0x1A8 JUMP JUMPDEST PUSH1 0x40 MLOAD PUSH2 0x9F SWAP2 SWAP1 PUSH2 0x4A3 JUMP JUMPDEST PUSH1 0x40 MLOAD DUP1 SWAP2 SUB SWAP1 RETURN JUMPDEST CALLVALUE DUP1 ISZERO PUSH2 0xB4 JUMPI PUSH1 0x0 DUP1 REVERT JUMPDEST POP PUSH2 0xCF PUSH1 0x4 DUP1 CALLDATASIZE SUB DUP2 ADD SWAP1 PUSH2 0xCA SWAP2 SWAP1 PUSH2 0x4EA JUMP JUMPDEST PUSH2 0x220 JUMP JUMPDEST STOP JUMPDEST CALLVALUE DUP1 ISZERO PUSH2 0xDD JUMPI PUSH1 0x0 DUP1 REVERT JUMPDEST POP PUSH2 0xF8 PUSH1 0x4 DUP1 CALLDATASIZE SUB DUP2 ADD SWAP1 PUSH2 0xF3 SWAP2 SWAP1 PUSH2 0x52A JUMP JUMPDEST PUSH2 0x28F JUMP JUMPDEST PUSH1 0x40 MLOAD PUSH2 0x106 SWAP3 SWAP2 SWAP1 PUSH2 0x557 JUMP JUMPDEST PUSH1 0x40 MLOAD DUP1 SWAP2 SUB SWAP1 RETURN JUMPDEST CALLVALUE DUP1 ISZERO PUSH2 0x11B JUMPI PUSH1 0x0 DUP1 REVERT JUMPDEST POP PUSH2 0x136 PUSH1 0x4 DUP1 CALLDATASIZE SUB DUP2 ADD SWAP1 PUSH2 0x131 SWAP2 SWAP1 PUSH2 0x427 JUMP JUMPDEST PUSH2 0x30D JUMP JUMPDEST STOP JUMPDEST DUP2 PUSH20 0xFFFFFFFFFFFFFFFFFFFFFFFFFFFFFFFFFFFFFFFF AND PUSH4 0xC9C4E00F CALLVALUE DUP4 PUSH1 0x40 MLOAD DUP4 PUSH4 0xFFFFFFFF AND PUSH1 0xE0 SHL DUP2 MSTORE PUSH1 0x4 ADD PUSH2 0x172 SWAP2 SWAP1 PUSH2 0x4A3 JUMP JUMPDEST PUSH1 0x0 PUSH1 0x40 MLOAD DUP1 DUP4 SUB DUP2 DUP6 DUP9 DUP1 EXTCODESIZE ISZERO DUP1 ISZERO PUSH2 0x18B JUMPI PUSH1 0x0 DUP1 REVERT JUMPDEST POP GAS CALL ISZERO DUP1 ISZERO PUSH2 0x19F JUMPI RETURNDATASIZE PUSH1 0x0 DUP1 RETURNDATACOPY RETURNDATASIZE PUSH1 0x0 REVERT JUMPDEST POP POP POP POP POP POP POP JUMP JUMPDEST PUSH1 0x0 DUP2 PUSH20 0xFFFFFFFFFFFFFFFFFFFFFFFFFFFFFFFFFFFFFFFF AND PUSH4 0x5197C7AA PUSH1 0x40 MLOAD DUP2 PUSH4 0xFFFFFFFF AND PUSH1 0xE0 SHL DUP2 MSTORE PUSH1 0x4 ADD PUSH1 0x20 PUSH1 0x40 MLOAD DUP1 DUP4 SUB DUP2 DUP7 GAS STATICCALL ISZERO DUP1 ISZERO PUSH2 0x1F5 JUMPI RETURNDATASIZE PUSH1 0x0 DUP1 RETURNDATACOPY RETURNDATASIZE PUSH1 0x0 REVERT JUMPDEST POP POP POP POP PUSH1 0x40 MLOAD RETURNDATASIZE PUSH1 0x1F NOT PUSH1 0x1F DUP3 ADD AND DUP3 ADD DUP1 PUSH1 0x40 MSTORE POP DUP2 ADD SWAP1 PUSH2 0x219 SWAP2 SWAP1 PUSH2 0x595 JUMP JUMPDEST SWAP1 POP SWAP2 SWAP1 POP JUMP JUMPDEST DUP2 PUSH20 0xFFFFFFFFFFFFFFFFFFFFFFFFFFFFFFFFFFFFFFFF AND PUSH4 0x4018D9AA DUP3 PUSH1 0x40 MLOAD DUP3 PUSH4 0xFFFFFFFF AND PUSH1 0xE0 SHL DUP2 MSTORE PUSH1 0x4 ADD PUSH2 0x259 SWAP2 SWAP1 PUSH2 0x4A3 JUMP JUMPDEST PUSH1 0x0 PUSH1 0x40 MLOAD DUP1 DUP4 SUB DUP2 PUSH1 0x0 DUP8 DUP1 EXTCODESIZE ISZERO DUP1 ISZERO PUSH2 0x273 JUMPI PUSH1 0x0 DUP1 REVERT JUMPDEST POP GAS CALL ISZERO DUP1 ISZERO PUSH2 0x287 JUMPI RETURNDATASIZE PUSH1 0x0 DUP1 RETURNDATACOPY RETURNDATASIZE PUSH1 0x0 REVERT JUMPDEST POP POP POP POP POP POP JUMP JUMPDEST PUSH1 0x0 DUP1 DUP3 PUSH20 0xFFFFFFFFFFFFFFFFFFFFFFFFFFFFFFFFFFFFFFFF AND PUSH4 0x2B5D6086 PUSH1 0x40 MLOAD DUP2 PUSH4 0xFFFFFFFF AND PUSH1 0xE0 SHL DUP2 MSTORE PUSH1 0x4 ADD PUSH1 0x40 DUP1 MLOAD DUP1 DUP4 SUB DUP2 DUP7 GAS STATICCALL ISZERO DUP1 ISZERO PUSH2 0x2DC JUMPI RETURNDATASIZE PUSH1 0x0 DUP1 RETURNDATACOPY RETURNDATASIZE PUSH1 0x0 REVERT JUMPDEST POP POP POP POP PUSH1 0x40 MLOAD RETURNDATASIZE PUSH1 0x1F NOT PUSH1 0x1F DUP3 ADD AND DUP3 ADD DUP1 PUSH1 0x40 MSTORE POP DUP2 ADD SWAP1 PUSH2 0x300 SWAP2 SWAP1 PUSH2 0x5C2 JUMP JUMPDEST DUP1 SWAP3 POP DUP2 SWAP4 POP POP POP SWAP2 POP SWAP2 JUMP JUMPDEST DUP2 PUSH20 0xFFFFFFFFFFFFFFFFFFFFFFFFFFFFFFFFFFFFFFFF AND PUSH4 0x4018D9AA DUP3 PUSH1 0x40 MLOAD DUP3 PUSH4 0xFFFFFFFF AND PUSH1 0xE0 SHL DUP2 MSTORE PUSH1 0x4 ADD PUSH2 0x346 SWAP2 SWAP1 PUSH2 0x4A3 JUMP JUMPDEST PUSH1 0x0 PUSH1 0x40 MLOAD DUP1 DUP4 SUB DUP2 PUSH1 0x0 DUP8 DUP1 EXTCODESIZE ISZERO DUP1 ISZERO PUSH2 0x360 JUMPI PUSH1 0x0 DUP1 REVERT JUMPDEST POP GAS CALL ISZERO DUP1 ISZERO PUSH2 0x374 JUMPI RETURNDATASIZE PUSH1 0x0 DUP1 RETURNDATACOPY RETURNDATASIZE PUSH1 0x0 REVERT JUMPDEST POP POP POP POP POP POP JUMP JUMPDEST PUSH1 0x0 DUP1 REVERT JUMPDEST PUSH1 0x0 PUSH20 0xFFFFFFFFFFFFFFFFFFFFFFFFFFFFFFFFFFFFFFFF DUP3 AND SWAP1 POP SWAP2 SWAP1 POP JUMP JUMPDEST PUSH1 0x0 PUSH2 0x3AC DUP3 PUSH2 0x381 JUMP JUMPDEST SWAP1 POP SWAP2 SWAP1 POP JUMP JUMPDEST PUSH1 0x0 PUSH2 0x3BE DUP3 PUSH2 0x3A1 JUMP JUMPDEST SWAP1 POP SWAP2 SWAP1 POP JUMP JUMPDEST PUSH2 0x3CE DUP2 PUSH2 0x3B3 JUMP JUMPDEST DUP2 EQ PUSH2 0x3D9 JUMPI PUSH1 0x0 DUP1 REVERT JUMPDEST POP JUMP JUMPDEST PUSH1 0x0 DUP2 CALLDATALOAD SWAP1 POP PUSH2 0x3EB DUP2 PUSH2 0x3C5 JUMP JUMPDEST SWAP3 SWAP2 POP POP JUMP JUMPDEST PUSH1 0x0 DUP2 SWAP1 POP SWAP2 SWAP1 POP JUMP JUMPDEST PUSH2 0x404 DUP2 PUSH2 0x3F1 JUMP JUMPDEST DUP2 EQ PUSH2 0x40F JUMPI PUSH1 0x0 DUP1 REVERT JUMPDEST POP JUMP JUMPDEST PUSH1 0x0 DUP2 CALLDATALOAD SWAP1 POP PUSH2 0x421 DUP2 PUSH2 0x3FB JUMP JUMPDEST SWAP3 SWAP2 POP POP JUMP JUMPDEST PUSH1 0x0 DUP1 PUSH1 0x40 DUP4 DUP6 SUB SLT ISZERO PUSH2 0x43E JUMPI PUSH2 0x43D PUSH2 0x37C JUMP JUMPDEST JUMPDEST PUSH1 0x0 PUSH2 0x44C DUP6 DUP3 DUP7 ADD PUSH2 0x3DC JUMP JUMPDEST SWAP3 POP POP PUSH1 0x20 PUSH2 0x45D DUP6 DUP3 DUP7 ADD PUSH2 0x412 JUMP JUMPDEST SWAP2 POP POP SWAP3 POP SWAP3 SWAP1 POP JUMP JUMPDEST PUSH1 0x0 PUSH1 0x20 DUP3 DUP5 SUB SLT ISZERO PUSH2 0x47D JUMPI PUSH2 0x47C PUSH2 0x37C JUMP JUMPDEST JUMPDEST PUSH1 0x0 PUSH2 0x48B DUP5 DUP3 DUP6 ADD PUSH2 0x3DC JUMP JUMPDEST SWAP2 POP POP SWAP3 SWAP2 POP POP JUMP JUMPDEST PUSH2 0x49D DUP2 PUSH2 0x3F1 JUMP JUMPDEST DUP3 MSTORE POP POP JUMP JUMPDEST PUSH1 0x0 PUSH1 0x20 DUP3 ADD SWAP1 POP PUSH2 0x4B8 PUSH1 0x0 DUP4 ADD DUP5 PUSH2 0x494 JUMP JUMPDEST SWAP3 SWAP2 POP POP JUMP JUMPDEST PUSH2 0x4C7 DUP2 PUSH2 0x3A1 JUMP JUMPDEST DUP2 EQ PUSH2 0x4D2 JUMPI PUSH1 0x0 DUP1 REVERT JUMPDEST POP JUMP JUMPDEST PUSH1 0x0 DUP2 CALLDATALOAD SWAP1 POP PUSH2 0x4E4 DUP2 PUSH2 0x4BE JUMP JUMPDEST SWAP3 SWAP2 POP POP JUMP JUMPDEST PUSH1 0x0 DUP1 PUSH1 0x40 DUP4 DUP6 SUB SLT ISZERO PUSH2 0x501 JUMPI PUSH2 0x500 PUSH2 0x37C JUMP JUMPDEST JUMPDEST PUSH1 0x0 PUSH2 0x50F DUP6 DUP3 DUP7 ADD PUSH2 0x4D5 JUMP JUMPDEST SWAP3 POP POP PUSH1 0x20 PUSH2 0x520 DUP6 DUP3 DUP7 ADD PUSH2 0x412 JUMP JUMPDEST SWAP2 POP POP SWAP3 POP SWAP3 SWAP1 POP JUMP JUMPDEST PUSH1 0x0 PUSH1 0x20 DUP3 DUP5 SUB SLT ISZERO PUSH2 0x540 JUMPI PUSH2 0x53F PUSH2 0x37C JUMP JUMPDEST JUMPDEST PUSH1 0x0 PUSH2 0x54E DUP5 DUP3 DUP6 ADD PUSH2 0x4D5 JUMP JUMPDEST SWAP2 POP POP SWAP3 SWAP2 POP POP JUMP JUMPDEST PUSH1 0x0 PUSH1 0x40 DUP3 ADD SWAP1 POP PUSH2 0x56C PUSH1 0x0 DUP4 ADD DUP6 PUSH2 0x494 JUMP JUMPDEST PUSH2 0x579 PUSH1 0x20 DUP4 ADD DUP5 PUSH2 0x494 JUMP JUMPDEST SWAP4 SWAP3 POP POP POP JUMP JUMPDEST PUSH1 0x0 DUP2 MLOAD SWAP1 POP PUSH2 0x58F DUP2 PUSH2 0x3FB JUMP JUMPDEST SWAP3 SWAP2 POP POP JUMP JUMPDEST PUSH1 0x0 PUSH1 0x20 DUP3 DUP5 SUB SLT ISZERO PUSH2 0x5AB JUMPI PUSH2 0x5AA PUSH2 0x37C JUMP JUMPDEST JUMPDEST PUSH1 0x0 PUSH2 0x5B9 DUP5 DUP3 DUP6 ADD PUSH2 0x580 JUMP JUMPDEST SWAP2 POP POP SWAP3 SWAP2 POP POP JUMP JUMPDEST PUSH1 0x0 DUP1 PUSH1 0x40 DUP4 DUP6 SUB SLT ISZERO PUSH2 0x5D9 JUMPI PUSH2 0x5D8 PUSH2 0x37C JUMP JUMPDEST JUMPDEST PUSH1 0x0 PUSH2 0x5E7 DUP6 DUP3 DUP7 ADD PUSH2 0x580 JUMP JUMPDEST SWAP3 POP POP PUSH1 0x20 PUSH2 0x5F8 DUP6 DUP3 DUP7 ADD PUSH2 0x580 JUMP JUMPDEST SWAP2 POP POP SWAP3 POP SWAP3 SWAP1 POP JUMP INVALID LOG2 PUSH5 0x6970667358 0x22 SLT KECCAK256 0xAC 0x5E PUSH1 0xE9 PUSH11 0xFF1929B86DAABF6E0A4F54 0xD7 AND CODECOPY SWAP16 SLOAD DUP8 0xC9 0xC3 0xAE INVALID 0xD2 SWAP10 PUSH2 0x36ED PUSH17 0x64736F6C63430008120033000000000000 "
				},
				"gasEstimates": {
					"creation": {
						"codeDepositCost": "318400",
						"executionCost": "355",
						"totalCost": "318755"
					},
					"external": {
						"get1(address)": "infinite",
						"getXAndValue1(address)": "infinite",
						"set1(address,uint256)": "infinite",
						"set2(address,uint256)": "infinite",
						"setXAndGetEth1(address,uint256)": "infinite"
					}
				},
				"methodIdentifiers": {
					"get1(address)": "24c4b45a",
					"getXAndValue1(address)": "b42f1b97",
					"set1(address,uint256)": "5a5f2295",
					"set2(address,uint256)": "b79630f4",
					"setXAndGetEth1(address,uint256)": "169f449e"
				}
			},
			"storageLayout": {
				"storage": [],
				"types": null
			},
			"userdoc": {
				"kind": "user",
				"methods": {},
				"version": 1
			}
		}
	}
}