{
	"contracts/advance solidity/calling contract from other contract/calling-contract-from-other-practice.sol": {
		"testContract": {
			"abi": [
				{
					"inputs": [],
					"name": "getX",
					"outputs": [
						{
							"internalType": "uint256",
							"name": "_x",
							"type": "uint256"
						}
					],
					"stateMutability": "view",
					"type": "function"
				},
				{
					"inputs": [],
					"name": "getXandValue",
					"outputs": [
						{
							"internalType": "uint256",
							"name": "_x",
							"type": "uint256"
						},
						{
							"internalType": "uint256",
							"name": "_value",
							"type": "uint256"
						}
					],
					"stateMutability": "view",
					"type": "function"
				},
				{
					"inputs": [
						{
							"internalType": "uint256",
							"name": "_x",
							"type": "uint256"
						}
					],
					"name": "setX",
					"outputs": [],
					"stateMutability": "nonpayable",
					"type": "function"
				},
				{
					"inputs": [
						{
							"internalType": "uint256",
							"name": "_x",
							"type": "uint256"
						}
					],
					"name": "setXAndTransferEth",
					"outputs": [],
					"stateMutability": "payable",
					"type": "function"
				}
			],
			"devdoc": {
				"kind": "dev",
				"methods": {},
				"version": 1
			},
			"evm": {
				"assembly": "    /* \"contracts/advance solidity/calling contract from other contract/calling-contract-from-other-practice.sol\":851:1334  contract testContract {... */\n  mstore(0x40, 0x80)\n  callvalue\n  dup1\n  iszero\n  tag_1\n  jumpi\n  0x00\n  dup1\n  revert\ntag_1:\n  pop\n  dataSize(sub_0)\n  dup1\n  dataOffset(sub_0)\n  0x00\n  codecopy\n  0x00\n  return\nstop\n\nsub_0: assembly {\n        /* \"contracts/advance solidity/calling contract from other contract/calling-contract-from-other-practice.sol\":851:1334  contract testContract {... */\n      mstore(0x40, 0x80)\n      jumpi(tag_1, lt(calldatasize, 0x04))\n      shr(0xe0, calldataload(0x00))\n      dup1\n      0x4018d9aa\n      eq\n      tag_2\n      jumpi\n      dup1\n      0x5197c7aa\n      eq\n      tag_3\n      jumpi\n      dup1\n      0xd6c7a3be\n      eq\n      tag_4\n      jumpi\n      dup1\n      0xf1340681\n      eq\n      tag_5\n      jumpi\n    tag_1:\n      0x00\n      dup1\n      revert\n        /* \"contracts/advance solidity/calling contract from other contract/calling-contract-from-other-practice.sol\":927:982  function setX(uint _x) external {... */\n    tag_2:\n      callvalue\n      dup1\n      iszero\n      tag_6\n      jumpi\n      0x00\n      dup1\n      revert\n    tag_6:\n      pop\n      tag_7\n      0x04\n      dup1\n      calldatasize\n      sub\n      dup2\n      add\n      swap1\n      tag_8\n      swap2\n      swap1\n      tag_9\n      jump\t// in\n    tag_8:\n      tag_10\n      jump\t// in\n    tag_7:\n      stop\n        /* \"contracts/advance solidity/calling contract from other contract/calling-contract-from-other-practice.sol\":990:1061  function getX() external view returns(uint _x){... */\n    tag_3:\n      callvalue\n      dup1\n      iszero\n      tag_11\n      jumpi\n      0x00\n      dup1\n      revert\n    tag_11:\n      pop\n      tag_12\n      tag_13\n      jump\t// in\n    tag_12:\n      mload(0x40)\n      tag_14\n      swap2\n      swap1\n      tag_15\n      jump\t// in\n    tag_14:\n      mload(0x40)\n      dup1\n      swap2\n      sub\n      swap1\n      return\n        /* \"contracts/advance solidity/calling contract from other contract/calling-contract-from-other-practice.sol\":1197:1327  function getXandValue() external view returns(uint _x, uint _value){... */\n    tag_4:\n      callvalue\n      dup1\n      iszero\n      tag_16\n      jumpi\n      0x00\n      dup1\n      revert\n    tag_16:\n      pop\n      tag_17\n      tag_18\n      jump\t// in\n    tag_17:\n      mload(0x40)\n      tag_19\n      swap3\n      swap2\n      swap1\n      tag_20\n      jump\t// in\n    tag_19:\n      mload(0x40)\n      dup1\n      swap2\n      sub\n      swap1\n      return\n        /* \"contracts/advance solidity/calling contract from other contract/calling-contract-from-other-practice.sol\":1069:1189  function setXAndTransferEth(uint _x) external payable {... */\n    tag_5:\n      tag_21\n      0x04\n      dup1\n      calldatasize\n      sub\n      dup2\n      add\n      swap1\n      tag_22\n      swap2\n      swap1\n      tag_9\n      jump\t// in\n    tag_22:\n      tag_23\n      jump\t// in\n    tag_21:\n      stop\n        /* \"contracts/advance solidity/calling contract from other contract/calling-contract-from-other-practice.sol\":927:982  function setX(uint _x) external {... */\n    tag_10:\n        /* \"contracts/advance solidity/calling contract from other contract/calling-contract-from-other-practice.sol\":972:974  _x */\n      dup1\n        /* \"contracts/advance solidity/calling contract from other contract/calling-contract-from-other-practice.sol\":970:971  x */\n      0x00\n        /* \"contracts/advance solidity/calling contract from other contract/calling-contract-from-other-practice.sol\":970:974  x=_x */\n      dup2\n      swap1\n      sstore\n      pop\n        /* \"contracts/advance solidity/calling contract from other contract/calling-contract-from-other-practice.sol\":927:982  function setX(uint _x) external {... */\n      pop\n      jump\t// out\n        /* \"contracts/advance solidity/calling contract from other contract/calling-contract-from-other-practice.sol\":990:1061  function getX() external view returns(uint _x){... */\n    tag_13:\n        /* \"contracts/advance solidity/calling contract from other contract/calling-contract-from-other-practice.sol\":1028:1035  uint _x */\n      0x00\n        /* \"contracts/advance solidity/calling contract from other contract/calling-contract-from-other-practice.sol\":1052:1053  x */\n      dup1\n      sload\n        /* \"contracts/advance solidity/calling contract from other contract/calling-contract-from-other-practice.sol\":1047:1053  _x = x */\n      swap1\n      pop\n        /* \"contracts/advance solidity/calling contract from other contract/calling-contract-from-other-practice.sol\":990:1061  function getX() external view returns(uint _x){... */\n      swap1\n      jump\t// out\n        /* \"contracts/advance solidity/calling contract from other contract/calling-contract-from-other-practice.sol\":1197:1327  function getXandValue() external view returns(uint _x, uint _value){... */\n    tag_18:\n        /* \"contracts/advance solidity/calling contract from other contract/calling-contract-from-other-practice.sol\":1243:1250  uint _x */\n      0x00\n        /* \"contracts/advance solidity/calling contract from other contract/calling-contract-from-other-practice.sol\":1252:1263  uint _value */\n      dup1\n        /* \"contracts/advance solidity/calling contract from other contract/calling-contract-from-other-practice.sol\":1280:1281  x */\n      sload(0x00)\n        /* \"contracts/advance solidity/calling contract from other contract/calling-contract-from-other-practice.sol\":1275:1281  _x = x */\n      swap2\n      pop\n        /* \"contracts/advance solidity/calling contract from other contract/calling-contract-from-other-practice.sol\":1301:1319  ethValueInContract */\n      sload(0x01)\n        /* \"contracts/advance solidity/calling contract from other contract/calling-contract-from-other-practice.sol\":1292:1319  _value = ethValueInContract */\n      swap1\n      pop\n        /* \"contracts/advance solidity/calling contract from other contract/calling-contract-from-other-practice.sol\":1197:1327  function getXandValue() external view returns(uint _x, uint _value){... */\n      swap1\n      swap2\n      jump\t// out\n        /* \"contracts/advance solidity/calling contract from other contract/calling-contract-from-other-practice.sol\":1069:1189  function setXAndTransferEth(uint _x) external payable {... */\n    tag_23:\n        /* \"contracts/advance solidity/calling contract from other contract/calling-contract-from-other-practice.sol\":1138:1140  _x */\n      dup1\n        /* \"contracts/advance solidity/calling contract from other contract/calling-contract-from-other-practice.sol\":1134:1135  x */\n      0x00\n        /* \"contracts/advance solidity/calling contract from other contract/calling-contract-from-other-practice.sol\":1134:1140  x = _x */\n      dup2\n      swap1\n      sstore\n      pop\n        /* \"contracts/advance solidity/calling contract from other contract/calling-contract-from-other-practice.sol\":1172:1181  msg.value */\n      callvalue\n        /* \"contracts/advance solidity/calling contract from other contract/calling-contract-from-other-practice.sol\":1151:1169  ethValueInContract */\n      0x01\n        /* \"contracts/advance solidity/calling contract from other contract/calling-contract-from-other-practice.sol\":1151:1181  ethValueInContract = msg.value */\n      dup2\n      swap1\n      sstore\n      pop\n        /* \"contracts/advance solidity/calling contract from other contract/calling-contract-from-other-practice.sol\":1069:1189  function setXAndTransferEth(uint _x) external payable {... */\n      pop\n      jump\t// out\n        /* \"#utility.yul\":88:205   */\n    tag_29:\n        /* \"#utility.yul\":197:198   */\n      0x00\n        /* \"#utility.yul\":194:195   */\n      dup1\n        /* \"#utility.yul\":187:199   */\n      revert\n        /* \"#utility.yul\":334:411   */\n    tag_31:\n        /* \"#utility.yul\":371:378   */\n      0x00\n        /* \"#utility.yul\":400:405   */\n      dup2\n        /* \"#utility.yul\":389:405   */\n      swap1\n      pop\n        /* \"#utility.yul\":334:411   */\n      swap2\n      swap1\n      pop\n      jump\t// out\n        /* \"#utility.yul\":417:539   */\n    tag_32:\n        /* \"#utility.yul\":490:514   */\n      tag_41\n        /* \"#utility.yul\":508:513   */\n      dup2\n        /* \"#utility.yul\":490:514   */\n      tag_31\n      jump\t// in\n    tag_41:\n        /* \"#utility.yul\":483:488   */\n      dup2\n        /* \"#utility.yul\":480:515   */\n      eq\n        /* \"#utility.yul\":470:533   */\n      tag_42\n      jumpi\n        /* \"#utility.yul\":529:530   */\n      0x00\n        /* \"#utility.yul\":526:527   */\n      dup1\n        /* \"#utility.yul\":519:531   */\n      revert\n        /* \"#utility.yul\":470:533   */\n    tag_42:\n        /* \"#utility.yul\":417:539   */\n      pop\n      jump\t// out\n        /* \"#utility.yul\":545:684   */\n    tag_33:\n        /* \"#utility.yul\":591:596   */\n      0x00\n        /* \"#utility.yul\":629:635   */\n      dup2\n        /* \"#utility.yul\":616:636   */\n      calldataload\n        /* \"#utility.yul\":607:636   */\n      swap1\n      pop\n        /* \"#utility.yul\":645:678   */\n      tag_44\n        /* \"#utility.yul\":672:677   */\n      dup2\n        /* \"#utility.yul\":645:678   */\n      tag_32\n      jump\t// in\n    tag_44:\n        /* \"#utility.yul\":545:684   */\n      swap3\n      swap2\n      pop\n      pop\n      jump\t// out\n        /* \"#utility.yul\":690:1019   */\n    tag_9:\n        /* \"#utility.yul\":749:755   */\n      0x00\n        /* \"#utility.yul\":798:800   */\n      0x20\n        /* \"#utility.yul\":786:795   */\n      dup3\n        /* \"#utility.yul\":777:784   */\n      dup5\n        /* \"#utility.yul\":773:796   */\n      sub\n        /* \"#utility.yul\":769:801   */\n      slt\n        /* \"#utility.yul\":766:885   */\n      iszero\n      tag_46\n      jumpi\n        /* \"#utility.yul\":804:883   */\n      tag_47\n      tag_29\n      jump\t// in\n    tag_47:\n        /* \"#utility.yul\":766:885   */\n    tag_46:\n        /* \"#utility.yul\":924:925   */\n      0x00\n        /* \"#utility.yul\":949:1002   */\n      tag_48\n        /* \"#utility.yul\":994:1001   */\n      dup5\n        /* \"#utility.yul\":985:991   */\n      dup3\n        /* \"#utility.yul\":974:983   */\n      dup6\n        /* \"#utility.yul\":970:992   */\n      add\n        /* \"#utility.yul\":949:1002   */\n      tag_33\n      jump\t// in\n    tag_48:\n        /* \"#utility.yul\":939:1002   */\n      swap2\n      pop\n        /* \"#utility.yul\":895:1012   */\n      pop\n        /* \"#utility.yul\":690:1019   */\n      swap3\n      swap2\n      pop\n      pop\n      jump\t// out\n        /* \"#utility.yul\":1025:1143   */\n    tag_34:\n        /* \"#utility.yul\":1112:1136   */\n      tag_50\n        /* \"#utility.yul\":1130:1135   */\n      dup2\n        /* \"#utility.yul\":1112:1136   */\n      tag_31\n      jump\t// in\n    tag_50:\n        /* \"#utility.yul\":1107:1110   */\n      dup3\n        /* \"#utility.yul\":1100:1137   */\n      mstore\n        /* \"#utility.yul\":1025:1143   */\n      pop\n      pop\n      jump\t// out\n        /* \"#utility.yul\":1149:1371   */\n    tag_15:\n        /* \"#utility.yul\":1242:1246   */\n      0x00\n        /* \"#utility.yul\":1280:1282   */\n      0x20\n        /* \"#utility.yul\":1269:1278   */\n      dup3\n        /* \"#utility.yul\":1265:1283   */\n      add\n        /* \"#utility.yul\":1257:1283   */\n      swap1\n      pop\n        /* \"#utility.yul\":1293:1364   */\n      tag_52\n        /* \"#utility.yul\":1361:1362   */\n      0x00\n        /* \"#utility.yul\":1350:1359   */\n      dup4\n        /* \"#utility.yul\":1346:1363   */\n      add\n        /* \"#utility.yul\":1337:1343   */\n      dup5\n        /* \"#utility.yul\":1293:1364   */\n      tag_34\n      jump\t// in\n    tag_52:\n        /* \"#utility.yul\":1149:1371   */\n      swap3\n      swap2\n      pop\n      pop\n      jump\t// out\n        /* \"#utility.yul\":1377:1709   */\n    tag_20:\n        /* \"#utility.yul\":1498:1502   */\n      0x00\n        /* \"#utility.yul\":1536:1538   */\n      0x40\n        /* \"#utility.yul\":1525:1534   */\n      dup3\n        /* \"#utility.yul\":1521:1539   */\n      add\n        /* \"#utility.yul\":1513:1539   */\n      swap1\n      pop\n        /* \"#utility.yul\":1549:1620   */\n      tag_54\n        /* \"#utility.yul\":1617:1618   */\n      0x00\n        /* \"#utility.yul\":1606:1615   */\n      dup4\n        /* \"#utility.yul\":1602:1619   */\n      add\n        /* \"#utility.yul\":1593:1599   */\n      dup6\n        /* \"#utility.yul\":1549:1620   */\n      tag_34\n      jump\t// in\n    tag_54:\n        /* \"#utility.yul\":1630:1702   */\n      tag_55\n        /* \"#utility.yul\":1698:1700   */\n      0x20\n        /* \"#utility.yul\":1687:1696   */\n      dup4\n        /* \"#utility.yul\":1683:1701   */\n      add\n        /* \"#utility.yul\":1674:1680   */\n      dup5\n        /* \"#utility.yul\":1630:1702   */\n      tag_34\n      jump\t// in\n    tag_55:\n        /* \"#utility.yul\":1377:1709   */\n      swap4\n      swap3\n      pop\n      pop\n      pop\n      jump\t// out\n\n    auxdata: 0xa2646970667358221220b359e2a8c838b9185d743828ae8162943c4e667925ee169d7650d65edea1bd7b64736f6c63430008120033\n}\n",
				"bytecode": {
					"linkReferences": {},
					"object": "608060405234801561001057600080fd5b50610206806100206000396000f3fe60806040526004361061003f5760003560e01c80634018d9aa146100445780635197c7aa1461006d578063d6c7a3be14610098578063f1340681146100c4575b600080fd5b34801561005057600080fd5b5061006b60048036038101906100669190610150565b6100e0565b005b34801561007957600080fd5b506100826100ea565b60405161008f919061018c565b60405180910390f35b3480156100a457600080fd5b506100ad6100f3565b6040516100bb9291906101a7565b60405180910390f35b6100de60048036038101906100d99190610150565b610104565b005b8060008190555050565b60008054905090565b600080600054915060015490509091565b806000819055503460018190555050565b600080fd5b6000819050919050565b61012d8161011a565b811461013857600080fd5b50565b60008135905061014a81610124565b92915050565b60006020828403121561016657610165610115565b5b60006101748482850161013b565b91505092915050565b6101868161011a565b82525050565b60006020820190506101a1600083018461017d565b92915050565b60006040820190506101bc600083018561017d565b6101c9602083018461017d565b939250505056fea2646970667358221220b359e2a8c838b9185d743828ae8162943c4e667925ee169d7650d65edea1bd7b64736f6c63430008120033",
					"opcodes": "PUSH1 0x80 PUSH1 0x40 MSTORE CALLVALUE DUP1 ISZERO PUSH2 0x10 JUMPI PUSH1 0x0 DUP1 REVERT JUMPDEST POP PUSH2 0x206 DUP1 PUSH2 0x20 PUSH1 0x0 CODECOPY PUSH1 0x0 RETURN INVALID PUSH1 0x80 PUSH1 0x40 MSTORE PUSH1 0x4 CALLDATASIZE LT PUSH2 0x3F JUMPI PUSH1 0x0 CALLDATALOAD PUSH1 0xE0 SHR DUP1 PUSH4 0x4018D9AA EQ PUSH2 0x44 JUMPI DUP1 PUSH4 0x5197C7AA EQ PUSH2 0x6D JUMPI DUP1 PUSH4 0xD6C7A3BE EQ PUSH2 0x98 JUMPI DUP1 PUSH4 0xF1340681 EQ PUSH2 0xC4 JUMPI JUMPDEST PUSH1 0x0 DUP1 REVERT JUMPDEST CALLVALUE DUP1 ISZERO PUSH2 0x50 JUMPI PUSH1 0x0 DUP1 REVERT JUMPDEST POP PUSH2 0x6B PUSH1 0x4 DUP1 CALLDATASIZE SUB DUP2 ADD SWAP1 PUSH2 0x66 SWAP2 SWAP1 PUSH2 0x150 JUMP JUMPDEST PUSH2 0xE0 JUMP JUMPDEST STOP JUMPDEST CALLVALUE DUP1 ISZERO PUSH2 0x79 JUMPI PUSH1 0x0 DUP1 REVERT JUMPDEST POP PUSH2 0x82 PUSH2 0xEA JUMP JUMPDEST PUSH1 0x40 MLOAD PUSH2 0x8F SWAP2 SWAP1 PUSH2 0x18C JUMP JUMPDEST PUSH1 0x40 MLOAD DUP1 SWAP2 SUB SWAP1 RETURN JUMPDEST CALLVALUE DUP1 ISZERO PUSH2 0xA4 JUMPI PUSH1 0x0 DUP1 REVERT JUMPDEST POP PUSH2 0xAD PUSH2 0xF3 JUMP JUMPDEST PUSH1 0x40 MLOAD PUSH2 0xBB SWAP3 SWAP2 SWAP1 PUSH2 0x1A7 JUMP JUMPDEST PUSH1 0x40 MLOAD DUP1 SWAP2 SUB SWAP1 RETURN JUMPDEST PUSH2 0xDE PUSH1 0x4 DUP1 CALLDATASIZE SUB DUP2 ADD SWAP1 PUSH2 0xD9 SWAP2 SWAP1 PUSH2 0x150 JUMP JUMPDEST PUSH2 0x104 JUMP JUMPDEST STOP JUMPDEST DUP1 PUSH1 0x0 DUP2 SWAP1 SSTORE POP POP JUMP JUMPDEST PUSH1 0x0 DUP1 SLOAD SWAP1 POP SWAP1 JUMP JUMPDEST PUSH1 0x0 DUP1 PUSH1 0x0 SLOAD SWAP2 POP PUSH1 0x1 SLOAD SWAP1 POP SWAP1 SWAP2 JUMP JUMPDEST DUP1 PUSH1 0x0 DUP2 SWAP1 SSTORE POP CALLVALUE PUSH1 0x1 DUP2 SWAP1 SSTORE POP POP JUMP JUMPDEST PUSH1 0x0 DUP1 REVERT JUMPDEST PUSH1 0x0 DUP2 SWAP1 POP SWAP2 SWAP1 POP JUMP JUMPDEST PUSH2 0x12D DUP2 PUSH2 0x11A JUMP JUMPDEST DUP2 EQ PUSH2 0x138 JUMPI PUSH1 0x0 DUP1 REVERT JUMPDEST POP JUMP JUMPDEST PUSH1 0x0 DUP2 CALLDATALOAD SWAP1 POP PUSH2 0x14A DUP2 PUSH2 0x124 JUMP JUMPDEST SWAP3 SWAP2 POP POP JUMP JUMPDEST PUSH1 0x0 PUSH1 0x20 DUP3 DUP5 SUB SLT ISZERO PUSH2 0x166 JUMPI PUSH2 0x165 PUSH2 0x115 JUMP JUMPDEST JUMPDEST PUSH1 0x0 PUSH2 0x174 DUP5 DUP3 DUP6 ADD PUSH2 0x13B JUMP JUMPDEST SWAP2 POP POP SWAP3 SWAP2 POP POP JUMP JUMPDEST PUSH2 0x186 DUP2 PUSH2 0x11A JUMP JUMPDEST DUP3 MSTORE POP POP JUMP JUMPDEST PUSH1 0x0 PUSH1 0x20 DUP3 ADD SWAP1 POP PUSH2 0x1A1 PUSH1 0x0 DUP4 ADD DUP5 PUSH2 0x17D JUMP JUMPDEST SWAP3 SWAP2 POP POP JUMP JUMPDEST PUSH1 0x0 PUSH1 0x40 DUP3 ADD SWAP1 POP PUSH2 0x1BC PUSH1 0x0 DUP4 ADD DUP6 PUSH2 0x17D JUMP JUMPDEST PUSH2 0x1C9 PUSH1 0x20 DUP4 ADD DUP5 PUSH2 0x17D JUMP JUMPDEST SWAP4 SWAP3 POP POP POP JUMP INVALID LOG2 PUSH5 0x6970667358 0x22 SLT KECCAK256 0xB3 MSIZE 0xE2 0xA8 0xC8 CODESIZE 0xB9 XOR 0x5D PUSH21 0x3828AE8162943C4E667925EE169D7650D65EDEA1BD PUSH28 0x64736F6C634300081200330000000000000000000000000000000000 "
				},
				"gasEstimates": {
					"creation": {
						"codeDepositCost": "103600",
						"executionCost": "153",
						"totalCost": "103753"
					},
					"external": {
						"getX()": "2437",
						"getXandValue()": "infinite",
						"setX(uint256)": "22498",
						"setXAndTransferEth(uint256)": "44653"
					}
				},
				"methodIdentifiers": {
					"getX()": "5197c7aa",
					"getXandValue()": "d6c7a3be",
					"setX(uint256)": "4018d9aa",
					"setXAndTransferEth(uint256)": "f1340681"
				}
			},
			"storageLayout": {
				"storage": [
					{
						"astId": 87,
						"contract": "contracts/advance solidity/calling contract from other contract/calling-contract-from-other-practice.sol:testContract",
						"label": "x",
						"offset": 0,
						"slot": "0",
						"type": "t_uint256"
					},
					{
						"astId": 89,
						"contract": "contracts/advance solidity/calling contract from other contract/calling-contract-from-other-practice.sol:testContract",
						"label": "ethValueInContract",
						"offset": 0,
						"slot": "1",
						"type": "t_uint256"
					}
				],
				"types": {
					"t_uint256": {
						"encoding": "inplace",
						"label": "uint256",
						"numberOfBytes": "32"
					}
				}
			},
			"userdoc": {
				"kind": "user",
				"methods": {},
				"version": 1
			}
		}
	}
}