{
	"contracts/advance solidity/calling contract from other contract/calling-contract-from-other-practice.sol": {
		"callTestContract": {
			"abi": [
				{
					"inputs": [
						{
							"internalType": "address",
							"name": "_testContractAddress",
							"type": "address"
						}
					],
					"name": "getX1",
					"outputs": [
						{
							"internalType": "uint256",
							"name": "_x",
							"type": "uint256"
						}
					],
					"stateMutability": "view",
					"type": "function"
				},
				{
					"inputs": [
						{
							"internalType": "contract testContract",
							"name": "_test",
							"type": "address"
						}
					],
					"name": "getXandvalue1",
					"outputs": [
						{
							"internalType": "uint256",
							"name": "_x",
							"type": "uint256"
						},
						{
							"internalType": "uint256",
							"name": "_value",
							"type": "uint256"
						}
					],
					"stateMutability": "view",
					"type": "function"
				},
				{
					"inputs": [
						{
							"internalType": "address",
							"name": "_testContractAddress",
							"type": "address"
						},
						{
							"internalType": "uint256",
							"name": "_x",
							"type": "uint256"
						}
					],
					"name": "setX1",
					"outputs": [],
					"stateMutability": "nonpayable",
					"type": "function"
				},
				{
					"inputs": [
						{
							"internalType": "contract testContract",
							"name": "_test",
							"type": "address"
						},
						{
							"internalType": "uint256",
							"name": "_x",
							"type": "uint256"
						}
					],
					"name": "setX2",
					"outputs": [],
					"stateMutability": "nonpayable",
					"type": "function"
				},
				{
					"inputs": [
						{
							"internalType": "contract testContract",
							"name": "_testAddress",
							"type": "address"
						},
						{
							"internalType": "uint256",
							"name": "_x",
							"type": "uint256"
						}
					],
					"name": "setXAndEth",
					"outputs": [],
					"stateMutability": "payable",
					"type": "function"
				}
			],
			"devdoc": {
				"kind": "dev",
				"methods": {},
				"version": 1
			},
			"evm": {
				"assembly": "    /* \"contracts/advance solidity/calling contract from other contract/calling-contract-from-other-practice.sol\":60:847  contract callTestContract {... */\n  mstore(0x40, 0x80)\n  callvalue\n  dup1\n  iszero\n  tag_1\n  jumpi\n  0x00\n  dup1\n  revert\ntag_1:\n  pop\n  dataSize(sub_0)\n  dup1\n  dataOffset(sub_0)\n  0x00\n  codecopy\n  0x00\n  return\nstop\n\nsub_0: assembly {\n        /* \"contracts/advance solidity/calling contract from other contract/calling-contract-from-other-practice.sol\":60:847  contract callTestContract {... */\n      mstore(0x40, 0x80)\n      jumpi(tag_1, lt(calldatasize, 0x04))\n      shr(0xe0, calldataload(0x00))\n      dup1\n      0x7a8fe110\n      eq\n      tag_2\n      jumpi\n      dup1\n      0x90a10755\n      eq\n      tag_3\n      jumpi\n      dup1\n      0xa263701a\n      eq\n      tag_4\n      jumpi\n      dup1\n      0xd7b102ca\n      eq\n      tag_5\n      jumpi\n      dup1\n      0xef7aea62\n      eq\n      tag_6\n      jumpi\n    tag_1:\n      0x00\n      dup1\n      revert\n        /* \"contracts/advance solidity/calling contract from other contract/calling-contract-from-other-practice.sol\":702:840  function getXandvalue1(testContract _test) public view returns(uint _x, uint _value){... */\n    tag_2:\n      callvalue\n      dup1\n      iszero\n      tag_7\n      jumpi\n      0x00\n      dup1\n      revert\n    tag_7:\n      pop\n      tag_8\n      0x04\n      dup1\n      calldatasize\n      sub\n      dup2\n      add\n      swap1\n      tag_9\n      swap2\n      swap1\n      tag_10\n      jump\t// in\n    tag_9:\n      tag_11\n      jump\t// in\n    tag_8:\n      mload(0x40)\n      tag_12\n      swap3\n      swap2\n      swap1\n      tag_13\n      jump\t// in\n    tag_12:\n      mload(0x40)\n      dup1\n      swap2\n      sub\n      swap1\n      return\n        /* \"contracts/advance solidity/calling contract from other contract/calling-contract-from-other-practice.sol\":551:694  function setXAndEth(testContract _testAddress, uint _x) public payable {... */\n    tag_3:\n      tag_14\n      0x04\n      dup1\n      calldatasize\n      sub\n      dup2\n      add\n      swap1\n      tag_15\n      swap2\n      swap1\n      tag_16\n      jump\t// in\n    tag_15:\n      tag_17\n      jump\t// in\n    tag_14:\n      stop\n        /* \"contracts/advance solidity/calling contract from other contract/calling-contract-from-other-practice.sol\":127:250  function setX1(address _testContractAddress, uint _x) public {... */\n    tag_4:\n      callvalue\n      dup1\n      iszero\n      tag_18\n      jumpi\n      0x00\n      dup1\n      revert\n    tag_18:\n      pop\n      tag_19\n      0x04\n      dup1\n      calldatasize\n      sub\n      dup2\n      add\n      swap1\n      tag_20\n      swap2\n      swap1\n      tag_21\n      jump\t// in\n    tag_20:\n      tag_22\n      jump\t// in\n    tag_19:\n      stop\n        /* \"contracts/advance solidity/calling contract from other contract/calling-contract-from-other-practice.sol\":404:543  function getX1(address _testContractAddress) public view returns(uint _x) {... */\n    tag_5:\n      callvalue\n      dup1\n      iszero\n      tag_23\n      jumpi\n      0x00\n      dup1\n      revert\n    tag_23:\n      pop\n      tag_24\n      0x04\n      dup1\n      calldatasize\n      sub\n      dup2\n      add\n      swap1\n      tag_25\n      swap2\n      swap1\n      tag_26\n      jump\t// in\n    tag_25:\n      tag_27\n      jump\t// in\n    tag_24:\n      mload(0x40)\n      tag_28\n      swap2\n      swap1\n      tag_29\n      jump\t// in\n    tag_28:\n      mload(0x40)\n      dup1\n      swap2\n      sub\n      swap1\n      return\n        /* \"contracts/advance solidity/calling contract from other contract/calling-contract-from-other-practice.sol\":312:396  function setX2(testContract _test, uint _x) public {... */\n    tag_6:\n      callvalue\n      dup1\n      iszero\n      tag_30\n      jumpi\n      0x00\n      dup1\n      revert\n    tag_30:\n      pop\n      tag_31\n      0x04\n      dup1\n      calldatasize\n      sub\n      dup2\n      add\n      swap1\n      tag_32\n      swap2\n      swap1\n      tag_16\n      jump\t// in\n    tag_32:\n      tag_33\n      jump\t// in\n    tag_31:\n      stop\n        /* \"contracts/advance solidity/calling contract from other contract/calling-contract-from-other-practice.sol\":702:840  function getXandvalue1(testContract _test) public view returns(uint _x, uint _value){... */\n    tag_11:\n        /* \"contracts/advance solidity/calling contract from other contract/calling-contract-from-other-practice.sol\":765:772  uint _x */\n      0x00\n        /* \"contracts/advance solidity/calling contract from other contract/calling-contract-from-other-practice.sol\":774:785  uint _value */\n      dup1\n        /* \"contracts/advance solidity/calling contract from other contract/calling-contract-from-other-practice.sol\":812:817  _test */\n      dup3\n        /* \"contracts/advance solidity/calling contract from other contract/calling-contract-from-other-practice.sol\":812:830  _test.getXandValue */\n      0xffffffffffffffffffffffffffffffffffffffff\n      and\n      0xd6c7a3be\n        /* \"contracts/advance solidity/calling contract from other contract/calling-contract-from-other-practice.sol\":812:832  _test.getXandValue() */\n      mload(0x40)\n      dup2\n      0xffffffff\n      and\n      0xe0\n      shl\n      dup2\n      mstore\n      0x04\n      add\n      0x40\n      dup1\n      mload\n      dup1\n      dup4\n      sub\n      dup2\n      dup7\n      gas\n      staticcall\n      iszero\n      dup1\n      iszero\n      tag_36\n      jumpi\n      returndatasize\n      0x00\n      dup1\n      returndatacopy\n      revert(0x00, returndatasize)\n    tag_36:\n      pop\n      pop\n      pop\n      pop\n      mload(0x40)\n      returndatasize\n      not(0x1f)\n      0x1f\n      dup3\n      add\n      and\n      dup3\n      add\n      dup1\n      0x40\n      mstore\n      pop\n      dup2\n      add\n      swap1\n      tag_37\n      swap2\n      swap1\n      tag_38\n      jump\t// in\n    tag_37:\n        /* \"contracts/advance solidity/calling contract from other contract/calling-contract-from-other-practice.sol\":797:832  (_x, _value) = _test.getXandValue() */\n      dup1\n      swap3\n      pop\n      dup2\n      swap4\n      pop\n      pop\n      pop\n        /* \"contracts/advance solidity/calling contract from other contract/calling-contract-from-other-practice.sol\":702:840  function getXandvalue1(testContract _test) public view returns(uint _x, uint _value){... */\n      swap2\n      pop\n      swap2\n      jump\t// out\n        /* \"contracts/advance solidity/calling contract from other contract/calling-contract-from-other-practice.sol\":551:694  function setXAndEth(testContract _testAddress, uint _x) public payable {... */\n    tag_17:\n        /* \"contracts/advance solidity/calling contract from other contract/calling-contract-from-other-practice.sol\":633:645  _testAddress */\n      dup2\n        /* \"contracts/advance solidity/calling contract from other contract/calling-contract-from-other-practice.sol\":633:664  _testAddress.setXAndTransferEth */\n      0xffffffffffffffffffffffffffffffffffffffff\n      and\n      0xf1340681\n        /* \"contracts/advance solidity/calling contract from other contract/calling-contract-from-other-practice.sol\":672:681  msg.value */\n      callvalue\n        /* \"contracts/advance solidity/calling contract from other contract/calling-contract-from-other-practice.sol\":683:685  _x */\n      dup4\n        /* \"contracts/advance solidity/calling contract from other contract/calling-contract-from-other-practice.sol\":633:686  _testAddress.setXAndTransferEth{value: msg.value}(_x) */\n      mload(0x40)\n      dup4\n      0xffffffff\n      and\n      0xe0\n      shl\n      dup2\n      mstore\n      0x04\n      add\n      tag_40\n      swap2\n      swap1\n      tag_29\n      jump\t// in\n    tag_40:\n      0x00\n      mload(0x40)\n      dup1\n      dup4\n      sub\n      dup2\n      dup6\n      dup9\n      dup1\n      extcodesize\n      iszero\n      dup1\n      iszero\n      tag_41\n      jumpi\n      0x00\n      dup1\n      revert\n    tag_41:\n      pop\n      gas\n      call\n      iszero\n      dup1\n      iszero\n      tag_43\n      jumpi\n      returndatasize\n      0x00\n      dup1\n      returndatacopy\n      revert(0x00, returndatasize)\n    tag_43:\n      pop\n      pop\n      pop\n      pop\n      pop\n        /* \"contracts/advance solidity/calling contract from other contract/calling-contract-from-other-practice.sol\":551:694  function setXAndEth(testContract _testAddress, uint _x) public payable {... */\n      pop\n      pop\n      jump\t// out\n        /* \"contracts/advance solidity/calling contract from other contract/calling-contract-from-other-practice.sol\":127:250  function setX1(address _testContractAddress, uint _x) public {... */\n    tag_22:\n        /* \"contracts/advance solidity/calling contract from other contract/calling-contract-from-other-practice.sol\":212:232  _testContractAddress */\n      dup2\n        /* \"contracts/advance solidity/calling contract from other contract/calling-contract-from-other-practice.sol\":199:238  testContract(_testContractAddress).setX */\n      0xffffffffffffffffffffffffffffffffffffffff\n      and\n      0x4018d9aa\n        /* \"contracts/advance solidity/calling contract from other contract/calling-contract-from-other-practice.sol\":239:241  _x */\n      dup3\n        /* \"contracts/advance solidity/calling contract from other contract/calling-contract-from-other-practice.sol\":199:242  testContract(_testContractAddress).setX(_x) */\n      mload(0x40)\n      dup3\n      0xffffffff\n      and\n      0xe0\n      shl\n      dup2\n      mstore\n      0x04\n      add\n      tag_45\n      swap2\n      swap1\n      tag_29\n      jump\t// in\n    tag_45:\n      0x00\n      mload(0x40)\n      dup1\n      dup4\n      sub\n      dup2\n      0x00\n      dup8\n      dup1\n      extcodesize\n      iszero\n      dup1\n      iszero\n      tag_46\n      jumpi\n      0x00\n      dup1\n      revert\n    tag_46:\n      pop\n      gas\n      call\n      iszero\n      dup1\n      iszero\n      tag_48\n      jumpi\n      returndatasize\n      0x00\n      dup1\n      returndatacopy\n      revert(0x00, returndatasize)\n    tag_48:\n      pop\n      pop\n      pop\n      pop\n        /* \"contracts/advance solidity/calling contract from other contract/calling-contract-from-other-practice.sol\":127:250  function setX1(address _testContractAddress, uint _x) public {... */\n      pop\n      pop\n      jump\t// out\n        /* \"contracts/advance solidity/calling contract from other contract/calling-contract-from-other-practice.sol\":404:543  function getX1(address _testContractAddress) public view returns(uint _x) {... */\n    tag_27:\n        /* \"contracts/advance solidity/calling contract from other contract/calling-contract-from-other-practice.sol\":469:476  uint _x */\n      0x00\n        /* \"contracts/advance solidity/calling contract from other contract/calling-contract-from-other-practice.sol\":507:527  _testContractAddress */\n      dup2\n        /* \"contracts/advance solidity/calling contract from other contract/calling-contract-from-other-practice.sol\":494:533  testContract(_testContractAddress).getX */\n      0xffffffffffffffffffffffffffffffffffffffff\n      and\n      0x5197c7aa\n        /* \"contracts/advance solidity/calling contract from other contract/calling-contract-from-other-practice.sol\":494:535  testContract(_testContractAddress).getX() */\n      mload(0x40)\n      dup2\n      0xffffffff\n      and\n      0xe0\n      shl\n      dup2\n      mstore\n      0x04\n      add\n      0x20\n      mload(0x40)\n      dup1\n      dup4\n      sub\n      dup2\n      dup7\n      gas\n      staticcall\n      iszero\n      dup1\n      iszero\n      tag_51\n      jumpi\n      returndatasize\n      0x00\n      dup1\n      returndatacopy\n      revert(0x00, returndatasize)\n    tag_51:\n      pop\n      pop\n      pop\n      pop\n      mload(0x40)\n      returndatasize\n      not(0x1f)\n      0x1f\n      dup3\n      add\n      and\n      dup3\n      add\n      dup1\n      0x40\n      mstore\n      pop\n      dup2\n      add\n      swap1\n      tag_52\n      swap2\n      swap1\n      tag_53\n      jump\t// in\n    tag_52:\n        /* \"contracts/advance solidity/calling contract from other contract/calling-contract-from-other-practice.sol\":489:535  _x = testContract(_testContractAddress).getX() */\n      swap1\n      pop\n        /* \"contracts/advance solidity/calling contract from other contract/calling-contract-from-other-practice.sol\":404:543  function getX1(address _testContractAddress) public view returns(uint _x) {... */\n      swap2\n      swap1\n      pop\n      jump\t// out\n        /* \"contracts/advance solidity/calling contract from other contract/calling-contract-from-other-practice.sol\":312:396  function setX2(testContract _test, uint _x) public {... */\n    tag_33:\n        /* \"contracts/advance solidity/calling contract from other contract/calling-contract-from-other-practice.sol\":374:379  _test */\n      dup2\n        /* \"contracts/advance solidity/calling contract from other contract/calling-contract-from-other-practice.sol\":374:384  _test.setX */\n      0xffffffffffffffffffffffffffffffffffffffff\n      and\n      0x4018d9aa\n        /* \"contracts/advance solidity/calling contract from other contract/calling-contract-from-other-practice.sol\":385:387  _x */\n      dup3\n        /* \"contracts/advance solidity/calling contract from other contract/calling-contract-from-other-practice.sol\":374:388  _test.setX(_x) */\n      mload(0x40)\n      dup3\n      0xffffffff\n      and\n      0xe0\n      shl\n      dup2\n      mstore\n      0x04\n      add\n      tag_55\n      swap2\n      swap1\n      tag_29\n      jump\t// in\n    tag_55:\n      0x00\n      mload(0x40)\n      dup1\n      dup4\n      sub\n      dup2\n      0x00\n      dup8\n      dup1\n      extcodesize\n      iszero\n      dup1\n      iszero\n      tag_56\n      jumpi\n      0x00\n      dup1\n      revert\n    tag_56:\n      pop\n      gas\n      call\n      iszero\n      dup1\n      iszero\n      tag_58\n      jumpi\n      returndatasize\n      0x00\n      dup1\n      returndatacopy\n      revert(0x00, returndatasize)\n    tag_58:\n      pop\n      pop\n      pop\n      pop\n        /* \"contracts/advance solidity/calling contract from other contract/calling-contract-from-other-practice.sol\":312:396  function setX2(testContract _test, uint _x) public {... */\n      pop\n      pop\n      jump\t// out\n        /* \"#utility.yul\":88:205   */\n    tag_60:\n        /* \"#utility.yul\":197:198   */\n      0x00\n        /* \"#utility.yul\":194:195   */\n      dup1\n        /* \"#utility.yul\":187:199   */\n      revert\n        /* \"#utility.yul\":334:460   */\n    tag_62:\n        /* \"#utility.yul\":371:378   */\n      0x00\n        /* \"#utility.yul\":411:453   */\n      0xffffffffffffffffffffffffffffffffffffffff\n        /* \"#utility.yul\":404:409   */\n      dup3\n        /* \"#utility.yul\":400:454   */\n      and\n        /* \"#utility.yul\":389:454   */\n      swap1\n      pop\n        /* \"#utility.yul\":334:460   */\n      swap2\n      swap1\n      pop\n      jump\t// out\n        /* \"#utility.yul\":466:562   */\n    tag_63:\n        /* \"#utility.yul\":503:510   */\n      0x00\n        /* \"#utility.yul\":532:556   */\n      tag_80\n        /* \"#utility.yul\":550:555   */\n      dup3\n        /* \"#utility.yul\":532:556   */\n      tag_62\n      jump\t// in\n    tag_80:\n        /* \"#utility.yul\":521:556   */\n      swap1\n      pop\n        /* \"#utility.yul\":466:562   */\n      swap2\n      swap1\n      pop\n      jump\t// out\n        /* \"#utility.yul\":568:684   */\n    tag_64:\n        /* \"#utility.yul\":625:632   */\n      0x00\n        /* \"#utility.yul\":654:678   */\n      tag_82\n        /* \"#utility.yul\":672:677   */\n      dup3\n        /* \"#utility.yul\":654:678   */\n      tag_63\n      jump\t// in\n    tag_82:\n        /* \"#utility.yul\":643:678   */\n      swap1\n      pop\n        /* \"#utility.yul\":568:684   */\n      swap2\n      swap1\n      pop\n      jump\t// out\n        /* \"#utility.yul\":690:852   */\n    tag_65:\n        /* \"#utility.yul\":783:827   */\n      tag_84\n        /* \"#utility.yul\":821:826   */\n      dup2\n        /* \"#utility.yul\":783:827   */\n      tag_64\n      jump\t// in\n    tag_84:\n        /* \"#utility.yul\":776:781   */\n      dup2\n        /* \"#utility.yul\":773:828   */\n      eq\n        /* \"#utility.yul\":763:846   */\n      tag_85\n      jumpi\n        /* \"#utility.yul\":842:843   */\n      0x00\n        /* \"#utility.yul\":839:840   */\n      dup1\n        /* \"#utility.yul\":832:844   */\n      revert\n        /* \"#utility.yul\":763:846   */\n    tag_85:\n        /* \"#utility.yul\":690:852   */\n      pop\n      jump\t// out\n        /* \"#utility.yul\":858:1037   */\n    tag_66:\n        /* \"#utility.yul\":924:929   */\n      0x00\n        /* \"#utility.yul\":962:968   */\n      dup2\n        /* \"#utility.yul\":949:969   */\n      calldataload\n        /* \"#utility.yul\":940:969   */\n      swap1\n      pop\n        /* \"#utility.yul\":978:1031   */\n      tag_87\n        /* \"#utility.yul\":1025:1030   */\n      dup2\n        /* \"#utility.yul\":978:1031   */\n      tag_65\n      jump\t// in\n    tag_87:\n        /* \"#utility.yul\":858:1037   */\n      swap3\n      swap2\n      pop\n      pop\n      jump\t// out\n        /* \"#utility.yul\":1043:1412   */\n    tag_10:\n        /* \"#utility.yul\":1122:1128   */\n      0x00\n        /* \"#utility.yul\":1171:1173   */\n      0x20\n        /* \"#utility.yul\":1159:1168   */\n      dup3\n        /* \"#utility.yul\":1150:1157   */\n      dup5\n        /* \"#utility.yul\":1146:1169   */\n      sub\n        /* \"#utility.yul\":1142:1174   */\n      slt\n        /* \"#utility.yul\":1139:1258   */\n      iszero\n      tag_89\n      jumpi\n        /* \"#utility.yul\":1177:1256   */\n      tag_90\n      tag_60\n      jump\t// in\n    tag_90:\n        /* \"#utility.yul\":1139:1258   */\n    tag_89:\n        /* \"#utility.yul\":1297:1298   */\n      0x00\n        /* \"#utility.yul\":1322:1395   */\n      tag_91\n        /* \"#utility.yul\":1387:1394   */\n      dup5\n        /* \"#utility.yul\":1378:1384   */\n      dup3\n        /* \"#utility.yul\":1367:1376   */\n      dup6\n        /* \"#utility.yul\":1363:1385   */\n      add\n        /* \"#utility.yul\":1322:1395   */\n      tag_66\n      jump\t// in\n    tag_91:\n        /* \"#utility.yul\":1312:1395   */\n      swap2\n      pop\n        /* \"#utility.yul\":1268:1405   */\n      pop\n        /* \"#utility.yul\":1043:1412   */\n      swap3\n      swap2\n      pop\n      pop\n      jump\t// out\n        /* \"#utility.yul\":1418:1495   */\n    tag_67:\n        /* \"#utility.yul\":1455:1462   */\n      0x00\n        /* \"#utility.yul\":1484:1489   */\n      dup2\n        /* \"#utility.yul\":1473:1489   */\n      swap1\n      pop\n        /* \"#utility.yul\":1418:1495   */\n      swap2\n      swap1\n      pop\n      jump\t// out\n        /* \"#utility.yul\":1501:1619   */\n    tag_68:\n        /* \"#utility.yul\":1588:1612   */\n      tag_94\n        /* \"#utility.yul\":1606:1611   */\n      dup2\n        /* \"#utility.yul\":1588:1612   */\n      tag_67\n      jump\t// in\n    tag_94:\n        /* \"#utility.yul\":1583:1586   */\n      dup3\n        /* \"#utility.yul\":1576:1613   */\n      mstore\n        /* \"#utility.yul\":1501:1619   */\n      pop\n      pop\n      jump\t// out\n        /* \"#utility.yul\":1625:1957   */\n    tag_13:\n        /* \"#utility.yul\":1746:1750   */\n      0x00\n        /* \"#utility.yul\":1784:1786   */\n      0x40\n        /* \"#utility.yul\":1773:1782   */\n      dup3\n        /* \"#utility.yul\":1769:1787   */\n      add\n        /* \"#utility.yul\":1761:1787   */\n      swap1\n      pop\n        /* \"#utility.yul\":1797:1868   */\n      tag_96\n        /* \"#utility.yul\":1865:1866   */\n      0x00\n        /* \"#utility.yul\":1854:1863   */\n      dup4\n        /* \"#utility.yul\":1850:1867   */\n      add\n        /* \"#utility.yul\":1841:1847   */\n      dup6\n        /* \"#utility.yul\":1797:1868   */\n      tag_68\n      jump\t// in\n    tag_96:\n        /* \"#utility.yul\":1878:1950   */\n      tag_97\n        /* \"#utility.yul\":1946:1948   */\n      0x20\n        /* \"#utility.yul\":1935:1944   */\n      dup4\n        /* \"#utility.yul\":1931:1949   */\n      add\n        /* \"#utility.yul\":1922:1928   */\n      dup5\n        /* \"#utility.yul\":1878:1950   */\n      tag_68\n      jump\t// in\n    tag_97:\n        /* \"#utility.yul\":1625:1957   */\n      swap4\n      swap3\n      pop\n      pop\n      pop\n      jump\t// out\n        /* \"#utility.yul\":1963:2085   */\n    tag_69:\n        /* \"#utility.yul\":2036:2060   */\n      tag_99\n        /* \"#utility.yul\":2054:2059   */\n      dup2\n        /* \"#utility.yul\":2036:2060   */\n      tag_67\n      jump\t// in\n    tag_99:\n        /* \"#utility.yul\":2029:2034   */\n      dup2\n        /* \"#utility.yul\":2026:2061   */\n      eq\n        /* \"#utility.yul\":2016:2079   */\n      tag_100\n      jumpi\n        /* \"#utility.yul\":2075:2076   */\n      0x00\n        /* \"#utility.yul\":2072:2073   */\n      dup1\n        /* \"#utility.yul\":2065:2077   */\n      revert\n        /* \"#utility.yul\":2016:2079   */\n    tag_100:\n        /* \"#utility.yul\":1963:2085   */\n      pop\n      jump\t// out\n        /* \"#utility.yul\":2091:2230   */\n    tag_70:\n        /* \"#utility.yul\":2137:2142   */\n      0x00\n        /* \"#utility.yul\":2175:2181   */\n      dup2\n        /* \"#utility.yul\":2162:2182   */\n      calldataload\n        /* \"#utility.yul\":2153:2182   */\n      swap1\n      pop\n        /* \"#utility.yul\":2191:2224   */\n      tag_102\n        /* \"#utility.yul\":2218:2223   */\n      dup2\n        /* \"#utility.yul\":2191:2224   */\n      tag_69\n      jump\t// in\n    tag_102:\n        /* \"#utility.yul\":2091:2230   */\n      swap3\n      swap2\n      pop\n      pop\n      jump\t// out\n        /* \"#utility.yul\":2236:2750   */\n    tag_16:\n        /* \"#utility.yul\":2324:2330   */\n      0x00\n        /* \"#utility.yul\":2332:2338   */\n      dup1\n        /* \"#utility.yul\":2381:2383   */\n      0x40\n        /* \"#utility.yul\":2369:2378   */\n      dup4\n        /* \"#utility.yul\":2360:2367   */\n      dup6\n        /* \"#utility.yul\":2356:2379   */\n      sub\n        /* \"#utility.yul\":2352:2384   */\n      slt\n        /* \"#utility.yul\":2349:2468   */\n      iszero\n      tag_104\n      jumpi\n        /* \"#utility.yul\":2387:2466   */\n      tag_105\n      tag_60\n      jump\t// in\n    tag_105:\n        /* \"#utility.yul\":2349:2468   */\n    tag_104:\n        /* \"#utility.yul\":2507:2508   */\n      0x00\n        /* \"#utility.yul\":2532:2605   */\n      tag_106\n        /* \"#utility.yul\":2597:2604   */\n      dup6\n        /* \"#utility.yul\":2588:2594   */\n      dup3\n        /* \"#utility.yul\":2577:2586   */\n      dup7\n        /* \"#utility.yul\":2573:2595   */\n      add\n        /* \"#utility.yul\":2532:2605   */\n      tag_66\n      jump\t// in\n    tag_106:\n        /* \"#utility.yul\":2522:2605   */\n      swap3\n      pop\n        /* \"#utility.yul\":2478:2615   */\n      pop\n        /* \"#utility.yul\":2654:2656   */\n      0x20\n        /* \"#utility.yul\":2680:2733   */\n      tag_107\n        /* \"#utility.yul\":2725:2732   */\n      dup6\n        /* \"#utility.yul\":2716:2722   */\n      dup3\n        /* \"#utility.yul\":2705:2714   */\n      dup7\n        /* \"#utility.yul\":2701:2723   */\n      add\n        /* \"#utility.yul\":2680:2733   */\n      tag_70\n      jump\t// in\n    tag_107:\n        /* \"#utility.yul\":2670:2733   */\n      swap2\n      pop\n        /* \"#utility.yul\":2625:2743   */\n      pop\n        /* \"#utility.yul\":2236:2750   */\n      swap3\n      pop\n      swap3\n      swap1\n      pop\n      jump\t// out\n        /* \"#utility.yul\":2756:2878   */\n    tag_71:\n        /* \"#utility.yul\":2829:2853   */\n      tag_109\n        /* \"#utility.yul\":2847:2852   */\n      dup2\n        /* \"#utility.yul\":2829:2853   */\n      tag_63\n      jump\t// in\n    tag_109:\n        /* \"#utility.yul\":2822:2827   */\n      dup2\n        /* \"#utility.yul\":2819:2854   */\n      eq\n        /* \"#utility.yul\":2809:2872   */\n      tag_110\n      jumpi\n        /* \"#utility.yul\":2868:2869   */\n      0x00\n        /* \"#utility.yul\":2865:2866   */\n      dup1\n        /* \"#utility.yul\":2858:2870   */\n      revert\n        /* \"#utility.yul\":2809:2872   */\n    tag_110:\n        /* \"#utility.yul\":2756:2878   */\n      pop\n      jump\t// out\n        /* \"#utility.yul\":2884:3023   */\n    tag_72:\n        /* \"#utility.yul\":2930:2935   */\n      0x00\n        /* \"#utility.yul\":2968:2974   */\n      dup2\n        /* \"#utility.yul\":2955:2975   */\n      calldataload\n        /* \"#utility.yul\":2946:2975   */\n      swap1\n      pop\n        /* \"#utility.yul\":2984:3017   */\n      tag_112\n        /* \"#utility.yul\":3011:3016   */\n      dup2\n        /* \"#utility.yul\":2984:3017   */\n      tag_71\n      jump\t// in\n    tag_112:\n        /* \"#utility.yul\":2884:3023   */\n      swap3\n      swap2\n      pop\n      pop\n      jump\t// out\n        /* \"#utility.yul\":3029:3503   */\n    tag_21:\n        /* \"#utility.yul\":3097:3103   */\n      0x00\n        /* \"#utility.yul\":3105:3111   */\n      dup1\n        /* \"#utility.yul\":3154:3156   */\n      0x40\n        /* \"#utility.yul\":3142:3151   */\n      dup4\n        /* \"#utility.yul\":3133:3140   */\n      dup6\n        /* \"#utility.yul\":3129:3152   */\n      sub\n        /* \"#utility.yul\":3125:3157   */\n      slt\n        /* \"#utility.yul\":3122:3241   */\n      iszero\n      tag_114\n      jumpi\n        /* \"#utility.yul\":3160:3239   */\n      tag_115\n      tag_60\n      jump\t// in\n    tag_115:\n        /* \"#utility.yul\":3122:3241   */\n    tag_114:\n        /* \"#utility.yul\":3280:3281   */\n      0x00\n        /* \"#utility.yul\":3305:3358   */\n      tag_116\n        /* \"#utility.yul\":3350:3357   */\n      dup6\n        /* \"#utility.yul\":3341:3347   */\n      dup3\n        /* \"#utility.yul\":3330:3339   */\n      dup7\n        /* \"#utility.yul\":3326:3348   */\n      add\n        /* \"#utility.yul\":3305:3358   */\n      tag_72\n      jump\t// in\n    tag_116:\n        /* \"#utility.yul\":3295:3358   */\n      swap3\n      pop\n        /* \"#utility.yul\":3251:3368   */\n      pop\n        /* \"#utility.yul\":3407:3409   */\n      0x20\n        /* \"#utility.yul\":3433:3486   */\n      tag_117\n        /* \"#utility.yul\":3478:3485   */\n      dup6\n        /* \"#utility.yul\":3469:3475   */\n      dup3\n        /* \"#utility.yul\":3458:3467   */\n      dup7\n        /* \"#utility.yul\":3454:3476   */\n      add\n        /* \"#utility.yul\":3433:3486   */\n      tag_70\n      jump\t// in\n    tag_117:\n        /* \"#utility.yul\":3423:3486   */\n      swap2\n      pop\n        /* \"#utility.yul\":3378:3496   */\n      pop\n        /* \"#utility.yul\":3029:3503   */\n      swap3\n      pop\n      swap3\n      swap1\n      pop\n      jump\t// out\n        /* \"#utility.yul\":3509:3838   */\n    tag_26:\n        /* \"#utility.yul\":3568:3574   */\n      0x00\n        /* \"#utility.yul\":3617:3619   */\n      0x20\n        /* \"#utility.yul\":3605:3614   */\n      dup3\n        /* \"#utility.yul\":3596:3603   */\n      dup5\n        /* \"#utility.yul\":3592:3615   */\n      sub\n        /* \"#utility.yul\":3588:3620   */\n      slt\n        /* \"#utility.yul\":3585:3704   */\n      iszero\n      tag_119\n      jumpi\n        /* \"#utility.yul\":3623:3702   */\n      tag_120\n      tag_60\n      jump\t// in\n    tag_120:\n        /* \"#utility.yul\":3585:3704   */\n    tag_119:\n        /* \"#utility.yul\":3743:3744   */\n      0x00\n        /* \"#utility.yul\":3768:3821   */\n      tag_121\n        /* \"#utility.yul\":3813:3820   */\n      dup5\n        /* \"#utility.yul\":3804:3810   */\n      dup3\n        /* \"#utility.yul\":3793:3802   */\n      dup6\n        /* \"#utility.yul\":3789:3811   */\n      add\n        /* \"#utility.yul\":3768:3821   */\n      tag_72\n      jump\t// in\n    tag_121:\n        /* \"#utility.yul\":3758:3821   */\n      swap2\n      pop\n        /* \"#utility.yul\":3714:3831   */\n      pop\n        /* \"#utility.yul\":3509:3838   */\n      swap3\n      swap2\n      pop\n      pop\n      jump\t// out\n        /* \"#utility.yul\":3844:4066   */\n    tag_29:\n        /* \"#utility.yul\":3937:3941   */\n      0x00\n        /* \"#utility.yul\":3975:3977   */\n      0x20\n        /* \"#utility.yul\":3964:3973   */\n      dup3\n        /* \"#utility.yul\":3960:3978   */\n      add\n        /* \"#utility.yul\":3952:3978   */\n      swap1\n      pop\n        /* \"#utility.yul\":3988:4059   */\n      tag_123\n        /* \"#utility.yul\":4056:4057   */\n      0x00\n        /* \"#utility.yul\":4045:4054   */\n      dup4\n        /* \"#utility.yul\":4041:4058   */\n      add\n        /* \"#utility.yul\":4032:4038   */\n      dup5\n        /* \"#utility.yul\":3988:4059   */\n      tag_68\n      jump\t// in\n    tag_123:\n        /* \"#utility.yul\":3844:4066   */\n      swap3\n      swap2\n      pop\n      pop\n      jump\t// out\n        /* \"#utility.yul\":4072:4215   */\n    tag_73:\n        /* \"#utility.yul\":4129:4134   */\n      0x00\n        /* \"#utility.yul\":4160:4166   */\n      dup2\n        /* \"#utility.yul\":4154:4167   */\n      mload\n        /* \"#utility.yul\":4145:4167   */\n      swap1\n      pop\n        /* \"#utility.yul\":4176:4209   */\n      tag_125\n        /* \"#utility.yul\":4203:4208   */\n      dup2\n        /* \"#utility.yul\":4176:4209   */\n      tag_69\n      jump\t// in\n    tag_125:\n        /* \"#utility.yul\":4072:4215   */\n      swap3\n      swap2\n      pop\n      pop\n      jump\t// out\n        /* \"#utility.yul\":4221:4728   */\n    tag_38:\n        /* \"#utility.yul\":4300:4306   */\n      0x00\n        /* \"#utility.yul\":4308:4314   */\n      dup1\n        /* \"#utility.yul\":4357:4359   */\n      0x40\n        /* \"#utility.yul\":4345:4354   */\n      dup4\n        /* \"#utility.yul\":4336:4343   */\n      dup6\n        /* \"#utility.yul\":4332:4355   */\n      sub\n        /* \"#utility.yul\":4328:4360   */\n      slt\n        /* \"#utility.yul\":4325:4444   */\n      iszero\n      tag_127\n      jumpi\n        /* \"#utility.yul\":4363:4442   */\n      tag_128\n      tag_60\n      jump\t// in\n    tag_128:\n        /* \"#utility.yul\":4325:4444   */\n    tag_127:\n        /* \"#utility.yul\":4483:4484   */\n      0x00\n        /* \"#utility.yul\":4508:4572   */\n      tag_129\n        /* \"#utility.yul\":4564:4571   */\n      dup6\n        /* \"#utility.yul\":4555:4561   */\n      dup3\n        /* \"#utility.yul\":4544:4553   */\n      dup7\n        /* \"#utility.yul\":4540:4562   */\n      add\n        /* \"#utility.yul\":4508:4572   */\n      tag_73\n      jump\t// in\n    tag_129:\n        /* \"#utility.yul\":4498:4572   */\n      swap3\n      pop\n        /* \"#utility.yul\":4454:4582   */\n      pop\n        /* \"#utility.yul\":4621:4623   */\n      0x20\n        /* \"#utility.yul\":4647:4711   */\n      tag_130\n        /* \"#utility.yul\":4703:4710   */\n      dup6\n        /* \"#utility.yul\":4694:4700   */\n      dup3\n        /* \"#utility.yul\":4683:4692   */\n      dup7\n        /* \"#utility.yul\":4679:4701   */\n      add\n        /* \"#utility.yul\":4647:4711   */\n      tag_73\n      jump\t// in\n    tag_130:\n        /* \"#utility.yul\":4637:4711   */\n      swap2\n      pop\n        /* \"#utility.yul\":4592:4721   */\n      pop\n        /* \"#utility.yul\":4221:4728   */\n      swap3\n      pop\n      swap3\n      swap1\n      pop\n      jump\t// out\n        /* \"#utility.yul\":4734:5085   */\n    tag_53:\n        /* \"#utility.yul\":4804:4810   */\n      0x00\n        /* \"#utility.yul\":4853:4855   */\n      0x20\n        /* \"#utility.yul\":4841:4850   */\n      dup3\n        /* \"#utility.yul\":4832:4839   */\n      dup5\n        /* \"#utility.yul\":4828:4851   */\n      sub\n        /* \"#utility.yul\":4824:4856   */\n      slt\n        /* \"#utility.yul\":4821:4940   */\n      iszero\n      tag_132\n      jumpi\n        /* \"#utility.yul\":4859:4938   */\n      tag_133\n      tag_60\n      jump\t// in\n    tag_133:\n        /* \"#utility.yul\":4821:4940   */\n    tag_132:\n        /* \"#utility.yul\":4979:4980   */\n      0x00\n        /* \"#utility.yul\":5004:5068   */\n      tag_134\n        /* \"#utility.yul\":5060:5067   */\n      dup5\n        /* \"#utility.yul\":5051:5057   */\n      dup3\n        /* \"#utility.yul\":5040:5049   */\n      dup6\n        /* \"#utility.yul\":5036:5058   */\n      add\n        /* \"#utility.yul\":5004:5068   */\n      tag_73\n      jump\t// in\n    tag_134:\n        /* \"#utility.yul\":4994:5068   */\n      swap2\n      pop\n        /* \"#utility.yul\":4950:5078   */\n      pop\n        /* \"#utility.yul\":4734:5085   */\n      swap3\n      swap2\n      pop\n      pop\n      jump\t// out\n\n    auxdata: 0xa26469706673582212204ab452255527d9cbf7b32a98056f1d065825fadf6b55a5e800d98de469ccb00364736f6c63430008120033\n}\n",
				"bytecode": {
					"linkReferences": {},
					"object": "608060405234801561001057600080fd5b50610638806100206000396000f3fe60806040526004361061004a5760003560e01c80637a8fe1101461004f57806390a107551461008d578063a263701a146100a9578063d7b102ca146100d2578063ef7aea621461010f575b600080fd5b34801561005b57600080fd5b50610076600480360381019061007191906103f1565b610138565b604051610084929190610437565b60405180910390f35b6100a760048036038101906100a2919061048c565b6101b6565b005b3480156100b557600080fd5b506100d060048036038101906100cb91906104f8565b610226565b005b3480156100de57600080fd5b506100f960048036038101906100f49190610538565b610295565b6040516101069190610565565b60405180910390f35b34801561011b57600080fd5b506101366004803603810190610131919061048c565b61030d565b005b6000808273ffffffffffffffffffffffffffffffffffffffff1663d6c7a3be6040518163ffffffff1660e01b81526004016040805180830381865afa158015610185573d6000803e3d6000fd5b505050506040513d601f19601f820116820180604052508101906101a99190610595565b8092508193505050915091565b8173ffffffffffffffffffffffffffffffffffffffff1663f134068134836040518363ffffffff1660e01b81526004016101f09190610565565b6000604051808303818588803b15801561020957600080fd5b505af115801561021d573d6000803e3d6000fd5b50505050505050565b8173ffffffffffffffffffffffffffffffffffffffff16634018d9aa826040518263ffffffff1660e01b815260040161025f9190610565565b600060405180830381600087803b15801561027957600080fd5b505af115801561028d573d6000803e3d6000fd5b505050505050565b60008173ffffffffffffffffffffffffffffffffffffffff16635197c7aa6040518163ffffffff1660e01b8152600401602060405180830381865afa1580156102e2573d6000803e3d6000fd5b505050506040513d601f19601f8201168201806040525081019061030691906105d5565b9050919050565b8173ffffffffffffffffffffffffffffffffffffffff16634018d9aa826040518263ffffffff1660e01b81526004016103469190610565565b600060405180830381600087803b15801561036057600080fd5b505af1158015610374573d6000803e3d6000fd5b505050505050565b600080fd5b600073ffffffffffffffffffffffffffffffffffffffff82169050919050565b60006103ac82610381565b9050919050565b60006103be826103a1565b9050919050565b6103ce816103b3565b81146103d957600080fd5b50565b6000813590506103eb816103c5565b92915050565b6000602082840312156104075761040661037c565b5b6000610415848285016103dc565b91505092915050565b6000819050919050565b6104318161041e565b82525050565b600060408201905061044c6000830185610428565b6104596020830184610428565b9392505050565b6104698161041e565b811461047457600080fd5b50565b60008135905061048681610460565b92915050565b600080604083850312156104a3576104a261037c565b5b60006104b1858286016103dc565b92505060206104c285828601610477565b9150509250929050565b6104d5816103a1565b81146104e057600080fd5b50565b6000813590506104f2816104cc565b92915050565b6000806040838503121561050f5761050e61037c565b5b600061051d858286016104e3565b925050602061052e85828601610477565b9150509250929050565b60006020828403121561054e5761054d61037c565b5b600061055c848285016104e3565b91505092915050565b600060208201905061057a6000830184610428565b92915050565b60008151905061058f81610460565b92915050565b600080604083850312156105ac576105ab61037c565b5b60006105ba85828601610580565b92505060206105cb85828601610580565b9150509250929050565b6000602082840312156105eb576105ea61037c565b5b60006105f984828501610580565b9150509291505056fea26469706673582212204ab452255527d9cbf7b32a98056f1d065825fadf6b55a5e800d98de469ccb00364736f6c63430008120033",
					"opcodes": "PUSH1 0x80 PUSH1 0x40 MSTORE CALLVALUE DUP1 ISZERO PUSH2 0x10 JUMPI PUSH1 0x0 DUP1 REVERT JUMPDEST POP PUSH2 0x638 DUP1 PUSH2 0x20 PUSH1 0x0 CODECOPY PUSH1 0x0 RETURN INVALID PUSH1 0x80 PUSH1 0x40 MSTORE PUSH1 0x4 CALLDATASIZE LT PUSH2 0x4A JUMPI PUSH1 0x0 CALLDATALOAD PUSH1 0xE0 SHR DUP1 PUSH4 0x7A8FE110 EQ PUSH2 0x4F JUMPI DUP1 PUSH4 0x90A10755 EQ PUSH2 0x8D JUMPI DUP1 PUSH4 0xA263701A EQ PUSH2 0xA9 JUMPI DUP1 PUSH4 0xD7B102CA EQ PUSH2 0xD2 JUMPI DUP1 PUSH4 0xEF7AEA62 EQ PUSH2 0x10F JUMPI JUMPDEST PUSH1 0x0 DUP1 REVERT JUMPDEST CALLVALUE DUP1 ISZERO PUSH2 0x5B JUMPI PUSH1 0x0 DUP1 REVERT JUMPDEST POP PUSH2 0x76 PUSH1 0x4 DUP1 CALLDATASIZE SUB DUP2 ADD SWAP1 PUSH2 0x71 SWAP2 SWAP1 PUSH2 0x3F1 JUMP JUMPDEST PUSH2 0x138 JUMP JUMPDEST PUSH1 0x40 MLOAD PUSH2 0x84 SWAP3 SWAP2 SWAP1 PUSH2 0x437 JUMP JUMPDEST PUSH1 0x40 MLOAD DUP1 SWAP2 SUB SWAP1 RETURN JUMPDEST PUSH2 0xA7 PUSH1 0x4 DUP1 CALLDATASIZE SUB DUP2 ADD SWAP1 PUSH2 0xA2 SWAP2 SWAP1 PUSH2 0x48C JUMP JUMPDEST PUSH2 0x1B6 JUMP JUMPDEST STOP JUMPDEST CALLVALUE DUP1 ISZERO PUSH2 0xB5 JUMPI PUSH1 0x0 DUP1 REVERT JUMPDEST POP PUSH2 0xD0 PUSH1 0x4 DUP1 CALLDATASIZE SUB DUP2 ADD SWAP1 PUSH2 0xCB SWAP2 SWAP1 PUSH2 0x4F8 JUMP JUMPDEST PUSH2 0x226 JUMP JUMPDEST STOP JUMPDEST CALLVALUE DUP1 ISZERO PUSH2 0xDE JUMPI PUSH1 0x0 DUP1 REVERT JUMPDEST POP PUSH2 0xF9 PUSH1 0x4 DUP1 CALLDATASIZE SUB DUP2 ADD SWAP1 PUSH2 0xF4 SWAP2 SWAP1 PUSH2 0x538 JUMP JUMPDEST PUSH2 0x295 JUMP JUMPDEST PUSH1 0x40 MLOAD PUSH2 0x106 SWAP2 SWAP1 PUSH2 0x565 JUMP JUMPDEST PUSH1 0x40 MLOAD DUP1 SWAP2 SUB SWAP1 RETURN JUMPDEST CALLVALUE DUP1 ISZERO PUSH2 0x11B JUMPI PUSH1 0x0 DUP1 REVERT JUMPDEST POP PUSH2 0x136 PUSH1 0x4 DUP1 CALLDATASIZE SUB DUP2 ADD SWAP1 PUSH2 0x131 SWAP2 SWAP1 PUSH2 0x48C JUMP JUMPDEST PUSH2 0x30D JUMP JUMPDEST STOP JUMPDEST PUSH1 0x0 DUP1 DUP3 PUSH20 0xFFFFFFFFFFFFFFFFFFFFFFFFFFFFFFFFFFFFFFFF AND PUSH4 0xD6C7A3BE PUSH1 0x40 MLOAD DUP2 PUSH4 0xFFFFFFFF AND PUSH1 0xE0 SHL DUP2 MSTORE PUSH1 0x4 ADD PUSH1 0x40 DUP1 MLOAD DUP1 DUP4 SUB DUP2 DUP7 GAS STATICCALL ISZERO DUP1 ISZERO PUSH2 0x185 JUMPI RETURNDATASIZE PUSH1 0x0 DUP1 RETURNDATACOPY RETURNDATASIZE PUSH1 0x0 REVERT JUMPDEST POP POP POP POP PUSH1 0x40 MLOAD RETURNDATASIZE PUSH1 0x1F NOT PUSH1 0x1F DUP3 ADD AND DUP3 ADD DUP1 PUSH1 0x40 MSTORE POP DUP2 ADD SWAP1 PUSH2 0x1A9 SWAP2 SWAP1 PUSH2 0x595 JUMP JUMPDEST DUP1 SWAP3 POP DUP2 SWAP4 POP POP POP SWAP2 POP SWAP2 JUMP JUMPDEST DUP2 PUSH20 0xFFFFFFFFFFFFFFFFFFFFFFFFFFFFFFFFFFFFFFFF AND PUSH4 0xF1340681 CALLVALUE DUP4 PUSH1 0x40 MLOAD DUP4 PUSH4 0xFFFFFFFF AND PUSH1 0xE0 SHL DUP2 MSTORE PUSH1 0x4 ADD PUSH2 0x1F0 SWAP2 SWAP1 PUSH2 0x565 JUMP JUMPDEST PUSH1 0x0 PUSH1 0x40 MLOAD DUP1 DUP4 SUB DUP2 DUP6 DUP9 DUP1 EXTCODESIZE ISZERO DUP1 ISZERO PUSH2 0x209 JUMPI PUSH1 0x0 DUP1 REVERT JUMPDEST POP GAS CALL ISZERO DUP1 ISZERO PUSH2 0x21D JUMPI RETURNDATASIZE PUSH1 0x0 DUP1 RETURNDATACOPY RETURNDATASIZE PUSH1 0x0 REVERT JUMPDEST POP POP POP POP POP POP POP JUMP JUMPDEST DUP2 PUSH20 0xFFFFFFFFFFFFFFFFFFFFFFFFFFFFFFFFFFFFFFFF AND PUSH4 0x4018D9AA DUP3 PUSH1 0x40 MLOAD DUP3 PUSH4 0xFFFFFFFF AND PUSH1 0xE0 SHL DUP2 MSTORE PUSH1 0x4 ADD PUSH2 0x25F SWAP2 SWAP1 PUSH2 0x565 JUMP JUMPDEST PUSH1 0x0 PUSH1 0x40 MLOAD DUP1 DUP4 SUB DUP2 PUSH1 0x0 DUP8 DUP1 EXTCODESIZE ISZERO DUP1 ISZERO PUSH2 0x279 JUMPI PUSH1 0x0 DUP1 REVERT JUMPDEST POP GAS CALL ISZERO DUP1 ISZERO PUSH2 0x28D JUMPI RETURNDATASIZE PUSH1 0x0 DUP1 RETURNDATACOPY RETURNDATASIZE PUSH1 0x0 REVERT JUMPDEST POP POP POP POP POP POP JUMP JUMPDEST PUSH1 0x0 DUP2 PUSH20 0xFFFFFFFFFFFFFFFFFFFFFFFFFFFFFFFFFFFFFFFF AND PUSH4 0x5197C7AA PUSH1 0x40 MLOAD DUP2 PUSH4 0xFFFFFFFF AND PUSH1 0xE0 SHL DUP2 MSTORE PUSH1 0x4 ADD PUSH1 0x20 PUSH1 0x40 MLOAD DUP1 DUP4 SUB DUP2 DUP7 GAS STATICCALL ISZERO DUP1 ISZERO PUSH2 0x2E2 JUMPI RETURNDATASIZE PUSH1 0x0 DUP1 RETURNDATACOPY RETURNDATASIZE PUSH1 0x0 REVERT JUMPDEST POP POP POP POP PUSH1 0x40 MLOAD RETURNDATASIZE PUSH1 0x1F NOT PUSH1 0x1F DUP3 ADD AND DUP3 ADD DUP1 PUSH1 0x40 MSTORE POP DUP2 ADD SWAP1 PUSH2 0x306 SWAP2 SWAP1 PUSH2 0x5D5 JUMP JUMPDEST SWAP1 POP SWAP2 SWAP1 POP JUMP JUMPDEST DUP2 PUSH20 0xFFFFFFFFFFFFFFFFFFFFFFFFFFFFFFFFFFFFFFFF AND PUSH4 0x4018D9AA DUP3 PUSH1 0x40 MLOAD DUP3 PUSH4 0xFFFFFFFF AND PUSH1 0xE0 SHL DUP2 MSTORE PUSH1 0x4 ADD PUSH2 0x346 SWAP2 SWAP1 PUSH2 0x565 JUMP JUMPDEST PUSH1 0x0 PUSH1 0x40 MLOAD DUP1 DUP4 SUB DUP2 PUSH1 0x0 DUP8 DUP1 EXTCODESIZE ISZERO DUP1 ISZERO PUSH2 0x360 JUMPI PUSH1 0x0 DUP1 REVERT JUMPDEST POP GAS CALL ISZERO DUP1 ISZERO PUSH2 0x374 JUMPI RETURNDATASIZE PUSH1 0x0 DUP1 RETURNDATACOPY RETURNDATASIZE PUSH1 0x0 REVERT JUMPDEST POP POP POP POP POP POP JUMP JUMPDEST PUSH1 0x0 DUP1 REVERT JUMPDEST PUSH1 0x0 PUSH20 0xFFFFFFFFFFFFFFFFFFFFFFFFFFFFFFFFFFFFFFFF DUP3 AND SWAP1 POP SWAP2 SWAP1 POP JUMP JUMPDEST PUSH1 0x0 PUSH2 0x3AC DUP3 PUSH2 0x381 JUMP JUMPDEST SWAP1 POP SWAP2 SWAP1 POP JUMP JUMPDEST PUSH1 0x0 PUSH2 0x3BE DUP3 PUSH2 0x3A1 JUMP JUMPDEST SWAP1 POP SWAP2 SWAP1 POP JUMP JUMPDEST PUSH2 0x3CE DUP2 PUSH2 0x3B3 JUMP JUMPDEST DUP2 EQ PUSH2 0x3D9 JUMPI PUSH1 0x0 DUP1 REVERT JUMPDEST POP JUMP JUMPDEST PUSH1 0x0 DUP2 CALLDATALOAD SWAP1 POP PUSH2 0x3EB DUP2 PUSH2 0x3C5 JUMP JUMPDEST SWAP3 SWAP2 POP POP JUMP JUMPDEST PUSH1 0x0 PUSH1 0x20 DUP3 DUP5 SUB SLT ISZERO PUSH2 0x407 JUMPI PUSH2 0x406 PUSH2 0x37C JUMP JUMPDEST JUMPDEST PUSH1 0x0 PUSH2 0x415 DUP5 DUP3 DUP6 ADD PUSH2 0x3DC JUMP JUMPDEST SWAP2 POP POP SWAP3 SWAP2 POP POP JUMP JUMPDEST PUSH1 0x0 DUP2 SWAP1 POP SWAP2 SWAP1 POP JUMP JUMPDEST PUSH2 0x431 DUP2 PUSH2 0x41E JUMP JUMPDEST DUP3 MSTORE POP POP JUMP JUMPDEST PUSH1 0x0 PUSH1 0x40 DUP3 ADD SWAP1 POP PUSH2 0x44C PUSH1 0x0 DUP4 ADD DUP6 PUSH2 0x428 JUMP JUMPDEST PUSH2 0x459 PUSH1 0x20 DUP4 ADD DUP5 PUSH2 0x428 JUMP JUMPDEST SWAP4 SWAP3 POP POP POP JUMP JUMPDEST PUSH2 0x469 DUP2 PUSH2 0x41E JUMP JUMPDEST DUP2 EQ PUSH2 0x474 JUMPI PUSH1 0x0 DUP1 REVERT JUMPDEST POP JUMP JUMPDEST PUSH1 0x0 DUP2 CALLDATALOAD SWAP1 POP PUSH2 0x486 DUP2 PUSH2 0x460 JUMP JUMPDEST SWAP3 SWAP2 POP POP JUMP JUMPDEST PUSH1 0x0 DUP1 PUSH1 0x40 DUP4 DUP6 SUB SLT ISZERO PUSH2 0x4A3 JUMPI PUSH2 0x4A2 PUSH2 0x37C JUMP JUMPDEST JUMPDEST PUSH1 0x0 PUSH2 0x4B1 DUP6 DUP3 DUP7 ADD PUSH2 0x3DC JUMP JUMPDEST SWAP3 POP POP PUSH1 0x20 PUSH2 0x4C2 DUP6 DUP3 DUP7 ADD PUSH2 0x477 JUMP JUMPDEST SWAP2 POP POP SWAP3 POP SWAP3 SWAP1 POP JUMP JUMPDEST PUSH2 0x4D5 DUP2 PUSH2 0x3A1 JUMP JUMPDEST DUP2 EQ PUSH2 0x4E0 JUMPI PUSH1 0x0 DUP1 REVERT JUMPDEST POP JUMP JUMPDEST PUSH1 0x0 DUP2 CALLDATALOAD SWAP1 POP PUSH2 0x4F2 DUP2 PUSH2 0x4CC JUMP JUMPDEST SWAP3 SWAP2 POP POP JUMP JUMPDEST PUSH1 0x0 DUP1 PUSH1 0x40 DUP4 DUP6 SUB SLT ISZERO PUSH2 0x50F JUMPI PUSH2 0x50E PUSH2 0x37C JUMP JUMPDEST JUMPDEST PUSH1 0x0 PUSH2 0x51D DUP6 DUP3 DUP7 ADD PUSH2 0x4E3 JUMP JUMPDEST SWAP3 POP POP PUSH1 0x20 PUSH2 0x52E DUP6 DUP3 DUP7 ADD PUSH2 0x477 JUMP JUMPDEST SWAP2 POP POP SWAP3 POP SWAP3 SWAP1 POP JUMP JUMPDEST PUSH1 0x0 PUSH1 0x20 DUP3 DUP5 SUB SLT ISZERO PUSH2 0x54E JUMPI PUSH2 0x54D PUSH2 0x37C JUMP JUMPDEST JUMPDEST PUSH1 0x0 PUSH2 0x55C DUP5 DUP3 DUP6 ADD PUSH2 0x4E3 JUMP JUMPDEST SWAP2 POP POP SWAP3 SWAP2 POP POP JUMP JUMPDEST PUSH1 0x0 PUSH1 0x20 DUP3 ADD SWAP1 POP PUSH2 0x57A PUSH1 0x0 DUP4 ADD DUP5 PUSH2 0x428 JUMP JUMPDEST SWAP3 SWAP2 POP POP JUMP JUMPDEST PUSH1 0x0 DUP2 MLOAD SWAP1 POP PUSH2 0x58F DUP2 PUSH2 0x460 JUMP JUMPDEST SWAP3 SWAP2 POP POP JUMP JUMPDEST PUSH1 0x0 DUP1 PUSH1 0x40 DUP4 DUP6 SUB SLT ISZERO PUSH2 0x5AC JUMPI PUSH2 0x5AB PUSH2 0x37C JUMP JUMPDEST JUMPDEST PUSH1 0x0 PUSH2 0x5BA DUP6 DUP3 DUP7 ADD PUSH2 0x580 JUMP JUMPDEST SWAP3 POP POP PUSH1 0x20 PUSH2 0x5CB DUP6 DUP3 DUP7 ADD PUSH2 0x580 JUMP JUMPDEST SWAP2 POP POP SWAP3 POP SWAP3 SWAP1 POP JUMP JUMPDEST PUSH1 0x0 PUSH1 0x20 DUP3 DUP5 SUB SLT ISZERO PUSH2 0x5EB JUMPI PUSH2 0x5EA PUSH2 0x37C JUMP JUMPDEST JUMPDEST PUSH1 0x0 PUSH2 0x5F9 DUP5 DUP3 DUP6 ADD PUSH2 0x580 JUMP JUMPDEST SWAP2 POP POP SWAP3 SWAP2 POP POP JUMP INVALID LOG2 PUSH5 0x6970667358 0x22 SLT KECCAK256 0x4A 0xB4 MSTORE 0x25 SSTORE 0x27 0xD9 0xCB 0xF7 0xB3 0x2A SWAP9 SDIV PUSH16 0x1D065825FADF6B55A5E800D98DE469CC 0xB0 SUB PUSH5 0x736F6C6343 STOP ADDMOD SLT STOP CALLER "
				},
				"gasEstimates": {
					"creation": {
						"codeDepositCost": "318400",
						"executionCost": "355",
						"totalCost": "318755"
					},
					"external": {
						"getX1(address)": "infinite",
						"getXandvalue1(address)": "infinite",
						"setX1(address,uint256)": "infinite",
						"setX2(address,uint256)": "infinite",
						"setXAndEth(address,uint256)": "infinite"
					}
				},
				"methodIdentifiers": {
					"getX1(address)": "d7b102ca",
					"getXandvalue1(address)": "7a8fe110",
					"setX1(address,uint256)": "a263701a",
					"setX2(address,uint256)": "ef7aea62",
					"setXAndEth(address,uint256)": "90a10755"
				}
			},
			"storageLayout": {
				"storage": [],
				"types": null
			},
			"userdoc": {
				"kind": "user",
				"methods": {},
				"version": 1
			}
		}
	}
}