{
	"contracts/advance solidity/calling contract from other contract/interface.sol": {
		"CallInterface": {
			"abi": [
				{
					"inputs": [
						{
							"internalType": "address",
							"name": "_counterAddress",
							"type": "address"
						}
					],
					"name": "IncAndGet",
					"outputs": [],
					"stateMutability": "nonpayable",
					"type": "function"
				},
				{
					"inputs": [],
					"name": "count",
					"outputs": [
						{
							"internalType": "uint256",
							"name": "",
							"type": "uint256"
						}
					],
					"stateMutability": "view",
					"type": "function"
				}
			],
			"devdoc": {
				"kind": "dev",
				"methods": {},
				"version": 1
			},
			"evm": {
				"assembly": "    /* \"contracts/advance solidity/calling contract from other contract/interface.sol\":474:779  contract CallInterface {... */\n  mstore(0x40, 0x80)\n  callvalue\n  dup1\n  iszero\n  tag_1\n  jumpi\n  0x00\n  dup1\n  revert\ntag_1:\n  pop\n  dataSize(sub_0)\n  dup1\n  dataOffset(sub_0)\n  0x00\n  codecopy\n  0x00\n  return\nstop\n\nsub_0: assembly {\n        /* \"contracts/advance solidity/calling contract from other contract/interface.sol\":474:779  contract CallInterface {... */\n      mstore(0x40, 0x80)\n      callvalue\n      dup1\n      iszero\n      tag_1\n      jumpi\n      0x00\n      dup1\n      revert\n    tag_1:\n      pop\n      jumpi(tag_2, lt(calldatasize, 0x04))\n      shr(0xe0, calldataload(0x00))\n      dup1\n      0x06661abd\n      eq\n      tag_3\n      jumpi\n      dup1\n      0x9f5a7ae0\n      eq\n      tag_4\n      jumpi\n    tag_2:\n      0x00\n      dup1\n      revert\n        /* \"contracts/advance solidity/calling contract from other contract/interface.sol\":506:523  uint public count */\n    tag_3:\n      tag_5\n      tag_6\n      jump\t// in\n    tag_5:\n      mload(0x40)\n      tag_7\n      swap2\n      swap1\n      tag_8\n      jump\t// in\n    tag_7:\n      mload(0x40)\n      dup1\n      swap2\n      sub\n      swap1\n      return\n        /* \"contracts/advance solidity/calling contract from other contract/interface.sol\":530:776  function IncAndGet(address _counterAddress) public {   // in place of external if we ... */\n    tag_4:\n      tag_9\n      0x04\n      dup1\n      calldatasize\n      sub\n      dup2\n      add\n      swap1\n      tag_10\n      swap2\n      swap1\n      tag_11\n      jump\t// in\n    tag_10:\n      tag_12\n      jump\t// in\n    tag_9:\n      stop\n        /* \"contracts/advance solidity/calling contract from other contract/interface.sol\":506:523  uint public count */\n    tag_6:\n      sload(0x00)\n      dup2\n      jump\t// out\n        /* \"contracts/advance solidity/calling contract from other contract/interface.sol\":530:776  function IncAndGet(address _counterAddress) public {   // in place of external if we ... */\n    tag_12:\n        /* \"contracts/advance solidity/calling contract from other contract/interface.sol\":634:649  _counterAddress */\n      dup1\n        /* \"contracts/advance solidity/calling contract from other contract/interface.sol\":625:654  ICounter(_counterAddress).inc */\n      0xffffffffffffffffffffffffffffffffffffffff\n      and\n      0x371303c0\n        /* \"contracts/advance solidity/calling contract from other contract/interface.sol\":625:656  ICounter(_counterAddress).inc() */\n      mload(0x40)\n      dup2\n      0xffffffff\n      and\n      0xe0\n      shl\n      dup2\n      mstore\n      0x04\n      add\n      0x00\n      mload(0x40)\n      dup1\n      dup4\n      sub\n      dup2\n      0x00\n      dup8\n      dup1\n      extcodesize\n      iszero\n      dup1\n      iszero\n      tag_14\n      jumpi\n      0x00\n      dup1\n      revert\n    tag_14:\n      pop\n      gas\n      call\n      iszero\n      dup1\n      iszero\n      tag_16\n      jumpi\n      returndatasize\n      0x00\n      dup1\n      returndatacopy\n      revert(0x00, returndatasize)\n    tag_16:\n      pop\n      pop\n      pop\n      pop\n        /* \"contracts/advance solidity/calling contract from other contract/interface.sol\":744:759  _counterAddress */\n      dup1\n        /* \"contracts/advance solidity/calling contract from other contract/interface.sol\":735:766  ICounter(_counterAddress).count */\n      0xffffffffffffffffffffffffffffffffffffffff\n      and\n      0x06661abd\n        /* \"contracts/advance solidity/calling contract from other contract/interface.sol\":735:768  ICounter(_counterAddress).count() */\n      mload(0x40)\n      dup2\n      0xffffffff\n      and\n      0xe0\n      shl\n      dup2\n      mstore\n      0x04\n      add\n      0x20\n      mload(0x40)\n      dup1\n      dup4\n      sub\n      dup2\n      dup7\n      gas\n      staticcall\n      iszero\n      dup1\n      iszero\n      tag_18\n      jumpi\n      returndatasize\n      0x00\n      dup1\n      returndatacopy\n      revert(0x00, returndatasize)\n    tag_18:\n      pop\n      pop\n      pop\n      pop\n      mload(0x40)\n      returndatasize\n      not(0x1f)\n      0x1f\n      dup3\n      add\n      and\n      dup3\n      add\n      dup1\n      0x40\n      mstore\n      pop\n      dup2\n      add\n      swap1\n      tag_19\n      swap2\n      swap1\n      tag_20\n      jump\t// in\n    tag_19:\n        /* \"contracts/advance solidity/calling contract from other contract/interface.sol\":727:732  count */\n      0x00\n        /* \"contracts/advance solidity/calling contract from other contract/interface.sol\":727:768  count = ICounter(_counterAddress).count() */\n      dup2\n      swap1\n      sstore\n      pop\n        /* \"contracts/advance solidity/calling contract from other contract/interface.sol\":530:776  function IncAndGet(address _counterAddress) public {   // in place of external if we ... */\n      pop\n      jump\t// out\n        /* \"#utility.yul\":7:84   */\n    tag_21:\n        /* \"#utility.yul\":44:51   */\n      0x00\n        /* \"#utility.yul\":73:78   */\n      dup2\n        /* \"#utility.yul\":62:78   */\n      swap1\n      pop\n        /* \"#utility.yul\":7:84   */\n      swap2\n      swap1\n      pop\n      jump\t// out\n        /* \"#utility.yul\":90:208   */\n    tag_22:\n        /* \"#utility.yul\":177:201   */\n      tag_35\n        /* \"#utility.yul\":195:200   */\n      dup2\n        /* \"#utility.yul\":177:201   */\n      tag_21\n      jump\t// in\n    tag_35:\n        /* \"#utility.yul\":172:175   */\n      dup3\n        /* \"#utility.yul\":165:202   */\n      mstore\n        /* \"#utility.yul\":90:208   */\n      pop\n      pop\n      jump\t// out\n        /* \"#utility.yul\":214:436   */\n    tag_8:\n        /* \"#utility.yul\":307:311   */\n      0x00\n        /* \"#utility.yul\":345:347   */\n      0x20\n        /* \"#utility.yul\":334:343   */\n      dup3\n        /* \"#utility.yul\":330:348   */\n      add\n        /* \"#utility.yul\":322:348   */\n      swap1\n      pop\n        /* \"#utility.yul\":358:429   */\n      tag_37\n        /* \"#utility.yul\":426:427   */\n      0x00\n        /* \"#utility.yul\":415:424   */\n      dup4\n        /* \"#utility.yul\":411:428   */\n      add\n        /* \"#utility.yul\":402:408   */\n      dup5\n        /* \"#utility.yul\":358:429   */\n      tag_22\n      jump\t// in\n    tag_37:\n        /* \"#utility.yul\":214:436   */\n      swap3\n      swap2\n      pop\n      pop\n      jump\t// out\n        /* \"#utility.yul\":523:640   */\n    tag_24:\n        /* \"#utility.yul\":632:633   */\n      0x00\n        /* \"#utility.yul\":629:630   */\n      dup1\n        /* \"#utility.yul\":622:634   */\n      revert\n        /* \"#utility.yul\":769:895   */\n    tag_26:\n        /* \"#utility.yul\":806:813   */\n      0x00\n        /* \"#utility.yul\":846:888   */\n      0xffffffffffffffffffffffffffffffffffffffff\n        /* \"#utility.yul\":839:844   */\n      dup3\n        /* \"#utility.yul\":835:889   */\n      and\n        /* \"#utility.yul\":824:889   */\n      swap1\n      pop\n        /* \"#utility.yul\":769:895   */\n      swap2\n      swap1\n      pop\n      jump\t// out\n        /* \"#utility.yul\":901:997   */\n    tag_27:\n        /* \"#utility.yul\":938:945   */\n      0x00\n        /* \"#utility.yul\":967:991   */\n      tag_43\n        /* \"#utility.yul\":985:990   */\n      dup3\n        /* \"#utility.yul\":967:991   */\n      tag_26\n      jump\t// in\n    tag_43:\n        /* \"#utility.yul\":956:991   */\n      swap1\n      pop\n        /* \"#utility.yul\":901:997   */\n      swap2\n      swap1\n      pop\n      jump\t// out\n        /* \"#utility.yul\":1003:1125   */\n    tag_28:\n        /* \"#utility.yul\":1076:1100   */\n      tag_45\n        /* \"#utility.yul\":1094:1099   */\n      dup2\n        /* \"#utility.yul\":1076:1100   */\n      tag_27\n      jump\t// in\n    tag_45:\n        /* \"#utility.yul\":1069:1074   */\n      dup2\n        /* \"#utility.yul\":1066:1101   */\n      eq\n        /* \"#utility.yul\":1056:1119   */\n      tag_46\n      jumpi\n        /* \"#utility.yul\":1115:1116   */\n      0x00\n        /* \"#utility.yul\":1112:1113   */\n      dup1\n        /* \"#utility.yul\":1105:1117   */\n      revert\n        /* \"#utility.yul\":1056:1119   */\n    tag_46:\n        /* \"#utility.yul\":1003:1125   */\n      pop\n      jump\t// out\n        /* \"#utility.yul\":1131:1270   */\n    tag_29:\n        /* \"#utility.yul\":1177:1182   */\n      0x00\n        /* \"#utility.yul\":1215:1221   */\n      dup2\n        /* \"#utility.yul\":1202:1222   */\n      calldataload\n        /* \"#utility.yul\":1193:1222   */\n      swap1\n      pop\n        /* \"#utility.yul\":1231:1264   */\n      tag_48\n        /* \"#utility.yul\":1258:1263   */\n      dup2\n        /* \"#utility.yul\":1231:1264   */\n      tag_28\n      jump\t// in\n    tag_48:\n        /* \"#utility.yul\":1131:1270   */\n      swap3\n      swap2\n      pop\n      pop\n      jump\t// out\n        /* \"#utility.yul\":1276:1605   */\n    tag_11:\n        /* \"#utility.yul\":1335:1341   */\n      0x00\n        /* \"#utility.yul\":1384:1386   */\n      0x20\n        /* \"#utility.yul\":1372:1381   */\n      dup3\n        /* \"#utility.yul\":1363:1370   */\n      dup5\n        /* \"#utility.yul\":1359:1382   */\n      sub\n        /* \"#utility.yul\":1355:1387   */\n      slt\n        /* \"#utility.yul\":1352:1471   */\n      iszero\n      tag_50\n      jumpi\n        /* \"#utility.yul\":1390:1469   */\n      tag_51\n      tag_24\n      jump\t// in\n    tag_51:\n        /* \"#utility.yul\":1352:1471   */\n    tag_50:\n        /* \"#utility.yul\":1510:1511   */\n      0x00\n        /* \"#utility.yul\":1535:1588   */\n      tag_52\n        /* \"#utility.yul\":1580:1587   */\n      dup5\n        /* \"#utility.yul\":1571:1577   */\n      dup3\n        /* \"#utility.yul\":1560:1569   */\n      dup6\n        /* \"#utility.yul\":1556:1578   */\n      add\n        /* \"#utility.yul\":1535:1588   */\n      tag_29\n      jump\t// in\n    tag_52:\n        /* \"#utility.yul\":1525:1588   */\n      swap2\n      pop\n        /* \"#utility.yul\":1481:1598   */\n      pop\n        /* \"#utility.yul\":1276:1605   */\n      swap3\n      swap2\n      pop\n      pop\n      jump\t// out\n        /* \"#utility.yul\":1611:1733   */\n    tag_30:\n        /* \"#utility.yul\":1684:1708   */\n      tag_54\n        /* \"#utility.yul\":1702:1707   */\n      dup2\n        /* \"#utility.yul\":1684:1708   */\n      tag_21\n      jump\t// in\n    tag_54:\n        /* \"#utility.yul\":1677:1682   */\n      dup2\n        /* \"#utility.yul\":1674:1709   */\n      eq\n        /* \"#utility.yul\":1664:1727   */\n      tag_55\n      jumpi\n        /* \"#utility.yul\":1723:1724   */\n      0x00\n        /* \"#utility.yul\":1720:1721   */\n      dup1\n        /* \"#utility.yul\":1713:1725   */\n      revert\n        /* \"#utility.yul\":1664:1727   */\n    tag_55:\n        /* \"#utility.yul\":1611:1733   */\n      pop\n      jump\t// out\n        /* \"#utility.yul\":1739:1882   */\n    tag_31:\n        /* \"#utility.yul\":1796:1801   */\n      0x00\n        /* \"#utility.yul\":1827:1833   */\n      dup2\n        /* \"#utility.yul\":1821:1834   */\n      mload\n        /* \"#utility.yul\":1812:1834   */\n      swap1\n      pop\n        /* \"#utility.yul\":1843:1876   */\n      tag_57\n        /* \"#utility.yul\":1870:1875   */\n      dup2\n        /* \"#utility.yul\":1843:1876   */\n      tag_30\n      jump\t// in\n    tag_57:\n        /* \"#utility.yul\":1739:1882   */\n      swap3\n      swap2\n      pop\n      pop\n      jump\t// out\n        /* \"#utility.yul\":1888:2239   */\n    tag_20:\n        /* \"#utility.yul\":1958:1964   */\n      0x00\n        /* \"#utility.yul\":2007:2009   */\n      0x20\n        /* \"#utility.yul\":1995:2004   */\n      dup3\n        /* \"#utility.yul\":1986:1993   */\n      dup5\n        /* \"#utility.yul\":1982:2005   */\n      sub\n        /* \"#utility.yul\":1978:2010   */\n      slt\n        /* \"#utility.yul\":1975:2094   */\n      iszero\n      tag_59\n      jumpi\n        /* \"#utility.yul\":2013:2092   */\n      tag_60\n      tag_24\n      jump\t// in\n    tag_60:\n        /* \"#utility.yul\":1975:2094   */\n    tag_59:\n        /* \"#utility.yul\":2133:2134   */\n      0x00\n        /* \"#utility.yul\":2158:2222   */\n      tag_61\n        /* \"#utility.yul\":2214:2221   */\n      dup5\n        /* \"#utility.yul\":2205:2211   */\n      dup3\n        /* \"#utility.yul\":2194:2203   */\n      dup6\n        /* \"#utility.yul\":2190:2212   */\n      add\n        /* \"#utility.yul\":2158:2222   */\n      tag_31\n      jump\t// in\n    tag_61:\n        /* \"#utility.yul\":2148:2222   */\n      swap2\n      pop\n        /* \"#utility.yul\":2104:2232   */\n      pop\n        /* \"#utility.yul\":1888:2239   */\n      swap3\n      swap2\n      pop\n      pop\n      jump\t// out\n\n    auxdata: 0xa2646970667358221220e9b2f1b35d46eecf85ff9f59d6c340f21e07a3e5c53600f3466f29b5baf9127f64736f6c63430008120033\n}\n",
				"bytecode": {
					"linkReferences": {},
					"object": "608060405234801561001057600080fd5b506102a6806100206000396000f3fe608060405234801561001057600080fd5b50600436106100365760003560e01c806306661abd1461003b5780639f5a7ae014610059575b600080fd5b610043610075565b604051610050919061016c565b60405180910390f35b610073600480360381019061006e91906101ea565b61007b565b005b60005481565b8073ffffffffffffffffffffffffffffffffffffffff1663371303c06040518163ffffffff1660e01b8152600401600060405180830381600087803b1580156100c357600080fd5b505af11580156100d7573d6000803e3d6000fd5b505050508073ffffffffffffffffffffffffffffffffffffffff166306661abd6040518163ffffffff1660e01b8152600401602060405180830381865afa158015610126573d6000803e3d6000fd5b505050506040513d601f19601f8201168201806040525081019061014a9190610243565b60008190555050565b6000819050919050565b61016681610153565b82525050565b6000602082019050610181600083018461015d565b92915050565b600080fd5b600073ffffffffffffffffffffffffffffffffffffffff82169050919050565b60006101b78261018c565b9050919050565b6101c7816101ac565b81146101d257600080fd5b50565b6000813590506101e4816101be565b92915050565b600060208284031215610200576101ff610187565b5b600061020e848285016101d5565b91505092915050565b61022081610153565b811461022b57600080fd5b50565b60008151905061023d81610217565b92915050565b60006020828403121561025957610258610187565b5b60006102678482850161022e565b9150509291505056fea2646970667358221220e9b2f1b35d46eecf85ff9f59d6c340f21e07a3e5c53600f3466f29b5baf9127f64736f6c63430008120033",
					"opcodes": "PUSH1 0x80 PUSH1 0x40 MSTORE CALLVALUE DUP1 ISZERO PUSH2 0x10 JUMPI PUSH1 0x0 DUP1 REVERT JUMPDEST POP PUSH2 0x2A6 DUP1 PUSH2 0x20 PUSH1 0x0 CODECOPY PUSH1 0x0 RETURN INVALID PUSH1 0x80 PUSH1 0x40 MSTORE CALLVALUE DUP1 ISZERO PUSH2 0x10 JUMPI PUSH1 0x0 DUP1 REVERT JUMPDEST POP PUSH1 0x4 CALLDATASIZE LT PUSH2 0x36 JUMPI PUSH1 0x0 CALLDATALOAD PUSH1 0xE0 SHR DUP1 PUSH4 0x6661ABD EQ PUSH2 0x3B JUMPI DUP1 PUSH4 0x9F5A7AE0 EQ PUSH2 0x59 JUMPI JUMPDEST PUSH1 0x0 DUP1 REVERT JUMPDEST PUSH2 0x43 PUSH2 0x75 JUMP JUMPDEST PUSH1 0x40 MLOAD PUSH2 0x50 SWAP2 SWAP1 PUSH2 0x16C JUMP JUMPDEST PUSH1 0x40 MLOAD DUP1 SWAP2 SUB SWAP1 RETURN JUMPDEST PUSH2 0x73 PUSH1 0x4 DUP1 CALLDATASIZE SUB DUP2 ADD SWAP1 PUSH2 0x6E SWAP2 SWAP1 PUSH2 0x1EA JUMP JUMPDEST PUSH2 0x7B JUMP JUMPDEST STOP JUMPDEST PUSH1 0x0 SLOAD DUP2 JUMP JUMPDEST DUP1 PUSH20 0xFFFFFFFFFFFFFFFFFFFFFFFFFFFFFFFFFFFFFFFF AND PUSH4 0x371303C0 PUSH1 0x40 MLOAD DUP2 PUSH4 0xFFFFFFFF AND PUSH1 0xE0 SHL DUP2 MSTORE PUSH1 0x4 ADD PUSH1 0x0 PUSH1 0x40 MLOAD DUP1 DUP4 SUB DUP2 PUSH1 0x0 DUP8 DUP1 EXTCODESIZE ISZERO DUP1 ISZERO PUSH2 0xC3 JUMPI PUSH1 0x0 DUP1 REVERT JUMPDEST POP GAS CALL ISZERO DUP1 ISZERO PUSH2 0xD7 JUMPI RETURNDATASIZE PUSH1 0x0 DUP1 RETURNDATACOPY RETURNDATASIZE PUSH1 0x0 REVERT JUMPDEST POP POP POP POP DUP1 PUSH20 0xFFFFFFFFFFFFFFFFFFFFFFFFFFFFFFFFFFFFFFFF AND PUSH4 0x6661ABD PUSH1 0x40 MLOAD DUP2 PUSH4 0xFFFFFFFF AND PUSH1 0xE0 SHL DUP2 MSTORE PUSH1 0x4 ADD PUSH1 0x20 PUSH1 0x40 MLOAD DUP1 DUP4 SUB DUP2 DUP7 GAS STATICCALL ISZERO DUP1 ISZERO PUSH2 0x126 JUMPI RETURNDATASIZE PUSH1 0x0 DUP1 RETURNDATACOPY RETURNDATASIZE PUSH1 0x0 REVERT JUMPDEST POP POP POP POP PUSH1 0x40 MLOAD RETURNDATASIZE PUSH1 0x1F NOT PUSH1 0x1F DUP3 ADD AND DUP3 ADD DUP1 PUSH1 0x40 MSTORE POP DUP2 ADD SWAP1 PUSH2 0x14A SWAP2 SWAP1 PUSH2 0x243 JUMP JUMPDEST PUSH1 0x0 DUP2 SWAP1 SSTORE POP POP JUMP JUMPDEST PUSH1 0x0 DUP2 SWAP1 POP SWAP2 SWAP1 POP JUMP JUMPDEST PUSH2 0x166 DUP2 PUSH2 0x153 JUMP JUMPDEST DUP3 MSTORE POP POP JUMP JUMPDEST PUSH1 0x0 PUSH1 0x20 DUP3 ADD SWAP1 POP PUSH2 0x181 PUSH1 0x0 DUP4 ADD DUP5 PUSH2 0x15D JUMP JUMPDEST SWAP3 SWAP2 POP POP JUMP JUMPDEST PUSH1 0x0 DUP1 REVERT JUMPDEST PUSH1 0x0 PUSH20 0xFFFFFFFFFFFFFFFFFFFFFFFFFFFFFFFFFFFFFFFF DUP3 AND SWAP1 POP SWAP2 SWAP1 POP JUMP JUMPDEST PUSH1 0x0 PUSH2 0x1B7 DUP3 PUSH2 0x18C JUMP JUMPDEST SWAP1 POP SWAP2 SWAP1 POP JUMP JUMPDEST PUSH2 0x1C7 DUP2 PUSH2 0x1AC JUMP JUMPDEST DUP2 EQ PUSH2 0x1D2 JUMPI PUSH1 0x0 DUP1 REVERT JUMPDEST POP JUMP JUMPDEST PUSH1 0x0 DUP2 CALLDATALOAD SWAP1 POP PUSH2 0x1E4 DUP2 PUSH2 0x1BE JUMP JUMPDEST SWAP3 SWAP2 POP POP JUMP JUMPDEST PUSH1 0x0 PUSH1 0x20 DUP3 DUP5 SUB SLT ISZERO PUSH2 0x200 JUMPI PUSH2 0x1FF PUSH2 0x187 JUMP JUMPDEST JUMPDEST PUSH1 0x0 PUSH2 0x20E DUP5 DUP3 DUP6 ADD PUSH2 0x1D5 JUMP JUMPDEST SWAP2 POP POP SWAP3 SWAP2 POP POP JUMP JUMPDEST PUSH2 0x220 DUP2 PUSH2 0x153 JUMP JUMPDEST DUP2 EQ PUSH2 0x22B JUMPI PUSH1 0x0 DUP1 REVERT JUMPDEST POP JUMP JUMPDEST PUSH1 0x0 DUP2 MLOAD SWAP1 POP PUSH2 0x23D DUP2 PUSH2 0x217 JUMP JUMPDEST SWAP3 SWAP2 POP POP JUMP JUMPDEST PUSH1 0x0 PUSH1 0x20 DUP3 DUP5 SUB SLT ISZERO PUSH2 0x259 JUMPI PUSH2 0x258 PUSH2 0x187 JUMP JUMPDEST JUMPDEST PUSH1 0x0 PUSH2 0x267 DUP5 DUP3 DUP6 ADD PUSH2 0x22E JUMP JUMPDEST SWAP2 POP POP SWAP3 SWAP2 POP POP JUMP INVALID LOG2 PUSH5 0x6970667358 0x22 SLT KECCAK256 0xE9 0xB2 CALL 0xB3 0x5D CHAINID 0xEE 0xCF DUP6 SELFDESTRUCT SWAP16 MSIZE 0xD6 0xC3 BLOCKHASH CALLCODE 0x1E SMOD LOG3 0xE5 0xC5 CALLDATASIZE STOP RETURN CHAINID PUSH16 0x29B5BAF9127F64736F6C634300081200 CALLER "
				},
				"gasEstimates": {
					"creation": {
						"codeDepositCost": "135600",
						"executionCost": "183",
						"totalCost": "135783"
					},
					"external": {
						"IncAndGet(address)": "infinite",
						"count()": "2407"
					}
				},
				"methodIdentifiers": {
					"IncAndGet(address)": "9f5a7ae0",
					"count()": "06661abd"
				}
			},
			"storageLayout": {
				"storage": [
					{
						"astId": 12,
						"contract": "contracts/advance solidity/calling contract from other contract/interface.sol:CallInterface",
						"label": "count",
						"offset": 0,
						"slot": "0",
						"type": "t_uint256"
					}
				],
				"types": {
					"t_uint256": {
						"encoding": "inplace",
						"label": "uint256",
						"numberOfBytes": "32"
					}
				}
			},
			"userdoc": {
				"kind": "user",
				"methods": {},
				"version": 1
			}
		}
	}
}