{
	"contracts/struct.sol": {
		"schedule": {
			"abi": [
				{
					"inputs": [
						{
							"internalType": "string",
							"name": "_text",
							"type": "string"
						}
					],
					"name": "create",
					"outputs": [],
					"stateMutability": "nonpayable",
					"type": "function"
				},
				{
					"inputs": [
						{
							"internalType": "uint256",
							"name": "_index",
							"type": "uint256"
						}
					],
					"name": "get",
					"outputs": [
						{
							"internalType": "string",
							"name": "text",
							"type": "string"
						},
						{
							"internalType": "bool",
							"name": "completed",
							"type": "bool"
						}
					],
					"stateMutability": "view",
					"type": "function"
				},
				{
					"inputs": [
						{
							"internalType": "uint256",
							"name": "",
							"type": "uint256"
						}
					],
					"name": "todo",
					"outputs": [
						{
							"internalType": "string",
							"name": "text",
							"type": "string"
						},
						{
							"internalType": "bool",
							"name": "completed",
							"type": "bool"
						}
					],
					"stateMutability": "view",
					"type": "function"
				},
				{
					"inputs": [
						{
							"internalType": "uint256",
							"name": "_index",
							"type": "uint256"
						}
					],
					"name": "togglecomplete",
					"outputs": [],
					"stateMutability": "nonpayable",
					"type": "function"
				}
			],
			"devdoc": {
				"kind": "dev",
				"methods": {},
				"version": 1
			},
			"evm": {
				"assembly": "    /* \"contracts/struct.sol\":60:1219  contract schedule{... */\n  mstore(0x40, 0x80)\n  callvalue\n  dup1\n  iszero\n  tag_1\n  jumpi\n  0x00\n  dup1\n  revert\ntag_1:\n  pop\n  dataSize(sub_0)\n  dup1\n  dataOffset(sub_0)\n  0x00\n  codecopy\n  0x00\n  return\nstop\n\nsub_0: assembly {\n        /* \"contracts/struct.sol\":60:1219  contract schedule{... */\n      mstore(0x40, 0x80)\n      callvalue\n      dup1\n      iszero\n      tag_1\n      jumpi\n      0x00\n      dup1\n      revert\n    tag_1:\n      pop\n      jumpi(tag_2, lt(calldatasize, 0x04))\n      shr(0xe0, calldataload(0x00))\n      dup1\n      0x89b5aadd\n      eq\n      tag_3\n      jumpi\n      dup1\n      0x9507d39a\n      eq\n      tag_4\n      jumpi\n      dup1\n      0xb6a46b3b\n      eq\n      tag_5\n      jumpi\n      dup1\n      0xcc090040\n      eq\n      tag_6\n      jumpi\n    tag_2:\n      0x00\n      dup1\n      revert\n        /* \"contracts/struct.sol\":165:187  template[] public todo */\n    tag_3:\n      tag_7\n      tag_8\n      calldatasize\n      0x04\n      tag_9\n      jump\t// in\n    tag_8:\n      tag_10\n      jump\t// in\n    tag_7:\n      mload(0x40)\n      tag_11\n      swap3\n      swap2\n      swap1\n      tag_12\n      jump\t// in\n    tag_11:\n      mload(0x40)\n      dup1\n      swap2\n      sub\n      swap1\n      return\n        /* \"contracts/struct.sol\":490:676  function get(uint _index) public view returns (string memory text, bool completed){... */\n    tag_4:\n      tag_7\n      tag_14\n      calldatasize\n      0x04\n      tag_9\n      jump\t// in\n    tag_14:\n      tag_15\n      jump\t// in\n        /* \"contracts/struct.sol\":196:482  function create(string calldata _text) public {... */\n    tag_5:\n      tag_17\n      tag_18\n      calldatasize\n      0x04\n      tag_19\n      jump\t// in\n    tag_18:\n      tag_20\n      jump\t// in\n    tag_17:\n      stop\n        /* \"contracts/struct.sol\":684:965  function togglecomplete(uint _index) public {... */\n    tag_6:\n      tag_17\n      tag_22\n      calldatasize\n      0x04\n      tag_9\n      jump\t// in\n    tag_22:\n      tag_23\n      jump\t// in\n        /* \"contracts/struct.sol\":165:187  template[] public todo */\n    tag_10:\n      0x00\n      dup2\n      dup2\n      sload\n      dup2\n      lt\n      tag_24\n      jumpi\n      0x00\n      dup1\n      revert\n    tag_24:\n      swap1\n      0x00\n      mstore\n      keccak256(0x00, 0x20)\n      swap1\n      0x02\n      mul\n      add\n      0x00\n      swap2\n      pop\n      swap1\n      pop\n      dup1\n      0x00\n      add\n      dup1\n      sload\n      tag_26\n      swap1\n      tag_27\n      jump\t// in\n    tag_26:\n      dup1\n      0x1f\n      add\n      0x20\n      dup1\n      swap2\n      div\n      mul\n      0x20\n      add\n      mload(0x40)\n      swap1\n      dup2\n      add\n      0x40\n      mstore\n      dup1\n      swap3\n      swap2\n      swap1\n      dup2\n      dup2\n      mstore\n      0x20\n      add\n      dup3\n      dup1\n      sload\n      tag_28\n      swap1\n      tag_27\n      jump\t// in\n    tag_28:\n      dup1\n      iszero\n      tag_29\n      jumpi\n      dup1\n      0x1f\n      lt\n      tag_30\n      jumpi\n      0x0100\n      dup1\n      dup4\n      sload\n      div\n      mul\n      dup4\n      mstore\n      swap2\n      0x20\n      add\n      swap2\n      jump(tag_29)\n    tag_30:\n      dup3\n      add\n      swap2\n      swap1\n      0x00\n      mstore\n      keccak256(0x00, 0x20)\n      swap1\n    tag_31:\n      dup2\n      sload\n      dup2\n      mstore\n      swap1\n      0x01\n      add\n      swap1\n      0x20\n      add\n      dup1\n      dup4\n      gt\n      tag_31\n      jumpi\n      dup3\n      swap1\n      sub\n      0x1f\n      and\n      dup3\n      add\n      swap2\n    tag_29:\n      pop\n      pop\n      pop\n      0x01\n      swap1\n      swap4\n      add\n      sload\n      swap2\n      swap3\n      pop\n      pop\n      0xff\n      and\n      dup3\n      jump\t// out\n        /* \"contracts/struct.sol\":490:676  function get(uint _index) public view returns (string memory text, bool completed){... */\n    tag_15:\n        /* \"contracts/struct.sol\":537:555  string memory text */\n      0x60\n        /* \"contracts/struct.sol\":557:571  bool completed */\n      0x00\n        /* \"contracts/struct.sol\":583:605  template storage todo1 */\n      dup1\n        /* \"contracts/struct.sol\":608:612  todo */\n      0x00\n        /* \"contracts/struct.sol\":613:619  _index */\n      dup5\n        /* \"contracts/struct.sol\":608:620  todo[_index] */\n      dup2\n      sload\n      dup2\n      lt\n      tag_34\n      jumpi\n      tag_34\n      tag_35\n      jump\t// in\n    tag_34:\n      swap1\n      0x00\n      mstore\n      keccak256(0x00, 0x20)\n      swap1\n      0x02\n      mul\n      add\n        /* \"contracts/struct.sol\":583:620  template storage todo1 = todo[_index] */\n      swap1\n      pop\n        /* \"contracts/struct.sol\":640:645  todo1 */\n      dup1\n        /* \"contracts/struct.sol\":640:650  todo1.text */\n      0x00\n      add\n        /* \"contracts/struct.sol\":652:657  todo1 */\n      dup2\n        /* \"contracts/struct.sol\":652:667  todo1.completed */\n      0x01\n      add\n      0x00\n      swap1\n      sload\n      swap1\n      0x0100\n      exp\n      swap1\n      div\n      0xff\n      and\n        /* \"contracts/struct.sol\":631:668  return ( todo1.text, todo1.completed) */\n      dup2\n      dup1\n      sload\n      tag_37\n      swap1\n      tag_27\n      jump\t// in\n    tag_37:\n      dup1\n      0x1f\n      add\n      0x20\n      dup1\n      swap2\n      div\n      mul\n      0x20\n      add\n      mload(0x40)\n      swap1\n      dup2\n      add\n      0x40\n      mstore\n      dup1\n      swap3\n      swap2\n      swap1\n      dup2\n      dup2\n      mstore\n      0x20\n      add\n      dup3\n      dup1\n      sload\n      tag_38\n      swap1\n      tag_27\n      jump\t// in\n    tag_38:\n      dup1\n      iszero\n      tag_39\n      jumpi\n      dup1\n      0x1f\n      lt\n      tag_40\n      jumpi\n      0x0100\n      dup1\n      dup4\n      sload\n      div\n      mul\n      dup4\n      mstore\n      swap2\n      0x20\n      add\n      swap2\n      jump(tag_39)\n    tag_40:\n      dup3\n      add\n      swap2\n      swap1\n      0x00\n      mstore\n      keccak256(0x00, 0x20)\n      swap1\n    tag_41:\n      dup2\n      sload\n      dup2\n      mstore\n      swap1\n      0x01\n      add\n      swap1\n      0x20\n      add\n      dup1\n      dup4\n      gt\n      tag_41\n      jumpi\n      dup3\n      swap1\n      sub\n      0x1f\n      and\n      dup3\n      add\n      swap2\n    tag_39:\n      pop\n      pop\n      pop\n      pop\n      pop\n      swap2\n      pop\n      swap3\n      pop\n      swap3\n      pop\n      pop\n        /* \"contracts/struct.sol\":490:676  function get(uint _index) public view returns (string memory text, bool completed){... */\n      swap2\n      pop\n      swap2\n      jump\t// out\n        /* \"contracts/struct.sol\":196:482  function create(string calldata _text) public {... */\n    tag_20:\n        /* \"contracts/struct.sol\":308:330  template(_text, false) */\n      0x40\n      dup1\n      mload\n      0x60\n      0x20\n      0x1f\n      dup6\n      add\n      dup2\n      swap1\n      div\n      mul\n      dup3\n      add\n      dup2\n      add\n      dup4\n      mstore\n      swap2\n      dup2\n      add\n      dup4\n      dup2\n      mstore\n        /* \"contracts/struct.sol\":298:302  todo */\n      0x00\n      swap3\n        /* \"contracts/struct.sol\":308:330  template(_text, false) */\n      dup3\n      swap2\n      swap1\n        /* \"contracts/struct.sol\":317:322  _text */\n      dup7\n      swap1\n      dup7\n      swap1\n      dup2\n      swap1\n        /* \"contracts/struct.sol\":308:330  template(_text, false) */\n      dup6\n      add\n        /* \"contracts/struct.sol\":317:322  _text */\n      dup4\n      dup3\n      dup1\n      dup3\n        /* \"contracts/struct.sol\":308:330  template(_text, false) */\n      dup5\n      calldatacopy\n      0x00\n      swap3\n      add\n      dup3\n      swap1\n      mstore\n      pop\n      swap4\n      dup6\n      mstore\n      pop\n      pop\n      pop\n      0x20\n      swap2\n      dup3\n      add\n      dup2\n      swap1\n      mstore\n        /* \"contracts/struct.sol\":298:331  todo.push(template(_text, false)) */\n      dup4\n      sload\n        /* \"contracts/struct.sol\":308:330  template(_text, false) */\n      0x01\n        /* \"contracts/struct.sol\":298:331  todo.push(template(_text, false)) */\n      dup2\n      add\n      dup6\n      sstore\n      swap4\n      dup2\n      mstore\n      keccak256\n      dup2\n      mload\n      swap2\n      swap3\n      0x02\n      mul\n      add\n      swap1\n      dup2\n      swap1\n      tag_44\n      swap1\n      dup3\n      tag_45\n      jump\t// in\n    tag_44:\n      pop\n      0x20\n      swap2\n      dup3\n      add\n      mload\n      0x01\n      swap2\n      swap1\n      swap2\n      add\n      dup1\n      sload\n      not(0xff)\n      and\n      swap2\n      iszero\n      iszero\n      swap2\n      swap1\n      swap2\n      or\n      swap1\n      sstore\n      0x40\n      dup1\n      mload\n      dup1\n      dup3\n      add\n      dup3\n      mstore\n      0x60\n      dup2\n      mstore\n      0x00\n      dup2\n      dup5\n      add\n      mstore\n        /* \"contracts/struct.sol\":376:394  todo1.text = _text */\n      dup2\n      mload\n      0x1f\n      dup6\n      add\n      dup5\n      swap1\n      div\n      dup5\n      mul\n      dup2\n      add\n      dup5\n      add\n      swap1\n      swap3\n      mstore\n      dup4\n      dup3\n      mstore\n      swap2\n        /* \"contracts/struct.sol\":389:394  _text */\n      dup5\n      swap1\n        /* \"contracts/struct.sol\":376:394  todo1.text = _text */\n      dup5\n      swap1\n      dup2\n      swap1\n      dup5\n      add\n        /* \"contracts/struct.sol\":389:394  _text */\n      dup4\n        /* \"contracts/struct.sol\":376:394  todo1.text = _text */\n      dup3\n      dup1\n        /* \"contracts/struct.sol\":389:394  _text */\n      dup3\n        /* \"contracts/struct.sol\":376:394  todo1.text = _text */\n      dup5\n      calldatacopy\n      0x00\n      swap3\n      add\n      dup3\n      swap1\n      mstore\n      pop\n      swap4\n      dup6\n      mstore\n      pop\n      pop\n        /* \"contracts/struct.sol\":458:474  todo.push(todo1) */\n      dup2\n      sload\n      0x01\n      dup2\n      add\n      dup4\n      sstore\n      swap2\n      dup1\n      mstore\n      pop\n      dup2\n      mload\n        /* \"contracts/struct.sol\":376:381  todo1 */\n      dup3\n      swap2\n        /* \"contracts/struct.sol\":458:474  todo.push(todo1) */\n      0x02\n      mul\n      0x290decd9548b62a8d60345a988386fc84ba6bc95484008f6362f93160ef3e563\n      add\n      swap1\n      dup2\n      swap1\n      tag_49\n      swap1\n      dup3\n      tag_45\n      jump\t// in\n    tag_49:\n      pop\n      0x20\n      swap2\n      swap1\n      swap2\n      add\n      mload\n      0x01\n      swap1\n      swap2\n      add\n      dup1\n      sload\n      not(0xff)\n      and\n      swap2\n      iszero\n      iszero\n      swap2\n      swap1\n      swap2\n      or\n      swap1\n      sstore\n      pop\n      pop\n      pop\n        /* \"contracts/struct.sol\":196:482  function create(string calldata _text) public {... */\n      jump\t// out\n        /* \"contracts/struct.sol\":684:965  function togglecomplete(uint _index) public {... */\n    tag_23:\n        /* \"contracts/struct.sol\":739:761  template storage todo1 */\n      0x00\n        /* \"contracts/struct.sol\":764:768  todo */\n      dup1\n        /* \"contracts/struct.sol\":769:775  _index */\n      dup3\n        /* \"contracts/struct.sol\":764:776  todo[_index] */\n      dup2\n      sload\n      dup2\n      lt\n      tag_52\n      jumpi\n      tag_52\n      tag_35\n      jump\t// in\n    tag_52:\n      0x00\n      swap2\n      dup3\n      mstore\n      0x20\n      swap1\n      swap2\n      keccak256\n        /* \"contracts/struct.sol\":848:863  todo1.completed */\n      0x01\n        /* \"contracts/struct.sol\":764:776  todo[_index] */\n      0x02\n      swap1\n      swap3\n      mul\n      add\n        /* \"contracts/struct.sol\":848:863  todo1.completed */\n      add\n      dup1\n      sload\n      not(0xff)\n        /* \"contracts/struct.sol\":829:863  todo1.completed = !todo1.completed */\n      dup2\n      and\n        /* \"contracts/struct.sol\":848:863  todo1.completed */\n      0xff\n      swap1\n      swap2\n      and\n        /* \"contracts/struct.sol\":847:863  !todo1.completed */\n      iszero\n        /* \"contracts/struct.sol\":829:863  todo1.completed = !todo1.completed */\n      or\n      swap1\n      sstore\n      pop\n      pop\n        /* \"contracts/struct.sol\":684:965  function togglecomplete(uint _index) public {... */\n      jump\t// out\n        /* \"#utility.yul\":14:194   */\n    tag_9:\n        /* \"#utility.yul\":73:79   */\n      0x00\n        /* \"#utility.yul\":126:128   */\n      0x20\n        /* \"#utility.yul\":114:123   */\n      dup3\n        /* \"#utility.yul\":105:112   */\n      dup5\n        /* \"#utility.yul\":101:124   */\n      sub\n        /* \"#utility.yul\":97:129   */\n      slt\n        /* \"#utility.yul\":94:146   */\n      iszero\n      tag_60\n      jumpi\n        /* \"#utility.yul\":142:143   */\n      0x00\n        /* \"#utility.yul\":139:140   */\n      dup1\n        /* \"#utility.yul\":132:144   */\n      revert\n        /* \"#utility.yul\":94:146   */\n    tag_60:\n      pop\n        /* \"#utility.yul\":165:188   */\n      calldataload\n      swap2\n        /* \"#utility.yul\":14:194   */\n      swap1\n      pop\n      jump\t// out\n        /* \"#utility.yul\":199:813   */\n    tag_12:\n        /* \"#utility.yul\":370:372   */\n      0x40\n        /* \"#utility.yul\":359:368   */\n      dup2\n        /* \"#utility.yul\":352:373   */\n      mstore\n        /* \"#utility.yul\":333:337   */\n      0x00\n        /* \"#utility.yul\":402:408   */\n      dup4\n        /* \"#utility.yul\":396:409   */\n      mload\n        /* \"#utility.yul\":445:451   */\n      dup1\n        /* \"#utility.yul\":440:442   */\n      0x40\n        /* \"#utility.yul\":429:438   */\n      dup5\n        /* \"#utility.yul\":425:443   */\n      add\n        /* \"#utility.yul\":418:452   */\n      mstore\n        /* \"#utility.yul\":470:471   */\n      0x00\n        /* \"#utility.yul\":480:624   */\n    tag_62:\n        /* \"#utility.yul\":494:500   */\n      dup2\n        /* \"#utility.yul\":491:492   */\n      dup2\n        /* \"#utility.yul\":488:501   */\n      lt\n        /* \"#utility.yul\":480:624   */\n      iszero\n      tag_64\n      jumpi\n        /* \"#utility.yul\":607:611   */\n      0x20\n        /* \"#utility.yul\":591:605   */\n      dup2\n      dup8\n      add\n        /* \"#utility.yul\":587:612   */\n      dup2\n      add\n        /* \"#utility.yul\":581:613   */\n      mload\n        /* \"#utility.yul\":576:578   */\n      0x60\n        /* \"#utility.yul\":557:574   */\n      dup7\n      dup5\n      add\n        /* \"#utility.yul\":553:579   */\n      add\n        /* \"#utility.yul\":546:614   */\n      mstore\n        /* \"#utility.yul\":509:521   */\n      add\n        /* \"#utility.yul\":480:624   */\n      jump(tag_62)\n    tag_64:\n        /* \"#utility.yul\":484:487   */\n      pop\n        /* \"#utility.yul\":673:674   */\n      0x00\n        /* \"#utility.yul\":668:670   */\n      0x60\n        /* \"#utility.yul\":659:665   */\n      dup3\n        /* \"#utility.yul\":648:657   */\n      dup6\n        /* \"#utility.yul\":644:666   */\n      add\n        /* \"#utility.yul\":640:671   */\n      add\n        /* \"#utility.yul\":633:675   */\n      mstore\n        /* \"#utility.yul\":743:745   */\n      0x60\n        /* \"#utility.yul\":736:738   */\n      0x1f\n        /* \"#utility.yul\":732:739   */\n      not\n        /* \"#utility.yul\":727:729   */\n      0x1f\n        /* \"#utility.yul\":719:725   */\n      dup4\n        /* \"#utility.yul\":715:730   */\n      add\n        /* \"#utility.yul\":711:740   */\n      and\n        /* \"#utility.yul\":700:709   */\n      dup5\n        /* \"#utility.yul\":696:741   */\n      add\n        /* \"#utility.yul\":692:746   */\n      add\n        /* \"#utility.yul\":684:746   */\n      swap2\n      pop\n      pop\n        /* \"#utility.yul\":798:804   */\n      dup3\n        /* \"#utility.yul\":791:805   */\n      iszero\n        /* \"#utility.yul\":784:806   */\n      iszero\n        /* \"#utility.yul\":777:781   */\n      0x20\n        /* \"#utility.yul\":766:775   */\n      dup4\n        /* \"#utility.yul\":762:782   */\n      add\n        /* \"#utility.yul\":755:807   */\n      mstore\n        /* \"#utility.yul\":199:813   */\n      swap4\n      swap3\n      pop\n      pop\n      pop\n      jump\t// out\n        /* \"#utility.yul\":818:1410   */\n    tag_19:\n        /* \"#utility.yul\":889:895   */\n      0x00\n        /* \"#utility.yul\":897:903   */\n      dup1\n        /* \"#utility.yul\":950:952   */\n      0x20\n        /* \"#utility.yul\":938:947   */\n      dup4\n        /* \"#utility.yul\":929:936   */\n      dup6\n        /* \"#utility.yul\":925:948   */\n      sub\n        /* \"#utility.yul\":921:953   */\n      slt\n        /* \"#utility.yul\":918:970   */\n      iszero\n      tag_66\n      jumpi\n        /* \"#utility.yul\":966:967   */\n      0x00\n        /* \"#utility.yul\":963:964   */\n      dup1\n        /* \"#utility.yul\":956:968   */\n      revert\n        /* \"#utility.yul\":918:970   */\n    tag_66:\n        /* \"#utility.yul\":1006:1015   */\n      dup3\n        /* \"#utility.yul\":993:1016   */\n      calldataload\n        /* \"#utility.yul\":1035:1053   */\n      0xffffffffffffffff\n        /* \"#utility.yul\":1076:1078   */\n      dup1\n        /* \"#utility.yul\":1068:1074   */\n      dup3\n        /* \"#utility.yul\":1065:1079   */\n      gt\n        /* \"#utility.yul\":1062:1096   */\n      iszero\n      tag_67\n      jumpi\n        /* \"#utility.yul\":1092:1093   */\n      0x00\n        /* \"#utility.yul\":1089:1090   */\n      dup1\n        /* \"#utility.yul\":1082:1094   */\n      revert\n        /* \"#utility.yul\":1062:1096   */\n    tag_67:\n        /* \"#utility.yul\":1130:1136   */\n      dup2\n        /* \"#utility.yul\":1119:1128   */\n      dup6\n        /* \"#utility.yul\":1115:1137   */\n      add\n        /* \"#utility.yul\":1105:1137   */\n      swap2\n      pop\n        /* \"#utility.yul\":1175:1182   */\n      dup6\n        /* \"#utility.yul\":1168:1172   */\n      0x1f\n        /* \"#utility.yul\":1164:1166   */\n      dup4\n        /* \"#utility.yul\":1160:1173   */\n      add\n        /* \"#utility.yul\":1156:1183   */\n      slt\n        /* \"#utility.yul\":1146:1201   */\n      tag_68\n      jumpi\n        /* \"#utility.yul\":1197:1198   */\n      0x00\n        /* \"#utility.yul\":1194:1195   */\n      dup1\n        /* \"#utility.yul\":1187:1199   */\n      revert\n        /* \"#utility.yul\":1146:1201   */\n    tag_68:\n        /* \"#utility.yul\":1237:1239   */\n      dup2\n        /* \"#utility.yul\":1224:1240   */\n      calldataload\n        /* \"#utility.yul\":1263:1265   */\n      dup2\n        /* \"#utility.yul\":1255:1261   */\n      dup2\n        /* \"#utility.yul\":1252:1266   */\n      gt\n        /* \"#utility.yul\":1249:1283   */\n      iszero\n      tag_69\n      jumpi\n        /* \"#utility.yul\":1279:1280   */\n      0x00\n        /* \"#utility.yul\":1276:1277   */\n      dup1\n        /* \"#utility.yul\":1269:1281   */\n      revert\n        /* \"#utility.yul\":1249:1283   */\n    tag_69:\n        /* \"#utility.yul\":1324:1331   */\n      dup7\n        /* \"#utility.yul\":1319:1321   */\n      0x20\n        /* \"#utility.yul\":1310:1316   */\n      dup3\n        /* \"#utility.yul\":1306:1308   */\n      dup6\n        /* \"#utility.yul\":1302:1317   */\n      add\n        /* \"#utility.yul\":1298:1322   */\n      add\n        /* \"#utility.yul\":1295:1332   */\n      gt\n        /* \"#utility.yul\":1292:1349   */\n      iszero\n      tag_70\n      jumpi\n        /* \"#utility.yul\":1345:1346   */\n      0x00\n        /* \"#utility.yul\":1342:1343   */\n      dup1\n        /* \"#utility.yul\":1335:1347   */\n      revert\n        /* \"#utility.yul\":1292:1349   */\n    tag_70:\n        /* \"#utility.yul\":1376:1378   */\n      0x20\n        /* \"#utility.yul\":1368:1379   */\n      swap3\n      swap1\n      swap3\n      add\n      swap7\n        /* \"#utility.yul\":1398:1404   */\n      swap2\n      swap6\n      pop\n        /* \"#utility.yul\":818:1410   */\n      swap1\n      swap4\n      pop\n      pop\n      pop\n      pop\n      jump\t// out\n        /* \"#utility.yul\":1415:1795   */\n    tag_27:\n        /* \"#utility.yul\":1494:1495   */\n      0x01\n        /* \"#utility.yul\":1490:1502   */\n      dup2\n      dup2\n      shr\n      swap1\n        /* \"#utility.yul\":1537:1549   */\n      dup3\n      and\n      dup1\n        /* \"#utility.yul\":1558:1619   */\n      tag_72\n      jumpi\n        /* \"#utility.yul\":1612:1616   */\n      0x7f\n        /* \"#utility.yul\":1604:1610   */\n      dup3\n        /* \"#utility.yul\":1600:1617   */\n      and\n        /* \"#utility.yul\":1590:1617   */\n      swap2\n      pop\n        /* \"#utility.yul\":1558:1619   */\n    tag_72:\n        /* \"#utility.yul\":1665:1667   */\n      0x20\n        /* \"#utility.yul\":1657:1663   */\n      dup3\n        /* \"#utility.yul\":1654:1668   */\n      lt\n        /* \"#utility.yul\":1634:1652   */\n      dup2\n        /* \"#utility.yul\":1631:1669   */\n      sub\n        /* \"#utility.yul\":1628:1789   */\n      tag_73\n      jumpi\n        /* \"#utility.yul\":1711:1721   */\n      0x4e487b71\n        /* \"#utility.yul\":1706:1709   */\n      0xe0\n        /* \"#utility.yul\":1702:1722   */\n      shl\n        /* \"#utility.yul\":1699:1700   */\n      0x00\n        /* \"#utility.yul\":1692:1723   */\n      mstore\n        /* \"#utility.yul\":1746:1750   */\n      0x22\n        /* \"#utility.yul\":1743:1744   */\n      0x04\n        /* \"#utility.yul\":1736:1751   */\n      mstore\n        /* \"#utility.yul\":1774:1778   */\n      0x24\n        /* \"#utility.yul\":1771:1772   */\n      0x00\n        /* \"#utility.yul\":1764:1779   */\n      revert\n        /* \"#utility.yul\":1628:1789   */\n    tag_73:\n      pop\n        /* \"#utility.yul\":1415:1795   */\n      swap2\n      swap1\n      pop\n      jump\t// out\n        /* \"#utility.yul\":1800:1927   */\n    tag_35:\n        /* \"#utility.yul\":1861:1871   */\n      0x4e487b71\n        /* \"#utility.yul\":1856:1859   */\n      0xe0\n        /* \"#utility.yul\":1852:1872   */\n      shl\n        /* \"#utility.yul\":1849:1850   */\n      0x00\n        /* \"#utility.yul\":1842:1873   */\n      mstore\n        /* \"#utility.yul\":1892:1896   */\n      0x32\n        /* \"#utility.yul\":1889:1890   */\n      0x04\n        /* \"#utility.yul\":1882:1897   */\n      mstore\n        /* \"#utility.yul\":1916:1920   */\n      0x24\n        /* \"#utility.yul\":1913:1914   */\n      0x00\n        /* \"#utility.yul\":1906:1921   */\n      revert\n        /* \"#utility.yul\":1932:2059   */\n    tag_54:\n        /* \"#utility.yul\":1993:2003   */\n      0x4e487b71\n        /* \"#utility.yul\":1988:1991   */\n      0xe0\n        /* \"#utility.yul\":1984:2004   */\n      shl\n        /* \"#utility.yul\":1981:1982   */\n      0x00\n        /* \"#utility.yul\":1974:2005   */\n      mstore\n        /* \"#utility.yul\":2024:2028   */\n      0x41\n        /* \"#utility.yul\":2021:2022   */\n      0x04\n        /* \"#utility.yul\":2014:2029   */\n      mstore\n        /* \"#utility.yul\":2048:2052   */\n      0x24\n        /* \"#utility.yul\":2045:2046   */\n      0x00\n        /* \"#utility.yul\":2038:2053   */\n      revert\n        /* \"#utility.yul\":2190:2735   */\n    tag_56:\n        /* \"#utility.yul\":2292:2294   */\n      0x1f\n        /* \"#utility.yul\":2287:2290   */\n      dup3\n        /* \"#utility.yul\":2284:2295   */\n      gt\n        /* \"#utility.yul\":2281:2729   */\n      iszero\n      tag_78\n      jumpi\n        /* \"#utility.yul\":2328:2329   */\n      0x00\n        /* \"#utility.yul\":2353:2358   */\n      dup2\n        /* \"#utility.yul\":2349:2351   */\n      dup2\n        /* \"#utility.yul\":2342:2359   */\n      mstore\n        /* \"#utility.yul\":2398:2402   */\n      0x20\n        /* \"#utility.yul\":2394:2396   */\n      dup2\n        /* \"#utility.yul\":2384:2403   */\n      keccak256\n        /* \"#utility.yul\":2468:2470   */\n      0x1f\n        /* \"#utility.yul\":2456:2466   */\n      dup6\n        /* \"#utility.yul\":2452:2471   */\n      add\n        /* \"#utility.yul\":2449:2450   */\n      0x05\n        /* \"#utility.yul\":2445:2472   */\n      shr\n        /* \"#utility.yul\":2439:2443   */\n      dup2\n        /* \"#utility.yul\":2435:2473   */\n      add\n        /* \"#utility.yul\":2504:2508   */\n      0x20\n        /* \"#utility.yul\":2492:2502   */\n      dup7\n        /* \"#utility.yul\":2489:2509   */\n      lt\n        /* \"#utility.yul\":2486:2533   */\n      iszero\n      tag_79\n      jumpi\n      pop\n        /* \"#utility.yul\":2527:2531   */\n      dup1\n        /* \"#utility.yul\":2486:2533   */\n    tag_79:\n        /* \"#utility.yul\":2582:2584   */\n      0x1f\n        /* \"#utility.yul\":2577:2580   */\n      dup6\n        /* \"#utility.yul\":2573:2585   */\n      add\n        /* \"#utility.yul\":2570:2571   */\n      0x05\n        /* \"#utility.yul\":2566:2586   */\n      shr\n        /* \"#utility.yul\":2560:2564   */\n      dup3\n        /* \"#utility.yul\":2556:2587   */\n      add\n        /* \"#utility.yul\":2546:2587   */\n      swap2\n      pop\n        /* \"#utility.yul\":2637:2719   */\n    tag_80:\n        /* \"#utility.yul\":2655:2657   */\n      dup2\n        /* \"#utility.yul\":2648:2653   */\n      dup2\n        /* \"#utility.yul\":2645:2658   */\n      lt\n        /* \"#utility.yul\":2637:2719   */\n      iszero\n      tag_82\n      jumpi\n        /* \"#utility.yul\":2700:2717   */\n      dup3\n      dup2\n      sstore\n        /* \"#utility.yul\":2681:2682   */\n      0x01\n        /* \"#utility.yul\":2670:2683   */\n      add\n        /* \"#utility.yul\":2637:2719   */\n      jump(tag_80)\n    tag_82:\n        /* \"#utility.yul\":2641:2644   */\n      pop\n      pop\n      pop\n        /* \"#utility.yul\":2281:2729   */\n    tag_78:\n        /* \"#utility.yul\":2190:2735   */\n      pop\n      pop\n      pop\n      jump\t// out\n        /* \"#utility.yul\":2911:4263   */\n    tag_45:\n        /* \"#utility.yul\":3037:3040   */\n      dup2\n        /* \"#utility.yul\":3031:3041   */\n      mload\n        /* \"#utility.yul\":3064:3082   */\n      0xffffffffffffffff\n        /* \"#utility.yul\":3056:3062   */\n      dup2\n        /* \"#utility.yul\":3053:3083   */\n      gt\n        /* \"#utility.yul\":3050:3106   */\n      iszero\n      tag_86\n      jumpi\n        /* \"#utility.yul\":3086:3104   */\n      tag_86\n      tag_54\n      jump\t// in\n    tag_86:\n        /* \"#utility.yul\":3115:3212   */\n      tag_87\n        /* \"#utility.yul\":3205:3211   */\n      dup2\n        /* \"#utility.yul\":3165:3203   */\n      tag_88\n        /* \"#utility.yul\":3197:3201   */\n      dup5\n        /* \"#utility.yul\":3191:3202   */\n      sload\n        /* \"#utility.yul\":3165:3203   */\n      tag_27\n      jump\t// in\n    tag_88:\n        /* \"#utility.yul\":3159:3163   */\n      dup5\n        /* \"#utility.yul\":3115:3212   */\n      tag_56\n      jump\t// in\n    tag_87:\n        /* \"#utility.yul\":3267:3271   */\n      0x20\n      dup1\n        /* \"#utility.yul\":3331:3333   */\n      0x1f\n        /* \"#utility.yul\":3320:3334   */\n      dup4\n      gt\n        /* \"#utility.yul\":3348:3349   */\n      0x01\n        /* \"#utility.yul\":3343:4006   */\n      dup2\n      eq\n      tag_90\n      jumpi\n        /* \"#utility.yul\":4050:4051   */\n      0x00\n        /* \"#utility.yul\":4067:4073   */\n      dup5\n        /* \"#utility.yul\":4064:4153   */\n      iszero\n      tag_91\n      jumpi\n      pop\n        /* \"#utility.yul\":4119:4138   */\n      dup6\n      dup4\n      add\n        /* \"#utility.yul\":4113:4139   */\n      mload\n        /* \"#utility.yul\":4064:4153   */\n    tag_91:\n      not(0x00)\n        /* \"#utility.yul\":2868:2869   */\n      0x03\n        /* \"#utility.yul\":2864:2875   */\n      dup7\n      swap1\n      shl\n        /* \"#utility.yul\":2860:2884   */\n      shr\n        /* \"#utility.yul\":2856:2885   */\n      not\n        /* \"#utility.yul\":2846:2886   */\n      and\n        /* \"#utility.yul\":2892:2893   */\n      0x01\n        /* \"#utility.yul\":2888:2899   */\n      dup6\n      swap1\n      shl\n        /* \"#utility.yul\":2843:2900   */\n      or\n        /* \"#utility.yul\":4166:4247   */\n      dup6\n      sstore\n        /* \"#utility.yul\":3313:4257   */\n      jump(tag_82)\n        /* \"#utility.yul\":3343:4006   */\n    tag_90:\n        /* \"#utility.yul\":2137:2138   */\n      0x00\n        /* \"#utility.yul\":2130:2144   */\n      dup6\n      dup2\n      mstore\n        /* \"#utility.yul\":2174:2178   */\n      0x20\n        /* \"#utility.yul\":2161:2179   */\n      dup2\n      keccak256\n      not(0x1f)\n        /* \"#utility.yul\":3379:3399   */\n      dup7\n      and\n      swap2\n        /* \"#utility.yul\":3497:3733   */\n    tag_94:\n        /* \"#utility.yul\":3511:3518   */\n      dup3\n        /* \"#utility.yul\":3508:3509   */\n      dup2\n        /* \"#utility.yul\":3505:3519   */\n      lt\n        /* \"#utility.yul\":3497:3733   */\n      iszero\n      tag_96\n      jumpi\n        /* \"#utility.yul\":3600:3619   */\n      dup9\n      dup7\n      add\n        /* \"#utility.yul\":3594:3620   */\n      mload\n        /* \"#utility.yul\":3579:3621   */\n      dup3\n      sstore\n        /* \"#utility.yul\":3692:3719   */\n      swap5\n      dup5\n      add\n      swap5\n        /* \"#utility.yul\":3660:3661   */\n      0x01\n        /* \"#utility.yul\":3648:3662   */\n      swap1\n      swap2\n      add\n      swap1\n        /* \"#utility.yul\":3527:3546   */\n      dup5\n      add\n        /* \"#utility.yul\":3497:3733   */\n      jump(tag_94)\n    tag_96:\n        /* \"#utility.yul\":3501:3504   */\n      pop\n        /* \"#utility.yul\":3761:3767   */\n      dup6\n        /* \"#utility.yul\":3752:3759   */\n      dup3\n        /* \"#utility.yul\":3749:3768   */\n      lt\n        /* \"#utility.yul\":3746:3947   */\n      iszero\n      tag_97\n      jumpi\n        /* \"#utility.yul\":3822:3841   */\n      dup8\n      dup6\n      add\n        /* \"#utility.yul\":3816:3842   */\n      mload\n      not(0x00)\n        /* \"#utility.yul\":3905:3906   */\n      0x03\n        /* \"#utility.yul\":3901:3915   */\n      dup9\n      swap1\n      shl\n        /* \"#utility.yul\":3917:3920   */\n      0xf8\n        /* \"#utility.yul\":3897:3921   */\n      and\n        /* \"#utility.yul\":3893:3930   */\n      shr\n        /* \"#utility.yul\":3889:3931   */\n      not\n        /* \"#utility.yul\":3874:3932   */\n      and\n        /* \"#utility.yul\":3859:3933   */\n      dup2\n      sstore\n        /* \"#utility.yul\":3746:3947   */\n    tag_97:\n      pop\n      pop\n      pop\n      pop\n      pop\n        /* \"#utility.yul\":3993:3994   */\n      0x01\n        /* \"#utility.yul\":3977:3991   */\n      swap1\n      dup2\n      shl\n        /* \"#utility.yul\":3973:3995   */\n      add\n        /* \"#utility.yul\":3960:3996   */\n      swap1\n      sstore\n      pop\n        /* \"#utility.yul\":2911:4263   */\n      jump\t// out\n\n    auxdata: 0xa2646970667358221220050e2d9a602bd6f1c4ee76f1b0af19832b1854c82499ca6adce638ca5c0cd46764736f6c63430008120033\n}\n",
				"bytecode": {
					"linkReferences": {},
					"object": "608060405234801561001057600080fd5b5061063b806100206000396000f3fe608060405234801561001057600080fd5b506004361061004c5760003560e01c806389b5aadd146100515780639507d39a1461007b578063b6a46b3b1461008e578063cc090040146100a3575b600080fd5b61006461005f3660046103ae565b6100b6565b6040516100729291906103c7565b60405180910390f35b6100646100893660046103ae565b610175565b6100a161009c36600461041e565b610249565b005b6100a16100b13660046103ae565b610373565b600081815481106100c657600080fd5b90600052602060002090600202016000915090508060000180546100e990610490565b80601f016020809104026020016040519081016040528092919081815260200182805461011590610490565b80156101625780601f1061013757610100808354040283529160200191610162565b820191906000526020600020905b81548152906001019060200180831161014557829003601f168201915b5050506001909301549192505060ff1682565b60606000806000848154811061018d5761018d6104ca565b90600052602060002090600202019050806000018160010160009054906101000a900460ff168180546101bf90610490565b80601f01602080910402602001604051908101604052809291908181526020018280546101eb90610490565b80156102385780601f1061020d57610100808354040283529160200191610238565b820191906000526020600020905b81548152906001019060200180831161021b57829003601f168201915b505050505091509250925050915091565b6040805160606020601f85018190040282018101835291810183815260009282919086908690819085018382808284376000920182905250938552505050602091820181905283546001810185559381522081519192600202019081906102b09082610545565b50602091820151600191909101805460ff1916911515919091179055604080518082018252606081526000818401528151601f850184900484028101840190925283825291849084908190840183828082843760009201829052509385525050815460018101835591805250815182916002027f290decd9548b62a8d60345a988386fc84ba6bc95484008f6362f93160ef3e563019081906103529082610545565b50602091909101516001909101805460ff1916911515919091179055505050565b6000808281548110610387576103876104ca565b60009182526020909120600160029092020101805460ff19811660ff909116151790555050565b6000602082840312156103c057600080fd5b5035919050565b604081526000835180604084015260005b818110156103f557602081870181015160608684010152016103d8565b506000606082850101526060601f19601f83011684010191505082151560208301529392505050565b6000806020838503121561043157600080fd5b823567ffffffffffffffff8082111561044957600080fd5b818501915085601f83011261045d57600080fd5b81358181111561046c57600080fd5b86602082850101111561047e57600080fd5b60209290920196919550909350505050565b600181811c908216806104a457607f821691505b6020821081036104c457634e487b7160e01b600052602260045260246000fd5b50919050565b634e487b7160e01b600052603260045260246000fd5b634e487b7160e01b600052604160045260246000fd5b601f82111561054057600081815260208120601f850160051c8101602086101561051d5750805b601f850160051c820191505b8181101561053c57828155600101610529565b5050505b505050565b815167ffffffffffffffff81111561055f5761055f6104e0565b6105738161056d8454610490565b846104f6565b602080601f8311600181146105a857600084156105905750858301515b600019600386901b1c1916600185901b17855561053c565b600085815260208120601f198616915b828110156105d7578886015182559484019460019091019084016105b8565b50858210156105f55787850151600019600388901b60f8161c191681555b5050505050600190811b0190555056fea2646970667358221220050e2d9a602bd6f1c4ee76f1b0af19832b1854c82499ca6adce638ca5c0cd46764736f6c63430008120033",
					"opcodes": "PUSH1 0x80 PUSH1 0x40 MSTORE CALLVALUE DUP1 ISZERO PUSH2 0x10 JUMPI PUSH1 0x0 DUP1 REVERT JUMPDEST POP PUSH2 0x63B DUP1 PUSH2 0x20 PUSH1 0x0 CODECOPY PUSH1 0x0 RETURN INVALID PUSH1 0x80 PUSH1 0x40 MSTORE CALLVALUE DUP1 ISZERO PUSH2 0x10 JUMPI PUSH1 0x0 DUP1 REVERT JUMPDEST POP PUSH1 0x4 CALLDATASIZE LT PUSH2 0x4C JUMPI PUSH1 0x0 CALLDATALOAD PUSH1 0xE0 SHR DUP1 PUSH4 0x89B5AADD EQ PUSH2 0x51 JUMPI DUP1 PUSH4 0x9507D39A EQ PUSH2 0x7B JUMPI DUP1 PUSH4 0xB6A46B3B EQ PUSH2 0x8E JUMPI DUP1 PUSH4 0xCC090040 EQ PUSH2 0xA3 JUMPI JUMPDEST PUSH1 0x0 DUP1 REVERT JUMPDEST PUSH2 0x64 PUSH2 0x5F CALLDATASIZE PUSH1 0x4 PUSH2 0x3AE JUMP JUMPDEST PUSH2 0xB6 JUMP JUMPDEST PUSH1 0x40 MLOAD PUSH2 0x72 SWAP3 SWAP2 SWAP1 PUSH2 0x3C7 JUMP JUMPDEST PUSH1 0x40 MLOAD DUP1 SWAP2 SUB SWAP1 RETURN JUMPDEST PUSH2 0x64 PUSH2 0x89 CALLDATASIZE PUSH1 0x4 PUSH2 0x3AE JUMP JUMPDEST PUSH2 0x175 JUMP JUMPDEST PUSH2 0xA1 PUSH2 0x9C CALLDATASIZE PUSH1 0x4 PUSH2 0x41E JUMP JUMPDEST PUSH2 0x249 JUMP JUMPDEST STOP JUMPDEST PUSH2 0xA1 PUSH2 0xB1 CALLDATASIZE PUSH1 0x4 PUSH2 0x3AE JUMP JUMPDEST PUSH2 0x373 JUMP JUMPDEST PUSH1 0x0 DUP2 DUP2 SLOAD DUP2 LT PUSH2 0xC6 JUMPI PUSH1 0x0 DUP1 REVERT JUMPDEST SWAP1 PUSH1 0x0 MSTORE PUSH1 0x20 PUSH1 0x0 KECCAK256 SWAP1 PUSH1 0x2 MUL ADD PUSH1 0x0 SWAP2 POP SWAP1 POP DUP1 PUSH1 0x0 ADD DUP1 SLOAD PUSH2 0xE9 SWAP1 PUSH2 0x490 JUMP JUMPDEST DUP1 PUSH1 0x1F ADD PUSH1 0x20 DUP1 SWAP2 DIV MUL PUSH1 0x20 ADD PUSH1 0x40 MLOAD SWAP1 DUP2 ADD PUSH1 0x40 MSTORE DUP1 SWAP3 SWAP2 SWAP1 DUP2 DUP2 MSTORE PUSH1 0x20 ADD DUP3 DUP1 SLOAD PUSH2 0x115 SWAP1 PUSH2 0x490 JUMP JUMPDEST DUP1 ISZERO PUSH2 0x162 JUMPI DUP1 PUSH1 0x1F LT PUSH2 0x137 JUMPI PUSH2 0x100 DUP1 DUP4 SLOAD DIV MUL DUP4 MSTORE SWAP2 PUSH1 0x20 ADD SWAP2 PUSH2 0x162 JUMP JUMPDEST DUP3 ADD SWAP2 SWAP1 PUSH1 0x0 MSTORE PUSH1 0x20 PUSH1 0x0 KECCAK256 SWAP1 JUMPDEST DUP2 SLOAD DUP2 MSTORE SWAP1 PUSH1 0x1 ADD SWAP1 PUSH1 0x20 ADD DUP1 DUP4 GT PUSH2 0x145 JUMPI DUP3 SWAP1 SUB PUSH1 0x1F AND DUP3 ADD SWAP2 JUMPDEST POP POP POP PUSH1 0x1 SWAP1 SWAP4 ADD SLOAD SWAP2 SWAP3 POP POP PUSH1 0xFF AND DUP3 JUMP JUMPDEST PUSH1 0x60 PUSH1 0x0 DUP1 PUSH1 0x0 DUP5 DUP2 SLOAD DUP2 LT PUSH2 0x18D JUMPI PUSH2 0x18D PUSH2 0x4CA JUMP JUMPDEST SWAP1 PUSH1 0x0 MSTORE PUSH1 0x20 PUSH1 0x0 KECCAK256 SWAP1 PUSH1 0x2 MUL ADD SWAP1 POP DUP1 PUSH1 0x0 ADD DUP2 PUSH1 0x1 ADD PUSH1 0x0 SWAP1 SLOAD SWAP1 PUSH2 0x100 EXP SWAP1 DIV PUSH1 0xFF AND DUP2 DUP1 SLOAD PUSH2 0x1BF SWAP1 PUSH2 0x490 JUMP JUMPDEST DUP1 PUSH1 0x1F ADD PUSH1 0x20 DUP1 SWAP2 DIV MUL PUSH1 0x20 ADD PUSH1 0x40 MLOAD SWAP1 DUP2 ADD PUSH1 0x40 MSTORE DUP1 SWAP3 SWAP2 SWAP1 DUP2 DUP2 MSTORE PUSH1 0x20 ADD DUP3 DUP1 SLOAD PUSH2 0x1EB SWAP1 PUSH2 0x490 JUMP JUMPDEST DUP1 ISZERO PUSH2 0x238 JUMPI DUP1 PUSH1 0x1F LT PUSH2 0x20D JUMPI PUSH2 0x100 DUP1 DUP4 SLOAD DIV MUL DUP4 MSTORE SWAP2 PUSH1 0x20 ADD SWAP2 PUSH2 0x238 JUMP JUMPDEST DUP3 ADD SWAP2 SWAP1 PUSH1 0x0 MSTORE PUSH1 0x20 PUSH1 0x0 KECCAK256 SWAP1 JUMPDEST DUP2 SLOAD DUP2 MSTORE SWAP1 PUSH1 0x1 ADD SWAP1 PUSH1 0x20 ADD DUP1 DUP4 GT PUSH2 0x21B JUMPI DUP3 SWAP1 SUB PUSH1 0x1F AND DUP3 ADD SWAP2 JUMPDEST POP POP POP POP POP SWAP2 POP SWAP3 POP SWAP3 POP POP SWAP2 POP SWAP2 JUMP JUMPDEST PUSH1 0x40 DUP1 MLOAD PUSH1 0x60 PUSH1 0x20 PUSH1 0x1F DUP6 ADD DUP2 SWAP1 DIV MUL DUP3 ADD DUP2 ADD DUP4 MSTORE SWAP2 DUP2 ADD DUP4 DUP2 MSTORE PUSH1 0x0 SWAP3 DUP3 SWAP2 SWAP1 DUP7 SWAP1 DUP7 SWAP1 DUP2 SWAP1 DUP6 ADD DUP4 DUP3 DUP1 DUP3 DUP5 CALLDATACOPY PUSH1 0x0 SWAP3 ADD DUP3 SWAP1 MSTORE POP SWAP4 DUP6 MSTORE POP POP POP PUSH1 0x20 SWAP2 DUP3 ADD DUP2 SWAP1 MSTORE DUP4 SLOAD PUSH1 0x1 DUP2 ADD DUP6 SSTORE SWAP4 DUP2 MSTORE KECCAK256 DUP2 MLOAD SWAP2 SWAP3 PUSH1 0x2 MUL ADD SWAP1 DUP2 SWAP1 PUSH2 0x2B0 SWAP1 DUP3 PUSH2 0x545 JUMP JUMPDEST POP PUSH1 0x20 SWAP2 DUP3 ADD MLOAD PUSH1 0x1 SWAP2 SWAP1 SWAP2 ADD DUP1 SLOAD PUSH1 0xFF NOT AND SWAP2 ISZERO ISZERO SWAP2 SWAP1 SWAP2 OR SWAP1 SSTORE PUSH1 0x40 DUP1 MLOAD DUP1 DUP3 ADD DUP3 MSTORE PUSH1 0x60 DUP2 MSTORE PUSH1 0x0 DUP2 DUP5 ADD MSTORE DUP2 MLOAD PUSH1 0x1F DUP6 ADD DUP5 SWAP1 DIV DUP5 MUL DUP2 ADD DUP5 ADD SWAP1 SWAP3 MSTORE DUP4 DUP3 MSTORE SWAP2 DUP5 SWAP1 DUP5 SWAP1 DUP2 SWAP1 DUP5 ADD DUP4 DUP3 DUP1 DUP3 DUP5 CALLDATACOPY PUSH1 0x0 SWAP3 ADD DUP3 SWAP1 MSTORE POP SWAP4 DUP6 MSTORE POP POP DUP2 SLOAD PUSH1 0x1 DUP2 ADD DUP4 SSTORE SWAP2 DUP1 MSTORE POP DUP2 MLOAD DUP3 SWAP2 PUSH1 0x2 MUL PUSH32 0x290DECD9548B62A8D60345A988386FC84BA6BC95484008F6362F93160EF3E563 ADD SWAP1 DUP2 SWAP1 PUSH2 0x352 SWAP1 DUP3 PUSH2 0x545 JUMP JUMPDEST POP PUSH1 0x20 SWAP2 SWAP1 SWAP2 ADD MLOAD PUSH1 0x1 SWAP1 SWAP2 ADD DUP1 SLOAD PUSH1 0xFF NOT AND SWAP2 ISZERO ISZERO SWAP2 SWAP1 SWAP2 OR SWAP1 SSTORE POP POP POP JUMP JUMPDEST PUSH1 0x0 DUP1 DUP3 DUP2 SLOAD DUP2 LT PUSH2 0x387 JUMPI PUSH2 0x387 PUSH2 0x4CA JUMP JUMPDEST PUSH1 0x0 SWAP2 DUP3 MSTORE PUSH1 0x20 SWAP1 SWAP2 KECCAK256 PUSH1 0x1 PUSH1 0x2 SWAP1 SWAP3 MUL ADD ADD DUP1 SLOAD PUSH1 0xFF NOT DUP2 AND PUSH1 0xFF SWAP1 SWAP2 AND ISZERO OR SWAP1 SSTORE POP POP JUMP JUMPDEST PUSH1 0x0 PUSH1 0x20 DUP3 DUP5 SUB SLT ISZERO PUSH2 0x3C0 JUMPI PUSH1 0x0 DUP1 REVERT JUMPDEST POP CALLDATALOAD SWAP2 SWAP1 POP JUMP JUMPDEST PUSH1 0x40 DUP2 MSTORE PUSH1 0x0 DUP4 MLOAD DUP1 PUSH1 0x40 DUP5 ADD MSTORE PUSH1 0x0 JUMPDEST DUP2 DUP2 LT ISZERO PUSH2 0x3F5 JUMPI PUSH1 0x20 DUP2 DUP8 ADD DUP2 ADD MLOAD PUSH1 0x60 DUP7 DUP5 ADD ADD MSTORE ADD PUSH2 0x3D8 JUMP JUMPDEST POP PUSH1 0x0 PUSH1 0x60 DUP3 DUP6 ADD ADD MSTORE PUSH1 0x60 PUSH1 0x1F NOT PUSH1 0x1F DUP4 ADD AND DUP5 ADD ADD SWAP2 POP POP DUP3 ISZERO ISZERO PUSH1 0x20 DUP4 ADD MSTORE SWAP4 SWAP3 POP POP POP JUMP JUMPDEST PUSH1 0x0 DUP1 PUSH1 0x20 DUP4 DUP6 SUB SLT ISZERO PUSH2 0x431 JUMPI PUSH1 0x0 DUP1 REVERT JUMPDEST DUP3 CALLDATALOAD PUSH8 0xFFFFFFFFFFFFFFFF DUP1 DUP3 GT ISZERO PUSH2 0x449 JUMPI PUSH1 0x0 DUP1 REVERT JUMPDEST DUP2 DUP6 ADD SWAP2 POP DUP6 PUSH1 0x1F DUP4 ADD SLT PUSH2 0x45D JUMPI PUSH1 0x0 DUP1 REVERT JUMPDEST DUP2 CALLDATALOAD DUP2 DUP2 GT ISZERO PUSH2 0x46C JUMPI PUSH1 0x0 DUP1 REVERT JUMPDEST DUP7 PUSH1 0x20 DUP3 DUP6 ADD ADD GT ISZERO PUSH2 0x47E JUMPI PUSH1 0x0 DUP1 REVERT JUMPDEST PUSH1 0x20 SWAP3 SWAP1 SWAP3 ADD SWAP7 SWAP2 SWAP6 POP SWAP1 SWAP4 POP POP POP POP JUMP JUMPDEST PUSH1 0x1 DUP2 DUP2 SHR SWAP1 DUP3 AND DUP1 PUSH2 0x4A4 JUMPI PUSH1 0x7F DUP3 AND SWAP2 POP JUMPDEST PUSH1 0x20 DUP3 LT DUP2 SUB PUSH2 0x4C4 JUMPI PUSH4 0x4E487B71 PUSH1 0xE0 SHL PUSH1 0x0 MSTORE PUSH1 0x22 PUSH1 0x4 MSTORE PUSH1 0x24 PUSH1 0x0 REVERT JUMPDEST POP SWAP2 SWAP1 POP JUMP JUMPDEST PUSH4 0x4E487B71 PUSH1 0xE0 SHL PUSH1 0x0 MSTORE PUSH1 0x32 PUSH1 0x4 MSTORE PUSH1 0x24 PUSH1 0x0 REVERT JUMPDEST PUSH4 0x4E487B71 PUSH1 0xE0 SHL PUSH1 0x0 MSTORE PUSH1 0x41 PUSH1 0x4 MSTORE PUSH1 0x24 PUSH1 0x0 REVERT JUMPDEST PUSH1 0x1F DUP3 GT ISZERO PUSH2 0x540 JUMPI PUSH1 0x0 DUP2 DUP2 MSTORE PUSH1 0x20 DUP2 KECCAK256 PUSH1 0x1F DUP6 ADD PUSH1 0x5 SHR DUP2 ADD PUSH1 0x20 DUP7 LT ISZERO PUSH2 0x51D JUMPI POP DUP1 JUMPDEST PUSH1 0x1F DUP6 ADD PUSH1 0x5 SHR DUP3 ADD SWAP2 POP JUMPDEST DUP2 DUP2 LT ISZERO PUSH2 0x53C JUMPI DUP3 DUP2 SSTORE PUSH1 0x1 ADD PUSH2 0x529 JUMP JUMPDEST POP POP POP JUMPDEST POP POP POP JUMP JUMPDEST DUP2 MLOAD PUSH8 0xFFFFFFFFFFFFFFFF DUP2 GT ISZERO PUSH2 0x55F JUMPI PUSH2 0x55F PUSH2 0x4E0 JUMP JUMPDEST PUSH2 0x573 DUP2 PUSH2 0x56D DUP5 SLOAD PUSH2 0x490 JUMP JUMPDEST DUP5 PUSH2 0x4F6 JUMP JUMPDEST PUSH1 0x20 DUP1 PUSH1 0x1F DUP4 GT PUSH1 0x1 DUP2 EQ PUSH2 0x5A8 JUMPI PUSH1 0x0 DUP5 ISZERO PUSH2 0x590 JUMPI POP DUP6 DUP4 ADD MLOAD JUMPDEST PUSH1 0x0 NOT PUSH1 0x3 DUP7 SWAP1 SHL SHR NOT AND PUSH1 0x1 DUP6 SWAP1 SHL OR DUP6 SSTORE PUSH2 0x53C JUMP JUMPDEST PUSH1 0x0 DUP6 DUP2 MSTORE PUSH1 0x20 DUP2 KECCAK256 PUSH1 0x1F NOT DUP7 AND SWAP2 JUMPDEST DUP3 DUP2 LT ISZERO PUSH2 0x5D7 JUMPI DUP9 DUP7 ADD MLOAD DUP3 SSTORE SWAP5 DUP5 ADD SWAP5 PUSH1 0x1 SWAP1 SWAP2 ADD SWAP1 DUP5 ADD PUSH2 0x5B8 JUMP JUMPDEST POP DUP6 DUP3 LT ISZERO PUSH2 0x5F5 JUMPI DUP8 DUP6 ADD MLOAD PUSH1 0x0 NOT PUSH1 0x3 DUP9 SWAP1 SHL PUSH1 0xF8 AND SHR NOT AND DUP2 SSTORE JUMPDEST POP POP POP POP POP PUSH1 0x1 SWAP1 DUP2 SHL ADD SWAP1 SSTORE POP JUMP INVALID LOG2 PUSH5 0x6970667358 0x22 SLT KECCAK256 SDIV 0xE 0x2D SWAP11 PUSH1 0x2B 0xD6 CALL 0xC4 0xEE PUSH23 0xF1B0AF19832B1854C82499CA6ADCE638CA5C0CD4676473 PUSH16 0x6C634300081200330000000000000000 "
				},
				"gasEstimates": {
					"creation": {
						"codeDepositCost": "319000",
						"executionCost": "355",
						"totalCost": "319355"
					},
					"external": {
						"create(string)": "infinite",
						"get(uint256)": "infinite",
						"todo(uint256)": "infinite",
						"togglecomplete(uint256)": "26717"
					}
				},
				"methodIdentifiers": {
					"create(string)": "b6a46b3b",
					"get(uint256)": "9507d39a",
					"todo(uint256)": "89b5aadd",
					"togglecomplete(uint256)": "cc090040"
				}
			},
			"storageLayout": {
				"storage": [
					{
						"astId": 10,
						"contract": "contracts/struct.sol:schedule",
						"label": "todo",
						"offset": 0,
						"slot": "0",
						"type": "t_array(t_struct(template)6_storage)dyn_storage"
					}
				],
				"types": {
					"t_array(t_struct(template)6_storage)dyn_storage": {
						"base": "t_struct(template)6_storage",
						"encoding": "dynamic_array",
						"label": "struct schedule.template[]",
						"numberOfBytes": "32"
					},
					"t_bool": {
						"encoding": "inplace",
						"label": "bool",
						"numberOfBytes": "1"
					},
					"t_string_storage": {
						"encoding": "bytes",
						"label": "string",
						"numberOfBytes": "32"
					},
					"t_struct(template)6_storage": {
						"encoding": "inplace",
						"label": "struct schedule.template",
						"members": [
							{
								"astId": 3,
								"contract": "contracts/struct.sol:schedule",
								"label": "text",
								"offset": 0,
								"slot": "0",
								"type": "t_string_storage"
							},
							{
								"astId": 5,
								"contract": "contracts/struct.sol:schedule",
								"label": "completed",
								"offset": 0,
								"slot": "1",
								"type": "t_bool"
							}
						],
						"numberOfBytes": "64"
					}
				}
			},
			"userdoc": {
				"kind": "user",
				"methods": {},
				"version": 1
			}
		}
	}
}