{
	"contracts/events.sol": {
		"events": {
			"abi": [
				{
					"anonymous": false,
					"inputs": [
						{
							"indexed": true,
							"internalType": "address",
							"name": "sender",
							"type": "address"
						},
						{
							"indexed": false,
							"internalType": "uint256",
							"name": "val",
							"type": "uint256"
						}
					],
					"name": "IndexedLog",
					"type": "event"
				},
				{
					"anonymous": false,
					"inputs": [
						{
							"indexed": false,
							"internalType": "string",
							"name": "message",
							"type": "string"
						},
						{
							"indexed": false,
							"internalType": "uint256",
							"name": "val",
							"type": "uint256"
						}
					],
					"name": "Log",
					"type": "event"
				},
				{
					"inputs": [],
					"name": "example",
					"outputs": [],
					"stateMutability": "nonpayable",
					"type": "function"
				}
			],
			"devdoc": {
				"kind": "dev",
				"methods": {},
				"version": 1
			},
			"evm": {
				"assembly": "    /* \"contracts/events.sol\":61:469  contract events {... */\n  mstore(0x40, 0x80)\n  callvalue\n  dup1\n  iszero\n  tag_1\n  jumpi\n  0x00\n  dup1\n  revert\ntag_1:\n  pop\n  dataSize(sub_0)\n  dup1\n  dataOffset(sub_0)\n  0x00\n  codecopy\n  0x00\n  return\nstop\n\nsub_0: assembly {\n        /* \"contracts/events.sol\":61:469  contract events {... */\n      mstore(0x40, 0x80)\n      callvalue\n      dup1\n      iszero\n      tag_1\n      jumpi\n      0x00\n      dup1\n      revert\n    tag_1:\n      pop\n      jumpi(tag_2, lt(calldatasize, 0x04))\n      shr(0xe0, calldataload(0x00))\n      dup1\n      0x54353f2f\n      eq\n      tag_3\n      jumpi\n    tag_2:\n      0x00\n      dup1\n      revert\n        /* \"contracts/events.sol\":352:466  function example() external {... */\n    tag_3:\n      tag_4\n      tag_5\n      jump\t// in\n    tag_4:\n      stop\n    tag_5:\n        /* \"contracts/events.sol\":396:415  Log(\"called\", 1234) */\n      0xdd970dd9b5bfe707922155b058a407655cb18288b807e2216442bca8ad83d6b5\n        /* \"contracts/events.sol\":410:414  1234 */\n      0x04d2\n        /* \"contracts/events.sol\":396:415  Log(\"called\", 1234) */\n      mload(0x40)\n      tag_7\n      swap2\n      swap1\n      tag_8\n      jump\t// in\n    tag_7:\n      mload(0x40)\n      dup1\n      swap2\n      sub\n      swap1\n      log1\n        /* \"contracts/events.sol\":442:452  msg.sender */\n      caller\n        /* \"contracts/events.sol\":431:458  IndexedLog(msg.sender, 789) */\n      0xffffffffffffffffffffffffffffffffffffffff\n      and\n      0x919a4e0615aef45fd56105241973bd25f287f1040399e7c9f97fa2ca1c2b5174\n        /* \"contracts/events.sol\":454:457  789 */\n      0x0315\n        /* \"contracts/events.sol\":431:458  IndexedLog(msg.sender, 789) */\n      mload(0x40)\n      tag_9\n      swap2\n      swap1\n      tag_10\n      jump\t// in\n    tag_9:\n      mload(0x40)\n      dup1\n      swap2\n      sub\n      swap1\n      log2\n        /* \"contracts/events.sol\":352:466  function example() external {... */\n      jump\t// out\n        /* \"#utility.yul\":7:176   */\n    tag_11:\n        /* \"#utility.yul\":91:102   */\n      0x00\n        /* \"#utility.yul\":125:131   */\n      dup3\n        /* \"#utility.yul\":120:123   */\n      dup3\n        /* \"#utility.yul\":113:132   */\n      mstore\n        /* \"#utility.yul\":165:169   */\n      0x20\n        /* \"#utility.yul\":160:163   */\n      dup3\n        /* \"#utility.yul\":156:170   */\n      add\n        /* \"#utility.yul\":141:170   */\n      swap1\n      pop\n        /* \"#utility.yul\":7:176   */\n      swap3\n      swap2\n      pop\n      pop\n      jump\t// out\n        /* \"#utility.yul\":182:338   */\n    tag_12:\n        /* \"#utility.yul\":322:330   */\n      0x63616c6c65640000000000000000000000000000000000000000000000000000\n        /* \"#utility.yul\":318:319   */\n      0x00\n        /* \"#utility.yul\":310:316   */\n      dup3\n        /* \"#utility.yul\":306:320   */\n      add\n        /* \"#utility.yul\":299:331   */\n      mstore\n        /* \"#utility.yul\":182:338   */\n      pop\n      jump\t// out\n        /* \"#utility.yul\":344:709   */\n    tag_13:\n        /* \"#utility.yul\":486:489   */\n      0x00\n        /* \"#utility.yul\":507:573   */\n      tag_26\n        /* \"#utility.yul\":571:572   */\n      0x06\n        /* \"#utility.yul\":566:569   */\n      dup4\n        /* \"#utility.yul\":507:573   */\n      tag_11\n      jump\t// in\n    tag_26:\n        /* \"#utility.yul\":500:573   */\n      swap2\n      pop\n        /* \"#utility.yul\":582:675   */\n      tag_27\n        /* \"#utility.yul\":671:674   */\n      dup3\n        /* \"#utility.yul\":582:675   */\n      tag_12\n      jump\t// in\n    tag_27:\n        /* \"#utility.yul\":700:702   */\n      0x20\n        /* \"#utility.yul\":695:698   */\n      dup3\n        /* \"#utility.yul\":691:703   */\n      add\n        /* \"#utility.yul\":684:703   */\n      swap1\n      pop\n        /* \"#utility.yul\":344:709   */\n      swap2\n      swap1\n      pop\n      jump\t// out\n        /* \"#utility.yul\":715:803   */\n    tag_14:\n        /* \"#utility.yul\":763:770   */\n      0x00\n        /* \"#utility.yul\":792:797   */\n      dup2\n        /* \"#utility.yul\":781:797   */\n      swap1\n      pop\n        /* \"#utility.yul\":715:803   */\n      swap2\n      swap1\n      pop\n      jump\t// out\n        /* \"#utility.yul\":809:886   */\n    tag_15:\n        /* \"#utility.yul\":846:853   */\n      0x00\n        /* \"#utility.yul\":875:880   */\n      dup2\n        /* \"#utility.yul\":864:880   */\n      swap1\n      pop\n        /* \"#utility.yul\":809:886   */\n      swap2\n      swap1\n      pop\n      jump\t// out\n        /* \"#utility.yul\":892:952   */\n    tag_16:\n        /* \"#utility.yul\":920:923   */\n      0x00\n        /* \"#utility.yul\":941:946   */\n      dup2\n        /* \"#utility.yul\":934:946   */\n      swap1\n      pop\n        /* \"#utility.yul\":892:952   */\n      swap2\n      swap1\n      pop\n      jump\t// out\n        /* \"#utility.yul\":958:1122   */\n    tag_17:\n        /* \"#utility.yul\":1019:1028   */\n      0x00\n        /* \"#utility.yul\":1052:1116   */\n      tag_32\n        /* \"#utility.yul\":1070:1115   */\n      tag_33\n        /* \"#utility.yul\":1079:1114   */\n      tag_34\n        /* \"#utility.yul\":1108:1113   */\n      dup5\n        /* \"#utility.yul\":1079:1114   */\n      tag_14\n      jump\t// in\n    tag_34:\n        /* \"#utility.yul\":1070:1115   */\n      tag_16\n      jump\t// in\n    tag_33:\n        /* \"#utility.yul\":1052:1116   */\n      tag_15\n      jump\t// in\n    tag_32:\n        /* \"#utility.yul\":1039:1116   */\n      swap1\n      pop\n        /* \"#utility.yul\":958:1122   */\n      swap2\n      swap1\n      pop\n      jump\t// out\n        /* \"#utility.yul\":1128:1281   */\n    tag_18:\n        /* \"#utility.yul\":1226:1274   */\n      tag_36\n        /* \"#utility.yul\":1268:1273   */\n      dup2\n        /* \"#utility.yul\":1226:1274   */\n      tag_17\n      jump\t// in\n    tag_36:\n        /* \"#utility.yul\":1221:1224   */\n      dup3\n        /* \"#utility.yul\":1214:1275   */\n      mstore\n        /* \"#utility.yul\":1128:1281   */\n      pop\n      pop\n      jump\t// out\n        /* \"#utility.yul\":1287:1838   */\n    tag_8:\n        /* \"#utility.yul\":1492:1496   */\n      0x00\n        /* \"#utility.yul\":1530:1532   */\n      0x40\n        /* \"#utility.yul\":1519:1528   */\n      dup3\n        /* \"#utility.yul\":1515:1533   */\n      add\n        /* \"#utility.yul\":1507:1533   */\n      swap1\n      pop\n        /* \"#utility.yul\":1579:1588   */\n      dup2\n        /* \"#utility.yul\":1573:1577   */\n      dup2\n        /* \"#utility.yul\":1569:1589   */\n      sub\n        /* \"#utility.yul\":1565:1566   */\n      0x00\n        /* \"#utility.yul\":1554:1563   */\n      dup4\n        /* \"#utility.yul\":1550:1567   */\n      add\n        /* \"#utility.yul\":1543:1590   */\n      mstore\n        /* \"#utility.yul\":1607:1738   */\n      tag_38\n        /* \"#utility.yul\":1733:1737   */\n      dup2\n        /* \"#utility.yul\":1607:1738   */\n      tag_13\n      jump\t// in\n    tag_38:\n        /* \"#utility.yul\":1599:1738   */\n      swap1\n      pop\n        /* \"#utility.yul\":1748:1831   */\n      tag_39\n        /* \"#utility.yul\":1827:1829   */\n      0x20\n        /* \"#utility.yul\":1816:1825   */\n      dup4\n        /* \"#utility.yul\":1812:1830   */\n      add\n        /* \"#utility.yul\":1803:1809   */\n      dup5\n        /* \"#utility.yul\":1748:1831   */\n      tag_18\n      jump\t// in\n    tag_39:\n        /* \"#utility.yul\":1287:1838   */\n      swap3\n      swap2\n      pop\n      pop\n      jump\t// out\n        /* \"#utility.yul\":1844:1931   */\n    tag_19:\n        /* \"#utility.yul\":1891:1898   */\n      0x00\n        /* \"#utility.yul\":1920:1925   */\n      dup2\n        /* \"#utility.yul\":1909:1925   */\n      swap1\n      pop\n        /* \"#utility.yul\":1844:1931   */\n      swap2\n      swap1\n      pop\n      jump\t// out\n        /* \"#utility.yul\":1937:2099   */\n    tag_20:\n        /* \"#utility.yul\":1997:2006   */\n      0x00\n        /* \"#utility.yul\":2030:2093   */\n      tag_42\n        /* \"#utility.yul\":2048:2092   */\n      tag_43\n        /* \"#utility.yul\":2057:2091   */\n      tag_44\n        /* \"#utility.yul\":2085:2090   */\n      dup5\n        /* \"#utility.yul\":2057:2091   */\n      tag_19\n      jump\t// in\n    tag_44:\n        /* \"#utility.yul\":2048:2092   */\n      tag_16\n      jump\t// in\n    tag_43:\n        /* \"#utility.yul\":2030:2093   */\n      tag_15\n      jump\t// in\n    tag_42:\n        /* \"#utility.yul\":2017:2093   */\n      swap1\n      pop\n        /* \"#utility.yul\":1937:2099   */\n      swap2\n      swap1\n      pop\n      jump\t// out\n        /* \"#utility.yul\":2105:2256   */\n    tag_21:\n        /* \"#utility.yul\":2202:2249   */\n      tag_46\n        /* \"#utility.yul\":2243:2248   */\n      dup2\n        /* \"#utility.yul\":2202:2249   */\n      tag_20\n      jump\t// in\n    tag_46:\n        /* \"#utility.yul\":2197:2200   */\n      dup3\n        /* \"#utility.yul\":2190:2250   */\n      mstore\n        /* \"#utility.yul\":2105:2256   */\n      pop\n      pop\n      jump\t// out\n        /* \"#utility.yul\":2262:2504   */\n    tag_10:\n        /* \"#utility.yul\":2365:2369   */\n      0x00\n        /* \"#utility.yul\":2403:2405   */\n      0x20\n        /* \"#utility.yul\":2392:2401   */\n      dup3\n        /* \"#utility.yul\":2388:2406   */\n      add\n        /* \"#utility.yul\":2380:2406   */\n      swap1\n      pop\n        /* \"#utility.yul\":2416:2497   */\n      tag_48\n        /* \"#utility.yul\":2494:2495   */\n      0x00\n        /* \"#utility.yul\":2483:2492   */\n      dup4\n        /* \"#utility.yul\":2479:2496   */\n      add\n        /* \"#utility.yul\":2470:2476   */\n      dup5\n        /* \"#utility.yul\":2416:2497   */\n      tag_21\n      jump\t// in\n    tag_48:\n        /* \"#utility.yul\":2262:2504   */\n      swap3\n      swap2\n      pop\n      pop\n      jump\t// out\n\n    auxdata: 0xa2646970667358221220904e246847213ae17c7aa2f003b4a203123760f66b1fdb5845f6e2d58874f03064736f6c63430008120033\n}\n",
				"bytecode": {
					"linkReferences": {},
					"object": "608060405234801561001057600080fd5b5061022b806100206000396000f3fe608060405234801561001057600080fd5b506004361061002b5760003560e01c806354353f2f14610030575b600080fd5b61003861003a565b005b7fdd970dd9b5bfe707922155b058a407655cb18288b807e2216442bca8ad83d6b56104d260405161006b9190610171565b60405180910390a13373ffffffffffffffffffffffffffffffffffffffff167f919a4e0615aef45fd56105241973bd25f287f1040399e7c9f97fa2ca1c2b51746103156040516100bb91906101da565b60405180910390a2565b600082825260208201905092915050565b7f63616c6c65640000000000000000000000000000000000000000000000000000600082015250565b600061010c6006836100c5565b9150610117826100d6565b602082019050919050565b6000819050919050565b6000819050919050565b6000819050919050565b600061015b61015661015184610122565b610136565b61012c565b9050919050565b61016b81610140565b82525050565b6000604082019050818103600083015261018a816100ff565b90506101996020830184610162565b92915050565b6000819050919050565b60006101c46101bf6101ba8461019f565b610136565b61012c565b9050919050565b6101d4816101a9565b82525050565b60006020820190506101ef60008301846101cb565b9291505056fea2646970667358221220904e246847213ae17c7aa2f003b4a203123760f66b1fdb5845f6e2d58874f03064736f6c63430008120033",
					"opcodes": "PUSH1 0x80 PUSH1 0x40 MSTORE CALLVALUE DUP1 ISZERO PUSH2 0x10 JUMPI PUSH1 0x0 DUP1 REVERT JUMPDEST POP PUSH2 0x22B DUP1 PUSH2 0x20 PUSH1 0x0 CODECOPY PUSH1 0x0 RETURN INVALID PUSH1 0x80 PUSH1 0x40 MSTORE CALLVALUE DUP1 ISZERO PUSH2 0x10 JUMPI PUSH1 0x0 DUP1 REVERT JUMPDEST POP PUSH1 0x4 CALLDATASIZE LT PUSH2 0x2B JUMPI PUSH1 0x0 CALLDATALOAD PUSH1 0xE0 SHR DUP1 PUSH4 0x54353F2F EQ PUSH2 0x30 JUMPI JUMPDEST PUSH1 0x0 DUP1 REVERT JUMPDEST PUSH2 0x38 PUSH2 0x3A JUMP JUMPDEST STOP JUMPDEST PUSH32 0xDD970DD9B5BFE707922155B058A407655CB18288B807E2216442BCA8AD83D6B5 PUSH2 0x4D2 PUSH1 0x40 MLOAD PUSH2 0x6B SWAP2 SWAP1 PUSH2 0x171 JUMP JUMPDEST PUSH1 0x40 MLOAD DUP1 SWAP2 SUB SWAP1 LOG1 CALLER PUSH20 0xFFFFFFFFFFFFFFFFFFFFFFFFFFFFFFFFFFFFFFFF AND PUSH32 0x919A4E0615AEF45FD56105241973BD25F287F1040399E7C9F97FA2CA1C2B5174 PUSH2 0x315 PUSH1 0x40 MLOAD PUSH2 0xBB SWAP2 SWAP1 PUSH2 0x1DA JUMP JUMPDEST PUSH1 0x40 MLOAD DUP1 SWAP2 SUB SWAP1 LOG2 JUMP JUMPDEST PUSH1 0x0 DUP3 DUP3 MSTORE PUSH1 0x20 DUP3 ADD SWAP1 POP SWAP3 SWAP2 POP POP JUMP JUMPDEST PUSH32 0x63616C6C65640000000000000000000000000000000000000000000000000000 PUSH1 0x0 DUP3 ADD MSTORE POP JUMP JUMPDEST PUSH1 0x0 PUSH2 0x10C PUSH1 0x6 DUP4 PUSH2 0xC5 JUMP JUMPDEST SWAP2 POP PUSH2 0x117 DUP3 PUSH2 0xD6 JUMP JUMPDEST PUSH1 0x20 DUP3 ADD SWAP1 POP SWAP2 SWAP1 POP JUMP JUMPDEST PUSH1 0x0 DUP2 SWAP1 POP SWAP2 SWAP1 POP JUMP JUMPDEST PUSH1 0x0 DUP2 SWAP1 POP SWAP2 SWAP1 POP JUMP JUMPDEST PUSH1 0x0 DUP2 SWAP1 POP SWAP2 SWAP1 POP JUMP JUMPDEST PUSH1 0x0 PUSH2 0x15B PUSH2 0x156 PUSH2 0x151 DUP5 PUSH2 0x122 JUMP JUMPDEST PUSH2 0x136 JUMP JUMPDEST PUSH2 0x12C JUMP JUMPDEST SWAP1 POP SWAP2 SWAP1 POP JUMP JUMPDEST PUSH2 0x16B DUP2 PUSH2 0x140 JUMP JUMPDEST DUP3 MSTORE POP POP JUMP JUMPDEST PUSH1 0x0 PUSH1 0x40 DUP3 ADD SWAP1 POP DUP2 DUP2 SUB PUSH1 0x0 DUP4 ADD MSTORE PUSH2 0x18A DUP2 PUSH2 0xFF JUMP JUMPDEST SWAP1 POP PUSH2 0x199 PUSH1 0x20 DUP4 ADD DUP5 PUSH2 0x162 JUMP JUMPDEST SWAP3 SWAP2 POP POP JUMP JUMPDEST PUSH1 0x0 DUP2 SWAP1 POP SWAP2 SWAP1 POP JUMP JUMPDEST PUSH1 0x0 PUSH2 0x1C4 PUSH2 0x1BF PUSH2 0x1BA DUP5 PUSH2 0x19F JUMP JUMPDEST PUSH2 0x136 JUMP JUMPDEST PUSH2 0x12C JUMP JUMPDEST SWAP1 POP SWAP2 SWAP1 POP JUMP JUMPDEST PUSH2 0x1D4 DUP2 PUSH2 0x1A9 JUMP JUMPDEST DUP3 MSTORE POP POP JUMP JUMPDEST PUSH1 0x0 PUSH1 0x20 DUP3 ADD SWAP1 POP PUSH2 0x1EF PUSH1 0x0 DUP4 ADD DUP5 PUSH2 0x1CB JUMP JUMPDEST SWAP3 SWAP2 POP POP JUMP INVALID LOG2 PUSH5 0x6970667358 0x22 SLT KECCAK256 SWAP1 0x4E 0x24 PUSH9 0x47213AE17C7AA2F003 0xB4 LOG2 SUB SLT CALLDATACOPY PUSH1 0xF6 PUSH12 0x1FDB5845F6E2D58874F03064 PUSH20 0x6F6C634300081200330000000000000000000000 "
				},
				"gasEstimates": {
					"creation": {
						"codeDepositCost": "111000",
						"executionCost": "159",
						"totalCost": "111159"
					},
					"external": {
						"example()": "infinite"
					}
				},
				"methodIdentifiers": {
					"example()": "54353f2f"
				}
			},
			"storageLayout": {
				"storage": [],
				"types": null
			},
			"userdoc": {
				"kind": "user",
				"methods": {},
				"version": 1
			}
		}
	}
}