{
	"contracts/sih3.sol": {
		"evault": {
			"abi": [
				{
					"inputs": [],
					"stateMutability": "nonpayable",
					"type": "constructor"
				},
				{
					"anonymous": false,
					"inputs": [
						{
							"indexed": false,
							"internalType": "string",
							"name": "",
							"type": "string"
						},
						{
							"indexed": false,
							"internalType": "string",
							"name": "",
							"type": "string"
						}
					],
					"name": "DataAdded",
					"type": "event"
				},
				{
					"inputs": [
						{
							"internalType": "string[9]",
							"name": "data",
							"type": "string[9]"
						}
					],
					"name": "addData",
					"outputs": [],
					"stateMutability": "nonpayable",
					"type": "function"
				},
				{
					"inputs": [
						{
							"internalType": "uint256",
							"name": "",
							"type": "uint256"
						}
					],
					"name": "dataArray",
					"outputs": [
						{
							"internalType": "string",
							"name": "caseNo",
							"type": "string"
						},
						{
							"internalType": "string",
							"name": "caseName",
							"type": "string"
						},
						{
							"internalType": "string",
							"name": "judge",
							"type": "string"
						},
						{
							"internalType": "string",
							"name": "prosecutorLawyerName",
							"type": "string"
						},
						{
							"internalType": "string",
							"name": "defenderLawerName",
							"type": "string"
						},
						{
							"internalType": "string",
							"name": "clientFiled",
							"type": "string"
						},
						{
							"internalType": "string",
							"name": "clientDefending",
							"type": "string"
						},
						{
							"internalType": "string",
							"name": "verdict",
							"type": "string"
						},
						{
							"internalType": "string",
							"name": "url",
							"type": "string"
						}
					],
					"stateMutability": "view",
					"type": "function"
				},
				{
					"inputs": [],
					"name": "getAllCases",
					"outputs": [
						{
							"components": [
								{
									"internalType": "string",
									"name": "caseNo",
									"type": "string"
								},
								{
									"internalType": "string",
									"name": "caseName",
									"type": "string"
								},
								{
									"internalType": "string",
									"name": "judge",
									"type": "string"
								},
								{
									"internalType": "string",
									"name": "prosecutorLawyerName",
									"type": "string"
								},
								{
									"internalType": "string",
									"name": "defenderLawerName",
									"type": "string"
								},
								{
									"internalType": "string",
									"name": "clientFiled",
									"type": "string"
								},
								{
									"internalType": "string",
									"name": "clientDefending",
									"type": "string"
								},
								{
									"internalType": "string",
									"name": "verdict",
									"type": "string"
								},
								{
									"internalType": "string",
									"name": "url",
									"type": "string"
								}
							],
							"internalType": "struct evault.structTemplate[]",
							"name": "",
							"type": "tuple[]"
						}
					],
					"stateMutability": "view",
					"type": "function"
				},
				{
					"inputs": [
						{
							"internalType": "string",
							"name": "_judgeName",
							"type": "string"
						}
					],
					"name": "getJudgeCases",
					"outputs": [
						{
							"components": [
								{
									"internalType": "string",
									"name": "caseNo",
									"type": "string"
								},
								{
									"internalType": "string",
									"name": "caseName",
									"type": "string"
								},
								{
									"internalType": "string",
									"name": "judge",
									"type": "string"
								},
								{
									"internalType": "string",
									"name": "prosecutorLawyerName",
									"type": "string"
								},
								{
									"internalType": "string",
									"name": "defenderLawerName",
									"type": "string"
								},
								{
									"internalType": "string",
									"name": "clientFiled",
									"type": "string"
								},
								{
									"internalType": "string",
									"name": "clientDefending",
									"type": "string"
								},
								{
									"internalType": "string",
									"name": "verdict",
									"type": "string"
								},
								{
									"internalType": "string",
									"name": "url",
									"type": "string"
								}
							],
							"internalType": "struct evault.structTemplate[]",
							"name": "",
							"type": "tuple[]"
						}
					],
					"stateMutability": "view",
					"type": "function"
				},
				{
					"inputs": [
						{
							"internalType": "string",
							"name": "_lawyerName",
							"type": "string"
						}
					],
					"name": "getLawyerCase",
					"outputs": [
						{
							"components": [
								{
									"internalType": "string",
									"name": "caseNo",
									"type": "string"
								},
								{
									"internalType": "string",
									"name": "caseName",
									"type": "string"
								},
								{
									"internalType": "string",
									"name": "judge",
									"type": "string"
								},
								{
									"internalType": "string",
									"name": "prosecutorLawyerName",
									"type": "string"
								},
								{
									"internalType": "string",
									"name": "defenderLawerName",
									"type": "string"
								},
								{
									"internalType": "string",
									"name": "clientFiled",
									"type": "string"
								},
								{
									"internalType": "string",
									"name": "clientDefending",
									"type": "string"
								},
								{
									"internalType": "string",
									"name": "verdict",
									"type": "string"
								},
								{
									"internalType": "string",
									"name": "url",
									"type": "string"
								}
							],
							"internalType": "struct evault.structTemplate[]",
							"name": "",
							"type": "tuple[]"
						}
					],
					"stateMutability": "view",
					"type": "function"
				},
				{
					"inputs": [
						{
							"internalType": "address",
							"name": "_add",
							"type": "address"
						}
					],
					"name": "giveAccess",
					"outputs": [],
					"stateMutability": "nonpayable",
					"type": "function"
				}
			],
			"devdoc": {
				"kind": "dev",
				"methods": {},
				"version": 1
			},
			"evm": {
				"assembly": "    /* \"contracts/sih3.sol\":60:2628  contract evault{... */\n  mstore(0x40, 0x80)\n    /* \"contracts/sih3.sol\":118:180  constructor(){... */\n  callvalue\n  dup1\n  iszero\n  tag_1\n  jumpi\n  0x00\n  dup1\n  revert\ntag_1:\n  pop\n    /* \"contracts/sih3.sol\":142:153  writeAccess */\n  0x00\n    /* \"contracts/sih3.sol\":142:170  writeAccess.push(msg.sender) */\n  dup1\n  sload\n  0x01\n  dup2\n  add\n  dup3\n  sstore\n  swap1\n  dup1\n  mstore\n  0x290decd9548b62a8d60345a988386fc84ba6bc95484008f6362f93160ef3e563\n  add\n  dup1\n  sload\n  not(sub(shl(0xa0, 0x01), 0x01))\n  and\n    /* \"contracts/sih3.sol\":159:169  msg.sender */\n  caller\n    /* \"contracts/sih3.sol\":142:170  writeAccess.push(msg.sender) */\n  or\n  swap1\n  sstore\n    /* \"contracts/sih3.sol\":60:2628  contract evault{... */\n  dataSize(sub_0)\n  dup1\n  dataOffset(sub_0)\n  0x00\n  codecopy\n  0x00\n  return\nstop\n\nsub_0: assembly {\n        /* \"contracts/sih3.sol\":60:2628  contract evault{... */\n      mstore(0x40, 0x80)\n      callvalue\n      dup1\n      iszero\n      tag_1\n      jumpi\n      0x00\n      dup1\n      revert\n    tag_1:\n      pop\n      jumpi(tag_2, lt(calldatasize, 0x04))\n      shr(0xe0, calldataload(0x00))\n      dup1\n      0x400ecc63\n      eq\n      tag_3\n      jumpi\n      dup1\n      0x49f2e575\n      eq\n      tag_4\n      jumpi\n      dup1\n      0xa6ad3ed8\n      eq\n      tag_5\n      jumpi\n      dup1\n      0xcf12e870\n      eq\n      tag_6\n      jumpi\n      dup1\n      0xd2024221\n      eq\n      tag_7\n      jumpi\n      dup1\n      0xfb40c22a\n      eq\n      tag_8\n      jumpi\n    tag_2:\n      0x00\n      dup1\n      revert\n        /* \"contracts/sih3.sol\":2358:2504  function getLawyerCase( string memory _lawyerName ) public view returns(structTemplate[] memory){... */\n    tag_3:\n      tag_9\n      tag_10\n      calldatasize\n      0x04\n      tag_11\n      jump\t// in\n    tag_10:\n      tag_12\n      jump\t// in\n    tag_9:\n      mload(0x40)\n      tag_13\n      swap2\n      swap1\n      tag_14\n      jump\t// in\n    tag_13:\n      mload(0x40)\n      dup1\n      swap2\n      sub\n      swap1\n      return\n        /* \"contracts/sih3.sol\":625:658  structTemplate[] public dataArray */\n    tag_4:\n      tag_15\n      tag_16\n      calldatasize\n      0x04\n      tag_17\n      jump\t// in\n    tag_16:\n      tag_18\n      jump\t// in\n    tag_15:\n      mload(0x40)\n      tag_13\n      swap10\n      swap9\n      swap8\n      swap7\n      swap6\n      swap5\n      swap4\n      swap3\n      swap2\n      swap1\n      tag_20\n      jump\t// in\n        /* \"contracts/sih3.sol\":2200:2350  function getJudgeCases( string memory _judgeName) public view returns(structTemplate[] memory){... */\n    tag_5:\n      tag_9\n      tag_22\n      calldatasize\n      0x04\n      tag_11\n      jump\t// in\n    tag_22:\n      tag_23\n      jump\t// in\n        /* \"contracts/sih3.sol\":481:613  function giveAccess(address _add) public {... */\n    tag_6:\n      tag_25\n      tag_26\n      calldatasize\n      0x04\n      tag_27\n      jump\t// in\n    tag_26:\n      tag_28\n      jump\t// in\n    tag_25:\n      stop\n        /* \"contracts/sih3.sol\":1279:2188  function addData( string[9] calldata data) public accessAuthorization(msg.sender){... */\n    tag_7:\n      tag_25\n      tag_30\n      calldatasize\n      0x04\n      tag_31\n      jump\t// in\n    tag_30:\n      tag_32\n      jump\t// in\n        /* \"contracts/sih3.sol\":2514:2616  function getAllCases() public view returns(structTemplate[] memory){... */\n    tag_8:\n      tag_9\n      tag_34\n      jump\t// in\n        /* \"contracts/sih3.sol\":2358:2504  function getLawyerCase( string memory _lawyerName ) public view returns(structTemplate[] memory){... */\n    tag_12:\n        /* \"contracts/sih3.sol\":2430:2453  structTemplate[] memory */\n      0x60\n        /* \"contracts/sih3.sol\":2474:2483  lawyerMap */\n      0x04\n        /* \"contracts/sih3.sol\":2484:2495  _lawyerName */\n      dup3\n        /* \"contracts/sih3.sol\":2474:2496  lawyerMap[_lawyerName] */\n      mload(0x40)\n      tag_37\n      swap2\n      swap1\n      tag_38\n      jump\t// in\n    tag_37:\n      swap1\n      dup2\n      mstore\n      0x20\n      add\n      mload(0x40)\n      dup1\n      swap2\n      sub\n      swap1\n      keccak256\n        /* \"contracts/sih3.sol\":2467:2496  return lawyerMap[_lawyerName] */\n      dup1\n      sload\n      dup1\n      0x20\n      mul\n      0x20\n      add\n      mload(0x40)\n      swap1\n      dup2\n      add\n      0x40\n      mstore\n      dup1\n      swap3\n      swap2\n      swap1\n      dup2\n      dup2\n      mstore\n      0x20\n      add\n      0x00\n      swap1\n    tag_39:\n      dup3\n      dup3\n      lt\n      iszero\n      tag_40\n      jumpi\n      dup4\n      dup3\n      swap1\n      0x00\n      mstore\n      keccak256(0x00, 0x20)\n      swap1\n      0x09\n      mul\n      add\n      mload(0x40)\n      dup1\n      0x0120\n      add\n      0x40\n      mstore\n      swap1\n      dup2\n      0x00\n      dup3\n      add\n      dup1\n      sload\n      tag_42\n      swap1\n      tag_43\n      jump\t// in\n    tag_42:\n      dup1\n      0x1f\n      add\n      0x20\n      dup1\n      swap2\n      div\n      mul\n      0x20\n      add\n      mload(0x40)\n      swap1\n      dup2\n      add\n      0x40\n      mstore\n      dup1\n      swap3\n      swap2\n      swap1\n      dup2\n      dup2\n      mstore\n      0x20\n      add\n      dup3\n      dup1\n      sload\n      tag_44\n      swap1\n      tag_43\n      jump\t// in\n    tag_44:\n      dup1\n      iszero\n      tag_45\n      jumpi\n      dup1\n      0x1f\n      lt\n      tag_46\n      jumpi\n      0x0100\n      dup1\n      dup4\n      sload\n      div\n      mul\n      dup4\n      mstore\n      swap2\n      0x20\n      add\n      swap2\n      jump(tag_45)\n    tag_46:\n      dup3\n      add\n      swap2\n      swap1\n      0x00\n      mstore\n      keccak256(0x00, 0x20)\n      swap1\n    tag_47:\n      dup2\n      sload\n      dup2\n      mstore\n      swap1\n      0x01\n      add\n      swap1\n      0x20\n      add\n      dup1\n      dup4\n      gt\n      tag_47\n      jumpi\n      dup3\n      swap1\n      sub\n      0x1f\n      and\n      dup3\n      add\n      swap2\n    tag_45:\n      pop\n      pop\n      pop\n      pop\n      pop\n      dup2\n      mstore\n      0x20\n      add\n      0x01\n      dup3\n      add\n      dup1\n      sload\n      tag_48\n      swap1\n      tag_43\n      jump\t// in\n    tag_48:\n      dup1\n      0x1f\n      add\n      0x20\n      dup1\n      swap2\n      div\n      mul\n      0x20\n      add\n      mload(0x40)\n      swap1\n      dup2\n      add\n      0x40\n      mstore\n      dup1\n      swap3\n      swap2\n      swap1\n      dup2\n      dup2\n      mstore\n      0x20\n      add\n      dup3\n      dup1\n      sload\n      tag_49\n      swap1\n      tag_43\n      jump\t// in\n    tag_49:\n      dup1\n      iszero\n      tag_50\n      jumpi\n      dup1\n      0x1f\n      lt\n      tag_51\n      jumpi\n      0x0100\n      dup1\n      dup4\n      sload\n      div\n      mul\n      dup4\n      mstore\n      swap2\n      0x20\n      add\n      swap2\n      jump(tag_50)\n    tag_51:\n      dup3\n      add\n      swap2\n      swap1\n      0x00\n      mstore\n      keccak256(0x00, 0x20)\n      swap1\n    tag_52:\n      dup2\n      sload\n      dup2\n      mstore\n      swap1\n      0x01\n      add\n      swap1\n      0x20\n      add\n      dup1\n      dup4\n      gt\n      tag_52\n      jumpi\n      dup3\n      swap1\n      sub\n      0x1f\n      and\n      dup3\n      add\n      swap2\n    tag_50:\n      pop\n      pop\n      pop\n      pop\n      pop\n      dup2\n      mstore\n      0x20\n      add\n      0x02\n      dup3\n      add\n      dup1\n      sload\n      tag_53\n      swap1\n      tag_43\n      jump\t// in\n    tag_53:\n      dup1\n      0x1f\n      add\n      0x20\n      dup1\n      swap2\n      div\n      mul\n      0x20\n      add\n      mload(0x40)\n      swap1\n      dup2\n      add\n      0x40\n      mstore\n      dup1\n      swap3\n      swap2\n      swap1\n      dup2\n      dup2\n      mstore\n      0x20\n      add\n      dup3\n      dup1\n      sload\n      tag_54\n      swap1\n      tag_43\n      jump\t// in\n    tag_54:\n      dup1\n      iszero\n      tag_55\n      jumpi\n      dup1\n      0x1f\n      lt\n      tag_56\n      jumpi\n      0x0100\n      dup1\n      dup4\n      sload\n      div\n      mul\n      dup4\n      mstore\n      swap2\n      0x20\n      add\n      swap2\n      jump(tag_55)\n    tag_56:\n      dup3\n      add\n      swap2\n      swap1\n      0x00\n      mstore\n      keccak256(0x00, 0x20)\n      swap1\n    tag_57:\n      dup2\n      sload\n      dup2\n      mstore\n      swap1\n      0x01\n      add\n      swap1\n      0x20\n      add\n      dup1\n      dup4\n      gt\n      tag_57\n      jumpi\n      dup3\n      swap1\n      sub\n      0x1f\n      and\n      dup3\n      add\n      swap2\n    tag_55:\n      pop\n      pop\n      pop\n      pop\n      pop\n      dup2\n      mstore\n      0x20\n      add\n      0x03\n      dup3\n      add\n      dup1\n      sload\n      tag_58\n      swap1\n      tag_43\n      jump\t// in\n    tag_58:\n      dup1\n      0x1f\n      add\n      0x20\n      dup1\n      swap2\n      div\n      mul\n      0x20\n      add\n      mload(0x40)\n      swap1\n      dup2\n      add\n      0x40\n      mstore\n      dup1\n      swap3\n      swap2\n      swap1\n      dup2\n      dup2\n      mstore\n      0x20\n      add\n      dup3\n      dup1\n      sload\n      tag_59\n      swap1\n      tag_43\n      jump\t// in\n    tag_59:\n      dup1\n      iszero\n      tag_60\n      jumpi\n      dup1\n      0x1f\n      lt\n      tag_61\n      jumpi\n      0x0100\n      dup1\n      dup4\n      sload\n      div\n      mul\n      dup4\n      mstore\n      swap2\n      0x20\n      add\n      swap2\n      jump(tag_60)\n    tag_61:\n      dup3\n      add\n      swap2\n      swap1\n      0x00\n      mstore\n      keccak256(0x00, 0x20)\n      swap1\n    tag_62:\n      dup2\n      sload\n      dup2\n      mstore\n      swap1\n      0x01\n      add\n      swap1\n      0x20\n      add\n      dup1\n      dup4\n      gt\n      tag_62\n      jumpi\n      dup3\n      swap1\n      sub\n      0x1f\n      and\n      dup3\n      add\n      swap2\n    tag_60:\n      pop\n      pop\n      pop\n      pop\n      pop\n      dup2\n      mstore\n      0x20\n      add\n      0x04\n      dup3\n      add\n      dup1\n      sload\n      tag_63\n      swap1\n      tag_43\n      jump\t// in\n    tag_63:\n      dup1\n      0x1f\n      add\n      0x20\n      dup1\n      swap2\n      div\n      mul\n      0x20\n      add\n      mload(0x40)\n      swap1\n      dup2\n      add\n      0x40\n      mstore\n      dup1\n      swap3\n      swap2\n      swap1\n      dup2\n      dup2\n      mstore\n      0x20\n      add\n      dup3\n      dup1\n      sload\n      tag_64\n      swap1\n      tag_43\n      jump\t// in\n    tag_64:\n      dup1\n      iszero\n      tag_65\n      jumpi\n      dup1\n      0x1f\n      lt\n      tag_66\n      jumpi\n      0x0100\n      dup1\n      dup4\n      sload\n      div\n      mul\n      dup4\n      mstore\n      swap2\n      0x20\n      add\n      swap2\n      jump(tag_65)\n    tag_66:\n      dup3\n      add\n      swap2\n      swap1\n      0x00\n      mstore\n      keccak256(0x00, 0x20)\n      swap1\n    tag_67:\n      dup2\n      sload\n      dup2\n      mstore\n      swap1\n      0x01\n      add\n      swap1\n      0x20\n      add\n      dup1\n      dup4\n      gt\n      tag_67\n      jumpi\n      dup3\n      swap1\n      sub\n      0x1f\n      and\n      dup3\n      add\n      swap2\n    tag_65:\n      pop\n      pop\n      pop\n      pop\n      pop\n      dup2\n      mstore\n      0x20\n      add\n      0x05\n      dup3\n      add\n      dup1\n      sload\n      tag_68\n      swap1\n      tag_43\n      jump\t// in\n    tag_68:\n      dup1\n      0x1f\n      add\n      0x20\n      dup1\n      swap2\n      div\n      mul\n      0x20\n      add\n      mload(0x40)\n      swap1\n      dup2\n      add\n      0x40\n      mstore\n      dup1\n      swap3\n      swap2\n      swap1\n      dup2\n      dup2\n      mstore\n      0x20\n      add\n      dup3\n      dup1\n      sload\n      tag_69\n      swap1\n      tag_43\n      jump\t// in\n    tag_69:\n      dup1\n      iszero\n      tag_70\n      jumpi\n      dup1\n      0x1f\n      lt\n      tag_71\n      jumpi\n      0x0100\n      dup1\n      dup4\n      sload\n      div\n      mul\n      dup4\n      mstore\n      swap2\n      0x20\n      add\n      swap2\n      jump(tag_70)\n    tag_71:\n      dup3\n      add\n      swap2\n      swap1\n      0x00\n      mstore\n      keccak256(0x00, 0x20)\n      swap1\n    tag_72:\n      dup2\n      sload\n      dup2\n      mstore\n      swap1\n      0x01\n      add\n      swap1\n      0x20\n      add\n      dup1\n      dup4\n      gt\n      tag_72\n      jumpi\n      dup3\n      swap1\n      sub\n      0x1f\n      and\n      dup3\n      add\n      swap2\n    tag_70:\n      pop\n      pop\n      pop\n      pop\n      pop\n      dup2\n      mstore\n      0x20\n      add\n      0x06\n      dup3\n      add\n      dup1\n      sload\n      tag_73\n      swap1\n      tag_43\n      jump\t// in\n    tag_73:\n      dup1\n      0x1f\n      add\n      0x20\n      dup1\n      swap2\n      div\n      mul\n      0x20\n      add\n      mload(0x40)\n      swap1\n      dup2\n      add\n      0x40\n      mstore\n      dup1\n      swap3\n      swap2\n      swap1\n      dup2\n      dup2\n      mstore\n      0x20\n      add\n      dup3\n      dup1\n      sload\n      tag_74\n      swap1\n      tag_43\n      jump\t// in\n    tag_74:\n      dup1\n      iszero\n      tag_75\n      jumpi\n      dup1\n      0x1f\n      lt\n      tag_76\n      jumpi\n      0x0100\n      dup1\n      dup4\n      sload\n      div\n      mul\n      dup4\n      mstore\n      swap2\n      0x20\n      add\n      swap2\n      jump(tag_75)\n    tag_76:\n      dup3\n      add\n      swap2\n      swap1\n      0x00\n      mstore\n      keccak256(0x00, 0x20)\n      swap1\n    tag_77:\n      dup2\n      sload\n      dup2\n      mstore\n      swap1\n      0x01\n      add\n      swap1\n      0x20\n      add\n      dup1\n      dup4\n      gt\n      tag_77\n      jumpi\n      dup3\n      swap1\n      sub\n      0x1f\n      and\n      dup3\n      add\n      swap2\n    tag_75:\n      pop\n      pop\n      pop\n      pop\n      pop\n      dup2\n      mstore\n      0x20\n      add\n      0x07\n      dup3\n      add\n      dup1\n      sload\n      tag_78\n      swap1\n      tag_43\n      jump\t// in\n    tag_78:\n      dup1\n      0x1f\n      add\n      0x20\n      dup1\n      swap2\n      div\n      mul\n      0x20\n      add\n      mload(0x40)\n      swap1\n      dup2\n      add\n      0x40\n      mstore\n      dup1\n      swap3\n      swap2\n      swap1\n      dup2\n      dup2\n      mstore\n      0x20\n      add\n      dup3\n      dup1\n      sload\n      tag_79\n      swap1\n      tag_43\n      jump\t// in\n    tag_79:\n      dup1\n      iszero\n      tag_80\n      jumpi\n      dup1\n      0x1f\n      lt\n      tag_81\n      jumpi\n      0x0100\n      dup1\n      dup4\n      sload\n      div\n      mul\n      dup4\n      mstore\n      swap2\n      0x20\n      add\n      swap2\n      jump(tag_80)\n    tag_81:\n      dup3\n      add\n      swap2\n      swap1\n      0x00\n      mstore\n      keccak256(0x00, 0x20)\n      swap1\n    tag_82:\n      dup2\n      sload\n      dup2\n      mstore\n      swap1\n      0x01\n      add\n      swap1\n      0x20\n      add\n      dup1\n      dup4\n      gt\n      tag_82\n      jumpi\n      dup3\n      swap1\n      sub\n      0x1f\n      and\n      dup3\n      add\n      swap2\n    tag_80:\n      pop\n      pop\n      pop\n      pop\n      pop\n      dup2\n      mstore\n      0x20\n      add\n      0x08\n      dup3\n      add\n      dup1\n      sload\n      tag_83\n      swap1\n      tag_43\n      jump\t// in\n    tag_83:\n      dup1\n      0x1f\n      add\n      0x20\n      dup1\n      swap2\n      div\n      mul\n      0x20\n      add\n      mload(0x40)\n      swap1\n      dup2\n      add\n      0x40\n      mstore\n      dup1\n      swap3\n      swap2\n      swap1\n      dup2\n      dup2\n      mstore\n      0x20\n      add\n      dup3\n      dup1\n      sload\n      tag_84\n      swap1\n      tag_43\n      jump\t// in\n    tag_84:\n      dup1\n      iszero\n      tag_85\n      jumpi\n      dup1\n      0x1f\n      lt\n      tag_86\n      jumpi\n      0x0100\n      dup1\n      dup4\n      sload\n      div\n      mul\n      dup4\n      mstore\n      swap2\n      0x20\n      add\n      swap2\n      jump(tag_85)\n    tag_86:\n      dup3\n      add\n      swap2\n      swap1\n      0x00\n      mstore\n      keccak256(0x00, 0x20)\n      swap1\n    tag_87:\n      dup2\n      sload\n      dup2\n      mstore\n      swap1\n      0x01\n      add\n      swap1\n      0x20\n      add\n      dup1\n      dup4\n      gt\n      tag_87\n      jumpi\n      dup3\n      swap1\n      sub\n      0x1f\n      and\n      dup3\n      add\n      swap2\n    tag_85:\n      pop\n      pop\n      pop\n      pop\n      pop\n      dup2\n      mstore\n      pop\n      pop\n      dup2\n      mstore\n      0x20\n      add\n      swap1\n      0x01\n      add\n      swap1\n      jump(tag_39)\n    tag_40:\n      pop\n      pop\n      pop\n      pop\n      swap1\n      pop\n        /* \"contracts/sih3.sol\":2358:2504  function getLawyerCase( string memory _lawyerName ) public view returns(structTemplate[] memory){... */\n      swap2\n      swap1\n      pop\n      jump\t// out\n        /* \"contracts/sih3.sol\":625:658  structTemplate[] public dataArray */\n    tag_18:\n      0x01\n      dup2\n      dup2\n      sload\n      dup2\n      lt\n      tag_88\n      jumpi\n      0x00\n      dup1\n      revert\n    tag_88:\n      swap1\n      0x00\n      mstore\n      keccak256(0x00, 0x20)\n      swap1\n      0x09\n      mul\n      add\n      0x00\n      swap2\n      pop\n      swap1\n      pop\n      dup1\n      0x00\n      add\n      dup1\n      sload\n      tag_90\n      swap1\n      tag_43\n      jump\t// in\n    tag_90:\n      dup1\n      0x1f\n      add\n      0x20\n      dup1\n      swap2\n      div\n      mul\n      0x20\n      add\n      mload(0x40)\n      swap1\n      dup2\n      add\n      0x40\n      mstore\n      dup1\n      swap3\n      swap2\n      swap1\n      dup2\n      dup2\n      mstore\n      0x20\n      add\n      dup3\n      dup1\n      sload\n      tag_91\n      swap1\n      tag_43\n      jump\t// in\n    tag_91:\n      dup1\n      iszero\n      tag_92\n      jumpi\n      dup1\n      0x1f\n      lt\n      tag_93\n      jumpi\n      0x0100\n      dup1\n      dup4\n      sload\n      div\n      mul\n      dup4\n      mstore\n      swap2\n      0x20\n      add\n      swap2\n      jump(tag_92)\n    tag_93:\n      dup3\n      add\n      swap2\n      swap1\n      0x00\n      mstore\n      keccak256(0x00, 0x20)\n      swap1\n    tag_94:\n      dup2\n      sload\n      dup2\n      mstore\n      swap1\n      0x01\n      add\n      swap1\n      0x20\n      add\n      dup1\n      dup4\n      gt\n      tag_94\n      jumpi\n      dup3\n      swap1\n      sub\n      0x1f\n      and\n      dup3\n      add\n      swap2\n    tag_92:\n      pop\n      pop\n      pop\n      pop\n      pop\n      swap1\n      dup1\n      0x01\n      add\n      dup1\n      sload\n      tag_95\n      swap1\n      tag_43\n      jump\t// in\n    tag_95:\n      dup1\n      0x1f\n      add\n      0x20\n      dup1\n      swap2\n      div\n      mul\n      0x20\n      add\n      mload(0x40)\n      swap1\n      dup2\n      add\n      0x40\n      mstore\n      dup1\n      swap3\n      swap2\n      swap1\n      dup2\n      dup2\n      mstore\n      0x20\n      add\n      dup3\n      dup1\n      sload\n      tag_96\n      swap1\n      tag_43\n      jump\t// in\n    tag_96:\n      dup1\n      iszero\n      tag_97\n      jumpi\n      dup1\n      0x1f\n      lt\n      tag_98\n      jumpi\n      0x0100\n      dup1\n      dup4\n      sload\n      div\n      mul\n      dup4\n      mstore\n      swap2\n      0x20\n      add\n      swap2\n      jump(tag_97)\n    tag_98:\n      dup3\n      add\n      swap2\n      swap1\n      0x00\n      mstore\n      keccak256(0x00, 0x20)\n      swap1\n    tag_99:\n      dup2\n      sload\n      dup2\n      mstore\n      swap1\n      0x01\n      add\n      swap1\n      0x20\n      add\n      dup1\n      dup4\n      gt\n      tag_99\n      jumpi\n      dup3\n      swap1\n      sub\n      0x1f\n      and\n      dup3\n      add\n      swap2\n    tag_97:\n      pop\n      pop\n      pop\n      pop\n      pop\n      swap1\n      dup1\n      0x02\n      add\n      dup1\n      sload\n      tag_100\n      swap1\n      tag_43\n      jump\t// in\n    tag_100:\n      dup1\n      0x1f\n      add\n      0x20\n      dup1\n      swap2\n      div\n      mul\n      0x20\n      add\n      mload(0x40)\n      swap1\n      dup2\n      add\n      0x40\n      mstore\n      dup1\n      swap3\n      swap2\n      swap1\n      dup2\n      dup2\n      mstore\n      0x20\n      add\n      dup3\n      dup1\n      sload\n      tag_101\n      swap1\n      tag_43\n      jump\t// in\n    tag_101:\n      dup1\n      iszero\n      tag_102\n      jumpi\n      dup1\n      0x1f\n      lt\n      tag_103\n      jumpi\n      0x0100\n      dup1\n      dup4\n      sload\n      div\n      mul\n      dup4\n      mstore\n      swap2\n      0x20\n      add\n      swap2\n      jump(tag_102)\n    tag_103:\n      dup3\n      add\n      swap2\n      swap1\n      0x00\n      mstore\n      keccak256(0x00, 0x20)\n      swap1\n    tag_104:\n      dup2\n      sload\n      dup2\n      mstore\n      swap1\n      0x01\n      add\n      swap1\n      0x20\n      add\n      dup1\n      dup4\n      gt\n      tag_104\n      jumpi\n      dup3\n      swap1\n      sub\n      0x1f\n      and\n      dup3\n      add\n      swap2\n    tag_102:\n      pop\n      pop\n      pop\n      pop\n      pop\n      swap1\n      dup1\n      0x03\n      add\n      dup1\n      sload\n      tag_105\n      swap1\n      tag_43\n      jump\t// in\n    tag_105:\n      dup1\n      0x1f\n      add\n      0x20\n      dup1\n      swap2\n      div\n      mul\n      0x20\n      add\n      mload(0x40)\n      swap1\n      dup2\n      add\n      0x40\n      mstore\n      dup1\n      swap3\n      swap2\n      swap1\n      dup2\n      dup2\n      mstore\n      0x20\n      add\n      dup3\n      dup1\n      sload\n      tag_106\n      swap1\n      tag_43\n      jump\t// in\n    tag_106:\n      dup1\n      iszero\n      tag_107\n      jumpi\n      dup1\n      0x1f\n      lt\n      tag_108\n      jumpi\n      0x0100\n      dup1\n      dup4\n      sload\n      div\n      mul\n      dup4\n      mstore\n      swap2\n      0x20\n      add\n      swap2\n      jump(tag_107)\n    tag_108:\n      dup3\n      add\n      swap2\n      swap1\n      0x00\n      mstore\n      keccak256(0x00, 0x20)\n      swap1\n    tag_109:\n      dup2\n      sload\n      dup2\n      mstore\n      swap1\n      0x01\n      add\n      swap1\n      0x20\n      add\n      dup1\n      dup4\n      gt\n      tag_109\n      jumpi\n      dup3\n      swap1\n      sub\n      0x1f\n      and\n      dup3\n      add\n      swap2\n    tag_107:\n      pop\n      pop\n      pop\n      pop\n      pop\n      swap1\n      dup1\n      0x04\n      add\n      dup1\n      sload\n      tag_110\n      swap1\n      tag_43\n      jump\t// in\n    tag_110:\n      dup1\n      0x1f\n      add\n      0x20\n      dup1\n      swap2\n      div\n      mul\n      0x20\n      add\n      mload(0x40)\n      swap1\n      dup2\n      add\n      0x40\n      mstore\n      dup1\n      swap3\n      swap2\n      swap1\n      dup2\n      dup2\n      mstore\n      0x20\n      add\n      dup3\n      dup1\n      sload\n      tag_111\n      swap1\n      tag_43\n      jump\t// in\n    tag_111:\n      dup1\n      iszero\n      tag_112\n      jumpi\n      dup1\n      0x1f\n      lt\n      tag_113\n      jumpi\n      0x0100\n      dup1\n      dup4\n      sload\n      div\n      mul\n      dup4\n      mstore\n      swap2\n      0x20\n      add\n      swap2\n      jump(tag_112)\n    tag_113:\n      dup3\n      add\n      swap2\n      swap1\n      0x00\n      mstore\n      keccak256(0x00, 0x20)\n      swap1\n    tag_114:\n      dup2\n      sload\n      dup2\n      mstore\n      swap1\n      0x01\n      add\n      swap1\n      0x20\n      add\n      dup1\n      dup4\n      gt\n      tag_114\n      jumpi\n      dup3\n      swap1\n      sub\n      0x1f\n      and\n      dup3\n      add\n      swap2\n    tag_112:\n      pop\n      pop\n      pop\n      pop\n      pop\n      swap1\n      dup1\n      0x05\n      add\n      dup1\n      sload\n      tag_115\n      swap1\n      tag_43\n      jump\t// in\n    tag_115:\n      dup1\n      0x1f\n      add\n      0x20\n      dup1\n      swap2\n      div\n      mul\n      0x20\n      add\n      mload(0x40)\n      swap1\n      dup2\n      add\n      0x40\n      mstore\n      dup1\n      swap3\n      swap2\n      swap1\n      dup2\n      dup2\n      mstore\n      0x20\n      add\n      dup3\n      dup1\n      sload\n      tag_116\n      swap1\n      tag_43\n      jump\t// in\n    tag_116:\n      dup1\n      iszero\n      tag_117\n      jumpi\n      dup1\n      0x1f\n      lt\n      tag_118\n      jumpi\n      0x0100\n      dup1\n      dup4\n      sload\n      div\n      mul\n      dup4\n      mstore\n      swap2\n      0x20\n      add\n      swap2\n      jump(tag_117)\n    tag_118:\n      dup3\n      add\n      swap2\n      swap1\n      0x00\n      mstore\n      keccak256(0x00, 0x20)\n      swap1\n    tag_119:\n      dup2\n      sload\n      dup2\n      mstore\n      swap1\n      0x01\n      add\n      swap1\n      0x20\n      add\n      dup1\n      dup4\n      gt\n      tag_119\n      jumpi\n      dup3\n      swap1\n      sub\n      0x1f\n      and\n      dup3\n      add\n      swap2\n    tag_117:\n      pop\n      pop\n      pop\n      pop\n      pop\n      swap1\n      dup1\n      0x06\n      add\n      dup1\n      sload\n      tag_120\n      swap1\n      tag_43\n      jump\t// in\n    tag_120:\n      dup1\n      0x1f\n      add\n      0x20\n      dup1\n      swap2\n      div\n      mul\n      0x20\n      add\n      mload(0x40)\n      swap1\n      dup2\n      add\n      0x40\n      mstore\n      dup1\n      swap3\n      swap2\n      swap1\n      dup2\n      dup2\n      mstore\n      0x20\n      add\n      dup3\n      dup1\n      sload\n      tag_121\n      swap1\n      tag_43\n      jump\t// in\n    tag_121:\n      dup1\n      iszero\n      tag_122\n      jumpi\n      dup1\n      0x1f\n      lt\n      tag_123\n      jumpi\n      0x0100\n      dup1\n      dup4\n      sload\n      div\n      mul\n      dup4\n      mstore\n      swap2\n      0x20\n      add\n      swap2\n      jump(tag_122)\n    tag_123:\n      dup3\n      add\n      swap2\n      swap1\n      0x00\n      mstore\n      keccak256(0x00, 0x20)\n      swap1\n    tag_124:\n      dup2\n      sload\n      dup2\n      mstore\n      swap1\n      0x01\n      add\n      swap1\n      0x20\n      add\n      dup1\n      dup4\n      gt\n      tag_124\n      jumpi\n      dup3\n      swap1\n      sub\n      0x1f\n      and\n      dup3\n      add\n      swap2\n    tag_122:\n      pop\n      pop\n      pop\n      pop\n      pop\n      swap1\n      dup1\n      0x07\n      add\n      dup1\n      sload\n      tag_125\n      swap1\n      tag_43\n      jump\t// in\n    tag_125:\n      dup1\n      0x1f\n      add\n      0x20\n      dup1\n      swap2\n      div\n      mul\n      0x20\n      add\n      mload(0x40)\n      swap1\n      dup2\n      add\n      0x40\n      mstore\n      dup1\n      swap3\n      swap2\n      swap1\n      dup2\n      dup2\n      mstore\n      0x20\n      add\n      dup3\n      dup1\n      sload\n      tag_126\n      swap1\n      tag_43\n      jump\t// in\n    tag_126:\n      dup1\n      iszero\n      tag_127\n      jumpi\n      dup1\n      0x1f\n      lt\n      tag_128\n      jumpi\n      0x0100\n      dup1\n      dup4\n      sload\n      div\n      mul\n      dup4\n      mstore\n      swap2\n      0x20\n      add\n      swap2\n      jump(tag_127)\n    tag_128:\n      dup3\n      add\n      swap2\n      swap1\n      0x00\n      mstore\n      keccak256(0x00, 0x20)\n      swap1\n    tag_129:\n      dup2\n      sload\n      dup2\n      mstore\n      swap1\n      0x01\n      add\n      swap1\n      0x20\n      add\n      dup1\n      dup4\n      gt\n      tag_129\n      jumpi\n      dup3\n      swap1\n      sub\n      0x1f\n      and\n      dup3\n      add\n      swap2\n    tag_127:\n      pop\n      pop\n      pop\n      pop\n      pop\n      swap1\n      dup1\n      0x08\n      add\n      dup1\n      sload\n      tag_130\n      swap1\n      tag_43\n      jump\t// in\n    tag_130:\n      dup1\n      0x1f\n      add\n      0x20\n      dup1\n      swap2\n      div\n      mul\n      0x20\n      add\n      mload(0x40)\n      swap1\n      dup2\n      add\n      0x40\n      mstore\n      dup1\n      swap3\n      swap2\n      swap1\n      dup2\n      dup2\n      mstore\n      0x20\n      add\n      dup3\n      dup1\n      sload\n      tag_131\n      swap1\n      tag_43\n      jump\t// in\n    tag_131:\n      dup1\n      iszero\n      tag_132\n      jumpi\n      dup1\n      0x1f\n      lt\n      tag_133\n      jumpi\n      0x0100\n      dup1\n      dup4\n      sload\n      div\n      mul\n      dup4\n      mstore\n      swap2\n      0x20\n      add\n      swap2\n      jump(tag_132)\n    tag_133:\n      dup3\n      add\n      swap2\n      swap1\n      0x00\n      mstore\n      keccak256(0x00, 0x20)\n      swap1\n    tag_134:\n      dup2\n      sload\n      dup2\n      mstore\n      swap1\n      0x01\n      add\n      swap1\n      0x20\n      add\n      dup1\n      dup4\n      gt\n      tag_134\n      jumpi\n      dup3\n      swap1\n      sub\n      0x1f\n      and\n      dup3\n      add\n      swap2\n    tag_132:\n      pop\n      pop\n      pop\n      pop\n      pop\n      swap1\n      pop\n      dup10\n      jump\t// out\n        /* \"contracts/sih3.sol\":2200:2350  function getJudgeCases( string memory _judgeName) public view returns(structTemplate[] memory){... */\n    tag_23:\n        /* \"contracts/sih3.sol\":2270:2293  structTemplate[] memory */\n      0x60\n        /* \"contracts/sih3.sol\":2312:2320  judgeMap */\n      0x03\n        /* \"contracts/sih3.sol\":2321:2331  _judgeName */\n      dup3\n        /* \"contracts/sih3.sol\":2312:2332  judgeMap[_judgeName] */\n      mload(0x40)\n      tag_136\n      swap2\n      swap1\n      tag_38\n      jump\t// in\n    tag_136:\n      swap1\n      dup2\n      mstore\n      0x20\n      add\n      mload(0x40)\n      dup1\n      swap2\n      sub\n      swap1\n      keccak256\n        /* \"contracts/sih3.sol\":2305:2332  return judgeMap[_judgeName] */\n      dup1\n      sload\n      dup1\n      0x20\n      mul\n      0x20\n      add\n      mload(0x40)\n      swap1\n      dup2\n      add\n      0x40\n      mstore\n      dup1\n      swap3\n      swap2\n      swap1\n      dup2\n      dup2\n      mstore\n      0x20\n      add\n      0x00\n      swap1\n    tag_137:\n      dup3\n      dup3\n      lt\n      iszero\n      tag_40\n      jumpi\n      dup4\n      dup3\n      swap1\n      0x00\n      mstore\n      keccak256(0x00, 0x20)\n      swap1\n      0x09\n      mul\n      add\n      mload(0x40)\n      dup1\n      0x0120\n      add\n      0x40\n      mstore\n      swap1\n      dup2\n      0x00\n      dup3\n      add\n      dup1\n      sload\n      tag_140\n      swap1\n      tag_43\n      jump\t// in\n    tag_140:\n      dup1\n      0x1f\n      add\n      0x20\n      dup1\n      swap2\n      div\n      mul\n      0x20\n      add\n      mload(0x40)\n      swap1\n      dup2\n      add\n      0x40\n      mstore\n      dup1\n      swap3\n      swap2\n      swap1\n      dup2\n      dup2\n      mstore\n      0x20\n      add\n      dup3\n      dup1\n      sload\n      tag_141\n      swap1\n      tag_43\n      jump\t// in\n    tag_141:\n      dup1\n      iszero\n      tag_142\n      jumpi\n      dup1\n      0x1f\n      lt\n      tag_143\n      jumpi\n      0x0100\n      dup1\n      dup4\n      sload\n      div\n      mul\n      dup4\n      mstore\n      swap2\n      0x20\n      add\n      swap2\n      jump(tag_142)\n    tag_143:\n      dup3\n      add\n      swap2\n      swap1\n      0x00\n      mstore\n      keccak256(0x00, 0x20)\n      swap1\n    tag_144:\n      dup2\n      sload\n      dup2\n      mstore\n      swap1\n      0x01\n      add\n      swap1\n      0x20\n      add\n      dup1\n      dup4\n      gt\n      tag_144\n      jumpi\n      dup3\n      swap1\n      sub\n      0x1f\n      and\n      dup3\n      add\n      swap2\n    tag_142:\n      pop\n      pop\n      pop\n      pop\n      pop\n      dup2\n      mstore\n      0x20\n      add\n      0x01\n      dup3\n      add\n      dup1\n      sload\n      tag_145\n      swap1\n      tag_43\n      jump\t// in\n    tag_145:\n      dup1\n      0x1f\n      add\n      0x20\n      dup1\n      swap2\n      div\n      mul\n      0x20\n      add\n      mload(0x40)\n      swap1\n      dup2\n      add\n      0x40\n      mstore\n      dup1\n      swap3\n      swap2\n      swap1\n      dup2\n      dup2\n      mstore\n      0x20\n      add\n      dup3\n      dup1\n      sload\n      tag_146\n      swap1\n      tag_43\n      jump\t// in\n    tag_146:\n      dup1\n      iszero\n      tag_147\n      jumpi\n      dup1\n      0x1f\n      lt\n      tag_148\n      jumpi\n      0x0100\n      dup1\n      dup4\n      sload\n      div\n      mul\n      dup4\n      mstore\n      swap2\n      0x20\n      add\n      swap2\n      jump(tag_147)\n    tag_148:\n      dup3\n      add\n      swap2\n      swap1\n      0x00\n      mstore\n      keccak256(0x00, 0x20)\n      swap1\n    tag_149:\n      dup2\n      sload\n      dup2\n      mstore\n      swap1\n      0x01\n      add\n      swap1\n      0x20\n      add\n      dup1\n      dup4\n      gt\n      tag_149\n      jumpi\n      dup3\n      swap1\n      sub\n      0x1f\n      and\n      dup3\n      add\n      swap2\n    tag_147:\n      pop\n      pop\n      pop\n      pop\n      pop\n      dup2\n      mstore\n      0x20\n      add\n      0x02\n      dup3\n      add\n      dup1\n      sload\n      tag_150\n      swap1\n      tag_43\n      jump\t// in\n    tag_150:\n      dup1\n      0x1f\n      add\n      0x20\n      dup1\n      swap2\n      div\n      mul\n      0x20\n      add\n      mload(0x40)\n      swap1\n      dup2\n      add\n      0x40\n      mstore\n      dup1\n      swap3\n      swap2\n      swap1\n      dup2\n      dup2\n      mstore\n      0x20\n      add\n      dup3\n      dup1\n      sload\n      tag_151\n      swap1\n      tag_43\n      jump\t// in\n    tag_151:\n      dup1\n      iszero\n      tag_152\n      jumpi\n      dup1\n      0x1f\n      lt\n      tag_153\n      jumpi\n      0x0100\n      dup1\n      dup4\n      sload\n      div\n      mul\n      dup4\n      mstore\n      swap2\n      0x20\n      add\n      swap2\n      jump(tag_152)\n    tag_153:\n      dup3\n      add\n      swap2\n      swap1\n      0x00\n      mstore\n      keccak256(0x00, 0x20)\n      swap1\n    tag_154:\n      dup2\n      sload\n      dup2\n      mstore\n      swap1\n      0x01\n      add\n      swap1\n      0x20\n      add\n      dup1\n      dup4\n      gt\n      tag_154\n      jumpi\n      dup3\n      swap1\n      sub\n      0x1f\n      and\n      dup3\n      add\n      swap2\n    tag_152:\n      pop\n      pop\n      pop\n      pop\n      pop\n      dup2\n      mstore\n      0x20\n      add\n      0x03\n      dup3\n      add\n      dup1\n      sload\n      tag_155\n      swap1\n      tag_43\n      jump\t// in\n    tag_155:\n      dup1\n      0x1f\n      add\n      0x20\n      dup1\n      swap2\n      div\n      mul\n      0x20\n      add\n      mload(0x40)\n      swap1\n      dup2\n      add\n      0x40\n      mstore\n      dup1\n      swap3\n      swap2\n      swap1\n      dup2\n      dup2\n      mstore\n      0x20\n      add\n      dup3\n      dup1\n      sload\n      tag_156\n      swap1\n      tag_43\n      jump\t// in\n    tag_156:\n      dup1\n      iszero\n      tag_157\n      jumpi\n      dup1\n      0x1f\n      lt\n      tag_158\n      jumpi\n      0x0100\n      dup1\n      dup4\n      sload\n      div\n      mul\n      dup4\n      mstore\n      swap2\n      0x20\n      add\n      swap2\n      jump(tag_157)\n    tag_158:\n      dup3\n      add\n      swap2\n      swap1\n      0x00\n      mstore\n      keccak256(0x00, 0x20)\n      swap1\n    tag_159:\n      dup2\n      sload\n      dup2\n      mstore\n      swap1\n      0x01\n      add\n      swap1\n      0x20\n      add\n      dup1\n      dup4\n      gt\n      tag_159\n      jumpi\n      dup3\n      swap1\n      sub\n      0x1f\n      and\n      dup3\n      add\n      swap2\n    tag_157:\n      pop\n      pop\n      pop\n      pop\n      pop\n      dup2\n      mstore\n      0x20\n      add\n      0x04\n      dup3\n      add\n      dup1\n      sload\n      tag_160\n      swap1\n      tag_43\n      jump\t// in\n    tag_160:\n      dup1\n      0x1f\n      add\n      0x20\n      dup1\n      swap2\n      div\n      mul\n      0x20\n      add\n      mload(0x40)\n      swap1\n      dup2\n      add\n      0x40\n      mstore\n      dup1\n      swap3\n      swap2\n      swap1\n      dup2\n      dup2\n      mstore\n      0x20\n      add\n      dup3\n      dup1\n      sload\n      tag_161\n      swap1\n      tag_43\n      jump\t// in\n    tag_161:\n      dup1\n      iszero\n      tag_162\n      jumpi\n      dup1\n      0x1f\n      lt\n      tag_163\n      jumpi\n      0x0100\n      dup1\n      dup4\n      sload\n      div\n      mul\n      dup4\n      mstore\n      swap2\n      0x20\n      add\n      swap2\n      jump(tag_162)\n    tag_163:\n      dup3\n      add\n      swap2\n      swap1\n      0x00\n      mstore\n      keccak256(0x00, 0x20)\n      swap1\n    tag_164:\n      dup2\n      sload\n      dup2\n      mstore\n      swap1\n      0x01\n      add\n      swap1\n      0x20\n      add\n      dup1\n      dup4\n      gt\n      tag_164\n      jumpi\n      dup3\n      swap1\n      sub\n      0x1f\n      and\n      dup3\n      add\n      swap2\n    tag_162:\n      pop\n      pop\n      pop\n      pop\n      pop\n      dup2\n      mstore\n      0x20\n      add\n      0x05\n      dup3\n      add\n      dup1\n      sload\n      tag_165\n      swap1\n      tag_43\n      jump\t// in\n    tag_165:\n      dup1\n      0x1f\n      add\n      0x20\n      dup1\n      swap2\n      div\n      mul\n      0x20\n      add\n      mload(0x40)\n      swap1\n      dup2\n      add\n      0x40\n      mstore\n      dup1\n      swap3\n      swap2\n      swap1\n      dup2\n      dup2\n      mstore\n      0x20\n      add\n      dup3\n      dup1\n      sload\n      tag_166\n      swap1\n      tag_43\n      jump\t// in\n    tag_166:\n      dup1\n      iszero\n      tag_167\n      jumpi\n      dup1\n      0x1f\n      lt\n      tag_168\n      jumpi\n      0x0100\n      dup1\n      dup4\n      sload\n      div\n      mul\n      dup4\n      mstore\n      swap2\n      0x20\n      add\n      swap2\n      jump(tag_167)\n    tag_168:\n      dup3\n      add\n      swap2\n      swap1\n      0x00\n      mstore\n      keccak256(0x00, 0x20)\n      swap1\n    tag_169:\n      dup2\n      sload\n      dup2\n      mstore\n      swap1\n      0x01\n      add\n      swap1\n      0x20\n      add\n      dup1\n      dup4\n      gt\n      tag_169\n      jumpi\n      dup3\n      swap1\n      sub\n      0x1f\n      and\n      dup3\n      add\n      swap2\n    tag_167:\n      pop\n      pop\n      pop\n      pop\n      pop\n      dup2\n      mstore\n      0x20\n      add\n      0x06\n      dup3\n      add\n      dup1\n      sload\n      tag_170\n      swap1\n      tag_43\n      jump\t// in\n    tag_170:\n      dup1\n      0x1f\n      add\n      0x20\n      dup1\n      swap2\n      div\n      mul\n      0x20\n      add\n      mload(0x40)\n      swap1\n      dup2\n      add\n      0x40\n      mstore\n      dup1\n      swap3\n      swap2\n      swap1\n      dup2\n      dup2\n      mstore\n      0x20\n      add\n      dup3\n      dup1\n      sload\n      tag_171\n      swap1\n      tag_43\n      jump\t// in\n    tag_171:\n      dup1\n      iszero\n      tag_172\n      jumpi\n      dup1\n      0x1f\n      lt\n      tag_173\n      jumpi\n      0x0100\n      dup1\n      dup4\n      sload\n      div\n      mul\n      dup4\n      mstore\n      swap2\n      0x20\n      add\n      swap2\n      jump(tag_172)\n    tag_173:\n      dup3\n      add\n      swap2\n      swap1\n      0x00\n      mstore\n      keccak256(0x00, 0x20)\n      swap1\n    tag_174:\n      dup2\n      sload\n      dup2\n      mstore\n      swap1\n      0x01\n      add\n      swap1\n      0x20\n      add\n      dup1\n      dup4\n      gt\n      tag_174\n      jumpi\n      dup3\n      swap1\n      sub\n      0x1f\n      and\n      dup3\n      add\n      swap2\n    tag_172:\n      pop\n      pop\n      pop\n      pop\n      pop\n      dup2\n      mstore\n      0x20\n      add\n      0x07\n      dup3\n      add\n      dup1\n      sload\n      tag_175\n      swap1\n      tag_43\n      jump\t// in\n    tag_175:\n      dup1\n      0x1f\n      add\n      0x20\n      dup1\n      swap2\n      div\n      mul\n      0x20\n      add\n      mload(0x40)\n      swap1\n      dup2\n      add\n      0x40\n      mstore\n      dup1\n      swap3\n      swap2\n      swap1\n      dup2\n      dup2\n      mstore\n      0x20\n      add\n      dup3\n      dup1\n      sload\n      tag_176\n      swap1\n      tag_43\n      jump\t// in\n    tag_176:\n      dup1\n      iszero\n      tag_177\n      jumpi\n      dup1\n      0x1f\n      lt\n      tag_178\n      jumpi\n      0x0100\n      dup1\n      dup4\n      sload\n      div\n      mul\n      dup4\n      mstore\n      swap2\n      0x20\n      add\n      swap2\n      jump(tag_177)\n    tag_178:\n      dup3\n      add\n      swap2\n      swap1\n      0x00\n      mstore\n      keccak256(0x00, 0x20)\n      swap1\n    tag_179:\n      dup2\n      sload\n      dup2\n      mstore\n      swap1\n      0x01\n      add\n      swap1\n      0x20\n      add\n      dup1\n      dup4\n      gt\n      tag_179\n      jumpi\n      dup3\n      swap1\n      sub\n      0x1f\n      and\n      dup3\n      add\n      swap2\n    tag_177:\n      pop\n      pop\n      pop\n      pop\n      pop\n      dup2\n      mstore\n      0x20\n      add\n      0x08\n      dup3\n      add\n      dup1\n      sload\n      tag_180\n      swap1\n      tag_43\n      jump\t// in\n    tag_180:\n      dup1\n      0x1f\n      add\n      0x20\n      dup1\n      swap2\n      div\n      mul\n      0x20\n      add\n      mload(0x40)\n      swap1\n      dup2\n      add\n      0x40\n      mstore\n      dup1\n      swap3\n      swap2\n      swap1\n      dup2\n      dup2\n      mstore\n      0x20\n      add\n      dup3\n      dup1\n      sload\n      tag_181\n      swap1\n      tag_43\n      jump\t// in\n    tag_181:\n      dup1\n      iszero\n      tag_182\n      jumpi\n      dup1\n      0x1f\n      lt\n      tag_183\n      jumpi\n      0x0100\n      dup1\n      dup4\n      sload\n      div\n      mul\n      dup4\n      mstore\n      swap2\n      0x20\n      add\n      swap2\n      jump(tag_182)\n    tag_183:\n      dup3\n      add\n      swap2\n      swap1\n      0x00\n      mstore\n      keccak256(0x00, 0x20)\n      swap1\n    tag_184:\n      dup2\n      sload\n      dup2\n      mstore\n      swap1\n      0x01\n      add\n      swap1\n      0x20\n      add\n      dup1\n      dup4\n      gt\n      tag_184\n      jumpi\n      dup3\n      swap1\n      sub\n      0x1f\n      and\n      dup3\n      add\n      swap2\n    tag_182:\n      pop\n      pop\n      pop\n      pop\n      pop\n      dup2\n      mstore\n      pop\n      pop\n      dup2\n      mstore\n      0x20\n      add\n      swap1\n      0x01\n      add\n      swap1\n      jump(tag_137)\n        /* \"contracts/sih3.sol\":481:613  function giveAccess(address _add) public {... */\n    tag_28:\n        /* \"contracts/sih3.sol\":555:566  writeAccess */\n      0x00\n        /* \"contracts/sih3.sol\":567:568  0 */\n      dup1\n        /* \"contracts/sih3.sol\":555:569  writeAccess[0] */\n      dup2\n      sload\n      dup2\n      lt\n      tag_187\n      jumpi\n      tag_187\n      tag_188\n      jump\t// in\n    tag_187:\n      0x00\n      swap2\n      dup3\n      mstore\n      0x20\n      swap1\n      swap2\n      keccak256\n      add\n      sload\n      sub(shl(0xa0, 0x01), 0x01)\n      and\n        /* \"contracts/sih3.sol\":541:551  msg.sender */\n      caller\n        /* \"contracts/sih3.sol\":541:569  msg.sender == writeAccess[0] */\n      eq\n        /* \"contracts/sih3.sol\":533:570  require(msg.sender == writeAccess[0]) */\n      tag_190\n      jumpi\n      0x00\n      dup1\n      revert\n    tag_190:\n        /* \"contracts/sih3.sol\":581:592  writeAccess */\n      0x00\n        /* \"contracts/sih3.sol\":581:603  writeAccess.push(_add) */\n      dup1\n      sload\n      0x01\n      dup2\n      add\n      dup3\n      sstore\n      swap1\n      dup1\n      mstore\n      0x290decd9548b62a8d60345a988386fc84ba6bc95484008f6362f93160ef3e563\n      add\n      dup1\n      sload\n      not(sub(shl(0xa0, 0x01), 0x01))\n      and\n      sub(shl(0xa0, 0x01), 0x01)\n      swap3\n      swap1\n      swap3\n      and\n      swap2\n      swap1\n      swap2\n      or\n      swap1\n      sstore\n        /* \"contracts/sih3.sol\":481:613  function giveAccess(address _add) public {... */\n      jump\t// out\n        /* \"contracts/sih3.sol\":1279:2188  function addData( string[9] calldata data) public accessAuthorization(msg.sender){... */\n    tag_32:\n        /* \"contracts/sih3.sol\":1349:1359  msg.sender */\n      caller\n        /* \"contracts/sih3.sol\":967:978  bool access */\n      0x00\n        /* \"contracts/sih3.sol\":1001:1007  uint i */\n      dup1\n        /* \"contracts/sih3.sol\":997:1157  for(uint i=0;i<writeAccess.length;i++){... */\n    tag_193:\n        /* \"contracts/sih3.sol\":1012:1023  writeAccess */\n      0x00\n        /* \"contracts/sih3.sol\":1012:1030  writeAccess.length */\n      sload\n        /* \"contracts/sih3.sol\":1010:1030  i<writeAccess.length */\n      dup2\n      lt\n        /* \"contracts/sih3.sol\":997:1157  for(uint i=0;i<writeAccess.length;i++){... */\n      iszero\n      tag_194\n      jumpi\n        /* \"contracts/sih3.sol\":1069:1073  _add */\n      dup3\n      sub(shl(0xa0, 0x01), 0x01)\n        /* \"contracts/sih3.sol\":1053:1073  writeAccess[i]==_add */\n      and\n        /* \"contracts/sih3.sol\":1053:1064  writeAccess */\n      0x00\n        /* \"contracts/sih3.sol\":1065:1066  i */\n      dup3\n        /* \"contracts/sih3.sol\":1053:1067  writeAccess[i] */\n      dup2\n      sload\n      dup2\n      lt\n      tag_197\n      jumpi\n      tag_197\n      tag_188\n      jump\t// in\n    tag_197:\n      0x00\n      swap2\n      dup3\n      mstore\n      0x20\n      swap1\n      swap2\n      keccak256\n      add\n      sload\n      sub(shl(0xa0, 0x01), 0x01)\n      and\n        /* \"contracts/sih3.sol\":1053:1073  writeAccess[i]==_add */\n      sub\n        /* \"contracts/sih3.sol\":1050:1146  if(writeAccess[i]==_add){... */\n      tag_199\n      jumpi\n        /* \"contracts/sih3.sol\":1102:1106  true */\n      0x01\n        /* \"contracts/sih3.sol\":1093:1106  access = true */\n      swap2\n      pop\n        /* \"contracts/sih3.sol\":1125:1130  break */\n      jump(tag_194)\n        /* \"contracts/sih3.sol\":1050:1146  if(writeAccess[i]==_add){... */\n    tag_199:\n        /* \"contracts/sih3.sol\":1031:1034  i++ */\n      dup1\n      tag_200\n      dup2\n      tag_201\n      jump\t// in\n    tag_200:\n      swap2\n      pop\n      pop\n        /* \"contracts/sih3.sol\":997:1157  for(uint i=0;i<writeAccess.length;i++){... */\n      jump(tag_193)\n    tag_194:\n      pop\n        /* \"contracts/sih3.sol\":1175:1181  access */\n      dup1\n        /* \"contracts/sih3.sol\":1167:1210  require(access, \"do not have write access\") */\n      tag_202\n      jumpi\n      mload(0x40)\n      shl(0xe5, 0x461bcd)\n      dup2\n      mstore\n        /* \"#utility.yul\":7896:7898   */\n      0x20\n        /* \"contracts/sih3.sol\":1167:1210  require(access, \"do not have write access\") */\n      0x04\n      dup3\n      add\n        /* \"#utility.yul\":7878:7899   */\n      mstore\n        /* \"#utility.yul\":7935:7937   */\n      0x18\n        /* \"#utility.yul\":7915:7933   */\n      0x24\n      dup3\n      add\n        /* \"#utility.yul\":7908:7938   */\n      mstore\n        /* \"#utility.yul\":7974:8000   */\n      0x646f206e6f742068617665207772697465206163636573730000000000000000\n        /* \"#utility.yul\":7954:7972   */\n      0x44\n      dup3\n      add\n        /* \"#utility.yul\":7947:8001   */\n      mstore\n        /* \"#utility.yul\":8018:8036   */\n      0x64\n      add\n        /* \"contracts/sih3.sol\":1167:1210  require(access, \"do not have write access\") */\n      mload(0x40)\n      dup1\n      swap2\n      sub\n      swap1\n      revert\n    tag_202:\n        /* \"contracts/sih3.sol\":1426:1456  structTemplate memory thisCase */\n      tag_206\n      mload(0x40)\n      dup1\n      0x0120\n      add\n      0x40\n      mstore\n      dup1\n      0x60\n      dup2\n      mstore\n      0x20\n      add\n      0x60\n      dup2\n      mstore\n      0x20\n      add\n      0x60\n      dup2\n      mstore\n      0x20\n      add\n      0x60\n      dup2\n      mstore\n      0x20\n      add\n      0x60\n      dup2\n      mstore\n      0x20\n      add\n      0x60\n      dup2\n      mstore\n      0x20\n      add\n      0x60\n      dup2\n      mstore\n      0x20\n      add\n      0x60\n      dup2\n      mstore\n      0x20\n      add\n      0x60\n      dup2\n      mstore\n      pop\n      swap1\n      jump\n    tag_206:\n        /* \"contracts/sih3.sol\":1487:1494  data[0] */\n      tag_210\n        /* \"contracts/sih3.sol\":1487:1491  data */\n      dup5\n      dup1\n        /* \"contracts/sih3.sol\":1487:1494  data[0] */\n      tag_211\n      jump\t// in\n    tag_210:\n        /* \"contracts/sih3.sol\":1469:1494  thisCase.caseNo = data[0] */\n      dup1\n      dup1\n      0x1f\n      add\n      0x20\n      dup1\n      swap2\n      div\n      mul\n      0x20\n      add\n      mload(0x40)\n      swap1\n      dup2\n      add\n      0x40\n      mstore\n      dup1\n      swap4\n      swap3\n      swap2\n      swap1\n      dup2\n      dup2\n      mstore\n      0x20\n      add\n      dup4\n      dup4\n      dup1\n      dup3\n      dup5\n      calldatacopy\n      0x00\n      swap3\n      add\n      swap2\n      swap1\n      swap2\n      mstore\n      pop\n      pop\n      pop\n      swap1\n      dup3\n      mstore\n      pop\n        /* \"contracts/sih3.sol\":1525:1532  data[1] */\n      tag_214\n      0x20\n      dup6\n      add\n        /* \"contracts/sih3.sol\":1525:1529  data */\n      dup6\n        /* \"contracts/sih3.sol\":1525:1532  data[1] */\n      tag_211\n      jump\t// in\n    tag_214:\n        /* \"contracts/sih3.sol\":1505:1532  thisCase.caseName = data[1] */\n      dup1\n      dup1\n      0x1f\n      add\n      0x20\n      dup1\n      swap2\n      div\n      mul\n      0x20\n      add\n      mload(0x40)\n      swap1\n      dup2\n      add\n      0x40\n      mstore\n      dup1\n      swap4\n      swap3\n      swap2\n      swap1\n      dup2\n      dup2\n      mstore\n      0x20\n      add\n      dup4\n      dup4\n      dup1\n      dup3\n      dup5\n      calldatacopy\n      0x00\n      swap3\n      add\n      swap2\n      swap1\n      swap2\n      mstore\n      pop\n      pop\n      pop\n      pop\n        /* \"contracts/sih3.sol\":1505:1522  thisCase.caseName */\n      0x20\n      dup3\n      add\n        /* \"contracts/sih3.sol\":1505:1532  thisCase.caseName = data[1] */\n      mstore\n        /* \"contracts/sih3.sol\":1560:1567  data[2] */\n      tag_217\n      0x40\n      dup6\n      add\n        /* \"contracts/sih3.sol\":1560:1564  data */\n      dup6\n        /* \"contracts/sih3.sol\":1560:1567  data[2] */\n      tag_211\n      jump\t// in\n    tag_217:\n        /* \"contracts/sih3.sol\":1543:1567  thisCase.judge = data[2] */\n      dup1\n      dup1\n      0x1f\n      add\n      0x20\n      dup1\n      swap2\n      div\n      mul\n      0x20\n      add\n      mload(0x40)\n      swap1\n      dup2\n      add\n      0x40\n      mstore\n      dup1\n      swap4\n      swap3\n      swap2\n      swap1\n      dup2\n      dup2\n      mstore\n      0x20\n      add\n      dup4\n      dup4\n      dup1\n      dup3\n      dup5\n      calldatacopy\n      0x00\n      swap3\n      add\n      swap2\n      swap1\n      swap2\n      mstore\n      pop\n      pop\n      pop\n      pop\n        /* \"contracts/sih3.sol\":1543:1557  thisCase.judge */\n      0x40\n      dup3\n      add\n        /* \"contracts/sih3.sol\":1543:1567  thisCase.judge = data[2] */\n      mstore\n        /* \"contracts/sih3.sol\":1610:1617  data[3] */\n      tag_220\n      0x60\n      dup6\n      add\n        /* \"contracts/sih3.sol\":1610:1614  data */\n      dup6\n        /* \"contracts/sih3.sol\":1610:1617  data[3] */\n      tag_211\n      jump\t// in\n    tag_220:\n        /* \"contracts/sih3.sol\":1578:1617  thisCase.prosecutorLawyerName = data[3] */\n      dup1\n      dup1\n      0x1f\n      add\n      0x20\n      dup1\n      swap2\n      div\n      mul\n      0x20\n      add\n      mload(0x40)\n      swap1\n      dup2\n      add\n      0x40\n      mstore\n      dup1\n      swap4\n      swap3\n      swap2\n      swap1\n      dup2\n      dup2\n      mstore\n      0x20\n      add\n      dup4\n      dup4\n      dup1\n      dup3\n      dup5\n      calldatacopy\n      0x00\n      swap3\n      add\n      swap2\n      swap1\n      swap2\n      mstore\n      pop\n      pop\n      pop\n      pop\n        /* \"contracts/sih3.sol\":1578:1607  thisCase.prosecutorLawyerName */\n      0x60\n      dup3\n      add\n        /* \"contracts/sih3.sol\":1578:1617  thisCase.prosecutorLawyerName = data[3] */\n      mstore\n        /* \"contracts/sih3.sol\":1657:1664  data[4] */\n      tag_223\n      0x80\n      dup6\n      add\n        /* \"contracts/sih3.sol\":1657:1661  data */\n      dup6\n        /* \"contracts/sih3.sol\":1657:1664  data[4] */\n      tag_211\n      jump\t// in\n    tag_223:\n        /* \"contracts/sih3.sol\":1628:1664  thisCase.defenderLawerName = data[4] */\n      dup1\n      dup1\n      0x1f\n      add\n      0x20\n      dup1\n      swap2\n      div\n      mul\n      0x20\n      add\n      mload(0x40)\n      swap1\n      dup2\n      add\n      0x40\n      mstore\n      dup1\n      swap4\n      swap3\n      swap2\n      swap1\n      dup2\n      dup2\n      mstore\n      0x20\n      add\n      dup4\n      dup4\n      dup1\n      dup3\n      dup5\n      calldatacopy\n      0x00\n      swap3\n      add\n      swap2\n      swap1\n      swap2\n      mstore\n      pop\n      pop\n      pop\n      pop\n        /* \"contracts/sih3.sol\":1628:1654  thisCase.defenderLawerName */\n      0x80\n      dup3\n      add\n        /* \"contracts/sih3.sol\":1628:1664  thisCase.defenderLawerName = data[4] */\n      mstore\n        /* \"contracts/sih3.sol\":1698:1705  data[5] */\n      tag_226\n      0xa0\n      dup6\n      add\n        /* \"contracts/sih3.sol\":1698:1702  data */\n      dup6\n        /* \"contracts/sih3.sol\":1698:1705  data[5] */\n      tag_211\n      jump\t// in\n    tag_226:\n        /* \"contracts/sih3.sol\":1675:1705  thisCase.clientFiled = data[5] */\n      dup1\n      dup1\n      0x1f\n      add\n      0x20\n      dup1\n      swap2\n      div\n      mul\n      0x20\n      add\n      mload(0x40)\n      swap1\n      dup2\n      add\n      0x40\n      mstore\n      dup1\n      swap4\n      swap3\n      swap2\n      swap1\n      dup2\n      dup2\n      mstore\n      0x20\n      add\n      dup4\n      dup4\n      dup1\n      dup3\n      dup5\n      calldatacopy\n      0x00\n      swap3\n      add\n      swap2\n      swap1\n      swap2\n      mstore\n      pop\n      pop\n      pop\n      pop\n        /* \"contracts/sih3.sol\":1675:1695  thisCase.clientFiled */\n      0xa0\n      dup3\n      add\n        /* \"contracts/sih3.sol\":1675:1705  thisCase.clientFiled = data[5] */\n      mstore\n        /* \"contracts/sih3.sol\":1743:1750  data[6] */\n      tag_229\n      0xc0\n      dup6\n      add\n        /* \"contracts/sih3.sol\":1743:1747  data */\n      dup6\n        /* \"contracts/sih3.sol\":1743:1750  data[6] */\n      tag_211\n      jump\t// in\n    tag_229:\n        /* \"contracts/sih3.sol\":1716:1750  thisCase.clientDefending = data[6] */\n      dup1\n      dup1\n      0x1f\n      add\n      0x20\n      dup1\n      swap2\n      div\n      mul\n      0x20\n      add\n      mload(0x40)\n      swap1\n      dup2\n      add\n      0x40\n      mstore\n      dup1\n      swap4\n      swap3\n      swap2\n      swap1\n      dup2\n      dup2\n      mstore\n      0x20\n      add\n      dup4\n      dup4\n      dup1\n      dup3\n      dup5\n      calldatacopy\n      0x00\n      swap3\n      add\n      swap2\n      swap1\n      swap2\n      mstore\n      pop\n      pop\n      pop\n      pop\n        /* \"contracts/sih3.sol\":1716:1740  thisCase.clientDefending */\n      0xc0\n      dup3\n      add\n        /* \"contracts/sih3.sol\":1716:1750  thisCase.clientDefending = data[6] */\n      mstore\n        /* \"contracts/sih3.sol\":1780:1787  data[7] */\n      tag_232\n      0xe0\n      dup6\n      add\n        /* \"contracts/sih3.sol\":1780:1784  data */\n      dup6\n        /* \"contracts/sih3.sol\":1780:1787  data[7] */\n      tag_211\n      jump\t// in\n    tag_232:\n        /* \"contracts/sih3.sol\":1761:1787  thisCase.verdict = data[7] */\n      dup1\n      dup1\n      0x1f\n      add\n      0x20\n      dup1\n      swap2\n      div\n      mul\n      0x20\n      add\n      mload(0x40)\n      swap1\n      dup2\n      add\n      0x40\n      mstore\n      dup1\n      swap4\n      swap3\n      swap2\n      swap1\n      dup2\n      dup2\n      mstore\n      0x20\n      add\n      dup4\n      dup4\n      dup1\n      dup3\n      dup5\n      calldatacopy\n      0x00\n      swap3\n      add\n      swap2\n      swap1\n      swap2\n      mstore\n      pop\n      pop\n      pop\n      pop\n        /* \"contracts/sih3.sol\":1761:1777  thisCase.verdict */\n      0xe0\n      dup3\n      add\n        /* \"contracts/sih3.sol\":1761:1787  thisCase.verdict = data[7] */\n      mstore\n        /* \"contracts/sih3.sol\":1813:1820  data[8] */\n      tag_235\n      0x0100\n      dup6\n      add\n        /* \"contracts/sih3.sol\":1813:1817  data */\n      dup6\n        /* \"contracts/sih3.sol\":1813:1820  data[8] */\n      tag_211\n      jump\t// in\n    tag_235:\n        /* \"contracts/sih3.sol\":1798:1820  thisCase.url = data[8] */\n      dup1\n      dup1\n      0x1f\n      add\n      0x20\n      dup1\n      swap2\n      div\n      mul\n      0x20\n      add\n      mload(0x40)\n      swap1\n      dup2\n      add\n      0x40\n      mstore\n      dup1\n      swap4\n      swap3\n      swap2\n      swap1\n      dup2\n      dup2\n      mstore\n      0x20\n      add\n      dup4\n      dup4\n      dup1\n      dup3\n      dup5\n      calldatacopy\n      0x00\n      swap3\n      add\n      dup3\n      swap1\n      mstore\n      pop\n        /* \"contracts/sih3.sol\":1798:1810  thisCase.url */\n      0x0100\n      dup7\n      add\n        /* \"contracts/sih3.sol\":1798:1820  thisCase.url = data[8] */\n      swap5\n      swap1\n      swap5\n      mstore\n      pop\n      pop\n        /* \"contracts/sih3.sol\":1866:1875  dataArray */\n      0x01\n        /* \"contracts/sih3.sol\":1866:1890  dataArray.push(thisCase) */\n      dup1\n      sload\n      dup1\n      dup3\n      add\n      dup3\n      sstore\n      swap3\n      mstore\n      pop\n      dup2\n      mload\n        /* \"contracts/sih3.sol\":1798:1806  thisCase */\n      dup3\n      swap2\n        /* \"contracts/sih3.sol\":1866:1890  dataArray.push(thisCase) */\n      0x09\n      mul\n      0xb10e2d527612073b26eecdfd717e6a320cf44b4afac2b0732d9fcbe2b7fa0cf6\n      add\n      swap1\n      dup2\n      swap1\n      tag_237\n      swap1\n      dup3\n      tag_238\n      jump\t// in\n    tag_237:\n      pop\n      0x20\n      dup3\n      add\n      mload\n      0x01\n      dup3\n      add\n      swap1\n      tag_239\n      swap1\n      dup3\n      tag_238\n      jump\t// in\n    tag_239:\n      pop\n      0x40\n      dup3\n      add\n      mload\n      0x02\n      dup3\n      add\n      swap1\n      tag_240\n      swap1\n      dup3\n      tag_238\n      jump\t// in\n    tag_240:\n      pop\n      0x60\n      dup3\n      add\n      mload\n      0x03\n      dup3\n      add\n      swap1\n      tag_241\n      swap1\n      dup3\n      tag_238\n      jump\t// in\n    tag_241:\n      pop\n      0x80\n      dup3\n      add\n      mload\n      0x04\n      dup3\n      add\n      swap1\n      tag_242\n      swap1\n      dup3\n      tag_238\n      jump\t// in\n    tag_242:\n      pop\n      0xa0\n      dup3\n      add\n      mload\n      0x05\n      dup3\n      add\n      swap1\n      tag_243\n      swap1\n      dup3\n      tag_238\n      jump\t// in\n    tag_243:\n      pop\n      0xc0\n      dup3\n      add\n      mload\n      0x06\n      dup3\n      add\n      swap1\n      tag_244\n      swap1\n      dup3\n      tag_238\n      jump\t// in\n    tag_244:\n      pop\n      0xe0\n      dup3\n      add\n      mload\n      0x07\n      dup3\n      add\n      swap1\n      tag_245\n      swap1\n      dup3\n      tag_238\n      jump\t// in\n    tag_245:\n      pop\n      0x0100\n      dup3\n      add\n      mload\n      0x08\n      dup3\n      add\n      swap1\n      tag_246\n      swap1\n      dup3\n      tag_238\n      jump\t// in\n    tag_246:\n      pop\n      pop\n        /* \"contracts/sih3.sol\":1909:1924  thisCase.caseNo */\n      dup2\n      mload\n        /* \"contracts/sih3.sol\":1901:1925  dataMap[thisCase.caseNo] */\n      mload(0x40)\n        /* \"contracts/sih3.sol\":1928:1936  thisCase */\n      dup4\n      swap3\n      pop\n        /* \"contracts/sih3.sol\":1901:1908  dataMap */\n      0x02\n      swap2\n        /* \"contracts/sih3.sol\":1901:1925  dataMap[thisCase.caseNo] */\n      tag_247\n      swap2\n      tag_38\n      jump\t// in\n    tag_247:\n      swap1\n      dup2\n      mstore\n      mload(0x40)\n      swap1\n      dup2\n      swap1\n      sub\n      0x20\n      add\n      swap1\n      keccak256\n        /* \"contracts/sih3.sol\":1901:1936  dataMap[thisCase.caseNo] = thisCase */\n      dup2\n      mload\n        /* \"contracts/sih3.sol\":1901:1925  dataMap[thisCase.caseNo] */\n      dup2\n      swap1\n        /* \"contracts/sih3.sol\":1901:1936  dataMap[thisCase.caseNo] = thisCase */\n      tag_248\n      swap1\n        /* \"contracts/sih3.sol\":1901:1925  dataMap[thisCase.caseNo] */\n      dup3\n        /* \"contracts/sih3.sol\":1901:1936  dataMap[thisCase.caseNo] = thisCase */\n      tag_238\n      jump\t// in\n    tag_248:\n      pop\n      0x20\n      dup3\n      add\n      mload\n      0x01\n      dup3\n      add\n      swap1\n      tag_249\n      swap1\n      dup3\n      tag_238\n      jump\t// in\n    tag_249:\n      pop\n      0x40\n      dup3\n      add\n      mload\n      0x02\n      dup3\n      add\n      swap1\n      tag_250\n      swap1\n      dup3\n      tag_238\n      jump\t// in\n    tag_250:\n      pop\n      0x60\n      dup3\n      add\n      mload\n      0x03\n      dup3\n      add\n      swap1\n      tag_251\n      swap1\n      dup3\n      tag_238\n      jump\t// in\n    tag_251:\n      pop\n      0x80\n      dup3\n      add\n      mload\n      0x04\n      dup3\n      add\n      swap1\n      tag_252\n      swap1\n      dup3\n      tag_238\n      jump\t// in\n    tag_252:\n      pop\n      0xa0\n      dup3\n      add\n      mload\n      0x05\n      dup3\n      add\n      swap1\n      tag_253\n      swap1\n      dup3\n      tag_238\n      jump\t// in\n    tag_253:\n      pop\n      0xc0\n      dup3\n      add\n      mload\n      0x06\n      dup3\n      add\n      swap1\n      tag_254\n      swap1\n      dup3\n      tag_238\n      jump\t// in\n    tag_254:\n      pop\n      0xe0\n      dup3\n      add\n      mload\n      0x07\n      dup3\n      add\n      swap1\n      tag_255\n      swap1\n      dup3\n      tag_238\n      jump\t// in\n    tag_255:\n      pop\n      0x0100\n      dup3\n      add\n      mload\n      0x08\n      dup3\n      add\n      swap1\n      tag_256\n      swap1\n      dup3\n      tag_238\n      jump\t// in\n    tag_256:\n      pop\n      swap1\n      pop\n      pop\n        /* \"contracts/sih3.sol\":1950:1958  judgeMap */\n      0x03\n        /* \"contracts/sih3.sol\":1959:1967  thisCase */\n      dup2\n        /* \"contracts/sih3.sol\":1959:1973  thisCase.judge */\n      0x40\n      add\n      mload\n        /* \"contracts/sih3.sol\":1950:1974  judgeMap[thisCase.judge] */\n      mload(0x40)\n      tag_257\n      swap2\n      swap1\n      tag_38\n      jump\t// in\n    tag_257:\n      swap1\n      dup2\n      mstore\n      mload(0x40)\n      0x20\n      swap2\n      dup2\n      swap1\n      sub\n      dup3\n      add\n      swap1\n      keccak256\n        /* \"contracts/sih3.sol\":1950:1989  judgeMap[thisCase.judge].push(thisCase) */\n      dup1\n      sload\n      0x01\n      dup2\n      add\n      dup3\n      sstore\n      0x00\n      swap2\n      dup3\n      mstore\n      swap2\n      swap1\n      keccak256\n      dup3\n      mload\n      dup4\n      swap3\n      0x09\n      mul\n      swap1\n      swap2\n      add\n      swap1\n      dup2\n      swap1\n      tag_259\n      swap1\n      dup3\n      tag_238\n      jump\t// in\n    tag_259:\n      pop\n      0x20\n      dup3\n      add\n      mload\n      0x01\n      dup3\n      add\n      swap1\n      tag_260\n      swap1\n      dup3\n      tag_238\n      jump\t// in\n    tag_260:\n      pop\n      0x40\n      dup3\n      add\n      mload\n      0x02\n      dup3\n      add\n      swap1\n      tag_261\n      swap1\n      dup3\n      tag_238\n      jump\t// in\n    tag_261:\n      pop\n      0x60\n      dup3\n      add\n      mload\n      0x03\n      dup3\n      add\n      swap1\n      tag_262\n      swap1\n      dup3\n      tag_238\n      jump\t// in\n    tag_262:\n      pop\n      0x80\n      dup3\n      add\n      mload\n      0x04\n      dup3\n      add\n      swap1\n      tag_263\n      swap1\n      dup3\n      tag_238\n      jump\t// in\n    tag_263:\n      pop\n      0xa0\n      dup3\n      add\n      mload\n      0x05\n      dup3\n      add\n      swap1\n      tag_264\n      swap1\n      dup3\n      tag_238\n      jump\t// in\n    tag_264:\n      pop\n      0xc0\n      dup3\n      add\n      mload\n      0x06\n      dup3\n      add\n      swap1\n      tag_265\n      swap1\n      dup3\n      tag_238\n      jump\t// in\n    tag_265:\n      pop\n      0xe0\n      dup3\n      add\n      mload\n      0x07\n      dup3\n      add\n      swap1\n      tag_266\n      swap1\n      dup3\n      tag_238\n      jump\t// in\n    tag_266:\n      pop\n      0x0100\n      dup3\n      add\n      mload\n      0x08\n      dup3\n      add\n      swap1\n      tag_267\n      swap1\n      dup3\n      tag_238\n      jump\t// in\n    tag_267:\n      pop\n      pop\n      pop\n        /* \"contracts/sih3.sol\":2000:2009  lawyerMap */\n      0x04\n        /* \"contracts/sih3.sol\":2010:2018  thisCase */\n      dup2\n        /* \"contracts/sih3.sol\":2010:2039  thisCase.prosecutorLawyerName */\n      0x60\n      add\n      mload\n        /* \"contracts/sih3.sol\":2000:2040  lawyerMap[thisCase.prosecutorLawyerName] */\n      mload(0x40)\n      tag_268\n      swap2\n      swap1\n      tag_38\n      jump\t// in\n    tag_268:\n      swap1\n      dup2\n      mstore\n      mload(0x40)\n      0x20\n      swap2\n      dup2\n      swap1\n      sub\n      dup3\n      add\n      swap1\n      keccak256\n        /* \"contracts/sih3.sol\":2000:2055  lawyerMap[thisCase.prosecutorLawyerName].push(thisCase) */\n      dup1\n      sload\n      0x01\n      dup2\n      add\n      dup3\n      sstore\n      0x00\n      swap2\n      dup3\n      mstore\n      swap2\n      swap1\n      keccak256\n      dup3\n      mload\n      dup4\n      swap3\n      0x09\n      mul\n      swap1\n      swap2\n      add\n      swap1\n      dup2\n      swap1\n      tag_270\n      swap1\n      dup3\n      tag_238\n      jump\t// in\n    tag_270:\n      pop\n      0x20\n      dup3\n      add\n      mload\n      0x01\n      dup3\n      add\n      swap1\n      tag_271\n      swap1\n      dup3\n      tag_238\n      jump\t// in\n    tag_271:\n      pop\n      0x40\n      dup3\n      add\n      mload\n      0x02\n      dup3\n      add\n      swap1\n      tag_272\n      swap1\n      dup3\n      tag_238\n      jump\t// in\n    tag_272:\n      pop\n      0x60\n      dup3\n      add\n      mload\n      0x03\n      dup3\n      add\n      swap1\n      tag_273\n      swap1\n      dup3\n      tag_238\n      jump\t// in\n    tag_273:\n      pop\n      0x80\n      dup3\n      add\n      mload\n      0x04\n      dup3\n      add\n      swap1\n      tag_274\n      swap1\n      dup3\n      tag_238\n      jump\t// in\n    tag_274:\n      pop\n      0xa0\n      dup3\n      add\n      mload\n      0x05\n      dup3\n      add\n      swap1\n      tag_275\n      swap1\n      dup3\n      tag_238\n      jump\t// in\n    tag_275:\n      pop\n      0xc0\n      dup3\n      add\n      mload\n      0x06\n      dup3\n      add\n      swap1\n      tag_276\n      swap1\n      dup3\n      tag_238\n      jump\t// in\n    tag_276:\n      pop\n      0xe0\n      dup3\n      add\n      mload\n      0x07\n      dup3\n      add\n      swap1\n      tag_277\n      swap1\n      dup3\n      tag_238\n      jump\t// in\n    tag_277:\n      pop\n      0x0100\n      dup3\n      add\n      mload\n      0x08\n      dup3\n      add\n      swap1\n      tag_278\n      swap1\n      dup3\n      tag_238\n      jump\t// in\n    tag_278:\n      pop\n      pop\n      pop\n        /* \"contracts/sih3.sol\":2066:2075  lawyerMap */\n      0x04\n        /* \"contracts/sih3.sol\":2076:2084  thisCase */\n      dup2\n        /* \"contracts/sih3.sol\":2076:2102  thisCase.defenderLawerName */\n      0x80\n      add\n      mload\n        /* \"contracts/sih3.sol\":2066:2103  lawyerMap[thisCase.defenderLawerName] */\n      mload(0x40)\n      tag_279\n      swap2\n      swap1\n      tag_38\n      jump\t// in\n    tag_279:\n      swap1\n      dup2\n      mstore\n      mload(0x40)\n      0x20\n      swap2\n      dup2\n      swap1\n      sub\n      dup3\n      add\n      swap1\n      keccak256\n        /* \"contracts/sih3.sol\":2066:2118  lawyerMap[thisCase.defenderLawerName].push(thisCase) */\n      dup1\n      sload\n      0x01\n      dup2\n      add\n      dup3\n      sstore\n      0x00\n      swap2\n      dup3\n      mstore\n      swap2\n      swap1\n      keccak256\n      dup3\n      mload\n      dup4\n      swap3\n      0x09\n      mul\n      swap1\n      swap2\n      add\n      swap1\n      dup2\n      swap1\n      tag_281\n      swap1\n      dup3\n      tag_238\n      jump\t// in\n    tag_281:\n      pop\n      0x20\n      dup3\n      add\n      mload\n      0x01\n      dup3\n      add\n      swap1\n      tag_282\n      swap1\n      dup3\n      tag_238\n      jump\t// in\n    tag_282:\n      pop\n      0x40\n      dup3\n      add\n      mload\n      0x02\n      dup3\n      add\n      swap1\n      tag_283\n      swap1\n      dup3\n      tag_238\n      jump\t// in\n    tag_283:\n      pop\n      0x60\n      dup3\n      add\n      mload\n      0x03\n      dup3\n      add\n      swap1\n      tag_284\n      swap1\n      dup3\n      tag_238\n      jump\t// in\n    tag_284:\n      pop\n      0x80\n      dup3\n      add\n      mload\n      0x04\n      dup3\n      add\n      swap1\n      tag_285\n      swap1\n      dup3\n      tag_238\n      jump\t// in\n    tag_285:\n      pop\n      0xa0\n      dup3\n      add\n      mload\n      0x05\n      dup3\n      add\n      swap1\n      tag_286\n      swap1\n      dup3\n      tag_238\n      jump\t// in\n    tag_286:\n      pop\n      0xc0\n      dup3\n      add\n      mload\n      0x06\n      dup3\n      add\n      swap1\n      tag_287\n      swap1\n      dup3\n      tag_238\n      jump\t// in\n    tag_287:\n      pop\n      0xe0\n      dup3\n      add\n      mload\n      0x07\n      dup3\n      add\n      swap1\n      tag_288\n      swap1\n      dup3\n      tag_238\n      jump\t// in\n    tag_288:\n      pop\n      0x0100\n      dup3\n      add\n      mload\n      0x08\n      dup3\n      add\n      swap1\n      tag_289\n      swap1\n      dup3\n      tag_238\n      jump\t// in\n    tag_289:\n      pop\n      pop\n      pop\n        /* \"contracts/sih3.sol\":2146:2160  thisCase.judge */\n      0x40\n      dup1\n      dup3\n      add\n      mload\n        /* \"contracts/sih3.sol\":2162:2177  thisCase.caseNo */\n      dup3\n      mload\n        /* \"contracts/sih3.sol\":2136:2178  DataAdded(thisCase.judge, thisCase.caseNo) */\n      swap2\n      mload\n      0xcda7af4159d261959d3e36ac0298a7e541296a6e437a8cbfcbf429720e1d427c\n      swap3\n      tag_290\n      swap3\n        /* \"contracts/sih3.sol\":2146:2160  thisCase.judge */\n      swap2\n        /* \"contracts/sih3.sol\":2136:2178  DataAdded(thisCase.judge, thisCase.caseNo) */\n      tag_291\n      jump\t// in\n    tag_290:\n      mload(0x40)\n      dup1\n      swap2\n      sub\n      swap1\n      log1\n        /* \"contracts/sih3.sol\":1360:2188  {... */\n      pop\n        /* \"contracts/sih3.sol\":956:1230  {... */\n      pop\n        /* \"contracts/sih3.sol\":1279:2188  function addData( string[9] calldata data) public accessAuthorization(msg.sender){... */\n      pop\n      pop\n      jump\t// out\n        /* \"contracts/sih3.sol\":2514:2616  function getAllCases() public view returns(structTemplate[] memory){... */\n    tag_34:\n        /* \"contracts/sih3.sol\":2557:2580  structTemplate[] memory */\n      0x60\n        /* \"contracts/sih3.sol\":2599:2608  dataArray */\n      0x01\n        /* \"contracts/sih3.sol\":2592:2608  return dataArray */\n      dup1\n      sload\n      dup1\n      0x20\n      mul\n      0x20\n      add\n      mload(0x40)\n      swap1\n      dup2\n      add\n      0x40\n      mstore\n      dup1\n      swap3\n      swap2\n      swap1\n      dup2\n      dup2\n      mstore\n      0x20\n      add\n      0x00\n      swap1\n    tag_293:\n      dup3\n      dup3\n      lt\n      iszero\n      tag_294\n      jumpi\n      dup4\n      dup3\n      swap1\n      0x00\n      mstore\n      keccak256(0x00, 0x20)\n      swap1\n      0x09\n      mul\n      add\n      mload(0x40)\n      dup1\n      0x0120\n      add\n      0x40\n      mstore\n      swap1\n      dup2\n      0x00\n      dup3\n      add\n      dup1\n      sload\n      tag_296\n      swap1\n      tag_43\n      jump\t// in\n    tag_296:\n      dup1\n      0x1f\n      add\n      0x20\n      dup1\n      swap2\n      div\n      mul\n      0x20\n      add\n      mload(0x40)\n      swap1\n      dup2\n      add\n      0x40\n      mstore\n      dup1\n      swap3\n      swap2\n      swap1\n      dup2\n      dup2\n      mstore\n      0x20\n      add\n      dup3\n      dup1\n      sload\n      tag_297\n      swap1\n      tag_43\n      jump\t// in\n    tag_297:\n      dup1\n      iszero\n      tag_298\n      jumpi\n      dup1\n      0x1f\n      lt\n      tag_299\n      jumpi\n      0x0100\n      dup1\n      dup4\n      sload\n      div\n      mul\n      dup4\n      mstore\n      swap2\n      0x20\n      add\n      swap2\n      jump(tag_298)\n    tag_299:\n      dup3\n      add\n      swap2\n      swap1\n      0x00\n      mstore\n      keccak256(0x00, 0x20)\n      swap1\n    tag_300:\n      dup2\n      sload\n      dup2\n      mstore\n      swap1\n      0x01\n      add\n      swap1\n      0x20\n      add\n      dup1\n      dup4\n      gt\n      tag_300\n      jumpi\n      dup3\n      swap1\n      sub\n      0x1f\n      and\n      dup3\n      add\n      swap2\n    tag_298:\n      pop\n      pop\n      pop\n      pop\n      pop\n      dup2\n      mstore\n      0x20\n      add\n      0x01\n      dup3\n      add\n      dup1\n      sload\n      tag_301\n      swap1\n      tag_43\n      jump\t// in\n    tag_301:\n      dup1\n      0x1f\n      add\n      0x20\n      dup1\n      swap2\n      div\n      mul\n      0x20\n      add\n      mload(0x40)\n      swap1\n      dup2\n      add\n      0x40\n      mstore\n      dup1\n      swap3\n      swap2\n      swap1\n      dup2\n      dup2\n      mstore\n      0x20\n      add\n      dup3\n      dup1\n      sload\n      tag_302\n      swap1\n      tag_43\n      jump\t// in\n    tag_302:\n      dup1\n      iszero\n      tag_303\n      jumpi\n      dup1\n      0x1f\n      lt\n      tag_304\n      jumpi\n      0x0100\n      dup1\n      dup4\n      sload\n      div\n      mul\n      dup4\n      mstore\n      swap2\n      0x20\n      add\n      swap2\n      jump(tag_303)\n    tag_304:\n      dup3\n      add\n      swap2\n      swap1\n      0x00\n      mstore\n      keccak256(0x00, 0x20)\n      swap1\n    tag_305:\n      dup2\n      sload\n      dup2\n      mstore\n      swap1\n      0x01\n      add\n      swap1\n      0x20\n      add\n      dup1\n      dup4\n      gt\n      tag_305\n      jumpi\n      dup3\n      swap1\n      sub\n      0x1f\n      and\n      dup3\n      add\n      swap2\n    tag_303:\n      pop\n      pop\n      pop\n      pop\n      pop\n      dup2\n      mstore\n      0x20\n      add\n      0x02\n      dup3\n      add\n      dup1\n      sload\n      tag_306\n      swap1\n      tag_43\n      jump\t// in\n    tag_306:\n      dup1\n      0x1f\n      add\n      0x20\n      dup1\n      swap2\n      div\n      mul\n      0x20\n      add\n      mload(0x40)\n      swap1\n      dup2\n      add\n      0x40\n      mstore\n      dup1\n      swap3\n      swap2\n      swap1\n      dup2\n      dup2\n      mstore\n      0x20\n      add\n      dup3\n      dup1\n      sload\n      tag_307\n      swap1\n      tag_43\n      jump\t// in\n    tag_307:\n      dup1\n      iszero\n      tag_308\n      jumpi\n      dup1\n      0x1f\n      lt\n      tag_309\n      jumpi\n      0x0100\n      dup1\n      dup4\n      sload\n      div\n      mul\n      dup4\n      mstore\n      swap2\n      0x20\n      add\n      swap2\n      jump(tag_308)\n    tag_309:\n      dup3\n      add\n      swap2\n      swap1\n      0x00\n      mstore\n      keccak256(0x00, 0x20)\n      swap1\n    tag_310:\n      dup2\n      sload\n      dup2\n      mstore\n      swap1\n      0x01\n      add\n      swap1\n      0x20\n      add\n      dup1\n      dup4\n      gt\n      tag_310\n      jumpi\n      dup3\n      swap1\n      sub\n      0x1f\n      and\n      dup3\n      add\n      swap2\n    tag_308:\n      pop\n      pop\n      pop\n      pop\n      pop\n      dup2\n      mstore\n      0x20\n      add\n      0x03\n      dup3\n      add\n      dup1\n      sload\n      tag_311\n      swap1\n      tag_43\n      jump\t// in\n    tag_311:\n      dup1\n      0x1f\n      add\n      0x20\n      dup1\n      swap2\n      div\n      mul\n      0x20\n      add\n      mload(0x40)\n      swap1\n      dup2\n      add\n      0x40\n      mstore\n      dup1\n      swap3\n      swap2\n      swap1\n      dup2\n      dup2\n      mstore\n      0x20\n      add\n      dup3\n      dup1\n      sload\n      tag_312\n      swap1\n      tag_43\n      jump\t// in\n    tag_312:\n      dup1\n      iszero\n      tag_313\n      jumpi\n      dup1\n      0x1f\n      lt\n      tag_314\n      jumpi\n      0x0100\n      dup1\n      dup4\n      sload\n      div\n      mul\n      dup4\n      mstore\n      swap2\n      0x20\n      add\n      swap2\n      jump(tag_313)\n    tag_314:\n      dup3\n      add\n      swap2\n      swap1\n      0x00\n      mstore\n      keccak256(0x00, 0x20)\n      swap1\n    tag_315:\n      dup2\n      sload\n      dup2\n      mstore\n      swap1\n      0x01\n      add\n      swap1\n      0x20\n      add\n      dup1\n      dup4\n      gt\n      tag_315\n      jumpi\n      dup3\n      swap1\n      sub\n      0x1f\n      and\n      dup3\n      add\n      swap2\n    tag_313:\n      pop\n      pop\n      pop\n      pop\n      pop\n      dup2\n      mstore\n      0x20\n      add\n      0x04\n      dup3\n      add\n      dup1\n      sload\n      tag_316\n      swap1\n      tag_43\n      jump\t// in\n    tag_316:\n      dup1\n      0x1f\n      add\n      0x20\n      dup1\n      swap2\n      div\n      mul\n      0x20\n      add\n      mload(0x40)\n      swap1\n      dup2\n      add\n      0x40\n      mstore\n      dup1\n      swap3\n      swap2\n      swap1\n      dup2\n      dup2\n      mstore\n      0x20\n      add\n      dup3\n      dup1\n      sload\n      tag_317\n      swap1\n      tag_43\n      jump\t// in\n    tag_317:\n      dup1\n      iszero\n      tag_318\n      jumpi\n      dup1\n      0x1f\n      lt\n      tag_319\n      jumpi\n      0x0100\n      dup1\n      dup4\n      sload\n      div\n      mul\n      dup4\n      mstore\n      swap2\n      0x20\n      add\n      swap2\n      jump(tag_318)\n    tag_319:\n      dup3\n      add\n      swap2\n      swap1\n      0x00\n      mstore\n      keccak256(0x00, 0x20)\n      swap1\n    tag_320:\n      dup2\n      sload\n      dup2\n      mstore\n      swap1\n      0x01\n      add\n      swap1\n      0x20\n      add\n      dup1\n      dup4\n      gt\n      tag_320\n      jumpi\n      dup3\n      swap1\n      sub\n      0x1f\n      and\n      dup3\n      add\n      swap2\n    tag_318:\n      pop\n      pop\n      pop\n      pop\n      pop\n      dup2\n      mstore\n      0x20\n      add\n      0x05\n      dup3\n      add\n      dup1\n      sload\n      tag_321\n      swap1\n      tag_43\n      jump\t// in\n    tag_321:\n      dup1\n      0x1f\n      add\n      0x20\n      dup1\n      swap2\n      div\n      mul\n      0x20\n      add\n      mload(0x40)\n      swap1\n      dup2\n      add\n      0x40\n      mstore\n      dup1\n      swap3\n      swap2\n      swap1\n      dup2\n      dup2\n      mstore\n      0x20\n      add\n      dup3\n      dup1\n      sload\n      tag_322\n      swap1\n      tag_43\n      jump\t// in\n    tag_322:\n      dup1\n      iszero\n      tag_323\n      jumpi\n      dup1\n      0x1f\n      lt\n      tag_324\n      jumpi\n      0x0100\n      dup1\n      dup4\n      sload\n      div\n      mul\n      dup4\n      mstore\n      swap2\n      0x20\n      add\n      swap2\n      jump(tag_323)\n    tag_324:\n      dup3\n      add\n      swap2\n      swap1\n      0x00\n      mstore\n      keccak256(0x00, 0x20)\n      swap1\n    tag_325:\n      dup2\n      sload\n      dup2\n      mstore\n      swap1\n      0x01\n      add\n      swap1\n      0x20\n      add\n      dup1\n      dup4\n      gt\n      tag_325\n      jumpi\n      dup3\n      swap1\n      sub\n      0x1f\n      and\n      dup3\n      add\n      swap2\n    tag_323:\n      pop\n      pop\n      pop\n      pop\n      pop\n      dup2\n      mstore\n      0x20\n      add\n      0x06\n      dup3\n      add\n      dup1\n      sload\n      tag_326\n      swap1\n      tag_43\n      jump\t// in\n    tag_326:\n      dup1\n      0x1f\n      add\n      0x20\n      dup1\n      swap2\n      div\n      mul\n      0x20\n      add\n      mload(0x40)\n      swap1\n      dup2\n      add\n      0x40\n      mstore\n      dup1\n      swap3\n      swap2\n      swap1\n      dup2\n      dup2\n      mstore\n      0x20\n      add\n      dup3\n      dup1\n      sload\n      tag_327\n      swap1\n      tag_43\n      jump\t// in\n    tag_327:\n      dup1\n      iszero\n      tag_328\n      jumpi\n      dup1\n      0x1f\n      lt\n      tag_329\n      jumpi\n      0x0100\n      dup1\n      dup4\n      sload\n      div\n      mul\n      dup4\n      mstore\n      swap2\n      0x20\n      add\n      swap2\n      jump(tag_328)\n    tag_329:\n      dup3\n      add\n      swap2\n      swap1\n      0x00\n      mstore\n      keccak256(0x00, 0x20)\n      swap1\n    tag_330:\n      dup2\n      sload\n      dup2\n      mstore\n      swap1\n      0x01\n      add\n      swap1\n      0x20\n      add\n      dup1\n      dup4\n      gt\n      tag_330\n      jumpi\n      dup3\n      swap1\n      sub\n      0x1f\n      and\n      dup3\n      add\n      swap2\n    tag_328:\n      pop\n      pop\n      pop\n      pop\n      pop\n      dup2\n      mstore\n      0x20\n      add\n      0x07\n      dup3\n      add\n      dup1\n      sload\n      tag_331\n      swap1\n      tag_43\n      jump\t// in\n    tag_331:\n      dup1\n      0x1f\n      add\n      0x20\n      dup1\n      swap2\n      div\n      mul\n      0x20\n      add\n      mload(0x40)\n      swap1\n      dup2\n      add\n      0x40\n      mstore\n      dup1\n      swap3\n      swap2\n      swap1\n      dup2\n      dup2\n      mstore\n      0x20\n      add\n      dup3\n      dup1\n      sload\n      tag_332\n      swap1\n      tag_43\n      jump\t// in\n    tag_332:\n      dup1\n      iszero\n      tag_333\n      jumpi\n      dup1\n      0x1f\n      lt\n      tag_334\n      jumpi\n      0x0100\n      dup1\n      dup4\n      sload\n      div\n      mul\n      dup4\n      mstore\n      swap2\n      0x20\n      add\n      swap2\n      jump(tag_333)\n    tag_334:\n      dup3\n      add\n      swap2\n      swap1\n      0x00\n      mstore\n      keccak256(0x00, 0x20)\n      swap1\n    tag_335:\n      dup2\n      sload\n      dup2\n      mstore\n      swap1\n      0x01\n      add\n      swap1\n      0x20\n      add\n      dup1\n      dup4\n      gt\n      tag_335\n      jumpi\n      dup3\n      swap1\n      sub\n      0x1f\n      and\n      dup3\n      add\n      swap2\n    tag_333:\n      pop\n      pop\n      pop\n      pop\n      pop\n      dup2\n      mstore\n      0x20\n      add\n      0x08\n      dup3\n      add\n      dup1\n      sload\n      tag_336\n      swap1\n      tag_43\n      jump\t// in\n    tag_336:\n      dup1\n      0x1f\n      add\n      0x20\n      dup1\n      swap2\n      div\n      mul\n      0x20\n      add\n      mload(0x40)\n      swap1\n      dup2\n      add\n      0x40\n      mstore\n      dup1\n      swap3\n      swap2\n      swap1\n      dup2\n      dup2\n      mstore\n      0x20\n      add\n      dup3\n      dup1\n      sload\n      tag_337\n      swap1\n      tag_43\n      jump\t// in\n    tag_337:\n      dup1\n      iszero\n      tag_338\n      jumpi\n      dup1\n      0x1f\n      lt\n      tag_339\n      jumpi\n      0x0100\n      dup1\n      dup4\n      sload\n      div\n      mul\n      dup4\n      mstore\n      swap2\n      0x20\n      add\n      swap2\n      jump(tag_338)\n    tag_339:\n      dup3\n      add\n      swap2\n      swap1\n      0x00\n      mstore\n      keccak256(0x00, 0x20)\n      swap1\n    tag_340:\n      dup2\n      sload\n      dup2\n      mstore\n      swap1\n      0x01\n      add\n      swap1\n      0x20\n      add\n      dup1\n      dup4\n      gt\n      tag_340\n      jumpi\n      dup3\n      swap1\n      sub\n      0x1f\n      and\n      dup3\n      add\n      swap2\n    tag_338:\n      pop\n      pop\n      pop\n      pop\n      pop\n      dup2\n      mstore\n      pop\n      pop\n      dup2\n      mstore\n      0x20\n      add\n      swap1\n      0x01\n      add\n      swap1\n      jump(tag_293)\n    tag_294:\n      pop\n      pop\n      pop\n      pop\n      swap1\n      pop\n        /* \"contracts/sih3.sol\":2514:2616  function getAllCases() public view returns(structTemplate[] memory){... */\n      swap1\n      jump\t// out\n        /* \"#utility.yul\":14:141   */\n    tag_341:\n        /* \"#utility.yul\":75:85   */\n      0x4e487b71\n        /* \"#utility.yul\":70:73   */\n      0xe0\n        /* \"#utility.yul\":66:86   */\n      shl\n        /* \"#utility.yul\":63:64   */\n      0x00\n        /* \"#utility.yul\":56:87   */\n      mstore\n        /* \"#utility.yul\":106:110   */\n      0x41\n        /* \"#utility.yul\":103:104   */\n      0x04\n        /* \"#utility.yul\":96:111   */\n      mstore\n        /* \"#utility.yul\":130:134   */\n      0x24\n        /* \"#utility.yul\":127:128   */\n      0x00\n        /* \"#utility.yul\":120:135   */\n      revert\n        /* \"#utility.yul\":146:1068   */\n    tag_11:\n        /* \"#utility.yul\":215:221   */\n      0x00\n        /* \"#utility.yul\":268:270   */\n      0x20\n        /* \"#utility.yul\":256:265   */\n      dup3\n        /* \"#utility.yul\":247:254   */\n      dup5\n        /* \"#utility.yul\":243:266   */\n      sub\n        /* \"#utility.yul\":239:271   */\n      slt\n        /* \"#utility.yul\":236:288   */\n      iszero\n      tag_350\n      jumpi\n        /* \"#utility.yul\":284:285   */\n      0x00\n        /* \"#utility.yul\":281:282   */\n      dup1\n        /* \"#utility.yul\":274:286   */\n      revert\n        /* \"#utility.yul\":236:288   */\n    tag_350:\n        /* \"#utility.yul\":324:333   */\n      dup2\n        /* \"#utility.yul\":311:334   */\n      calldataload\n        /* \"#utility.yul\":353:371   */\n      0xffffffffffffffff\n        /* \"#utility.yul\":394:396   */\n      dup1\n        /* \"#utility.yul\":386:392   */\n      dup3\n        /* \"#utility.yul\":383:397   */\n      gt\n        /* \"#utility.yul\":380:414   */\n      iszero\n      tag_351\n      jumpi\n        /* \"#utility.yul\":410:411   */\n      0x00\n        /* \"#utility.yul\":407:408   */\n      dup1\n        /* \"#utility.yul\":400:412   */\n      revert\n        /* \"#utility.yul\":380:414   */\n    tag_351:\n        /* \"#utility.yul\":448:454   */\n      dup2\n        /* \"#utility.yul\":437:446   */\n      dup5\n        /* \"#utility.yul\":433:455   */\n      add\n        /* \"#utility.yul\":423:455   */\n      swap2\n      pop\n        /* \"#utility.yul\":493:500   */\n      dup5\n        /* \"#utility.yul\":486:490   */\n      0x1f\n        /* \"#utility.yul\":482:484   */\n      dup4\n        /* \"#utility.yul\":478:491   */\n      add\n        /* \"#utility.yul\":474:501   */\n      slt\n        /* \"#utility.yul\":464:519   */\n      tag_352\n      jumpi\n        /* \"#utility.yul\":515:516   */\n      0x00\n        /* \"#utility.yul\":512:513   */\n      dup1\n        /* \"#utility.yul\":505:517   */\n      revert\n        /* \"#utility.yul\":464:519   */\n    tag_352:\n        /* \"#utility.yul\":551:553   */\n      dup2\n        /* \"#utility.yul\":538:554   */\n      calldataload\n        /* \"#utility.yul\":573:575   */\n      dup2\n        /* \"#utility.yul\":569:571   */\n      dup2\n        /* \"#utility.yul\":566:576   */\n      gt\n        /* \"#utility.yul\":563:599   */\n      iszero\n      tag_354\n      jumpi\n        /* \"#utility.yul\":579:597   */\n      tag_354\n      tag_341\n      jump\t// in\n    tag_354:\n        /* \"#utility.yul\":654:656   */\n      0x40\n        /* \"#utility.yul\":648:657   */\n      mload\n        /* \"#utility.yul\":622:624   */\n      0x1f\n        /* \"#utility.yul\":708:721   */\n      dup3\n      add\n      not(0x1f)\n        /* \"#utility.yul\":704:726   */\n      swap1\n      dup2\n      and\n        /* \"#utility.yul\":728:730   */\n      0x3f\n        /* \"#utility.yul\":700:731   */\n      add\n        /* \"#utility.yul\":696:736   */\n      and\n        /* \"#utility.yul\":684:737   */\n      dup2\n      add\n      swap1\n        /* \"#utility.yul\":752:770   */\n      dup4\n      dup3\n      gt\n        /* \"#utility.yul\":772:794   */\n      dup2\n      dup4\n      lt\n        /* \"#utility.yul\":749:795   */\n      or\n        /* \"#utility.yul\":746:818   */\n      iszero\n      tag_356\n      jumpi\n        /* \"#utility.yul\":798:816   */\n      tag_356\n      tag_341\n      jump\t// in\n    tag_356:\n        /* \"#utility.yul\":838:848   */\n      dup2\n        /* \"#utility.yul\":834:836   */\n      0x40\n        /* \"#utility.yul\":827:849   */\n      mstore\n        /* \"#utility.yul\":873:875   */\n      dup3\n        /* \"#utility.yul\":865:871   */\n      dup2\n        /* \"#utility.yul\":858:876   */\n      mstore\n        /* \"#utility.yul\":913:920   */\n      dup8\n        /* \"#utility.yul\":908:910   */\n      0x20\n        /* \"#utility.yul\":903:905   */\n      dup5\n        /* \"#utility.yul\":899:901   */\n      dup8\n        /* \"#utility.yul\":895:906   */\n      add\n        /* \"#utility.yul\":891:911   */\n      add\n        /* \"#utility.yul\":888:921   */\n      gt\n        /* \"#utility.yul\":885:938   */\n      iszero\n      tag_357\n      jumpi\n        /* \"#utility.yul\":934:935   */\n      0x00\n        /* \"#utility.yul\":931:932   */\n      dup1\n        /* \"#utility.yul\":924:936   */\n      revert\n        /* \"#utility.yul\":885:938   */\n    tag_357:\n        /* \"#utility.yul\":990:992   */\n      dup3\n        /* \"#utility.yul\":985:987   */\n      0x20\n        /* \"#utility.yul\":981:983   */\n      dup7\n        /* \"#utility.yul\":977:988   */\n      add\n        /* \"#utility.yul\":972:974   */\n      0x20\n        /* \"#utility.yul\":964:970   */\n      dup4\n        /* \"#utility.yul\":960:975   */\n      add\n        /* \"#utility.yul\":947:993   */\n      calldatacopy\n        /* \"#utility.yul\":1035:1036   */\n      0x00\n        /* \"#utility.yul\":1013:1028   */\n      swap3\n      dup2\n      add\n        /* \"#utility.yul\":1030:1032   */\n      0x20\n        /* \"#utility.yul\":1009:1033   */\n      add\n        /* \"#utility.yul\":1002:1037   */\n      swap3\n      swap1\n      swap3\n      mstore\n      pop\n        /* \"#utility.yul\":1017:1023   */\n      swap6\n        /* \"#utility.yul\":146:1068   */\n      swap5\n      pop\n      pop\n      pop\n      pop\n      pop\n      jump\t// out\n        /* \"#utility.yul\":1073:1323   */\n    tag_342:\n        /* \"#utility.yul\":1158:1159   */\n      0x00\n        /* \"#utility.yul\":1168:1281   */\n    tag_359:\n        /* \"#utility.yul\":1182:1188   */\n      dup4\n        /* \"#utility.yul\":1179:1180   */\n      dup2\n        /* \"#utility.yul\":1176:1189   */\n      lt\n        /* \"#utility.yul\":1168:1281   */\n      iszero\n      tag_361\n      jumpi\n        /* \"#utility.yul\":1258:1269   */\n      dup2\n      dup2\n      add\n        /* \"#utility.yul\":1252:1270   */\n      mload\n        /* \"#utility.yul\":1239:1250   */\n      dup4\n      dup3\n      add\n        /* \"#utility.yul\":1232:1271   */\n      mstore\n        /* \"#utility.yul\":1204:1206   */\n      0x20\n        /* \"#utility.yul\":1197:1207   */\n      add\n        /* \"#utility.yul\":1168:1281   */\n      jump(tag_359)\n    tag_361:\n      pop\n      pop\n        /* \"#utility.yul\":1315:1316   */\n      0x00\n        /* \"#utility.yul\":1297:1313   */\n      swap2\n      add\n        /* \"#utility.yul\":1290:1317   */\n      mstore\n        /* \"#utility.yul\":1073:1323   */\n      jump\t// out\n        /* \"#utility.yul\":1328:1599   */\n    tag_343:\n        /* \"#utility.yul\":1370:1373   */\n      0x00\n        /* \"#utility.yul\":1408:1413   */\n      dup2\n        /* \"#utility.yul\":1402:1414   */\n      mload\n        /* \"#utility.yul\":1435:1441   */\n      dup1\n        /* \"#utility.yul\":1430:1433   */\n      dup5\n        /* \"#utility.yul\":1423:1442   */\n      mstore\n        /* \"#utility.yul\":1451:1527   */\n      tag_363\n        /* \"#utility.yul\":1520:1526   */\n      dup2\n        /* \"#utility.yul\":1513:1517   */\n      0x20\n        /* \"#utility.yul\":1508:1511   */\n      dup7\n        /* \"#utility.yul\":1504:1518   */\n      add\n        /* \"#utility.yul\":1497:1501   */\n      0x20\n        /* \"#utility.yul\":1490:1495   */\n      dup7\n        /* \"#utility.yul\":1486:1502   */\n      add\n        /* \"#utility.yul\":1451:1527   */\n      tag_342\n      jump\t// in\n    tag_363:\n        /* \"#utility.yul\":1581:1583   */\n      0x1f\n        /* \"#utility.yul\":1560:1575   */\n      add\n      not(0x1f)\n        /* \"#utility.yul\":1556:1585   */\n      and\n        /* \"#utility.yul\":1547:1586   */\n      swap3\n      swap1\n      swap3\n      add\n        /* \"#utility.yul\":1588:1592   */\n      0x20\n        /* \"#utility.yul\":1543:1593   */\n      add\n      swap3\n        /* \"#utility.yul\":1328:1599   */\n      swap2\n      pop\n      pop\n      jump\t// out\n        /* \"#utility.yul\":1604:4208   */\n    tag_14:\n        /* \"#utility.yul\":1806:1810   */\n      0x00\n        /* \"#utility.yul\":1835:1837   */\n      0x20\n        /* \"#utility.yul\":1875:1877   */\n      dup1\n        /* \"#utility.yul\":1864:1873   */\n      dup4\n        /* \"#utility.yul\":1860:1878   */\n      add\n        /* \"#utility.yul\":1905:1907   */\n      dup2\n        /* \"#utility.yul\":1894:1903   */\n      dup5\n        /* \"#utility.yul\":1887:1908   */\n      mstore\n        /* \"#utility.yul\":1928:1934   */\n      dup1\n        /* \"#utility.yul\":1963:1969   */\n      dup6\n        /* \"#utility.yul\":1957:1970   */\n      mload\n        /* \"#utility.yul\":1994:2000   */\n      dup1\n        /* \"#utility.yul\":1986:1992   */\n      dup4\n        /* \"#utility.yul\":1979:2001   */\n      mstore\n        /* \"#utility.yul\":2020:2022   */\n      0x40\n        /* \"#utility.yul\":2010:2022   */\n      swap3\n      pop\n        /* \"#utility.yul\":2053:2055   */\n      dup3\n        /* \"#utility.yul\":2042:2051   */\n      dup7\n        /* \"#utility.yul\":2038:2056   */\n      add\n        /* \"#utility.yul\":2031:2056   */\n      swap2\n      pop\n        /* \"#utility.yul\":2115:2117   */\n      dup3\n        /* \"#utility.yul\":2105:2111   */\n      dup2\n        /* \"#utility.yul\":2102:2103   */\n      0x05\n        /* \"#utility.yul\":2098:2112   */\n      shl\n        /* \"#utility.yul\":2087:2096   */\n      dup8\n        /* \"#utility.yul\":2083:2113   */\n      add\n        /* \"#utility.yul\":2079:2118   */\n      add\n        /* \"#utility.yul\":2153:2155   */\n      dup5\n        /* \"#utility.yul\":2145:2151   */\n      dup9\n        /* \"#utility.yul\":2141:2156   */\n      add\n        /* \"#utility.yul\":2174:2175   */\n      0x00\n        /* \"#utility.yul\":2184:4179   */\n    tag_365:\n        /* \"#utility.yul\":2198:2204   */\n      dup4\n        /* \"#utility.yul\":2195:2196   */\n      dup2\n        /* \"#utility.yul\":2192:2205   */\n      lt\n        /* \"#utility.yul\":2184:4179   */\n      iszero\n      tag_367\n      jumpi\n        /* \"#utility.yul\":2291:2293   */\n      0x3f\n        /* \"#utility.yul\":2287:2294   */\n      not\n        /* \"#utility.yul\":2275:2284   */\n      dup10\n        /* \"#utility.yul\":2267:2273   */\n      dup5\n        /* \"#utility.yul\":2263:2285   */\n      sub\n        /* \"#utility.yul\":2259:2295   */\n      add\n        /* \"#utility.yul\":2254:2257   */\n      dup6\n        /* \"#utility.yul\":2247:2296   */\n      mstore\n        /* \"#utility.yul\":2325:2331   */\n      dup2\n        /* \"#utility.yul\":2319:2332   */\n      mload\n        /* \"#utility.yul\":2355:2361   */\n      0x0120\n        /* \"#utility.yul\":2400:2402   */\n      dup2\n        /* \"#utility.yul\":2394:2403   */\n      mload\n        /* \"#utility.yul\":2431:2433   */\n      dup2\n        /* \"#utility.yul\":2423:2429   */\n      dup7\n        /* \"#utility.yul\":2416:2434   */\n      mstore\n        /* \"#utility.yul\":2461:2509   */\n      tag_368\n        /* \"#utility.yul\":2505:2507   */\n      dup3\n        /* \"#utility.yul\":2497:2503   */\n      dup8\n        /* \"#utility.yul\":2493:2508   */\n      add\n        /* \"#utility.yul\":2479:2491   */\n      dup3\n        /* \"#utility.yul\":2461:2509   */\n      tag_343\n      jump\t// in\n    tag_368:\n        /* \"#utility.yul\":2447:2509   */\n      swap2\n      pop\n      pop\n        /* \"#utility.yul\":2558:2560   */\n      dup9\n        /* \"#utility.yul\":2554:2556   */\n      dup3\n        /* \"#utility.yul\":2550:2561   */\n      add\n        /* \"#utility.yul\":2544:2562   */\n      mload\n        /* \"#utility.yul\":2611:2617   */\n      dup6\n        /* \"#utility.yul\":2603:2609   */\n      dup3\n        /* \"#utility.yul\":2599:2618   */\n      sub\n        /* \"#utility.yul\":2594:2596   */\n      dup11\n        /* \"#utility.yul\":2586:2592   */\n      dup8\n        /* \"#utility.yul\":2582:2597   */\n      add\n        /* \"#utility.yul\":2575:2619   */\n      mstore\n        /* \"#utility.yul\":2646:2687   */\n      tag_369\n        /* \"#utility.yul\":2680:2686   */\n      dup3\n        /* \"#utility.yul\":2664:2678   */\n      dup3\n        /* \"#utility.yul\":2646:2687   */\n      tag_343\n      jump\t// in\n    tag_369:\n        /* \"#utility.yul\":2632:2687   */\n      swap2\n      pop\n      pop\n        /* \"#utility.yul\":2736:2738   */\n      dup8\n        /* \"#utility.yul\":2732:2734   */\n      dup3\n        /* \"#utility.yul\":2728:2739   */\n      add\n        /* \"#utility.yul\":2722:2740   */\n      mload\n        /* \"#utility.yul\":2789:2795   */\n      dup6\n        /* \"#utility.yul\":2781:2787   */\n      dup3\n        /* \"#utility.yul\":2777:2796   */\n      sub\n        /* \"#utility.yul\":2772:2774   */\n      dup10\n        /* \"#utility.yul\":2764:2770   */\n      dup8\n        /* \"#utility.yul\":2760:2775   */\n      add\n        /* \"#utility.yul\":2753:2797   */\n      mstore\n        /* \"#utility.yul\":2824:2865   */\n      tag_370\n        /* \"#utility.yul\":2858:2864   */\n      dup3\n        /* \"#utility.yul\":2842:2856   */\n      dup3\n        /* \"#utility.yul\":2824:2865   */\n      tag_343\n      jump\t// in\n    tag_370:\n        /* \"#utility.yul\":2810:2865   */\n      swap2\n      pop\n      pop\n        /* \"#utility.yul\":2888:2892   */\n      0x60\n        /* \"#utility.yul\":2941:2943   */\n      dup1\n        /* \"#utility.yul\":2937:2939   */\n      dup4\n        /* \"#utility.yul\":2933:2944   */\n      add\n        /* \"#utility.yul\":2927:2945   */\n      mload\n        /* \"#utility.yul\":2994:3000   */\n      dup7\n        /* \"#utility.yul\":2986:2992   */\n      dup4\n        /* \"#utility.yul\":2982:3001   */\n      sub\n        /* \"#utility.yul\":2977:2979   */\n      dup3\n        /* \"#utility.yul\":2969:2975   */\n      dup9\n        /* \"#utility.yul\":2965:2980   */\n      add\n        /* \"#utility.yul\":2958:3002   */\n      mstore\n        /* \"#utility.yul\":3029:3070   */\n      tag_371\n        /* \"#utility.yul\":3063:3069   */\n      dup4\n        /* \"#utility.yul\":3047:3061   */\n      dup3\n        /* \"#utility.yul\":3029:3070   */\n      tag_343\n      jump\t// in\n    tag_371:\n        /* \"#utility.yul\":3015:3070   */\n      swap3\n      pop\n      pop\n      pop\n        /* \"#utility.yul\":3093:3097   */\n      0x80\n        /* \"#utility.yul\":3146:3148   */\n      dup1\n        /* \"#utility.yul\":3142:3144   */\n      dup4\n        /* \"#utility.yul\":3138:3149   */\n      add\n        /* \"#utility.yul\":3132:3150   */\n      mload\n        /* \"#utility.yul\":3199:3205   */\n      dup7\n        /* \"#utility.yul\":3191:3197   */\n      dup4\n        /* \"#utility.yul\":3187:3206   */\n      sub\n        /* \"#utility.yul\":3182:3184   */\n      dup3\n        /* \"#utility.yul\":3174:3180   */\n      dup9\n        /* \"#utility.yul\":3170:3185   */\n      add\n        /* \"#utility.yul\":3163:3207   */\n      mstore\n        /* \"#utility.yul\":3234:3275   */\n      tag_372\n        /* \"#utility.yul\":3268:3274   */\n      dup4\n        /* \"#utility.yul\":3252:3266   */\n      dup3\n        /* \"#utility.yul\":3234:3275   */\n      tag_343\n      jump\t// in\n    tag_372:\n        /* \"#utility.yul\":3220:3275   */\n      swap3\n      pop\n      pop\n      pop\n        /* \"#utility.yul\":3298:3302   */\n      0xa0\n        /* \"#utility.yul\":3351:3353   */\n      dup1\n        /* \"#utility.yul\":3347:3349   */\n      dup4\n        /* \"#utility.yul\":3343:3354   */\n      add\n        /* \"#utility.yul\":3337:3355   */\n      mload\n        /* \"#utility.yul\":3404:3410   */\n      dup7\n        /* \"#utility.yul\":3396:3402   */\n      dup4\n        /* \"#utility.yul\":3392:3411   */\n      sub\n        /* \"#utility.yul\":3387:3389   */\n      dup3\n        /* \"#utility.yul\":3379:3385   */\n      dup9\n        /* \"#utility.yul\":3375:3390   */\n      add\n        /* \"#utility.yul\":3368:3412   */\n      mstore\n        /* \"#utility.yul\":3439:3480   */\n      tag_373\n        /* \"#utility.yul\":3473:3479   */\n      dup4\n        /* \"#utility.yul\":3457:3471   */\n      dup3\n        /* \"#utility.yul\":3439:3480   */\n      tag_343\n      jump\t// in\n    tag_373:\n        /* \"#utility.yul\":3425:3480   */\n      swap3\n      pop\n      pop\n      pop\n        /* \"#utility.yul\":3503:3507   */\n      0xc0\n        /* \"#utility.yul\":3556:3558   */\n      dup1\n        /* \"#utility.yul\":3552:3554   */\n      dup4\n        /* \"#utility.yul\":3548:3559   */\n      add\n        /* \"#utility.yul\":3542:3560   */\n      mload\n        /* \"#utility.yul\":3609:3615   */\n      dup7\n        /* \"#utility.yul\":3601:3607   */\n      dup4\n        /* \"#utility.yul\":3597:3616   */\n      sub\n        /* \"#utility.yul\":3592:3594   */\n      dup3\n        /* \"#utility.yul\":3584:3590   */\n      dup9\n        /* \"#utility.yul\":3580:3595   */\n      add\n        /* \"#utility.yul\":3573:3617   */\n      mstore\n        /* \"#utility.yul\":3644:3685   */\n      tag_374\n        /* \"#utility.yul\":3678:3684   */\n      dup4\n        /* \"#utility.yul\":3662:3676   */\n      dup3\n        /* \"#utility.yul\":3644:3685   */\n      tag_343\n      jump\t// in\n    tag_374:\n        /* \"#utility.yul\":3630:3685   */\n      swap3\n      pop\n      pop\n      pop\n        /* \"#utility.yul\":3708:3712   */\n      0xe0\n        /* \"#utility.yul\":3761:3763   */\n      dup1\n        /* \"#utility.yul\":3757:3759   */\n      dup4\n        /* \"#utility.yul\":3753:3764   */\n      add\n        /* \"#utility.yul\":3747:3765   */\n      mload\n        /* \"#utility.yul\":3814:3820   */\n      dup7\n        /* \"#utility.yul\":3806:3812   */\n      dup4\n        /* \"#utility.yul\":3802:3821   */\n      sub\n        /* \"#utility.yul\":3797:3799   */\n      dup3\n        /* \"#utility.yul\":3789:3795   */\n      dup9\n        /* \"#utility.yul\":3785:3800   */\n      add\n        /* \"#utility.yul\":3778:3822   */\n      mstore\n        /* \"#utility.yul\":3850:3891   */\n      tag_375\n        /* \"#utility.yul\":3884:3890   */\n      dup4\n        /* \"#utility.yul\":3868:3882   */\n      dup3\n        /* \"#utility.yul\":3850:3891   */\n      tag_343\n      jump\t// in\n    tag_375:\n        /* \"#utility.yul\":3835:3891   */\n      swap3\n      pop\n      pop\n      pop\n        /* \"#utility.yul\":3915:3921   */\n      0x0100\n        /* \"#utility.yul\":3970:3973   */\n      dup1\n        /* \"#utility.yul\":3966:3968   */\n      dup4\n        /* \"#utility.yul\":3962:3974   */\n      add\n        /* \"#utility.yul\":3956:3975   */\n      mload\n        /* \"#utility.yul\":3934:3975   */\n      swap3\n      pop\n        /* \"#utility.yul\":4026:4032   */\n      dup6\n        /* \"#utility.yul\":4017:4024   */\n      dup3\n        /* \"#utility.yul\":4013:4033   */\n      sub\n        /* \"#utility.yul\":4007:4010   */\n      dup2\n        /* \"#utility.yul\":3999:4005   */\n      dup8\n        /* \"#utility.yul\":3995:4011   */\n      add\n        /* \"#utility.yul\":3988:4034   */\n      mstore\n      pop\n        /* \"#utility.yul\":4057:4099   */\n      tag_376\n        /* \"#utility.yul\":4091:4098   */\n      dup2\n        /* \"#utility.yul\":4075:4089   */\n      dup4\n        /* \"#utility.yul\":4057:4099   */\n      tag_343\n      jump\t// in\n    tag_376:\n        /* \"#utility.yul\":4157:4169   */\n      swap7\n      dup10\n      add\n      swap7\n        /* \"#utility.yul\":4047:4099   */\n      swap5\n      pop\n      pop\n      pop\n        /* \"#utility.yul\":4122:4137   */\n      swap1\n      dup7\n      add\n      swap1\n        /* \"#utility.yul\":2220:2221   */\n      0x01\n        /* \"#utility.yul\":2213:2222   */\n      add\n        /* \"#utility.yul\":2184:4179   */\n      jump(tag_365)\n    tag_367:\n      pop\n        /* \"#utility.yul\":4196:4202   */\n      swap1\n      swap9\n        /* \"#utility.yul\":1604:4208   */\n      swap8\n      pop\n      pop\n      pop\n      pop\n      pop\n      pop\n      pop\n      pop\n      jump\t// out\n        /* \"#utility.yul\":4213:4393   */\n    tag_17:\n        /* \"#utility.yul\":4272:4278   */\n      0x00\n        /* \"#utility.yul\":4325:4327   */\n      0x20\n        /* \"#utility.yul\":4313:4322   */\n      dup3\n        /* \"#utility.yul\":4304:4311   */\n      dup5\n        /* \"#utility.yul\":4300:4323   */\n      sub\n        /* \"#utility.yul\":4296:4328   */\n      slt\n        /* \"#utility.yul\":4293:4345   */\n      iszero\n      tag_378\n      jumpi\n        /* \"#utility.yul\":4341:4342   */\n      0x00\n        /* \"#utility.yul\":4338:4339   */\n      dup1\n        /* \"#utility.yul\":4331:4343   */\n      revert\n        /* \"#utility.yul\":4293:4345   */\n    tag_378:\n      pop\n        /* \"#utility.yul\":4364:4387   */\n      calldataload\n      swap2\n        /* \"#utility.yul\":4213:4393   */\n      swap1\n      pop\n      jump\t// out\n        /* \"#utility.yul\":4398:5949   */\n    tag_20:\n        /* \"#utility.yul\":4894:4898   */\n      0x00\n        /* \"#utility.yul\":4923:4926   */\n      0x0120\n        /* \"#utility.yul\":4953:4955   */\n      dup1\n        /* \"#utility.yul\":4942:4951   */\n      dup4\n        /* \"#utility.yul\":4935:4956   */\n      mstore\n        /* \"#utility.yul\":4979:5024   */\n      tag_380\n        /* \"#utility.yul\":5020:5022   */\n      dup2\n        /* \"#utility.yul\":5009:5018   */\n      dup5\n        /* \"#utility.yul\":5005:5023   */\n      add\n        /* \"#utility.yul\":4997:5003   */\n      dup14\n        /* \"#utility.yul\":4979:5024   */\n      tag_343\n      jump\t// in\n    tag_380:\n        /* \"#utility.yul\":4965:5024   */\n      swap1\n      pop\n        /* \"#utility.yul\":5072:5081   */\n      dup3\n        /* \"#utility.yul\":5064:5070   */\n      dup2\n        /* \"#utility.yul\":5060:5082   */\n      sub\n        /* \"#utility.yul\":5055:5057   */\n      0x20\n        /* \"#utility.yul\":5044:5053   */\n      dup5\n        /* \"#utility.yul\":5040:5058   */\n      add\n        /* \"#utility.yul\":5033:5083   */\n      mstore\n        /* \"#utility.yul\":5106:5139   */\n      tag_381\n        /* \"#utility.yul\":5132:5138   */\n      dup2\n        /* \"#utility.yul\":5124:5130   */\n      dup13\n        /* \"#utility.yul\":5106:5139   */\n      tag_343\n      jump\t// in\n    tag_381:\n        /* \"#utility.yul\":5092:5139   */\n      swap1\n      pop\n        /* \"#utility.yul\":5187:5196   */\n      dup3\n        /* \"#utility.yul\":5179:5185   */\n      dup2\n        /* \"#utility.yul\":5175:5197   */\n      sub\n        /* \"#utility.yul\":5170:5172   */\n      0x40\n        /* \"#utility.yul\":5159:5168   */\n      dup5\n        /* \"#utility.yul\":5155:5173   */\n      add\n        /* \"#utility.yul\":5148:5198   */\n      mstore\n        /* \"#utility.yul\":5221:5254   */\n      tag_382\n        /* \"#utility.yul\":5247:5253   */\n      dup2\n        /* \"#utility.yul\":5239:5245   */\n      dup12\n        /* \"#utility.yul\":5221:5254   */\n      tag_343\n      jump\t// in\n    tag_382:\n        /* \"#utility.yul\":5207:5254   */\n      swap1\n      pop\n        /* \"#utility.yul\":5302:5311   */\n      dup3\n        /* \"#utility.yul\":5294:5300   */\n      dup2\n        /* \"#utility.yul\":5290:5312   */\n      sub\n        /* \"#utility.yul\":5285:5287   */\n      0x60\n        /* \"#utility.yul\":5274:5283   */\n      dup5\n        /* \"#utility.yul\":5270:5288   */\n      add\n        /* \"#utility.yul\":5263:5313   */\n      mstore\n        /* \"#utility.yul\":5336:5369   */\n      tag_383\n        /* \"#utility.yul\":5362:5368   */\n      dup2\n        /* \"#utility.yul\":5354:5360   */\n      dup11\n        /* \"#utility.yul\":5336:5369   */\n      tag_343\n      jump\t// in\n    tag_383:\n        /* \"#utility.yul\":5322:5369   */\n      swap1\n      pop\n        /* \"#utility.yul\":5418:5427   */\n      dup3\n        /* \"#utility.yul\":5410:5416   */\n      dup2\n        /* \"#utility.yul\":5406:5428   */\n      sub\n        /* \"#utility.yul\":5400:5403   */\n      0x80\n        /* \"#utility.yul\":5389:5398   */\n      dup5\n        /* \"#utility.yul\":5385:5404   */\n      add\n        /* \"#utility.yul\":5378:5429   */\n      mstore\n        /* \"#utility.yul\":5452:5485   */\n      tag_384\n        /* \"#utility.yul\":5478:5484   */\n      dup2\n        /* \"#utility.yul\":5470:5476   */\n      dup10\n        /* \"#utility.yul\":5452:5485   */\n      tag_343\n      jump\t// in\n    tag_384:\n        /* \"#utility.yul\":5438:5485   */\n      swap1\n      pop\n        /* \"#utility.yul\":5534:5543   */\n      dup3\n        /* \"#utility.yul\":5526:5532   */\n      dup2\n        /* \"#utility.yul\":5522:5544   */\n      sub\n        /* \"#utility.yul\":5516:5519   */\n      0xa0\n        /* \"#utility.yul\":5505:5514   */\n      dup5\n        /* \"#utility.yul\":5501:5520   */\n      add\n        /* \"#utility.yul\":5494:5545   */\n      mstore\n        /* \"#utility.yul\":5568:5601   */\n      tag_385\n        /* \"#utility.yul\":5594:5600   */\n      dup2\n        /* \"#utility.yul\":5586:5592   */\n      dup9\n        /* \"#utility.yul\":5568:5601   */\n      tag_343\n      jump\t// in\n    tag_385:\n        /* \"#utility.yul\":5554:5601   */\n      swap1\n      pop\n        /* \"#utility.yul\":5650:5659   */\n      dup3\n        /* \"#utility.yul\":5642:5648   */\n      dup2\n        /* \"#utility.yul\":5638:5660   */\n      sub\n        /* \"#utility.yul\":5632:5635   */\n      0xc0\n        /* \"#utility.yul\":5621:5630   */\n      dup5\n        /* \"#utility.yul\":5617:5636   */\n      add\n        /* \"#utility.yul\":5610:5661   */\n      mstore\n        /* \"#utility.yul\":5684:5717   */\n      tag_386\n        /* \"#utility.yul\":5710:5716   */\n      dup2\n        /* \"#utility.yul\":5702:5708   */\n      dup8\n        /* \"#utility.yul\":5684:5717   */\n      tag_343\n      jump\t// in\n    tag_386:\n        /* \"#utility.yul\":5670:5717   */\n      swap1\n      pop\n        /* \"#utility.yul\":5766:5775   */\n      dup3\n        /* \"#utility.yul\":5758:5764   */\n      dup2\n        /* \"#utility.yul\":5754:5776   */\n      sub\n        /* \"#utility.yul\":5748:5751   */\n      0xe0\n        /* \"#utility.yul\":5737:5746   */\n      dup5\n        /* \"#utility.yul\":5733:5752   */\n      add\n        /* \"#utility.yul\":5726:5777   */\n      mstore\n        /* \"#utility.yul\":5800:5833   */\n      tag_387\n        /* \"#utility.yul\":5826:5832   */\n      dup2\n        /* \"#utility.yul\":5818:5824   */\n      dup7\n        /* \"#utility.yul\":5800:5833   */\n      tag_343\n      jump\t// in\n    tag_387:\n        /* \"#utility.yul\":5786:5833   */\n      swap1\n      pop\n        /* \"#utility.yul\":5882:5891   */\n      dup3\n        /* \"#utility.yul\":5874:5880   */\n      dup2\n        /* \"#utility.yul\":5870:5892   */\n      sub\n        /* \"#utility.yul\":5864:5867   */\n      0x0100\n        /* \"#utility.yul\":5853:5862   */\n      dup5\n        /* \"#utility.yul\":5849:5868   */\n      add\n        /* \"#utility.yul\":5842:5893   */\n      mstore\n        /* \"#utility.yul\":5910:5943   */\n      tag_388\n        /* \"#utility.yul\":5936:5942   */\n      dup2\n        /* \"#utility.yul\":5928:5934   */\n      dup6\n        /* \"#utility.yul\":5910:5943   */\n      tag_343\n      jump\t// in\n    tag_388:\n        /* \"#utility.yul\":5902:5943   */\n      swap13\n        /* \"#utility.yul\":4398:5949   */\n      swap12\n      pop\n      pop\n      pop\n      pop\n      pop\n      pop\n      pop\n      pop\n      pop\n      pop\n      pop\n      pop\n      jump\t// out\n        /* \"#utility.yul\":5954:6240   */\n    tag_27:\n        /* \"#utility.yul\":6013:6019   */\n      0x00\n        /* \"#utility.yul\":6066:6068   */\n      0x20\n        /* \"#utility.yul\":6054:6063   */\n      dup3\n        /* \"#utility.yul\":6045:6052   */\n      dup5\n        /* \"#utility.yul\":6041:6064   */\n      sub\n        /* \"#utility.yul\":6037:6069   */\n      slt\n        /* \"#utility.yul\":6034:6086   */\n      iszero\n      tag_390\n      jumpi\n        /* \"#utility.yul\":6082:6083   */\n      0x00\n        /* \"#utility.yul\":6079:6080   */\n      dup1\n        /* \"#utility.yul\":6072:6084   */\n      revert\n        /* \"#utility.yul\":6034:6086   */\n    tag_390:\n        /* \"#utility.yul\":6108:6131   */\n      dup2\n      calldataload\n      sub(shl(0xa0, 0x01), 0x01)\n        /* \"#utility.yul\":6160:6191   */\n      dup2\n      and\n        /* \"#utility.yul\":6150:6192   */\n      dup2\n      eq\n        /* \"#utility.yul\":6140:6210   */\n      tag_391\n      jumpi\n        /* \"#utility.yul\":6206:6207   */\n      0x00\n        /* \"#utility.yul\":6203:6204   */\n      dup1\n        /* \"#utility.yul\":6196:6208   */\n      revert\n        /* \"#utility.yul\":6140:6210   */\n    tag_391:\n        /* \"#utility.yul\":6229:6234   */\n      swap4\n        /* \"#utility.yul\":5954:6240   */\n      swap3\n      pop\n      pop\n      pop\n      jump\t// out\n        /* \"#utility.yul\":6245:6641   */\n    tag_31:\n        /* \"#utility.yul\":6341:6347   */\n      0x00\n        /* \"#utility.yul\":6394:6396   */\n      0x20\n        /* \"#utility.yul\":6382:6391   */\n      dup3\n        /* \"#utility.yul\":6373:6380   */\n      dup5\n        /* \"#utility.yul\":6369:6392   */\n      sub\n        /* \"#utility.yul\":6365:6397   */\n      slt\n        /* \"#utility.yul\":6362:6414   */\n      iszero\n      tag_393\n      jumpi\n        /* \"#utility.yul\":6410:6411   */\n      0x00\n        /* \"#utility.yul\":6407:6408   */\n      dup1\n        /* \"#utility.yul\":6400:6412   */\n      revert\n        /* \"#utility.yul\":6362:6414   */\n    tag_393:\n        /* \"#utility.yul\":6450:6459   */\n      dup2\n        /* \"#utility.yul\":6437:6460   */\n      calldataload\n        /* \"#utility.yul\":6483:6501   */\n      0xffffffffffffffff\n        /* \"#utility.yul\":6475:6481   */\n      dup2\n        /* \"#utility.yul\":6472:6502   */\n      gt\n        /* \"#utility.yul\":6469:6519   */\n      iszero\n      tag_394\n      jumpi\n        /* \"#utility.yul\":6515:6516   */\n      0x00\n        /* \"#utility.yul\":6512:6513   */\n      dup1\n        /* \"#utility.yul\":6505:6517   */\n      revert\n        /* \"#utility.yul\":6469:6519   */\n    tag_394:\n        /* \"#utility.yul\":6538:6560   */\n      dup3\n      add\n        /* \"#utility.yul\":6583:6586   */\n      0x0120\n        /* \"#utility.yul\":6575:6587   */\n      dup2\n      add\n        /* \"#utility.yul\":6572:6597   */\n      dup5\n      lt\n        /* \"#utility.yul\":6569:6614   */\n      iszero\n      tag_391\n      jumpi\n        /* \"#utility.yul\":6610:6611   */\n      0x00\n        /* \"#utility.yul\":6607:6608   */\n      dup1\n        /* \"#utility.yul\":6600:6612   */\n      revert\n        /* \"#utility.yul\":6646:6935   */\n    tag_38:\n        /* \"#utility.yul\":6777:6780   */\n      0x00\n        /* \"#utility.yul\":6815:6821   */\n      dup3\n        /* \"#utility.yul\":6809:6822   */\n      mload\n        /* \"#utility.yul\":6831:6897   */\n      tag_397\n        /* \"#utility.yul\":6890:6896   */\n      dup2\n        /* \"#utility.yul\":6885:6888   */\n      dup5\n        /* \"#utility.yul\":6878:6882   */\n      0x20\n        /* \"#utility.yul\":6870:6876   */\n      dup8\n        /* \"#utility.yul\":6866:6883   */\n      add\n        /* \"#utility.yul\":6831:6897   */\n      tag_342\n      jump\t// in\n    tag_397:\n        /* \"#utility.yul\":6913:6929   */\n      swap2\n      swap1\n      swap2\n      add\n      swap3\n        /* \"#utility.yul\":6646:6935   */\n      swap2\n      pop\n      pop\n      jump\t// out\n        /* \"#utility.yul\":6940:7320   */\n    tag_43:\n        /* \"#utility.yul\":7019:7020   */\n      0x01\n        /* \"#utility.yul\":7015:7027   */\n      dup2\n      dup2\n      shr\n      swap1\n        /* \"#utility.yul\":7062:7074   */\n      dup3\n      and\n      dup1\n        /* \"#utility.yul\":7083:7144   */\n      tag_399\n      jumpi\n        /* \"#utility.yul\":7137:7141   */\n      0x7f\n        /* \"#utility.yul\":7129:7135   */\n      dup3\n        /* \"#utility.yul\":7125:7142   */\n      and\n        /* \"#utility.yul\":7115:7142   */\n      swap2\n      pop\n        /* \"#utility.yul\":7083:7144   */\n    tag_399:\n        /* \"#utility.yul\":7190:7192   */\n      0x20\n        /* \"#utility.yul\":7182:7188   */\n      dup3\n        /* \"#utility.yul\":7179:7193   */\n      lt\n        /* \"#utility.yul\":7159:7177   */\n      dup2\n        /* \"#utility.yul\":7156:7194   */\n      sub\n        /* \"#utility.yul\":7153:7314   */\n      tag_400\n      jumpi\n        /* \"#utility.yul\":7236:7246   */\n      0x4e487b71\n        /* \"#utility.yul\":7231:7234   */\n      0xe0\n        /* \"#utility.yul\":7227:7247   */\n      shl\n        /* \"#utility.yul\":7224:7225   */\n      0x00\n        /* \"#utility.yul\":7217:7248   */\n      mstore\n        /* \"#utility.yul\":7271:7275   */\n      0x22\n        /* \"#utility.yul\":7268:7269   */\n      0x04\n        /* \"#utility.yul\":7261:7276   */\n      mstore\n        /* \"#utility.yul\":7299:7303   */\n      0x24\n        /* \"#utility.yul\":7296:7297   */\n      0x00\n        /* \"#utility.yul\":7289:7304   */\n      revert\n        /* \"#utility.yul\":7153:7314   */\n    tag_400:\n      pop\n        /* \"#utility.yul\":6940:7320   */\n      swap2\n      swap1\n      pop\n      jump\t// out\n        /* \"#utility.yul\":7325:7452   */\n    tag_188:\n        /* \"#utility.yul\":7386:7396   */\n      0x4e487b71\n        /* \"#utility.yul\":7381:7384   */\n      0xe0\n        /* \"#utility.yul\":7377:7397   */\n      shl\n        /* \"#utility.yul\":7374:7375   */\n      0x00\n        /* \"#utility.yul\":7367:7398   */\n      mstore\n        /* \"#utility.yul\":7417:7421   */\n      0x32\n        /* \"#utility.yul\":7414:7415   */\n      0x04\n        /* \"#utility.yul\":7407:7422   */\n      mstore\n        /* \"#utility.yul\":7441:7445   */\n      0x24\n        /* \"#utility.yul\":7438:7439   */\n      0x00\n        /* \"#utility.yul\":7431:7446   */\n      revert\n        /* \"#utility.yul\":7457:7689   */\n    tag_201:\n        /* \"#utility.yul\":7496:7499   */\n      0x00\n        /* \"#utility.yul\":7517:7534   */\n      0x01\n      dup3\n      add\n        /* \"#utility.yul\":7514:7654   */\n      tag_403\n      jumpi\n        /* \"#utility.yul\":7576:7586   */\n      0x4e487b71\n        /* \"#utility.yul\":7571:7574   */\n      0xe0\n        /* \"#utility.yul\":7567:7587   */\n      shl\n        /* \"#utility.yul\":7564:7565   */\n      0x00\n        /* \"#utility.yul\":7557:7588   */\n      mstore\n        /* \"#utility.yul\":7611:7615   */\n      0x11\n        /* \"#utility.yul\":7608:7609   */\n      0x04\n        /* \"#utility.yul\":7601:7616   */\n      mstore\n        /* \"#utility.yul\":7639:7643   */\n      0x24\n        /* \"#utility.yul\":7636:7637   */\n      0x00\n        /* \"#utility.yul\":7629:7644   */\n      revert\n        /* \"#utility.yul\":7514:7654   */\n    tag_403:\n      pop\n        /* \"#utility.yul\":7681:7682   */\n      0x01\n        /* \"#utility.yul\":7670:7683   */\n      add\n      swap1\n        /* \"#utility.yul\":7457:7689   */\n      jump\t// out\n        /* \"#utility.yul\":8047:8569   */\n    tag_211:\n        /* \"#utility.yul\":8125:8129   */\n      0x00\n        /* \"#utility.yul\":8131:8137   */\n      dup1\n        /* \"#utility.yul\":8191:8202   */\n      dup4\n        /* \"#utility.yul\":8178:8203   */\n      calldataload\n        /* \"#utility.yul\":8285:8287   */\n      0x1e\n        /* \"#utility.yul\":8281:8288   */\n      not\n        /* \"#utility.yul\":8270:8278   */\n      dup5\n        /* \"#utility.yul\":8254:8268   */\n      calldatasize\n        /* \"#utility.yul\":8250:8279   */\n      sub\n        /* \"#utility.yul\":8246:8289   */\n      add\n        /* \"#utility.yul\":8226:8244   */\n      dup2\n        /* \"#utility.yul\":8222:8290   */\n      slt\n        /* \"#utility.yul\":8212:8308   */\n      tag_406\n      jumpi\n        /* \"#utility.yul\":8304:8305   */\n      0x00\n        /* \"#utility.yul\":8301:8302   */\n      dup1\n        /* \"#utility.yul\":8294:8306   */\n      revert\n        /* \"#utility.yul\":8212:8308   */\n    tag_406:\n        /* \"#utility.yul\":8331:8364   */\n      dup4\n      add\n        /* \"#utility.yul\":8383:8403   */\n      dup1\n      calldataload\n      swap2\n      pop\n        /* \"#utility.yul\":8426:8444   */\n      0xffffffffffffffff\n        /* \"#utility.yul\":8415:8445   */\n      dup3\n      gt\n        /* \"#utility.yul\":8412:8462   */\n      iszero\n      tag_407\n      jumpi\n        /* \"#utility.yul\":8458:8459   */\n      0x00\n        /* \"#utility.yul\":8455:8456   */\n      dup1\n        /* \"#utility.yul\":8448:8460   */\n      revert\n        /* \"#utility.yul\":8412:8462   */\n    tag_407:\n        /* \"#utility.yul\":8491:8495   */\n      0x20\n        /* \"#utility.yul\":8479:8496   */\n      add\n      swap2\n      pop\n        /* \"#utility.yul\":8522:8536   */\n      calldatasize\n        /* \"#utility.yul\":8518:8545   */\n      dup2\n      swap1\n      sub\n        /* \"#utility.yul\":8508:8546   */\n      dup3\n      sgt\n        /* \"#utility.yul\":8505:8563   */\n      iszero\n      tag_408\n      jumpi\n        /* \"#utility.yul\":8559:8560   */\n      0x00\n        /* \"#utility.yul\":8556:8557   */\n      dup1\n        /* \"#utility.yul\":8549:8561   */\n      revert\n        /* \"#utility.yul\":8505:8563   */\n    tag_408:\n        /* \"#utility.yul\":8047:8569   */\n      swap3\n      pop\n      swap3\n      swap1\n      pop\n      jump\t// out\n        /* \"#utility.yul\":8700:9245   */\n    tag_345:\n        /* \"#utility.yul\":8802:8804   */\n      0x1f\n        /* \"#utility.yul\":8797:8800   */\n      dup3\n        /* \"#utility.yul\":8794:8805   */\n      gt\n        /* \"#utility.yul\":8791:9239   */\n      iszero\n      tag_411\n      jumpi\n        /* \"#utility.yul\":8838:8839   */\n      0x00\n        /* \"#utility.yul\":8863:8868   */\n      dup2\n        /* \"#utility.yul\":8859:8861   */\n      dup2\n        /* \"#utility.yul\":8852:8869   */\n      mstore\n        /* \"#utility.yul\":8908:8912   */\n      0x20\n        /* \"#utility.yul\":8904:8906   */\n      dup2\n        /* \"#utility.yul\":8894:8913   */\n      keccak256\n        /* \"#utility.yul\":8978:8980   */\n      0x1f\n        /* \"#utility.yul\":8966:8976   */\n      dup6\n        /* \"#utility.yul\":8962:8981   */\n      add\n        /* \"#utility.yul\":8959:8960   */\n      0x05\n        /* \"#utility.yul\":8955:8982   */\n      shr\n        /* \"#utility.yul\":8949:8953   */\n      dup2\n        /* \"#utility.yul\":8945:8983   */\n      add\n        /* \"#utility.yul\":9014:9018   */\n      0x20\n        /* \"#utility.yul\":9002:9012   */\n      dup7\n        /* \"#utility.yul\":8999:9019   */\n      lt\n        /* \"#utility.yul\":8996:9043   */\n      iszero\n      tag_412\n      jumpi\n      pop\n        /* \"#utility.yul\":9037:9041   */\n      dup1\n        /* \"#utility.yul\":8996:9043   */\n    tag_412:\n        /* \"#utility.yul\":9092:9094   */\n      0x1f\n        /* \"#utility.yul\":9087:9090   */\n      dup6\n        /* \"#utility.yul\":9083:9095   */\n      add\n        /* \"#utility.yul\":9080:9081   */\n      0x05\n        /* \"#utility.yul\":9076:9096   */\n      shr\n        /* \"#utility.yul\":9070:9074   */\n      dup3\n        /* \"#utility.yul\":9066:9097   */\n      add\n        /* \"#utility.yul\":9056:9097   */\n      swap2\n      pop\n        /* \"#utility.yul\":9147:9229   */\n    tag_413:\n        /* \"#utility.yul\":9165:9167   */\n      dup2\n        /* \"#utility.yul\":9158:9163   */\n      dup2\n        /* \"#utility.yul\":9155:9168   */\n      lt\n        /* \"#utility.yul\":9147:9229   */\n      iszero\n      tag_415\n      jumpi\n        /* \"#utility.yul\":9210:9227   */\n      dup3\n      dup2\n      sstore\n        /* \"#utility.yul\":9191:9192   */\n      0x01\n        /* \"#utility.yul\":9180:9193   */\n      add\n        /* \"#utility.yul\":9147:9229   */\n      jump(tag_413)\n    tag_415:\n        /* \"#utility.yul\":9151:9154   */\n      pop\n      pop\n      pop\n        /* \"#utility.yul\":8791:9239   */\n    tag_411:\n        /* \"#utility.yul\":8700:9245   */\n      pop\n      pop\n      pop\n      jump\t// out\n        /* \"#utility.yul\":9421:10773   */\n    tag_238:\n        /* \"#utility.yul\":9547:9550   */\n      dup2\n        /* \"#utility.yul\":9541:9551   */\n      mload\n        /* \"#utility.yul\":9574:9592   */\n      0xffffffffffffffff\n        /* \"#utility.yul\":9566:9572   */\n      dup2\n        /* \"#utility.yul\":9563:9593   */\n      gt\n        /* \"#utility.yul\":9560:9616   */\n      iszero\n      tag_419\n      jumpi\n        /* \"#utility.yul\":9596:9614   */\n      tag_419\n      tag_341\n      jump\t// in\n    tag_419:\n        /* \"#utility.yul\":9625:9722   */\n      tag_420\n        /* \"#utility.yul\":9715:9721   */\n      dup2\n        /* \"#utility.yul\":9675:9713   */\n      tag_421\n        /* \"#utility.yul\":9707:9711   */\n      dup5\n        /* \"#utility.yul\":9701:9712   */\n      sload\n        /* \"#utility.yul\":9675:9713   */\n      tag_43\n      jump\t// in\n    tag_421:\n        /* \"#utility.yul\":9669:9673   */\n      dup5\n        /* \"#utility.yul\":9625:9722   */\n      tag_345\n      jump\t// in\n    tag_420:\n        /* \"#utility.yul\":9777:9781   */\n      0x20\n      dup1\n        /* \"#utility.yul\":9841:9843   */\n      0x1f\n        /* \"#utility.yul\":9830:9844   */\n      dup4\n      gt\n        /* \"#utility.yul\":9858:9859   */\n      0x01\n        /* \"#utility.yul\":9853:10516   */\n      dup2\n      eq\n      tag_423\n      jumpi\n        /* \"#utility.yul\":10560:10561   */\n      0x00\n        /* \"#utility.yul\":10577:10583   */\n      dup5\n        /* \"#utility.yul\":10574:10663   */\n      iszero\n      tag_424\n      jumpi\n      pop\n        /* \"#utility.yul\":10629:10648   */\n      dup6\n      dup4\n      add\n        /* \"#utility.yul\":10623:10649   */\n      mload\n        /* \"#utility.yul\":10574:10663   */\n    tag_424:\n      not(0x00)\n        /* \"#utility.yul\":9378:9379   */\n      0x03\n        /* \"#utility.yul\":9374:9385   */\n      dup7\n      swap1\n      shl\n        /* \"#utility.yul\":9370:9394   */\n      shr\n        /* \"#utility.yul\":9366:9395   */\n      not\n        /* \"#utility.yul\":9356:9396   */\n      and\n        /* \"#utility.yul\":9402:9403   */\n      0x01\n        /* \"#utility.yul\":9398:9409   */\n      dup6\n      swap1\n      shl\n        /* \"#utility.yul\":9353:9410   */\n      or\n        /* \"#utility.yul\":10676:10757   */\n      dup6\n      sstore\n        /* \"#utility.yul\":9823:10767   */\n      jump(tag_415)\n        /* \"#utility.yul\":9853:10516   */\n    tag_423:\n        /* \"#utility.yul\":8647:8648   */\n      0x00\n        /* \"#utility.yul\":8640:8654   */\n      dup6\n      dup2\n      mstore\n        /* \"#utility.yul\":8684:8688   */\n      0x20\n        /* \"#utility.yul\":8671:8689   */\n      dup2\n      keccak256\n      not(0x1f)\n        /* \"#utility.yul\":9889:9909   */\n      dup7\n      and\n      swap2\n        /* \"#utility.yul\":10007:10243   */\n    tag_427:\n        /* \"#utility.yul\":10021:10028   */\n      dup3\n        /* \"#utility.yul\":10018:10019   */\n      dup2\n        /* \"#utility.yul\":10015:10029   */\n      lt\n        /* \"#utility.yul\":10007:10243   */\n      iszero\n      tag_429\n      jumpi\n        /* \"#utility.yul\":10110:10129   */\n      dup9\n      dup7\n      add\n        /* \"#utility.yul\":10104:10130   */\n      mload\n        /* \"#utility.yul\":10089:10131   */\n      dup3\n      sstore\n        /* \"#utility.yul\":10202:10229   */\n      swap5\n      dup5\n      add\n      swap5\n        /* \"#utility.yul\":10170:10171   */\n      0x01\n        /* \"#utility.yul\":10158:10172   */\n      swap1\n      swap2\n      add\n      swap1\n        /* \"#utility.yul\":10037:10056   */\n      dup5\n      add\n        /* \"#utility.yul\":10007:10243   */\n      jump(tag_427)\n    tag_429:\n        /* \"#utility.yul\":10011:10014   */\n      pop\n        /* \"#utility.yul\":10271:10277   */\n      dup6\n        /* \"#utility.yul\":10262:10269   */\n      dup3\n        /* \"#utility.yul\":10259:10278   */\n      lt\n        /* \"#utility.yul\":10256:10457   */\n      iszero\n      tag_430\n      jumpi\n        /* \"#utility.yul\":10332:10351   */\n      dup8\n      dup6\n      add\n        /* \"#utility.yul\":10326:10352   */\n      mload\n      not(0x00)\n        /* \"#utility.yul\":10415:10416   */\n      0x03\n        /* \"#utility.yul\":10411:10425   */\n      dup9\n      swap1\n      shl\n        /* \"#utility.yul\":10427:10430   */\n      0xf8\n        /* \"#utility.yul\":10407:10431   */\n      and\n        /* \"#utility.yul\":10403:10440   */\n      shr\n        /* \"#utility.yul\":10399:10441   */\n      not\n        /* \"#utility.yul\":10384:10442   */\n      and\n        /* \"#utility.yul\":10369:10443   */\n      dup2\n      sstore\n        /* \"#utility.yul\":10256:10457   */\n    tag_430:\n      pop\n      pop\n      pop\n      pop\n      pop\n        /* \"#utility.yul\":10503:10504   */\n      0x01\n        /* \"#utility.yul\":10487:10501   */\n      swap1\n      dup2\n      shl\n        /* \"#utility.yul\":10483:10505   */\n      add\n        /* \"#utility.yul\":10470:10506   */\n      swap1\n      sstore\n      pop\n        /* \"#utility.yul\":9421:10773   */\n      jump\t// out\n        /* \"#utility.yul\":10778:11161   */\n    tag_291:\n        /* \"#utility.yul\":10975:10977   */\n      0x40\n        /* \"#utility.yul\":10964:10973   */\n      dup2\n        /* \"#utility.yul\":10957:10978   */\n      mstore\n        /* \"#utility.yul\":10938:10942   */\n      0x00\n        /* \"#utility.yul\":11001:11046   */\n      tag_432\n        /* \"#utility.yul\":11042:11044   */\n      0x40\n        /* \"#utility.yul\":11031:11040   */\n      dup4\n        /* \"#utility.yul\":11027:11045   */\n      add\n        /* \"#utility.yul\":11019:11025   */\n      dup6\n        /* \"#utility.yul\":11001:11046   */\n      tag_343\n      jump\t// in\n    tag_432:\n        /* \"#utility.yul\":11094:11103   */\n      dup3\n        /* \"#utility.yul\":11086:11092   */\n      dup2\n        /* \"#utility.yul\":11082:11104   */\n      sub\n        /* \"#utility.yul\":11077:11079   */\n      0x20\n        /* \"#utility.yul\":11066:11075   */\n      dup5\n        /* \"#utility.yul\":11062:11080   */\n      add\n        /* \"#utility.yul\":11055:11105   */\n      mstore\n        /* \"#utility.yul\":11122:11155   */\n      tag_433\n        /* \"#utility.yul\":11148:11154   */\n      dup2\n        /* \"#utility.yul\":11140:11146   */\n      dup6\n        /* \"#utility.yul\":11122:11155   */\n      tag_343\n      jump\t// in\n    tag_433:\n        /* \"#utility.yul\":11114:11155   */\n      swap6\n        /* \"#utility.yul\":10778:11161   */\n      swap5\n      pop\n      pop\n      pop\n      pop\n      pop\n      jump\t// out\n\n    auxdata: 0xa2646970667358221220bab0ec93467f0c035f19c0a58dbd8aad7f89a62df60eb87ee2589ecddd0c1d4264736f6c63430008120033\n}\n",
				"bytecode": {
					"linkReferences": {},
					"object": "608060405234801561001057600080fd5b50600080546001810182559080527f290decd9548b62a8d60345a988386fc84ba6bc95484008f6362f93160ef3e5630180546001600160a01b031916331790556125be8061005f6000396000f3fe608060405234801561001057600080fd5b50600436106100625760003560e01c8063400ecc631461006757806349f2e57514610090578063a6ad3ed8146100b8578063cf12e870146100cb578063d2024221146100e0578063fb40c22a146100f3575b600080fd5b61007a610075366004611fda565b6100fb565b60405161008791906120db565b60405180910390f35b6100a361009e366004612220565b61069b565b60405161008799989796959493929190612239565b61007a6100c6366004611fda565b610bc1565b6100de6100d93660046122fe565b611156565b005b6100de6100ee36600461232e565b6111d8565b61007a611a42565b606060048260405161010d919061236a565b9081526020016040518091039020805480602002602001604051908101604052809291908181526020016000905b8282101561069057838290600052602060002090600902016040518061012001604052908160008201805461016f90612386565b80601f016020809104026020016040519081016040528092919081815260200182805461019b90612386565b80156101e85780601f106101bd576101008083540402835291602001916101e8565b820191906000526020600020905b8154815290600101906020018083116101cb57829003601f168201915b5050505050815260200160018201805461020190612386565b80601f016020809104026020016040519081016040528092919081815260200182805461022d90612386565b801561027a5780601f1061024f5761010080835404028352916020019161027a565b820191906000526020600020905b81548152906001019060200180831161025d57829003601f168201915b5050505050815260200160028201805461029390612386565b80601f01602080910402602001604051908101604052809291908181526020018280546102bf90612386565b801561030c5780601f106102e15761010080835404028352916020019161030c565b820191906000526020600020905b8154815290600101906020018083116102ef57829003601f168201915b5050505050815260200160038201805461032590612386565b80601f016020809104026020016040519081016040528092919081815260200182805461035190612386565b801561039e5780601f106103735761010080835404028352916020019161039e565b820191906000526020600020905b81548152906001019060200180831161038157829003601f168201915b505050505081526020016004820180546103b790612386565b80601f01602080910402602001604051908101604052809291908181526020018280546103e390612386565b80156104305780601f1061040557610100808354040283529160200191610430565b820191906000526020600020905b81548152906001019060200180831161041357829003601f168201915b5050505050815260200160058201805461044990612386565b80601f016020809104026020016040519081016040528092919081815260200182805461047590612386565b80156104c25780601f10610497576101008083540402835291602001916104c2565b820191906000526020600020905b8154815290600101906020018083116104a557829003601f168201915b505050505081526020016006820180546104db90612386565b80601f016020809104026020016040519081016040528092919081815260200182805461050790612386565b80156105545780601f1061052957610100808354040283529160200191610554565b820191906000526020600020905b81548152906001019060200180831161053757829003601f168201915b5050505050815260200160078201805461056d90612386565b80601f016020809104026020016040519081016040528092919081815260200182805461059990612386565b80156105e65780601f106105bb576101008083540402835291602001916105e6565b820191906000526020600020905b8154815290600101906020018083116105c957829003601f168201915b505050505081526020016008820180546105ff90612386565b80601f016020809104026020016040519081016040528092919081815260200182805461062b90612386565b80156106785780601f1061064d57610100808354040283529160200191610678565b820191906000526020600020905b81548152906001019060200180831161065b57829003601f168201915b5050505050815250508152602001906001019061013b565b505050509050919050565b600181815481106106ab57600080fd5b90600052602060002090600902016000915090508060000180546106ce90612386565b80601f01602080910402602001604051908101604052809291908181526020018280546106fa90612386565b80156107475780601f1061071c57610100808354040283529160200191610747565b820191906000526020600020905b81548152906001019060200180831161072a57829003601f168201915b50505050509080600101805461075c90612386565b80601f016020809104026020016040519081016040528092919081815260200182805461078890612386565b80156107d55780601f106107aa576101008083540402835291602001916107d5565b820191906000526020600020905b8154815290600101906020018083116107b857829003601f168201915b5050505050908060020180546107ea90612386565b80601f016020809104026020016040519081016040528092919081815260200182805461081690612386565b80156108635780601f1061083857610100808354040283529160200191610863565b820191906000526020600020905b81548152906001019060200180831161084657829003601f168201915b50505050509080600301805461087890612386565b80601f01602080910402602001604051908101604052809291908181526020018280546108a490612386565b80156108f15780601f106108c6576101008083540402835291602001916108f1565b820191906000526020600020905b8154815290600101906020018083116108d457829003601f168201915b50505050509080600401805461090690612386565b80601f016020809104026020016040519081016040528092919081815260200182805461093290612386565b801561097f5780601f106109545761010080835404028352916020019161097f565b820191906000526020600020905b81548152906001019060200180831161096257829003601f168201915b50505050509080600501805461099490612386565b80601f01602080910402602001604051908101604052809291908181526020018280546109c090612386565b8015610a0d5780601f106109e257610100808354040283529160200191610a0d565b820191906000526020600020905b8154815290600101906020018083116109f057829003601f168201915b505050505090806006018054610a2290612386565b80601f0160208091040260200160405190810160405280929190818152602001828054610a4e90612386565b8015610a9b5780601f10610a7057610100808354040283529160200191610a9b565b820191906000526020600020905b815481529060010190602001808311610a7e57829003601f168201915b505050505090806007018054610ab090612386565b80601f0160208091040260200160405190810160405280929190818152602001828054610adc90612386565b8015610b295780601f10610afe57610100808354040283529160200191610b29565b820191906000526020600020905b815481529060010190602001808311610b0c57829003601f168201915b505050505090806008018054610b3e90612386565b80601f0160208091040260200160405190810160405280929190818152602001828054610b6a90612386565b8015610bb75780601f10610b8c57610100808354040283529160200191610bb7565b820191906000526020600020905b815481529060010190602001808311610b9a57829003601f168201915b5050505050905089565b6060600382604051610bd3919061236a565b9081526020016040518091039020805480602002602001604051908101604052809291908181526020016000905b82821015610690578382906000526020600020906009020160405180610120016040529081600082018054610c3590612386565b80601f0160208091040260200160405190810160405280929190818152602001828054610c6190612386565b8015610cae5780601f10610c8357610100808354040283529160200191610cae565b820191906000526020600020905b815481529060010190602001808311610c9157829003601f168201915b50505050508152602001600182018054610cc790612386565b80601f0160208091040260200160405190810160405280929190818152602001828054610cf390612386565b8015610d405780601f10610d1557610100808354040283529160200191610d40565b820191906000526020600020905b815481529060010190602001808311610d2357829003601f168201915b50505050508152602001600282018054610d5990612386565b80601f0160208091040260200160405190810160405280929190818152602001828054610d8590612386565b8015610dd25780601f10610da757610100808354040283529160200191610dd2565b820191906000526020600020905b815481529060010190602001808311610db557829003601f168201915b50505050508152602001600382018054610deb90612386565b80601f0160208091040260200160405190810160405280929190818152602001828054610e1790612386565b8015610e645780601f10610e3957610100808354040283529160200191610e64565b820191906000526020600020905b815481529060010190602001808311610e4757829003601f168201915b50505050508152602001600482018054610e7d90612386565b80601f0160208091040260200160405190810160405280929190818152602001828054610ea990612386565b8015610ef65780601f10610ecb57610100808354040283529160200191610ef6565b820191906000526020600020905b815481529060010190602001808311610ed957829003601f168201915b50505050508152602001600582018054610f0f90612386565b80601f0160208091040260200160405190810160405280929190818152602001828054610f3b90612386565b8015610f885780601f10610f5d57610100808354040283529160200191610f88565b820191906000526020600020905b815481529060010190602001808311610f6b57829003601f168201915b50505050508152602001600682018054610fa190612386565b80601f0160208091040260200160405190810160405280929190818152602001828054610fcd90612386565b801561101a5780601f10610fef5761010080835404028352916020019161101a565b820191906000526020600020905b815481529060010190602001808311610ffd57829003601f168201915b5050505050815260200160078201805461103390612386565b80601f016020809104026020016040519081016040528092919081815260200182805461105f90612386565b80156110ac5780601f10611081576101008083540402835291602001916110ac565b820191906000526020600020905b81548152906001019060200180831161108f57829003601f168201915b505050505081526020016008820180546110c590612386565b80601f01602080910402602001604051908101604052809291908181526020018280546110f190612386565b801561113e5780601f106111135761010080835404028352916020019161113e565b820191906000526020600020905b81548152906001019060200180831161112157829003601f168201915b50505050508152505081526020019060010190610c01565b60008081548110611169576111696123c0565b6000918252602090912001546001600160a01b0316331461118957600080fd5b600080546001810182559080527f290decd9548b62a8d60345a988386fc84ba6bc95484008f6362f93160ef3e5630180546001600160a01b0319166001600160a01b0392909216919091179055565b336000805b60005481101561123957826001600160a01b031660008281548110611204576112046123c0565b6000918252602090912001546001600160a01b0316036112275760019150611239565b80611231816123d6565b9150506111dd565b508061128b5760405162461bcd60e51b815260206004820152601860248201527f646f206e6f742068617665207772697465206163636573730000000000000000604482015260640160405180910390fd5b6112da6040518061012001604052806060815260200160608152602001606081526020016060815260200160608152602001606081526020016060815260200160608152602001606081525090565b6112e484806123fd565b8080601f01602080910402602001604051908101604052809392919081815260200183838082843760009201919091525050509082525061132860208501856123fd565b8080601f016020809104026020016040519081016040528093929190818152602001838380828437600092019190915250505050602082015261136e60408501856123fd565b8080601f01602080910402602001604051908101604052809392919081815260200183838082843760009201919091525050505060408201526113b460608501856123fd565b8080601f01602080910402602001604051908101604052809392919081815260200183838082843760009201919091525050505060608201526113fa60808501856123fd565b8080601f016020809104026020016040519081016040528093929190818152602001838380828437600092019190915250505050608082015261144060a08501856123fd565b8080601f01602080910402602001604051908101604052809392919081815260200183838082843760009201919091525050505060a082015261148660c08501856123fd565b8080601f01602080910402602001604051908101604052809392919081815260200183838082843760009201919091525050505060c08201526114cc60e08501856123fd565b8080601f01602080910402602001604051908101604052809392919081815260200183838082843760009201919091525050505060e08201526115136101008501856123fd565b8080601f01602080910402602001604051908101604052809392919081815260200183838082843760009201829052506101008601949094525050600180548082018255925250815182916009027fb10e2d527612073b26eecdfd717e6a320cf44b4afac2b0732d9fcbe2b7fa0cf601908190611590908261249a565b50602082015160018201906115a5908261249a565b50604082015160028201906115ba908261249a565b50606082015160038201906115cf908261249a565b50608082015160048201906115e4908261249a565b5060a082015160058201906115f9908261249a565b5060c0820151600682019061160e908261249a565b5060e08201516007820190611623908261249a565b506101008201516008820190611639908261249a565b5050815160405183925060029161164f9161236a565b9081526040519081900360200190208151819061166c908261249a565b5060208201516001820190611681908261249a565b5060408201516002820190611696908261249a565b50606082015160038201906116ab908261249a565b50608082015160048201906116c0908261249a565b5060a082015160058201906116d5908261249a565b5060c082015160068201906116ea908261249a565b5060e082015160078201906116ff908261249a565b506101008201516008820190611715908261249a565b509050506003816040015160405161172d919061236a565b908152604051602091819003820190208054600181018255600091825291902082518392600902909101908190611764908261249a565b5060208201516001820190611779908261249a565b506040820151600282019061178e908261249a565b50606082015160038201906117a3908261249a565b50608082015160048201906117b8908261249a565b5060a082015160058201906117cd908261249a565b5060c082015160068201906117e2908261249a565b5060e082015160078201906117f7908261249a565b50610100820151600882019061180d908261249a565b50505060048160600151604051611824919061236a565b90815260405160209181900382019020805460018101825560009182529190208251839260090290910190819061185b908261249a565b5060208201516001820190611870908261249a565b5060408201516002820190611885908261249a565b506060820151600382019061189a908261249a565b50608082015160048201906118af908261249a565b5060a082015160058201906118c4908261249a565b5060c082015160068201906118d9908261249a565b5060e082015160078201906118ee908261249a565b506101008201516008820190611904908261249a565b5050506004816080015160405161191b919061236a565b908152604051602091819003820190208054600181018255600091825291902082518392600902909101908190611952908261249a565b5060208201516001820190611967908261249a565b506040820151600282019061197c908261249a565b5060608201516003820190611991908261249a565b50608082015160048201906119a6908261249a565b5060a082015160058201906119bb908261249a565b5060c082015160068201906119d0908261249a565b5060e082015160078201906119e5908261249a565b5061010082015160088201906119fb908261249a565b505050604080820151825191517fcda7af4159d261959d3e36ac0298a7e541296a6e437a8cbfcbf429720e1d427c92611a34929161255a565b60405180910390a150505050565b60606001805480602002602001604051908101604052809291908181526020016000905b82821015611fbb578382906000526020600020906009020160405180610120016040529081600082018054611a9a90612386565b80601f0160208091040260200160405190810160405280929190818152602001828054611ac690612386565b8015611b135780601f10611ae857610100808354040283529160200191611b13565b820191906000526020600020905b815481529060010190602001808311611af657829003601f168201915b50505050508152602001600182018054611b2c90612386565b80601f0160208091040260200160405190810160405280929190818152602001828054611b5890612386565b8015611ba55780601f10611b7a57610100808354040283529160200191611ba5565b820191906000526020600020905b815481529060010190602001808311611b8857829003601f168201915b50505050508152602001600282018054611bbe90612386565b80601f0160208091040260200160405190810160405280929190818152602001828054611bea90612386565b8015611c375780601f10611c0c57610100808354040283529160200191611c37565b820191906000526020600020905b815481529060010190602001808311611c1a57829003601f168201915b50505050508152602001600382018054611c5090612386565b80601f0160208091040260200160405190810160405280929190818152602001828054611c7c90612386565b8015611cc95780601f10611c9e57610100808354040283529160200191611cc9565b820191906000526020600020905b815481529060010190602001808311611cac57829003601f168201915b50505050508152602001600482018054611ce290612386565b80601f0160208091040260200160405190810160405280929190818152602001828054611d0e90612386565b8015611d5b5780601f10611d3057610100808354040283529160200191611d5b565b820191906000526020600020905b815481529060010190602001808311611d3e57829003601f168201915b50505050508152602001600582018054611d7490612386565b80601f0160208091040260200160405190810160405280929190818152602001828054611da090612386565b8015611ded5780601f10611dc257610100808354040283529160200191611ded565b820191906000526020600020905b815481529060010190602001808311611dd057829003601f168201915b50505050508152602001600682018054611e0690612386565b80601f0160208091040260200160405190810160405280929190818152602001828054611e3290612386565b8015611e7f5780601f10611e5457610100808354040283529160200191611e7f565b820191906000526020600020905b815481529060010190602001808311611e6257829003601f168201915b50505050508152602001600782018054611e9890612386565b80601f0160208091040260200160405190810160405280929190818152602001828054611ec490612386565b8015611f115780601f10611ee657610100808354040283529160200191611f11565b820191906000526020600020905b815481529060010190602001808311611ef457829003601f168201915b50505050508152602001600882018054611f2a90612386565b80601f0160208091040260200160405190810160405280929190818152602001828054611f5690612386565b8015611fa35780601f10611f7857610100808354040283529160200191611fa3565b820191906000526020600020905b815481529060010190602001808311611f8657829003601f168201915b50505050508152505081526020019060010190611a66565b50505050905090565b634e487b7160e01b600052604160045260246000fd5b600060208284031215611fec57600080fd5b813567ffffffffffffffff8082111561200457600080fd5b818401915084601f83011261201857600080fd5b81358181111561202a5761202a611fc4565b604051601f8201601f19908116603f0116810190838211818310171561205257612052611fc4565b8160405282815287602084870101111561206b57600080fd5b826020860160208301376000928101602001929092525095945050505050565b60005b838110156120a657818101518382015260200161208e565b50506000910152565b600081518084526120c781602086016020860161208b565b601f01601f19169290920160200192915050565b60006020808301818452808551808352604092508286019150828160051b87010184880160005b8381101561221257603f1989840301855281516101208151818652612129828701826120af565b915050888201518582038a87015261214182826120af565b915050878201518582038987015261215982826120af565b9150506060808301518683038288015261217383826120af565b925050506080808301518683038288015261218e83826120af565b9250505060a080830151868303828801526121a983826120af565b9250505060c080830151868303828801526121c483826120af565b9250505060e080830151868303828801526121df83826120af565b9250505061010080830151925085820381870152506121fe81836120af565b968901969450505090860190600101612102565b509098975050505050505050565b60006020828403121561223257600080fd5b5035919050565b600061012080835261224d8184018d6120af565b90508281036020840152612261818c6120af565b90508281036040840152612275818b6120af565b90508281036060840152612289818a6120af565b9050828103608084015261229d81896120af565b905082810360a08401526122b181886120af565b905082810360c08401526122c581876120af565b905082810360e08401526122d981866120af565b90508281036101008401526122ee81856120af565b9c9b505050505050505050505050565b60006020828403121561231057600080fd5b81356001600160a01b038116811461232757600080fd5b9392505050565b60006020828403121561234057600080fd5b813567ffffffffffffffff81111561235757600080fd5b8201610120810184101561232757600080fd5b6000825161237c81846020870161208b565b9190910192915050565b600181811c9082168061239a57607f821691505b6020821081036123ba57634e487b7160e01b600052602260045260246000fd5b50919050565b634e487b7160e01b600052603260045260246000fd5b6000600182016123f657634e487b7160e01b600052601160045260246000fd5b5060010190565b6000808335601e1984360301811261241457600080fd5b83018035915067ffffffffffffffff82111561242f57600080fd5b60200191503681900382131561244457600080fd5b9250929050565b601f82111561249557600081815260208120601f850160051c810160208610156124725750805b601f850160051c820191505b818110156124915782815560010161247e565b5050505b505050565b815167ffffffffffffffff8111156124b4576124b4611fc4565b6124c8816124c28454612386565b8461244b565b602080601f8311600181146124fd57600084156124e55750858301515b600019600386901b1c1916600185901b178555612491565b600085815260208120601f198616915b8281101561252c5788860151825594840194600190910190840161250d565b508582101561254a5787850151600019600388901b60f8161c191681555b5050505050600190811b01905550565b60408152600061256d60408301856120af565b828103602084015261257f81856120af565b9594505050505056fea2646970667358221220bab0ec93467f0c035f19c0a58dbd8aad7f89a62df60eb87ee2589ecddd0c1d4264736f6c63430008120033",
					"opcodes": "PUSH1 0x80 PUSH1 0x40 MSTORE CALLVALUE DUP1 ISZERO PUSH2 0x10 JUMPI PUSH1 0x0 DUP1 REVERT JUMPDEST POP PUSH1 0x0 DUP1 SLOAD PUSH1 0x1 DUP2 ADD DUP3 SSTORE SWAP1 DUP1 MSTORE PUSH32 0x290DECD9548B62A8D60345A988386FC84BA6BC95484008F6362F93160EF3E563 ADD DUP1 SLOAD PUSH1 0x1 PUSH1 0x1 PUSH1 0xA0 SHL SUB NOT AND CALLER OR SWAP1 SSTORE PUSH2 0x25BE DUP1 PUSH2 0x5F PUSH1 0x0 CODECOPY PUSH1 0x0 RETURN INVALID PUSH1 0x80 PUSH1 0x40 MSTORE CALLVALUE DUP1 ISZERO PUSH2 0x10 JUMPI PUSH1 0x0 DUP1 REVERT JUMPDEST POP PUSH1 0x4 CALLDATASIZE LT PUSH2 0x62 JUMPI PUSH1 0x0 CALLDATALOAD PUSH1 0xE0 SHR DUP1 PUSH4 0x400ECC63 EQ PUSH2 0x67 JUMPI DUP1 PUSH4 0x49F2E575 EQ PUSH2 0x90 JUMPI DUP1 PUSH4 0xA6AD3ED8 EQ PUSH2 0xB8 JUMPI DUP1 PUSH4 0xCF12E870 EQ PUSH2 0xCB JUMPI DUP1 PUSH4 0xD2024221 EQ PUSH2 0xE0 JUMPI DUP1 PUSH4 0xFB40C22A EQ PUSH2 0xF3 JUMPI JUMPDEST PUSH1 0x0 DUP1 REVERT JUMPDEST PUSH2 0x7A PUSH2 0x75 CALLDATASIZE PUSH1 0x4 PUSH2 0x1FDA JUMP JUMPDEST PUSH2 0xFB JUMP JUMPDEST PUSH1 0x40 MLOAD PUSH2 0x87 SWAP2 SWAP1 PUSH2 0x20DB JUMP JUMPDEST PUSH1 0x40 MLOAD DUP1 SWAP2 SUB SWAP1 RETURN JUMPDEST PUSH2 0xA3 PUSH2 0x9E CALLDATASIZE PUSH1 0x4 PUSH2 0x2220 JUMP JUMPDEST PUSH2 0x69B JUMP JUMPDEST PUSH1 0x40 MLOAD PUSH2 0x87 SWAP10 SWAP9 SWAP8 SWAP7 SWAP6 SWAP5 SWAP4 SWAP3 SWAP2 SWAP1 PUSH2 0x2239 JUMP JUMPDEST PUSH2 0x7A PUSH2 0xC6 CALLDATASIZE PUSH1 0x4 PUSH2 0x1FDA JUMP JUMPDEST PUSH2 0xBC1 JUMP JUMPDEST PUSH2 0xDE PUSH2 0xD9 CALLDATASIZE PUSH1 0x4 PUSH2 0x22FE JUMP JUMPDEST PUSH2 0x1156 JUMP JUMPDEST STOP JUMPDEST PUSH2 0xDE PUSH2 0xEE CALLDATASIZE PUSH1 0x4 PUSH2 0x232E JUMP JUMPDEST PUSH2 0x11D8 JUMP JUMPDEST PUSH2 0x7A PUSH2 0x1A42 JUMP JUMPDEST PUSH1 0x60 PUSH1 0x4 DUP3 PUSH1 0x40 MLOAD PUSH2 0x10D SWAP2 SWAP1 PUSH2 0x236A JUMP JUMPDEST SWAP1 DUP2 MSTORE PUSH1 0x20 ADD PUSH1 0x40 MLOAD DUP1 SWAP2 SUB SWAP1 KECCAK256 DUP1 SLOAD DUP1 PUSH1 0x20 MUL PUSH1 0x20 ADD PUSH1 0x40 MLOAD SWAP1 DUP2 ADD PUSH1 0x40 MSTORE DUP1 SWAP3 SWAP2 SWAP1 DUP2 DUP2 MSTORE PUSH1 0x20 ADD PUSH1 0x0 SWAP1 JUMPDEST DUP3 DUP3 LT ISZERO PUSH2 0x690 JUMPI DUP4 DUP3 SWAP1 PUSH1 0x0 MSTORE PUSH1 0x20 PUSH1 0x0 KECCAK256 SWAP1 PUSH1 0x9 MUL ADD PUSH1 0x40 MLOAD DUP1 PUSH2 0x120 ADD PUSH1 0x40 MSTORE SWAP1 DUP2 PUSH1 0x0 DUP3 ADD DUP1 SLOAD PUSH2 0x16F SWAP1 PUSH2 0x2386 JUMP JUMPDEST DUP1 PUSH1 0x1F ADD PUSH1 0x20 DUP1 SWAP2 DIV MUL PUSH1 0x20 ADD PUSH1 0x40 MLOAD SWAP1 DUP2 ADD PUSH1 0x40 MSTORE DUP1 SWAP3 SWAP2 SWAP1 DUP2 DUP2 MSTORE PUSH1 0x20 ADD DUP3 DUP1 SLOAD PUSH2 0x19B SWAP1 PUSH2 0x2386 JUMP JUMPDEST DUP1 ISZERO PUSH2 0x1E8 JUMPI DUP1 PUSH1 0x1F LT PUSH2 0x1BD JUMPI PUSH2 0x100 DUP1 DUP4 SLOAD DIV MUL DUP4 MSTORE SWAP2 PUSH1 0x20 ADD SWAP2 PUSH2 0x1E8 JUMP JUMPDEST DUP3 ADD SWAP2 SWAP1 PUSH1 0x0 MSTORE PUSH1 0x20 PUSH1 0x0 KECCAK256 SWAP1 JUMPDEST DUP2 SLOAD DUP2 MSTORE SWAP1 PUSH1 0x1 ADD SWAP1 PUSH1 0x20 ADD DUP1 DUP4 GT PUSH2 0x1CB JUMPI DUP3 SWAP1 SUB PUSH1 0x1F AND DUP3 ADD SWAP2 JUMPDEST POP POP POP POP POP DUP2 MSTORE PUSH1 0x20 ADD PUSH1 0x1 DUP3 ADD DUP1 SLOAD PUSH2 0x201 SWAP1 PUSH2 0x2386 JUMP JUMPDEST DUP1 PUSH1 0x1F ADD PUSH1 0x20 DUP1 SWAP2 DIV MUL PUSH1 0x20 ADD PUSH1 0x40 MLOAD SWAP1 DUP2 ADD PUSH1 0x40 MSTORE DUP1 SWAP3 SWAP2 SWAP1 DUP2 DUP2 MSTORE PUSH1 0x20 ADD DUP3 DUP1 SLOAD PUSH2 0x22D SWAP1 PUSH2 0x2386 JUMP JUMPDEST DUP1 ISZERO PUSH2 0x27A JUMPI DUP1 PUSH1 0x1F LT PUSH2 0x24F JUMPI PUSH2 0x100 DUP1 DUP4 SLOAD DIV MUL DUP4 MSTORE SWAP2 PUSH1 0x20 ADD SWAP2 PUSH2 0x27A JUMP JUMPDEST DUP3 ADD SWAP2 SWAP1 PUSH1 0x0 MSTORE PUSH1 0x20 PUSH1 0x0 KECCAK256 SWAP1 JUMPDEST DUP2 SLOAD DUP2 MSTORE SWAP1 PUSH1 0x1 ADD SWAP1 PUSH1 0x20 ADD DUP1 DUP4 GT PUSH2 0x25D JUMPI DUP3 SWAP1 SUB PUSH1 0x1F AND DUP3 ADD SWAP2 JUMPDEST POP POP POP POP POP DUP2 MSTORE PUSH1 0x20 ADD PUSH1 0x2 DUP3 ADD DUP1 SLOAD PUSH2 0x293 SWAP1 PUSH2 0x2386 JUMP JUMPDEST DUP1 PUSH1 0x1F ADD PUSH1 0x20 DUP1 SWAP2 DIV MUL PUSH1 0x20 ADD PUSH1 0x40 MLOAD SWAP1 DUP2 ADD PUSH1 0x40 MSTORE DUP1 SWAP3 SWAP2 SWAP1 DUP2 DUP2 MSTORE PUSH1 0x20 ADD DUP3 DUP1 SLOAD PUSH2 0x2BF SWAP1 PUSH2 0x2386 JUMP JUMPDEST DUP1 ISZERO PUSH2 0x30C JUMPI DUP1 PUSH1 0x1F LT PUSH2 0x2E1 JUMPI PUSH2 0x100 DUP1 DUP4 SLOAD DIV MUL DUP4 MSTORE SWAP2 PUSH1 0x20 ADD SWAP2 PUSH2 0x30C JUMP JUMPDEST DUP3 ADD SWAP2 SWAP1 PUSH1 0x0 MSTORE PUSH1 0x20 PUSH1 0x0 KECCAK256 SWAP1 JUMPDEST DUP2 SLOAD DUP2 MSTORE SWAP1 PUSH1 0x1 ADD SWAP1 PUSH1 0x20 ADD DUP1 DUP4 GT PUSH2 0x2EF JUMPI DUP3 SWAP1 SUB PUSH1 0x1F AND DUP3 ADD SWAP2 JUMPDEST POP POP POP POP POP DUP2 MSTORE PUSH1 0x20 ADD PUSH1 0x3 DUP3 ADD DUP1 SLOAD PUSH2 0x325 SWAP1 PUSH2 0x2386 JUMP JUMPDEST DUP1 PUSH1 0x1F ADD PUSH1 0x20 DUP1 SWAP2 DIV MUL PUSH1 0x20 ADD PUSH1 0x40 MLOAD SWAP1 DUP2 ADD PUSH1 0x40 MSTORE DUP1 SWAP3 SWAP2 SWAP1 DUP2 DUP2 MSTORE PUSH1 0x20 ADD DUP3 DUP1 SLOAD PUSH2 0x351 SWAP1 PUSH2 0x2386 JUMP JUMPDEST DUP1 ISZERO PUSH2 0x39E JUMPI DUP1 PUSH1 0x1F LT PUSH2 0x373 JUMPI PUSH2 0x100 DUP1 DUP4 SLOAD DIV MUL DUP4 MSTORE SWAP2 PUSH1 0x20 ADD SWAP2 PUSH2 0x39E JUMP JUMPDEST DUP3 ADD SWAP2 SWAP1 PUSH1 0x0 MSTORE PUSH1 0x20 PUSH1 0x0 KECCAK256 SWAP1 JUMPDEST DUP2 SLOAD DUP2 MSTORE SWAP1 PUSH1 0x1 ADD SWAP1 PUSH1 0x20 ADD DUP1 DUP4 GT PUSH2 0x381 JUMPI DUP3 SWAP1 SUB PUSH1 0x1F AND DUP3 ADD SWAP2 JUMPDEST POP POP POP POP POP DUP2 MSTORE PUSH1 0x20 ADD PUSH1 0x4 DUP3 ADD DUP1 SLOAD PUSH2 0x3B7 SWAP1 PUSH2 0x2386 JUMP JUMPDEST DUP1 PUSH1 0x1F ADD PUSH1 0x20 DUP1 SWAP2 DIV MUL PUSH1 0x20 ADD PUSH1 0x40 MLOAD SWAP1 DUP2 ADD PUSH1 0x40 MSTORE DUP1 SWAP3 SWAP2 SWAP1 DUP2 DUP2 MSTORE PUSH1 0x20 ADD DUP3 DUP1 SLOAD PUSH2 0x3E3 SWAP1 PUSH2 0x2386 JUMP JUMPDEST DUP1 ISZERO PUSH2 0x430 JUMPI DUP1 PUSH1 0x1F LT PUSH2 0x405 JUMPI PUSH2 0x100 DUP1 DUP4 SLOAD DIV MUL DUP4 MSTORE SWAP2 PUSH1 0x20 ADD SWAP2 PUSH2 0x430 JUMP JUMPDEST DUP3 ADD SWAP2 SWAP1 PUSH1 0x0 MSTORE PUSH1 0x20 PUSH1 0x0 KECCAK256 SWAP1 JUMPDEST DUP2 SLOAD DUP2 MSTORE SWAP1 PUSH1 0x1 ADD SWAP1 PUSH1 0x20 ADD DUP1 DUP4 GT PUSH2 0x413 JUMPI DUP3 SWAP1 SUB PUSH1 0x1F AND DUP3 ADD SWAP2 JUMPDEST POP POP POP POP POP DUP2 MSTORE PUSH1 0x20 ADD PUSH1 0x5 DUP3 ADD DUP1 SLOAD PUSH2 0x449 SWAP1 PUSH2 0x2386 JUMP JUMPDEST DUP1 PUSH1 0x1F ADD PUSH1 0x20 DUP1 SWAP2 DIV MUL PUSH1 0x20 ADD PUSH1 0x40 MLOAD SWAP1 DUP2 ADD PUSH1 0x40 MSTORE DUP1 SWAP3 SWAP2 SWAP1 DUP2 DUP2 MSTORE PUSH1 0x20 ADD DUP3 DUP1 SLOAD PUSH2 0x475 SWAP1 PUSH2 0x2386 JUMP JUMPDEST DUP1 ISZERO PUSH2 0x4C2 JUMPI DUP1 PUSH1 0x1F LT PUSH2 0x497 JUMPI PUSH2 0x100 DUP1 DUP4 SLOAD DIV MUL DUP4 MSTORE SWAP2 PUSH1 0x20 ADD SWAP2 PUSH2 0x4C2 JUMP JUMPDEST DUP3 ADD SWAP2 SWAP1 PUSH1 0x0 MSTORE PUSH1 0x20 PUSH1 0x0 KECCAK256 SWAP1 JUMPDEST DUP2 SLOAD DUP2 MSTORE SWAP1 PUSH1 0x1 ADD SWAP1 PUSH1 0x20 ADD DUP1 DUP4 GT PUSH2 0x4A5 JUMPI DUP3 SWAP1 SUB PUSH1 0x1F AND DUP3 ADD SWAP2 JUMPDEST POP POP POP POP POP DUP2 MSTORE PUSH1 0x20 ADD PUSH1 0x6 DUP3 ADD DUP1 SLOAD PUSH2 0x4DB SWAP1 PUSH2 0x2386 JUMP JUMPDEST DUP1 PUSH1 0x1F ADD PUSH1 0x20 DUP1 SWAP2 DIV MUL PUSH1 0x20 ADD PUSH1 0x40 MLOAD SWAP1 DUP2 ADD PUSH1 0x40 MSTORE DUP1 SWAP3 SWAP2 SWAP1 DUP2 DUP2 MSTORE PUSH1 0x20 ADD DUP3 DUP1 SLOAD PUSH2 0x507 SWAP1 PUSH2 0x2386 JUMP JUMPDEST DUP1 ISZERO PUSH2 0x554 JUMPI DUP1 PUSH1 0x1F LT PUSH2 0x529 JUMPI PUSH2 0x100 DUP1 DUP4 SLOAD DIV MUL DUP4 MSTORE SWAP2 PUSH1 0x20 ADD SWAP2 PUSH2 0x554 JUMP JUMPDEST DUP3 ADD SWAP2 SWAP1 PUSH1 0x0 MSTORE PUSH1 0x20 PUSH1 0x0 KECCAK256 SWAP1 JUMPDEST DUP2 SLOAD DUP2 MSTORE SWAP1 PUSH1 0x1 ADD SWAP1 PUSH1 0x20 ADD DUP1 DUP4 GT PUSH2 0x537 JUMPI DUP3 SWAP1 SUB PUSH1 0x1F AND DUP3 ADD SWAP2 JUMPDEST POP POP POP POP POP DUP2 MSTORE PUSH1 0x20 ADD PUSH1 0x7 DUP3 ADD DUP1 SLOAD PUSH2 0x56D SWAP1 PUSH2 0x2386 JUMP JUMPDEST DUP1 PUSH1 0x1F ADD PUSH1 0x20 DUP1 SWAP2 DIV MUL PUSH1 0x20 ADD PUSH1 0x40 MLOAD SWAP1 DUP2 ADD PUSH1 0x40 MSTORE DUP1 SWAP3 SWAP2 SWAP1 DUP2 DUP2 MSTORE PUSH1 0x20 ADD DUP3 DUP1 SLOAD PUSH2 0x599 SWAP1 PUSH2 0x2386 JUMP JUMPDEST DUP1 ISZERO PUSH2 0x5E6 JUMPI DUP1 PUSH1 0x1F LT PUSH2 0x5BB JUMPI PUSH2 0x100 DUP1 DUP4 SLOAD DIV MUL DUP4 MSTORE SWAP2 PUSH1 0x20 ADD SWAP2 PUSH2 0x5E6 JUMP JUMPDEST DUP3 ADD SWAP2 SWAP1 PUSH1 0x0 MSTORE PUSH1 0x20 PUSH1 0x0 KECCAK256 SWAP1 JUMPDEST DUP2 SLOAD DUP2 MSTORE SWAP1 PUSH1 0x1 ADD SWAP1 PUSH1 0x20 ADD DUP1 DUP4 GT PUSH2 0x5C9 JUMPI DUP3 SWAP1 SUB PUSH1 0x1F AND DUP3 ADD SWAP2 JUMPDEST POP POP POP POP POP DUP2 MSTORE PUSH1 0x20 ADD PUSH1 0x8 DUP3 ADD DUP1 SLOAD PUSH2 0x5FF SWAP1 PUSH2 0x2386 JUMP JUMPDEST DUP1 PUSH1 0x1F ADD PUSH1 0x20 DUP1 SWAP2 DIV MUL PUSH1 0x20 ADD PUSH1 0x40 MLOAD SWAP1 DUP2 ADD PUSH1 0x40 MSTORE DUP1 SWAP3 SWAP2 SWAP1 DUP2 DUP2 MSTORE PUSH1 0x20 ADD DUP3 DUP1 SLOAD PUSH2 0x62B SWAP1 PUSH2 0x2386 JUMP JUMPDEST DUP1 ISZERO PUSH2 0x678 JUMPI DUP1 PUSH1 0x1F LT PUSH2 0x64D JUMPI PUSH2 0x100 DUP1 DUP4 SLOAD DIV MUL DUP4 MSTORE SWAP2 PUSH1 0x20 ADD SWAP2 PUSH2 0x678 JUMP JUMPDEST DUP3 ADD SWAP2 SWAP1 PUSH1 0x0 MSTORE PUSH1 0x20 PUSH1 0x0 KECCAK256 SWAP1 JUMPDEST DUP2 SLOAD DUP2 MSTORE SWAP1 PUSH1 0x1 ADD SWAP1 PUSH1 0x20 ADD DUP1 DUP4 GT PUSH2 0x65B JUMPI DUP3 SWAP1 SUB PUSH1 0x1F AND DUP3 ADD SWAP2 JUMPDEST POP POP POP POP POP DUP2 MSTORE POP POP DUP2 MSTORE PUSH1 0x20 ADD SWAP1 PUSH1 0x1 ADD SWAP1 PUSH2 0x13B JUMP JUMPDEST POP POP POP POP SWAP1 POP SWAP2 SWAP1 POP JUMP JUMPDEST PUSH1 0x1 DUP2 DUP2 SLOAD DUP2 LT PUSH2 0x6AB JUMPI PUSH1 0x0 DUP1 REVERT JUMPDEST SWAP1 PUSH1 0x0 MSTORE PUSH1 0x20 PUSH1 0x0 KECCAK256 SWAP1 PUSH1 0x9 MUL ADD PUSH1 0x0 SWAP2 POP SWAP1 POP DUP1 PUSH1 0x0 ADD DUP1 SLOAD PUSH2 0x6CE SWAP1 PUSH2 0x2386 JUMP JUMPDEST DUP1 PUSH1 0x1F ADD PUSH1 0x20 DUP1 SWAP2 DIV MUL PUSH1 0x20 ADD PUSH1 0x40 MLOAD SWAP1 DUP2 ADD PUSH1 0x40 MSTORE DUP1 SWAP3 SWAP2 SWAP1 DUP2 DUP2 MSTORE PUSH1 0x20 ADD DUP3 DUP1 SLOAD PUSH2 0x6FA SWAP1 PUSH2 0x2386 JUMP JUMPDEST DUP1 ISZERO PUSH2 0x747 JUMPI DUP1 PUSH1 0x1F LT PUSH2 0x71C JUMPI PUSH2 0x100 DUP1 DUP4 SLOAD DIV MUL DUP4 MSTORE SWAP2 PUSH1 0x20 ADD SWAP2 PUSH2 0x747 JUMP JUMPDEST DUP3 ADD SWAP2 SWAP1 PUSH1 0x0 MSTORE PUSH1 0x20 PUSH1 0x0 KECCAK256 SWAP1 JUMPDEST DUP2 SLOAD DUP2 MSTORE SWAP1 PUSH1 0x1 ADD SWAP1 PUSH1 0x20 ADD DUP1 DUP4 GT PUSH2 0x72A JUMPI DUP3 SWAP1 SUB PUSH1 0x1F AND DUP3 ADD SWAP2 JUMPDEST POP POP POP POP POP SWAP1 DUP1 PUSH1 0x1 ADD DUP1 SLOAD PUSH2 0x75C SWAP1 PUSH2 0x2386 JUMP JUMPDEST DUP1 PUSH1 0x1F ADD PUSH1 0x20 DUP1 SWAP2 DIV MUL PUSH1 0x20 ADD PUSH1 0x40 MLOAD SWAP1 DUP2 ADD PUSH1 0x40 MSTORE DUP1 SWAP3 SWAP2 SWAP1 DUP2 DUP2 MSTORE PUSH1 0x20 ADD DUP3 DUP1 SLOAD PUSH2 0x788 SWAP1 PUSH2 0x2386 JUMP JUMPDEST DUP1 ISZERO PUSH2 0x7D5 JUMPI DUP1 PUSH1 0x1F LT PUSH2 0x7AA JUMPI PUSH2 0x100 DUP1 DUP4 SLOAD DIV MUL DUP4 MSTORE SWAP2 PUSH1 0x20 ADD SWAP2 PUSH2 0x7D5 JUMP JUMPDEST DUP3 ADD SWAP2 SWAP1 PUSH1 0x0 MSTORE PUSH1 0x20 PUSH1 0x0 KECCAK256 SWAP1 JUMPDEST DUP2 SLOAD DUP2 MSTORE SWAP1 PUSH1 0x1 ADD SWAP1 PUSH1 0x20 ADD DUP1 DUP4 GT PUSH2 0x7B8 JUMPI DUP3 SWAP1 SUB PUSH1 0x1F AND DUP3 ADD SWAP2 JUMPDEST POP POP POP POP POP SWAP1 DUP1 PUSH1 0x2 ADD DUP1 SLOAD PUSH2 0x7EA SWAP1 PUSH2 0x2386 JUMP JUMPDEST DUP1 PUSH1 0x1F ADD PUSH1 0x20 DUP1 SWAP2 DIV MUL PUSH1 0x20 ADD PUSH1 0x40 MLOAD SWAP1 DUP2 ADD PUSH1 0x40 MSTORE DUP1 SWAP3 SWAP2 SWAP1 DUP2 DUP2 MSTORE PUSH1 0x20 ADD DUP3 DUP1 SLOAD PUSH2 0x816 SWAP1 PUSH2 0x2386 JUMP JUMPDEST DUP1 ISZERO PUSH2 0x863 JUMPI DUP1 PUSH1 0x1F LT PUSH2 0x838 JUMPI PUSH2 0x100 DUP1 DUP4 SLOAD DIV MUL DUP4 MSTORE SWAP2 PUSH1 0x20 ADD SWAP2 PUSH2 0x863 JUMP JUMPDEST DUP3 ADD SWAP2 SWAP1 PUSH1 0x0 MSTORE PUSH1 0x20 PUSH1 0x0 KECCAK256 SWAP1 JUMPDEST DUP2 SLOAD DUP2 MSTORE SWAP1 PUSH1 0x1 ADD SWAP1 PUSH1 0x20 ADD DUP1 DUP4 GT PUSH2 0x846 JUMPI DUP3 SWAP1 SUB PUSH1 0x1F AND DUP3 ADD SWAP2 JUMPDEST POP POP POP POP POP SWAP1 DUP1 PUSH1 0x3 ADD DUP1 SLOAD PUSH2 0x878 SWAP1 PUSH2 0x2386 JUMP JUMPDEST DUP1 PUSH1 0x1F ADD PUSH1 0x20 DUP1 SWAP2 DIV MUL PUSH1 0x20 ADD PUSH1 0x40 MLOAD SWAP1 DUP2 ADD PUSH1 0x40 MSTORE DUP1 SWAP3 SWAP2 SWAP1 DUP2 DUP2 MSTORE PUSH1 0x20 ADD DUP3 DUP1 SLOAD PUSH2 0x8A4 SWAP1 PUSH2 0x2386 JUMP JUMPDEST DUP1 ISZERO PUSH2 0x8F1 JUMPI DUP1 PUSH1 0x1F LT PUSH2 0x8C6 JUMPI PUSH2 0x100 DUP1 DUP4 SLOAD DIV MUL DUP4 MSTORE SWAP2 PUSH1 0x20 ADD SWAP2 PUSH2 0x8F1 JUMP JUMPDEST DUP3 ADD SWAP2 SWAP1 PUSH1 0x0 MSTORE PUSH1 0x20 PUSH1 0x0 KECCAK256 SWAP1 JUMPDEST DUP2 SLOAD DUP2 MSTORE SWAP1 PUSH1 0x1 ADD SWAP1 PUSH1 0x20 ADD DUP1 DUP4 GT PUSH2 0x8D4 JUMPI DUP3 SWAP1 SUB PUSH1 0x1F AND DUP3 ADD SWAP2 JUMPDEST POP POP POP POP POP SWAP1 DUP1 PUSH1 0x4 ADD DUP1 SLOAD PUSH2 0x906 SWAP1 PUSH2 0x2386 JUMP JUMPDEST DUP1 PUSH1 0x1F ADD PUSH1 0x20 DUP1 SWAP2 DIV MUL PUSH1 0x20 ADD PUSH1 0x40 MLOAD SWAP1 DUP2 ADD PUSH1 0x40 MSTORE DUP1 SWAP3 SWAP2 SWAP1 DUP2 DUP2 MSTORE PUSH1 0x20 ADD DUP3 DUP1 SLOAD PUSH2 0x932 SWAP1 PUSH2 0x2386 JUMP JUMPDEST DUP1 ISZERO PUSH2 0x97F JUMPI DUP1 PUSH1 0x1F LT PUSH2 0x954 JUMPI PUSH2 0x100 DUP1 DUP4 SLOAD DIV MUL DUP4 MSTORE SWAP2 PUSH1 0x20 ADD SWAP2 PUSH2 0x97F JUMP JUMPDEST DUP3 ADD SWAP2 SWAP1 PUSH1 0x0 MSTORE PUSH1 0x20 PUSH1 0x0 KECCAK256 SWAP1 JUMPDEST DUP2 SLOAD DUP2 MSTORE SWAP1 PUSH1 0x1 ADD SWAP1 PUSH1 0x20 ADD DUP1 DUP4 GT PUSH2 0x962 JUMPI DUP3 SWAP1 SUB PUSH1 0x1F AND DUP3 ADD SWAP2 JUMPDEST POP POP POP POP POP SWAP1 DUP1 PUSH1 0x5 ADD DUP1 SLOAD PUSH2 0x994 SWAP1 PUSH2 0x2386 JUMP JUMPDEST DUP1 PUSH1 0x1F ADD PUSH1 0x20 DUP1 SWAP2 DIV MUL PUSH1 0x20 ADD PUSH1 0x40 MLOAD SWAP1 DUP2 ADD PUSH1 0x40 MSTORE DUP1 SWAP3 SWAP2 SWAP1 DUP2 DUP2 MSTORE PUSH1 0x20 ADD DUP3 DUP1 SLOAD PUSH2 0x9C0 SWAP1 PUSH2 0x2386 JUMP JUMPDEST DUP1 ISZERO PUSH2 0xA0D JUMPI DUP1 PUSH1 0x1F LT PUSH2 0x9E2 JUMPI PUSH2 0x100 DUP1 DUP4 SLOAD DIV MUL DUP4 MSTORE SWAP2 PUSH1 0x20 ADD SWAP2 PUSH2 0xA0D JUMP JUMPDEST DUP3 ADD SWAP2 SWAP1 PUSH1 0x0 MSTORE PUSH1 0x20 PUSH1 0x0 KECCAK256 SWAP1 JUMPDEST DUP2 SLOAD DUP2 MSTORE SWAP1 PUSH1 0x1 ADD SWAP1 PUSH1 0x20 ADD DUP1 DUP4 GT PUSH2 0x9F0 JUMPI DUP3 SWAP1 SUB PUSH1 0x1F AND DUP3 ADD SWAP2 JUMPDEST POP POP POP POP POP SWAP1 DUP1 PUSH1 0x6 ADD DUP1 SLOAD PUSH2 0xA22 SWAP1 PUSH2 0x2386 JUMP JUMPDEST DUP1 PUSH1 0x1F ADD PUSH1 0x20 DUP1 SWAP2 DIV MUL PUSH1 0x20 ADD PUSH1 0x40 MLOAD SWAP1 DUP2 ADD PUSH1 0x40 MSTORE DUP1 SWAP3 SWAP2 SWAP1 DUP2 DUP2 MSTORE PUSH1 0x20 ADD DUP3 DUP1 SLOAD PUSH2 0xA4E SWAP1 PUSH2 0x2386 JUMP JUMPDEST DUP1 ISZERO PUSH2 0xA9B JUMPI DUP1 PUSH1 0x1F LT PUSH2 0xA70 JUMPI PUSH2 0x100 DUP1 DUP4 SLOAD DIV MUL DUP4 MSTORE SWAP2 PUSH1 0x20 ADD SWAP2 PUSH2 0xA9B JUMP JUMPDEST DUP3 ADD SWAP2 SWAP1 PUSH1 0x0 MSTORE PUSH1 0x20 PUSH1 0x0 KECCAK256 SWAP1 JUMPDEST DUP2 SLOAD DUP2 MSTORE SWAP1 PUSH1 0x1 ADD SWAP1 PUSH1 0x20 ADD DUP1 DUP4 GT PUSH2 0xA7E JUMPI DUP3 SWAP1 SUB PUSH1 0x1F AND DUP3 ADD SWAP2 JUMPDEST POP POP POP POP POP SWAP1 DUP1 PUSH1 0x7 ADD DUP1 SLOAD PUSH2 0xAB0 SWAP1 PUSH2 0x2386 JUMP JUMPDEST DUP1 PUSH1 0x1F ADD PUSH1 0x20 DUP1 SWAP2 DIV MUL PUSH1 0x20 ADD PUSH1 0x40 MLOAD SWAP1 DUP2 ADD PUSH1 0x40 MSTORE DUP1 SWAP3 SWAP2 SWAP1 DUP2 DUP2 MSTORE PUSH1 0x20 ADD DUP3 DUP1 SLOAD PUSH2 0xADC SWAP1 PUSH2 0x2386 JUMP JUMPDEST DUP1 ISZERO PUSH2 0xB29 JUMPI DUP1 PUSH1 0x1F LT PUSH2 0xAFE JUMPI PUSH2 0x100 DUP1 DUP4 SLOAD DIV MUL DUP4 MSTORE SWAP2 PUSH1 0x20 ADD SWAP2 PUSH2 0xB29 JUMP JUMPDEST DUP3 ADD SWAP2 SWAP1 PUSH1 0x0 MSTORE PUSH1 0x20 PUSH1 0x0 KECCAK256 SWAP1 JUMPDEST DUP2 SLOAD DUP2 MSTORE SWAP1 PUSH1 0x1 ADD SWAP1 PUSH1 0x20 ADD DUP1 DUP4 GT PUSH2 0xB0C JUMPI DUP3 SWAP1 SUB PUSH1 0x1F AND DUP3 ADD SWAP2 JUMPDEST POP POP POP POP POP SWAP1 DUP1 PUSH1 0x8 ADD DUP1 SLOAD PUSH2 0xB3E SWAP1 PUSH2 0x2386 JUMP JUMPDEST DUP1 PUSH1 0x1F ADD PUSH1 0x20 DUP1 SWAP2 DIV MUL PUSH1 0x20 ADD PUSH1 0x40 MLOAD SWAP1 DUP2 ADD PUSH1 0x40 MSTORE DUP1 SWAP3 SWAP2 SWAP1 DUP2 DUP2 MSTORE PUSH1 0x20 ADD DUP3 DUP1 SLOAD PUSH2 0xB6A SWAP1 PUSH2 0x2386 JUMP JUMPDEST DUP1 ISZERO PUSH2 0xBB7 JUMPI DUP1 PUSH1 0x1F LT PUSH2 0xB8C JUMPI PUSH2 0x100 DUP1 DUP4 SLOAD DIV MUL DUP4 MSTORE SWAP2 PUSH1 0x20 ADD SWAP2 PUSH2 0xBB7 JUMP JUMPDEST DUP3 ADD SWAP2 SWAP1 PUSH1 0x0 MSTORE PUSH1 0x20 PUSH1 0x0 KECCAK256 SWAP1 JUMPDEST DUP2 SLOAD DUP2 MSTORE SWAP1 PUSH1 0x1 ADD SWAP1 PUSH1 0x20 ADD DUP1 DUP4 GT PUSH2 0xB9A JUMPI DUP3 SWAP1 SUB PUSH1 0x1F AND DUP3 ADD SWAP2 JUMPDEST POP POP POP POP POP SWAP1 POP DUP10 JUMP JUMPDEST PUSH1 0x60 PUSH1 0x3 DUP3 PUSH1 0x40 MLOAD PUSH2 0xBD3 SWAP2 SWAP1 PUSH2 0x236A JUMP JUMPDEST SWAP1 DUP2 MSTORE PUSH1 0x20 ADD PUSH1 0x40 MLOAD DUP1 SWAP2 SUB SWAP1 KECCAK256 DUP1 SLOAD DUP1 PUSH1 0x20 MUL PUSH1 0x20 ADD PUSH1 0x40 MLOAD SWAP1 DUP2 ADD PUSH1 0x40 MSTORE DUP1 SWAP3 SWAP2 SWAP1 DUP2 DUP2 MSTORE PUSH1 0x20 ADD PUSH1 0x0 SWAP1 JUMPDEST DUP3 DUP3 LT ISZERO PUSH2 0x690 JUMPI DUP4 DUP3 SWAP1 PUSH1 0x0 MSTORE PUSH1 0x20 PUSH1 0x0 KECCAK256 SWAP1 PUSH1 0x9 MUL ADD PUSH1 0x40 MLOAD DUP1 PUSH2 0x120 ADD PUSH1 0x40 MSTORE SWAP1 DUP2 PUSH1 0x0 DUP3 ADD DUP1 SLOAD PUSH2 0xC35 SWAP1 PUSH2 0x2386 JUMP JUMPDEST DUP1 PUSH1 0x1F ADD PUSH1 0x20 DUP1 SWAP2 DIV MUL PUSH1 0x20 ADD PUSH1 0x40 MLOAD SWAP1 DUP2 ADD PUSH1 0x40 MSTORE DUP1 SWAP3 SWAP2 SWAP1 DUP2 DUP2 MSTORE PUSH1 0x20 ADD DUP3 DUP1 SLOAD PUSH2 0xC61 SWAP1 PUSH2 0x2386 JUMP JUMPDEST DUP1 ISZERO PUSH2 0xCAE JUMPI DUP1 PUSH1 0x1F LT PUSH2 0xC83 JUMPI PUSH2 0x100 DUP1 DUP4 SLOAD DIV MUL DUP4 MSTORE SWAP2 PUSH1 0x20 ADD SWAP2 PUSH2 0xCAE JUMP JUMPDEST DUP3 ADD SWAP2 SWAP1 PUSH1 0x0 MSTORE PUSH1 0x20 PUSH1 0x0 KECCAK256 SWAP1 JUMPDEST DUP2 SLOAD DUP2 MSTORE SWAP1 PUSH1 0x1 ADD SWAP1 PUSH1 0x20 ADD DUP1 DUP4 GT PUSH2 0xC91 JUMPI DUP3 SWAP1 SUB PUSH1 0x1F AND DUP3 ADD SWAP2 JUMPDEST POP POP POP POP POP DUP2 MSTORE PUSH1 0x20 ADD PUSH1 0x1 DUP3 ADD DUP1 SLOAD PUSH2 0xCC7 SWAP1 PUSH2 0x2386 JUMP JUMPDEST DUP1 PUSH1 0x1F ADD PUSH1 0x20 DUP1 SWAP2 DIV MUL PUSH1 0x20 ADD PUSH1 0x40 MLOAD SWAP1 DUP2 ADD PUSH1 0x40 MSTORE DUP1 SWAP3 SWAP2 SWAP1 DUP2 DUP2 MSTORE PUSH1 0x20 ADD DUP3 DUP1 SLOAD PUSH2 0xCF3 SWAP1 PUSH2 0x2386 JUMP JUMPDEST DUP1 ISZERO PUSH2 0xD40 JUMPI DUP1 PUSH1 0x1F LT PUSH2 0xD15 JUMPI PUSH2 0x100 DUP1 DUP4 SLOAD DIV MUL DUP4 MSTORE SWAP2 PUSH1 0x20 ADD SWAP2 PUSH2 0xD40 JUMP JUMPDEST DUP3 ADD SWAP2 SWAP1 PUSH1 0x0 MSTORE PUSH1 0x20 PUSH1 0x0 KECCAK256 SWAP1 JUMPDEST DUP2 SLOAD DUP2 MSTORE SWAP1 PUSH1 0x1 ADD SWAP1 PUSH1 0x20 ADD DUP1 DUP4 GT PUSH2 0xD23 JUMPI DUP3 SWAP1 SUB PUSH1 0x1F AND DUP3 ADD SWAP2 JUMPDEST POP POP POP POP POP DUP2 MSTORE PUSH1 0x20 ADD PUSH1 0x2 DUP3 ADD DUP1 SLOAD PUSH2 0xD59 SWAP1 PUSH2 0x2386 JUMP JUMPDEST DUP1 PUSH1 0x1F ADD PUSH1 0x20 DUP1 SWAP2 DIV MUL PUSH1 0x20 ADD PUSH1 0x40 MLOAD SWAP1 DUP2 ADD PUSH1 0x40 MSTORE DUP1 SWAP3 SWAP2 SWAP1 DUP2 DUP2 MSTORE PUSH1 0x20 ADD DUP3 DUP1 SLOAD PUSH2 0xD85 SWAP1 PUSH2 0x2386 JUMP JUMPDEST DUP1 ISZERO PUSH2 0xDD2 JUMPI DUP1 PUSH1 0x1F LT PUSH2 0xDA7 JUMPI PUSH2 0x100 DUP1 DUP4 SLOAD DIV MUL DUP4 MSTORE SWAP2 PUSH1 0x20 ADD SWAP2 PUSH2 0xDD2 JUMP JUMPDEST DUP3 ADD SWAP2 SWAP1 PUSH1 0x0 MSTORE PUSH1 0x20 PUSH1 0x0 KECCAK256 SWAP1 JUMPDEST DUP2 SLOAD DUP2 MSTORE SWAP1 PUSH1 0x1 ADD SWAP1 PUSH1 0x20 ADD DUP1 DUP4 GT PUSH2 0xDB5 JUMPI DUP3 SWAP1 SUB PUSH1 0x1F AND DUP3 ADD SWAP2 JUMPDEST POP POP POP POP POP DUP2 MSTORE PUSH1 0x20 ADD PUSH1 0x3 DUP3 ADD DUP1 SLOAD PUSH2 0xDEB SWAP1 PUSH2 0x2386 JUMP JUMPDEST DUP1 PUSH1 0x1F ADD PUSH1 0x20 DUP1 SWAP2 DIV MUL PUSH1 0x20 ADD PUSH1 0x40 MLOAD SWAP1 DUP2 ADD PUSH1 0x40 MSTORE DUP1 SWAP3 SWAP2 SWAP1 DUP2 DUP2 MSTORE PUSH1 0x20 ADD DUP3 DUP1 SLOAD PUSH2 0xE17 SWAP1 PUSH2 0x2386 JUMP JUMPDEST DUP1 ISZERO PUSH2 0xE64 JUMPI DUP1 PUSH1 0x1F LT PUSH2 0xE39 JUMPI PUSH2 0x100 DUP1 DUP4 SLOAD DIV MUL DUP4 MSTORE SWAP2 PUSH1 0x20 ADD SWAP2 PUSH2 0xE64 JUMP JUMPDEST DUP3 ADD SWAP2 SWAP1 PUSH1 0x0 MSTORE PUSH1 0x20 PUSH1 0x0 KECCAK256 SWAP1 JUMPDEST DUP2 SLOAD DUP2 MSTORE SWAP1 PUSH1 0x1 ADD SWAP1 PUSH1 0x20 ADD DUP1 DUP4 GT PUSH2 0xE47 JUMPI DUP3 SWAP1 SUB PUSH1 0x1F AND DUP3 ADD SWAP2 JUMPDEST POP POP POP POP POP DUP2 MSTORE PUSH1 0x20 ADD PUSH1 0x4 DUP3 ADD DUP1 SLOAD PUSH2 0xE7D SWAP1 PUSH2 0x2386 JUMP JUMPDEST DUP1 PUSH1 0x1F ADD PUSH1 0x20 DUP1 SWAP2 DIV MUL PUSH1 0x20 ADD PUSH1 0x40 MLOAD SWAP1 DUP2 ADD PUSH1 0x40 MSTORE DUP1 SWAP3 SWAP2 SWAP1 DUP2 DUP2 MSTORE PUSH1 0x20 ADD DUP3 DUP1 SLOAD PUSH2 0xEA9 SWAP1 PUSH2 0x2386 JUMP JUMPDEST DUP1 ISZERO PUSH2 0xEF6 JUMPI DUP1 PUSH1 0x1F LT PUSH2 0xECB JUMPI PUSH2 0x100 DUP1 DUP4 SLOAD DIV MUL DUP4 MSTORE SWAP2 PUSH1 0x20 ADD SWAP2 PUSH2 0xEF6 JUMP JUMPDEST DUP3 ADD SWAP2 SWAP1 PUSH1 0x0 MSTORE PUSH1 0x20 PUSH1 0x0 KECCAK256 SWAP1 JUMPDEST DUP2 SLOAD DUP2 MSTORE SWAP1 PUSH1 0x1 ADD SWAP1 PUSH1 0x20 ADD DUP1 DUP4 GT PUSH2 0xED9 JUMPI DUP3 SWAP1 SUB PUSH1 0x1F AND DUP3 ADD SWAP2 JUMPDEST POP POP POP POP POP DUP2 MSTORE PUSH1 0x20 ADD PUSH1 0x5 DUP3 ADD DUP1 SLOAD PUSH2 0xF0F SWAP1 PUSH2 0x2386 JUMP JUMPDEST DUP1 PUSH1 0x1F ADD PUSH1 0x20 DUP1 SWAP2 DIV MUL PUSH1 0x20 ADD PUSH1 0x40 MLOAD SWAP1 DUP2 ADD PUSH1 0x40 MSTORE DUP1 SWAP3 SWAP2 SWAP1 DUP2 DUP2 MSTORE PUSH1 0x20 ADD DUP3 DUP1 SLOAD PUSH2 0xF3B SWAP1 PUSH2 0x2386 JUMP JUMPDEST DUP1 ISZERO PUSH2 0xF88 JUMPI DUP1 PUSH1 0x1F LT PUSH2 0xF5D JUMPI PUSH2 0x100 DUP1 DUP4 SLOAD DIV MUL DUP4 MSTORE SWAP2 PUSH1 0x20 ADD SWAP2 PUSH2 0xF88 JUMP JUMPDEST DUP3 ADD SWAP2 SWAP1 PUSH1 0x0 MSTORE PUSH1 0x20 PUSH1 0x0 KECCAK256 SWAP1 JUMPDEST DUP2 SLOAD DUP2 MSTORE SWAP1 PUSH1 0x1 ADD SWAP1 PUSH1 0x20 ADD DUP1 DUP4 GT PUSH2 0xF6B JUMPI DUP3 SWAP1 SUB PUSH1 0x1F AND DUP3 ADD SWAP2 JUMPDEST POP POP POP POP POP DUP2 MSTORE PUSH1 0x20 ADD PUSH1 0x6 DUP3 ADD DUP1 SLOAD PUSH2 0xFA1 SWAP1 PUSH2 0x2386 JUMP JUMPDEST DUP1 PUSH1 0x1F ADD PUSH1 0x20 DUP1 SWAP2 DIV MUL PUSH1 0x20 ADD PUSH1 0x40 MLOAD SWAP1 DUP2 ADD PUSH1 0x40 MSTORE DUP1 SWAP3 SWAP2 SWAP1 DUP2 DUP2 MSTORE PUSH1 0x20 ADD DUP3 DUP1 SLOAD PUSH2 0xFCD SWAP1 PUSH2 0x2386 JUMP JUMPDEST DUP1 ISZERO PUSH2 0x101A JUMPI DUP1 PUSH1 0x1F LT PUSH2 0xFEF JUMPI PUSH2 0x100 DUP1 DUP4 SLOAD DIV MUL DUP4 MSTORE SWAP2 PUSH1 0x20 ADD SWAP2 PUSH2 0x101A JUMP JUMPDEST DUP3 ADD SWAP2 SWAP1 PUSH1 0x0 MSTORE PUSH1 0x20 PUSH1 0x0 KECCAK256 SWAP1 JUMPDEST DUP2 SLOAD DUP2 MSTORE SWAP1 PUSH1 0x1 ADD SWAP1 PUSH1 0x20 ADD DUP1 DUP4 GT PUSH2 0xFFD JUMPI DUP3 SWAP1 SUB PUSH1 0x1F AND DUP3 ADD SWAP2 JUMPDEST POP POP POP POP POP DUP2 MSTORE PUSH1 0x20 ADD PUSH1 0x7 DUP3 ADD DUP1 SLOAD PUSH2 0x1033 SWAP1 PUSH2 0x2386 JUMP JUMPDEST DUP1 PUSH1 0x1F ADD PUSH1 0x20 DUP1 SWAP2 DIV MUL PUSH1 0x20 ADD PUSH1 0x40 MLOAD SWAP1 DUP2 ADD PUSH1 0x40 MSTORE DUP1 SWAP3 SWAP2 SWAP1 DUP2 DUP2 MSTORE PUSH1 0x20 ADD DUP3 DUP1 SLOAD PUSH2 0x105F SWAP1 PUSH2 0x2386 JUMP JUMPDEST DUP1 ISZERO PUSH2 0x10AC JUMPI DUP1 PUSH1 0x1F LT PUSH2 0x1081 JUMPI PUSH2 0x100 DUP1 DUP4 SLOAD DIV MUL DUP4 MSTORE SWAP2 PUSH1 0x20 ADD SWAP2 PUSH2 0x10AC JUMP JUMPDEST DUP3 ADD SWAP2 SWAP1 PUSH1 0x0 MSTORE PUSH1 0x20 PUSH1 0x0 KECCAK256 SWAP1 JUMPDEST DUP2 SLOAD DUP2 MSTORE SWAP1 PUSH1 0x1 ADD SWAP1 PUSH1 0x20 ADD DUP1 DUP4 GT PUSH2 0x108F JUMPI DUP3 SWAP1 SUB PUSH1 0x1F AND DUP3 ADD SWAP2 JUMPDEST POP POP POP POP POP DUP2 MSTORE PUSH1 0x20 ADD PUSH1 0x8 DUP3 ADD DUP1 SLOAD PUSH2 0x10C5 SWAP1 PUSH2 0x2386 JUMP JUMPDEST DUP1 PUSH1 0x1F ADD PUSH1 0x20 DUP1 SWAP2 DIV MUL PUSH1 0x20 ADD PUSH1 0x40 MLOAD SWAP1 DUP2 ADD PUSH1 0x40 MSTORE DUP1 SWAP3 SWAP2 SWAP1 DUP2 DUP2 MSTORE PUSH1 0x20 ADD DUP3 DUP1 SLOAD PUSH2 0x10F1 SWAP1 PUSH2 0x2386 JUMP JUMPDEST DUP1 ISZERO PUSH2 0x113E JUMPI DUP1 PUSH1 0x1F LT PUSH2 0x1113 JUMPI PUSH2 0x100 DUP1 DUP4 SLOAD DIV MUL DUP4 MSTORE SWAP2 PUSH1 0x20 ADD SWAP2 PUSH2 0x113E JUMP JUMPDEST DUP3 ADD SWAP2 SWAP1 PUSH1 0x0 MSTORE PUSH1 0x20 PUSH1 0x0 KECCAK256 SWAP1 JUMPDEST DUP2 SLOAD DUP2 MSTORE SWAP1 PUSH1 0x1 ADD SWAP1 PUSH1 0x20 ADD DUP1 DUP4 GT PUSH2 0x1121 JUMPI DUP3 SWAP1 SUB PUSH1 0x1F AND DUP3 ADD SWAP2 JUMPDEST POP POP POP POP POP DUP2 MSTORE POP POP DUP2 MSTORE PUSH1 0x20 ADD SWAP1 PUSH1 0x1 ADD SWAP1 PUSH2 0xC01 JUMP JUMPDEST PUSH1 0x0 DUP1 DUP2 SLOAD DUP2 LT PUSH2 0x1169 JUMPI PUSH2 0x1169 PUSH2 0x23C0 JUMP JUMPDEST PUSH1 0x0 SWAP2 DUP3 MSTORE PUSH1 0x20 SWAP1 SWAP2 KECCAK256 ADD SLOAD PUSH1 0x1 PUSH1 0x1 PUSH1 0xA0 SHL SUB AND CALLER EQ PUSH2 0x1189 JUMPI PUSH1 0x0 DUP1 REVERT JUMPDEST PUSH1 0x0 DUP1 SLOAD PUSH1 0x1 DUP2 ADD DUP3 SSTORE SWAP1 DUP1 MSTORE PUSH32 0x290DECD9548B62A8D60345A988386FC84BA6BC95484008F6362F93160EF3E563 ADD DUP1 SLOAD PUSH1 0x1 PUSH1 0x1 PUSH1 0xA0 SHL SUB NOT AND PUSH1 0x1 PUSH1 0x1 PUSH1 0xA0 SHL SUB SWAP3 SWAP1 SWAP3 AND SWAP2 SWAP1 SWAP2 OR SWAP1 SSTORE JUMP JUMPDEST CALLER PUSH1 0x0 DUP1 JUMPDEST PUSH1 0x0 SLOAD DUP2 LT ISZERO PUSH2 0x1239 JUMPI DUP3 PUSH1 0x1 PUSH1 0x1 PUSH1 0xA0 SHL SUB AND PUSH1 0x0 DUP3 DUP2 SLOAD DUP2 LT PUSH2 0x1204 JUMPI PUSH2 0x1204 PUSH2 0x23C0 JUMP JUMPDEST PUSH1 0x0 SWAP2 DUP3 MSTORE PUSH1 0x20 SWAP1 SWAP2 KECCAK256 ADD SLOAD PUSH1 0x1 PUSH1 0x1 PUSH1 0xA0 SHL SUB AND SUB PUSH2 0x1227 JUMPI PUSH1 0x1 SWAP2 POP PUSH2 0x1239 JUMP JUMPDEST DUP1 PUSH2 0x1231 DUP2 PUSH2 0x23D6 JUMP JUMPDEST SWAP2 POP POP PUSH2 0x11DD JUMP JUMPDEST POP DUP1 PUSH2 0x128B JUMPI PUSH1 0x40 MLOAD PUSH3 0x461BCD PUSH1 0xE5 SHL DUP2 MSTORE PUSH1 0x20 PUSH1 0x4 DUP3 ADD MSTORE PUSH1 0x18 PUSH1 0x24 DUP3 ADD MSTORE PUSH32 0x646F206E6F742068617665207772697465206163636573730000000000000000 PUSH1 0x44 DUP3 ADD MSTORE PUSH1 0x64 ADD PUSH1 0x40 MLOAD DUP1 SWAP2 SUB SWAP1 REVERT JUMPDEST PUSH2 0x12DA PUSH1 0x40 MLOAD DUP1 PUSH2 0x120 ADD PUSH1 0x40 MSTORE DUP1 PUSH1 0x60 DUP2 MSTORE PUSH1 0x20 ADD PUSH1 0x60 DUP2 MSTORE PUSH1 0x20 ADD PUSH1 0x60 DUP2 MSTORE PUSH1 0x20 ADD PUSH1 0x60 DUP2 MSTORE PUSH1 0x20 ADD PUSH1 0x60 DUP2 MSTORE PUSH1 0x20 ADD PUSH1 0x60 DUP2 MSTORE PUSH1 0x20 ADD PUSH1 0x60 DUP2 MSTORE PUSH1 0x20 ADD PUSH1 0x60 DUP2 MSTORE PUSH1 0x20 ADD PUSH1 0x60 DUP2 MSTORE POP SWAP1 JUMP JUMPDEST PUSH2 0x12E4 DUP5 DUP1 PUSH2 0x23FD JUMP JUMPDEST DUP1 DUP1 PUSH1 0x1F ADD PUSH1 0x20 DUP1 SWAP2 DIV MUL PUSH1 0x20 ADD PUSH1 0x40 MLOAD SWAP1 DUP2 ADD PUSH1 0x40 MSTORE DUP1 SWAP4 SWAP3 SWAP2 SWAP1 DUP2 DUP2 MSTORE PUSH1 0x20 ADD DUP4 DUP4 DUP1 DUP3 DUP5 CALLDATACOPY PUSH1 0x0 SWAP3 ADD SWAP2 SWAP1 SWAP2 MSTORE POP POP POP SWAP1 DUP3 MSTORE POP PUSH2 0x1328 PUSH1 0x20 DUP6 ADD DUP6 PUSH2 0x23FD JUMP JUMPDEST DUP1 DUP1 PUSH1 0x1F ADD PUSH1 0x20 DUP1 SWAP2 DIV MUL PUSH1 0x20 ADD PUSH1 0x40 MLOAD SWAP1 DUP2 ADD PUSH1 0x40 MSTORE DUP1 SWAP4 SWAP3 SWAP2 SWAP1 DUP2 DUP2 MSTORE PUSH1 0x20 ADD DUP4 DUP4 DUP1 DUP3 DUP5 CALLDATACOPY PUSH1 0x0 SWAP3 ADD SWAP2 SWAP1 SWAP2 MSTORE POP POP POP POP PUSH1 0x20 DUP3 ADD MSTORE PUSH2 0x136E PUSH1 0x40 DUP6 ADD DUP6 PUSH2 0x23FD JUMP JUMPDEST DUP1 DUP1 PUSH1 0x1F ADD PUSH1 0x20 DUP1 SWAP2 DIV MUL PUSH1 0x20 ADD PUSH1 0x40 MLOAD SWAP1 DUP2 ADD PUSH1 0x40 MSTORE DUP1 SWAP4 SWAP3 SWAP2 SWAP1 DUP2 DUP2 MSTORE PUSH1 0x20 ADD DUP4 DUP4 DUP1 DUP3 DUP5 CALLDATACOPY PUSH1 0x0 SWAP3 ADD SWAP2 SWAP1 SWAP2 MSTORE POP POP POP POP PUSH1 0x40 DUP3 ADD MSTORE PUSH2 0x13B4 PUSH1 0x60 DUP6 ADD DUP6 PUSH2 0x23FD JUMP JUMPDEST DUP1 DUP1 PUSH1 0x1F ADD PUSH1 0x20 DUP1 SWAP2 DIV MUL PUSH1 0x20 ADD PUSH1 0x40 MLOAD SWAP1 DUP2 ADD PUSH1 0x40 MSTORE DUP1 SWAP4 SWAP3 SWAP2 SWAP1 DUP2 DUP2 MSTORE PUSH1 0x20 ADD DUP4 DUP4 DUP1 DUP3 DUP5 CALLDATACOPY PUSH1 0x0 SWAP3 ADD SWAP2 SWAP1 SWAP2 MSTORE POP POP POP POP PUSH1 0x60 DUP3 ADD MSTORE PUSH2 0x13FA PUSH1 0x80 DUP6 ADD DUP6 PUSH2 0x23FD JUMP JUMPDEST DUP1 DUP1 PUSH1 0x1F ADD PUSH1 0x20 DUP1 SWAP2 DIV MUL PUSH1 0x20 ADD PUSH1 0x40 MLOAD SWAP1 DUP2 ADD PUSH1 0x40 MSTORE DUP1 SWAP4 SWAP3 SWAP2 SWAP1 DUP2 DUP2 MSTORE PUSH1 0x20 ADD DUP4 DUP4 DUP1 DUP3 DUP5 CALLDATACOPY PUSH1 0x0 SWAP3 ADD SWAP2 SWAP1 SWAP2 MSTORE POP POP POP POP PUSH1 0x80 DUP3 ADD MSTORE PUSH2 0x1440 PUSH1 0xA0 DUP6 ADD DUP6 PUSH2 0x23FD JUMP JUMPDEST DUP1 DUP1 PUSH1 0x1F ADD PUSH1 0x20 DUP1 SWAP2 DIV MUL PUSH1 0x20 ADD PUSH1 0x40 MLOAD SWAP1 DUP2 ADD PUSH1 0x40 MSTORE DUP1 SWAP4 SWAP3 SWAP2 SWAP1 DUP2 DUP2 MSTORE PUSH1 0x20 ADD DUP4 DUP4 DUP1 DUP3 DUP5 CALLDATACOPY PUSH1 0x0 SWAP3 ADD SWAP2 SWAP1 SWAP2 MSTORE POP POP POP POP PUSH1 0xA0 DUP3 ADD MSTORE PUSH2 0x1486 PUSH1 0xC0 DUP6 ADD DUP6 PUSH2 0x23FD JUMP JUMPDEST DUP1 DUP1 PUSH1 0x1F ADD PUSH1 0x20 DUP1 SWAP2 DIV MUL PUSH1 0x20 ADD PUSH1 0x40 MLOAD SWAP1 DUP2 ADD PUSH1 0x40 MSTORE DUP1 SWAP4 SWAP3 SWAP2 SWAP1 DUP2 DUP2 MSTORE PUSH1 0x20 ADD DUP4 DUP4 DUP1 DUP3 DUP5 CALLDATACOPY PUSH1 0x0 SWAP3 ADD SWAP2 SWAP1 SWAP2 MSTORE POP POP POP POP PUSH1 0xC0 DUP3 ADD MSTORE PUSH2 0x14CC PUSH1 0xE0 DUP6 ADD DUP6 PUSH2 0x23FD JUMP JUMPDEST DUP1 DUP1 PUSH1 0x1F ADD PUSH1 0x20 DUP1 SWAP2 DIV MUL PUSH1 0x20 ADD PUSH1 0x40 MLOAD SWAP1 DUP2 ADD PUSH1 0x40 MSTORE DUP1 SWAP4 SWAP3 SWAP2 SWAP1 DUP2 DUP2 MSTORE PUSH1 0x20 ADD DUP4 DUP4 DUP1 DUP3 DUP5 CALLDATACOPY PUSH1 0x0 SWAP3 ADD SWAP2 SWAP1 SWAP2 MSTORE POP POP POP POP PUSH1 0xE0 DUP3 ADD MSTORE PUSH2 0x1513 PUSH2 0x100 DUP6 ADD DUP6 PUSH2 0x23FD JUMP JUMPDEST DUP1 DUP1 PUSH1 0x1F ADD PUSH1 0x20 DUP1 SWAP2 DIV MUL PUSH1 0x20 ADD PUSH1 0x40 MLOAD SWAP1 DUP2 ADD PUSH1 0x40 MSTORE DUP1 SWAP4 SWAP3 SWAP2 SWAP1 DUP2 DUP2 MSTORE PUSH1 0x20 ADD DUP4 DUP4 DUP1 DUP3 DUP5 CALLDATACOPY PUSH1 0x0 SWAP3 ADD DUP3 SWAP1 MSTORE POP PUSH2 0x100 DUP7 ADD SWAP5 SWAP1 SWAP5 MSTORE POP POP PUSH1 0x1 DUP1 SLOAD DUP1 DUP3 ADD DUP3 SSTORE SWAP3 MSTORE POP DUP2 MLOAD DUP3 SWAP2 PUSH1 0x9 MUL PUSH32 0xB10E2D527612073B26EECDFD717E6A320CF44B4AFAC2B0732D9FCBE2B7FA0CF6 ADD SWAP1 DUP2 SWAP1 PUSH2 0x1590 SWAP1 DUP3 PUSH2 0x249A JUMP JUMPDEST POP PUSH1 0x20 DUP3 ADD MLOAD PUSH1 0x1 DUP3 ADD SWAP1 PUSH2 0x15A5 SWAP1 DUP3 PUSH2 0x249A JUMP JUMPDEST POP PUSH1 0x40 DUP3 ADD MLOAD PUSH1 0x2 DUP3 ADD SWAP1 PUSH2 0x15BA SWAP1 DUP3 PUSH2 0x249A JUMP JUMPDEST POP PUSH1 0x60 DUP3 ADD MLOAD PUSH1 0x3 DUP3 ADD SWAP1 PUSH2 0x15CF SWAP1 DUP3 PUSH2 0x249A JUMP JUMPDEST POP PUSH1 0x80 DUP3 ADD MLOAD PUSH1 0x4 DUP3 ADD SWAP1 PUSH2 0x15E4 SWAP1 DUP3 PUSH2 0x249A JUMP JUMPDEST POP PUSH1 0xA0 DUP3 ADD MLOAD PUSH1 0x5 DUP3 ADD SWAP1 PUSH2 0x15F9 SWAP1 DUP3 PUSH2 0x249A JUMP JUMPDEST POP PUSH1 0xC0 DUP3 ADD MLOAD PUSH1 0x6 DUP3 ADD SWAP1 PUSH2 0x160E SWAP1 DUP3 PUSH2 0x249A JUMP JUMPDEST POP PUSH1 0xE0 DUP3 ADD MLOAD PUSH1 0x7 DUP3 ADD SWAP1 PUSH2 0x1623 SWAP1 DUP3 PUSH2 0x249A JUMP JUMPDEST POP PUSH2 0x100 DUP3 ADD MLOAD PUSH1 0x8 DUP3 ADD SWAP1 PUSH2 0x1639 SWAP1 DUP3 PUSH2 0x249A JUMP JUMPDEST POP POP DUP2 MLOAD PUSH1 0x40 MLOAD DUP4 SWAP3 POP PUSH1 0x2 SWAP2 PUSH2 0x164F SWAP2 PUSH2 0x236A JUMP JUMPDEST SWAP1 DUP2 MSTORE PUSH1 0x40 MLOAD SWAP1 DUP2 SWAP1 SUB PUSH1 0x20 ADD SWAP1 KECCAK256 DUP2 MLOAD DUP2 SWAP1 PUSH2 0x166C SWAP1 DUP3 PUSH2 0x249A JUMP JUMPDEST POP PUSH1 0x20 DUP3 ADD MLOAD PUSH1 0x1 DUP3 ADD SWAP1 PUSH2 0x1681 SWAP1 DUP3 PUSH2 0x249A JUMP JUMPDEST POP PUSH1 0x40 DUP3 ADD MLOAD PUSH1 0x2 DUP3 ADD SWAP1 PUSH2 0x1696 SWAP1 DUP3 PUSH2 0x249A JUMP JUMPDEST POP PUSH1 0x60 DUP3 ADD MLOAD PUSH1 0x3 DUP3 ADD SWAP1 PUSH2 0x16AB SWAP1 DUP3 PUSH2 0x249A JUMP JUMPDEST POP PUSH1 0x80 DUP3 ADD MLOAD PUSH1 0x4 DUP3 ADD SWAP1 PUSH2 0x16C0 SWAP1 DUP3 PUSH2 0x249A JUMP JUMPDEST POP PUSH1 0xA0 DUP3 ADD MLOAD PUSH1 0x5 DUP3 ADD SWAP1 PUSH2 0x16D5 SWAP1 DUP3 PUSH2 0x249A JUMP JUMPDEST POP PUSH1 0xC0 DUP3 ADD MLOAD PUSH1 0x6 DUP3 ADD SWAP1 PUSH2 0x16EA SWAP1 DUP3 PUSH2 0x249A JUMP JUMPDEST POP PUSH1 0xE0 DUP3 ADD MLOAD PUSH1 0x7 DUP3 ADD SWAP1 PUSH2 0x16FF SWAP1 DUP3 PUSH2 0x249A JUMP JUMPDEST POP PUSH2 0x100 DUP3 ADD MLOAD PUSH1 0x8 DUP3 ADD SWAP1 PUSH2 0x1715 SWAP1 DUP3 PUSH2 0x249A JUMP JUMPDEST POP SWAP1 POP POP PUSH1 0x3 DUP2 PUSH1 0x40 ADD MLOAD PUSH1 0x40 MLOAD PUSH2 0x172D SWAP2 SWAP1 PUSH2 0x236A JUMP JUMPDEST SWAP1 DUP2 MSTORE PUSH1 0x40 MLOAD PUSH1 0x20 SWAP2 DUP2 SWAP1 SUB DUP3 ADD SWAP1 KECCAK256 DUP1 SLOAD PUSH1 0x1 DUP2 ADD DUP3 SSTORE PUSH1 0x0 SWAP2 DUP3 MSTORE SWAP2 SWAP1 KECCAK256 DUP3 MLOAD DUP4 SWAP3 PUSH1 0x9 MUL SWAP1 SWAP2 ADD SWAP1 DUP2 SWAP1 PUSH2 0x1764 SWAP1 DUP3 PUSH2 0x249A JUMP JUMPDEST POP PUSH1 0x20 DUP3 ADD MLOAD PUSH1 0x1 DUP3 ADD SWAP1 PUSH2 0x1779 SWAP1 DUP3 PUSH2 0x249A JUMP JUMPDEST POP PUSH1 0x40 DUP3 ADD MLOAD PUSH1 0x2 DUP3 ADD SWAP1 PUSH2 0x178E SWAP1 DUP3 PUSH2 0x249A JUMP JUMPDEST POP PUSH1 0x60 DUP3 ADD MLOAD PUSH1 0x3 DUP3 ADD SWAP1 PUSH2 0x17A3 SWAP1 DUP3 PUSH2 0x249A JUMP JUMPDEST POP PUSH1 0x80 DUP3 ADD MLOAD PUSH1 0x4 DUP3 ADD SWAP1 PUSH2 0x17B8 SWAP1 DUP3 PUSH2 0x249A JUMP JUMPDEST POP PUSH1 0xA0 DUP3 ADD MLOAD PUSH1 0x5 DUP3 ADD SWAP1 PUSH2 0x17CD SWAP1 DUP3 PUSH2 0x249A JUMP JUMPDEST POP PUSH1 0xC0 DUP3 ADD MLOAD PUSH1 0x6 DUP3 ADD SWAP1 PUSH2 0x17E2 SWAP1 DUP3 PUSH2 0x249A JUMP JUMPDEST POP PUSH1 0xE0 DUP3 ADD MLOAD PUSH1 0x7 DUP3 ADD SWAP1 PUSH2 0x17F7 SWAP1 DUP3 PUSH2 0x249A JUMP JUMPDEST POP PUSH2 0x100 DUP3 ADD MLOAD PUSH1 0x8 DUP3 ADD SWAP1 PUSH2 0x180D SWAP1 DUP3 PUSH2 0x249A JUMP JUMPDEST POP POP POP PUSH1 0x4 DUP2 PUSH1 0x60 ADD MLOAD PUSH1 0x40 MLOAD PUSH2 0x1824 SWAP2 SWAP1 PUSH2 0x236A JUMP JUMPDEST SWAP1 DUP2 MSTORE PUSH1 0x40 MLOAD PUSH1 0x20 SWAP2 DUP2 SWAP1 SUB DUP3 ADD SWAP1 KECCAK256 DUP1 SLOAD PUSH1 0x1 DUP2 ADD DUP3 SSTORE PUSH1 0x0 SWAP2 DUP3 MSTORE SWAP2 SWAP1 KECCAK256 DUP3 MLOAD DUP4 SWAP3 PUSH1 0x9 MUL SWAP1 SWAP2 ADD SWAP1 DUP2 SWAP1 PUSH2 0x185B SWAP1 DUP3 PUSH2 0x249A JUMP JUMPDEST POP PUSH1 0x20 DUP3 ADD MLOAD PUSH1 0x1 DUP3 ADD SWAP1 PUSH2 0x1870 SWAP1 DUP3 PUSH2 0x249A JUMP JUMPDEST POP PUSH1 0x40 DUP3 ADD MLOAD PUSH1 0x2 DUP3 ADD SWAP1 PUSH2 0x1885 SWAP1 DUP3 PUSH2 0x249A JUMP JUMPDEST POP PUSH1 0x60 DUP3 ADD MLOAD PUSH1 0x3 DUP3 ADD SWAP1 PUSH2 0x189A SWAP1 DUP3 PUSH2 0x249A JUMP JUMPDEST POP PUSH1 0x80 DUP3 ADD MLOAD PUSH1 0x4 DUP3 ADD SWAP1 PUSH2 0x18AF SWAP1 DUP3 PUSH2 0x249A JUMP JUMPDEST POP PUSH1 0xA0 DUP3 ADD MLOAD PUSH1 0x5 DUP3 ADD SWAP1 PUSH2 0x18C4 SWAP1 DUP3 PUSH2 0x249A JUMP JUMPDEST POP PUSH1 0xC0 DUP3 ADD MLOAD PUSH1 0x6 DUP3 ADD SWAP1 PUSH2 0x18D9 SWAP1 DUP3 PUSH2 0x249A JUMP JUMPDEST POP PUSH1 0xE0 DUP3 ADD MLOAD PUSH1 0x7 DUP3 ADD SWAP1 PUSH2 0x18EE SWAP1 DUP3 PUSH2 0x249A JUMP JUMPDEST POP PUSH2 0x100 DUP3 ADD MLOAD PUSH1 0x8 DUP3 ADD SWAP1 PUSH2 0x1904 SWAP1 DUP3 PUSH2 0x249A JUMP JUMPDEST POP POP POP PUSH1 0x4 DUP2 PUSH1 0x80 ADD MLOAD PUSH1 0x40 MLOAD PUSH2 0x191B SWAP2 SWAP1 PUSH2 0x236A JUMP JUMPDEST SWAP1 DUP2 MSTORE PUSH1 0x40 MLOAD PUSH1 0x20 SWAP2 DUP2 SWAP1 SUB DUP3 ADD SWAP1 KECCAK256 DUP1 SLOAD PUSH1 0x1 DUP2 ADD DUP3 SSTORE PUSH1 0x0 SWAP2 DUP3 MSTORE SWAP2 SWAP1 KECCAK256 DUP3 MLOAD DUP4 SWAP3 PUSH1 0x9 MUL SWAP1 SWAP2 ADD SWAP1 DUP2 SWAP1 PUSH2 0x1952 SWAP1 DUP3 PUSH2 0x249A JUMP JUMPDEST POP PUSH1 0x20 DUP3 ADD MLOAD PUSH1 0x1 DUP3 ADD SWAP1 PUSH2 0x1967 SWAP1 DUP3 PUSH2 0x249A JUMP JUMPDEST POP PUSH1 0x40 DUP3 ADD MLOAD PUSH1 0x2 DUP3 ADD SWAP1 PUSH2 0x197C SWAP1 DUP3 PUSH2 0x249A JUMP JUMPDEST POP PUSH1 0x60 DUP3 ADD MLOAD PUSH1 0x3 DUP3 ADD SWAP1 PUSH2 0x1991 SWAP1 DUP3 PUSH2 0x249A JUMP JUMPDEST POP PUSH1 0x80 DUP3 ADD MLOAD PUSH1 0x4 DUP3 ADD SWAP1 PUSH2 0x19A6 SWAP1 DUP3 PUSH2 0x249A JUMP JUMPDEST POP PUSH1 0xA0 DUP3 ADD MLOAD PUSH1 0x5 DUP3 ADD SWAP1 PUSH2 0x19BB SWAP1 DUP3 PUSH2 0x249A JUMP JUMPDEST POP PUSH1 0xC0 DUP3 ADD MLOAD PUSH1 0x6 DUP3 ADD SWAP1 PUSH2 0x19D0 SWAP1 DUP3 PUSH2 0x249A JUMP JUMPDEST POP PUSH1 0xE0 DUP3 ADD MLOAD PUSH1 0x7 DUP3 ADD SWAP1 PUSH2 0x19E5 SWAP1 DUP3 PUSH2 0x249A JUMP JUMPDEST POP PUSH2 0x100 DUP3 ADD MLOAD PUSH1 0x8 DUP3 ADD SWAP1 PUSH2 0x19FB SWAP1 DUP3 PUSH2 0x249A JUMP JUMPDEST POP POP POP PUSH1 0x40 DUP1 DUP3 ADD MLOAD DUP3 MLOAD SWAP2 MLOAD PUSH32 0xCDA7AF4159D261959D3E36AC0298A7E541296A6E437A8CBFCBF429720E1D427C SWAP3 PUSH2 0x1A34 SWAP3 SWAP2 PUSH2 0x255A JUMP JUMPDEST PUSH1 0x40 MLOAD DUP1 SWAP2 SUB SWAP1 LOG1 POP POP POP POP JUMP JUMPDEST PUSH1 0x60 PUSH1 0x1 DUP1 SLOAD DUP1 PUSH1 0x20 MUL PUSH1 0x20 ADD PUSH1 0x40 MLOAD SWAP1 DUP2 ADD PUSH1 0x40 MSTORE DUP1 SWAP3 SWAP2 SWAP1 DUP2 DUP2 MSTORE PUSH1 0x20 ADD PUSH1 0x0 SWAP1 JUMPDEST DUP3 DUP3 LT ISZERO PUSH2 0x1FBB JUMPI DUP4 DUP3 SWAP1 PUSH1 0x0 MSTORE PUSH1 0x20 PUSH1 0x0 KECCAK256 SWAP1 PUSH1 0x9 MUL ADD PUSH1 0x40 MLOAD DUP1 PUSH2 0x120 ADD PUSH1 0x40 MSTORE SWAP1 DUP2 PUSH1 0x0 DUP3 ADD DUP1 SLOAD PUSH2 0x1A9A SWAP1 PUSH2 0x2386 JUMP JUMPDEST DUP1 PUSH1 0x1F ADD PUSH1 0x20 DUP1 SWAP2 DIV MUL PUSH1 0x20 ADD PUSH1 0x40 MLOAD SWAP1 DUP2 ADD PUSH1 0x40 MSTORE DUP1 SWAP3 SWAP2 SWAP1 DUP2 DUP2 MSTORE PUSH1 0x20 ADD DUP3 DUP1 SLOAD PUSH2 0x1AC6 SWAP1 PUSH2 0x2386 JUMP JUMPDEST DUP1 ISZERO PUSH2 0x1B13 JUMPI DUP1 PUSH1 0x1F LT PUSH2 0x1AE8 JUMPI PUSH2 0x100 DUP1 DUP4 SLOAD DIV MUL DUP4 MSTORE SWAP2 PUSH1 0x20 ADD SWAP2 PUSH2 0x1B13 JUMP JUMPDEST DUP3 ADD SWAP2 SWAP1 PUSH1 0x0 MSTORE PUSH1 0x20 PUSH1 0x0 KECCAK256 SWAP1 JUMPDEST DUP2 SLOAD DUP2 MSTORE SWAP1 PUSH1 0x1 ADD SWAP1 PUSH1 0x20 ADD DUP1 DUP4 GT PUSH2 0x1AF6 JUMPI DUP3 SWAP1 SUB PUSH1 0x1F AND DUP3 ADD SWAP2 JUMPDEST POP POP POP POP POP DUP2 MSTORE PUSH1 0x20 ADD PUSH1 0x1 DUP3 ADD DUP1 SLOAD PUSH2 0x1B2C SWAP1 PUSH2 0x2386 JUMP JUMPDEST DUP1 PUSH1 0x1F ADD PUSH1 0x20 DUP1 SWAP2 DIV MUL PUSH1 0x20 ADD PUSH1 0x40 MLOAD SWAP1 DUP2 ADD PUSH1 0x40 MSTORE DUP1 SWAP3 SWAP2 SWAP1 DUP2 DUP2 MSTORE PUSH1 0x20 ADD DUP3 DUP1 SLOAD PUSH2 0x1B58 SWAP1 PUSH2 0x2386 JUMP JUMPDEST DUP1 ISZERO PUSH2 0x1BA5 JUMPI DUP1 PUSH1 0x1F LT PUSH2 0x1B7A JUMPI PUSH2 0x100 DUP1 DUP4 SLOAD DIV MUL DUP4 MSTORE SWAP2 PUSH1 0x20 ADD SWAP2 PUSH2 0x1BA5 JUMP JUMPDEST DUP3 ADD SWAP2 SWAP1 PUSH1 0x0 MSTORE PUSH1 0x20 PUSH1 0x0 KECCAK256 SWAP1 JUMPDEST DUP2 SLOAD DUP2 MSTORE SWAP1 PUSH1 0x1 ADD SWAP1 PUSH1 0x20 ADD DUP1 DUP4 GT PUSH2 0x1B88 JUMPI DUP3 SWAP1 SUB PUSH1 0x1F AND DUP3 ADD SWAP2 JUMPDEST POP POP POP POP POP DUP2 MSTORE PUSH1 0x20 ADD PUSH1 0x2 DUP3 ADD DUP1 SLOAD PUSH2 0x1BBE SWAP1 PUSH2 0x2386 JUMP JUMPDEST DUP1 PUSH1 0x1F ADD PUSH1 0x20 DUP1 SWAP2 DIV MUL PUSH1 0x20 ADD PUSH1 0x40 MLOAD SWAP1 DUP2 ADD PUSH1 0x40 MSTORE DUP1 SWAP3 SWAP2 SWAP1 DUP2 DUP2 MSTORE PUSH1 0x20 ADD DUP3 DUP1 SLOAD PUSH2 0x1BEA SWAP1 PUSH2 0x2386 JUMP JUMPDEST DUP1 ISZERO PUSH2 0x1C37 JUMPI DUP1 PUSH1 0x1F LT PUSH2 0x1C0C JUMPI PUSH2 0x100 DUP1 DUP4 SLOAD DIV MUL DUP4 MSTORE SWAP2 PUSH1 0x20 ADD SWAP2 PUSH2 0x1C37 JUMP JUMPDEST DUP3 ADD SWAP2 SWAP1 PUSH1 0x0 MSTORE PUSH1 0x20 PUSH1 0x0 KECCAK256 SWAP1 JUMPDEST DUP2 SLOAD DUP2 MSTORE SWAP1 PUSH1 0x1 ADD SWAP1 PUSH1 0x20 ADD DUP1 DUP4 GT PUSH2 0x1C1A JUMPI DUP3 SWAP1 SUB PUSH1 0x1F AND DUP3 ADD SWAP2 JUMPDEST POP POP POP POP POP DUP2 MSTORE PUSH1 0x20 ADD PUSH1 0x3 DUP3 ADD DUP1 SLOAD PUSH2 0x1C50 SWAP1 PUSH2 0x2386 JUMP JUMPDEST DUP1 PUSH1 0x1F ADD PUSH1 0x20 DUP1 SWAP2 DIV MUL PUSH1 0x20 ADD PUSH1 0x40 MLOAD SWAP1 DUP2 ADD PUSH1 0x40 MSTORE DUP1 SWAP3 SWAP2 SWAP1 DUP2 DUP2 MSTORE PUSH1 0x20 ADD DUP3 DUP1 SLOAD PUSH2 0x1C7C SWAP1 PUSH2 0x2386 JUMP JUMPDEST DUP1 ISZERO PUSH2 0x1CC9 JUMPI DUP1 PUSH1 0x1F LT PUSH2 0x1C9E JUMPI PUSH2 0x100 DUP1 DUP4 SLOAD DIV MUL DUP4 MSTORE SWAP2 PUSH1 0x20 ADD SWAP2 PUSH2 0x1CC9 JUMP JUMPDEST DUP3 ADD SWAP2 SWAP1 PUSH1 0x0 MSTORE PUSH1 0x20 PUSH1 0x0 KECCAK256 SWAP1 JUMPDEST DUP2 SLOAD DUP2 MSTORE SWAP1 PUSH1 0x1 ADD SWAP1 PUSH1 0x20 ADD DUP1 DUP4 GT PUSH2 0x1CAC JUMPI DUP3 SWAP1 SUB PUSH1 0x1F AND DUP3 ADD SWAP2 JUMPDEST POP POP POP POP POP DUP2 MSTORE PUSH1 0x20 ADD PUSH1 0x4 DUP3 ADD DUP1 SLOAD PUSH2 0x1CE2 SWAP1 PUSH2 0x2386 JUMP JUMPDEST DUP1 PUSH1 0x1F ADD PUSH1 0x20 DUP1 SWAP2 DIV MUL PUSH1 0x20 ADD PUSH1 0x40 MLOAD SWAP1 DUP2 ADD PUSH1 0x40 MSTORE DUP1 SWAP3 SWAP2 SWAP1 DUP2 DUP2 MSTORE PUSH1 0x20 ADD DUP3 DUP1 SLOAD PUSH2 0x1D0E SWAP1 PUSH2 0x2386 JUMP JUMPDEST DUP1 ISZERO PUSH2 0x1D5B JUMPI DUP1 PUSH1 0x1F LT PUSH2 0x1D30 JUMPI PUSH2 0x100 DUP1 DUP4 SLOAD DIV MUL DUP4 MSTORE SWAP2 PUSH1 0x20 ADD SWAP2 PUSH2 0x1D5B JUMP JUMPDEST DUP3 ADD SWAP2 SWAP1 PUSH1 0x0 MSTORE PUSH1 0x20 PUSH1 0x0 KECCAK256 SWAP1 JUMPDEST DUP2 SLOAD DUP2 MSTORE SWAP1 PUSH1 0x1 ADD SWAP1 PUSH1 0x20 ADD DUP1 DUP4 GT PUSH2 0x1D3E JUMPI DUP3 SWAP1 SUB PUSH1 0x1F AND DUP3 ADD SWAP2 JUMPDEST POP POP POP POP POP DUP2 MSTORE PUSH1 0x20 ADD PUSH1 0x5 DUP3 ADD DUP1 SLOAD PUSH2 0x1D74 SWAP1 PUSH2 0x2386 JUMP JUMPDEST DUP1 PUSH1 0x1F ADD PUSH1 0x20 DUP1 SWAP2 DIV MUL PUSH1 0x20 ADD PUSH1 0x40 MLOAD SWAP1 DUP2 ADD PUSH1 0x40 MSTORE DUP1 SWAP3 SWAP2 SWAP1 DUP2 DUP2 MSTORE PUSH1 0x20 ADD DUP3 DUP1 SLOAD PUSH2 0x1DA0 SWAP1 PUSH2 0x2386 JUMP JUMPDEST DUP1 ISZERO PUSH2 0x1DED JUMPI DUP1 PUSH1 0x1F LT PUSH2 0x1DC2 JUMPI PUSH2 0x100 DUP1 DUP4 SLOAD DIV MUL DUP4 MSTORE SWAP2 PUSH1 0x20 ADD SWAP2 PUSH2 0x1DED JUMP JUMPDEST DUP3 ADD SWAP2 SWAP1 PUSH1 0x0 MSTORE PUSH1 0x20 PUSH1 0x0 KECCAK256 SWAP1 JUMPDEST DUP2 SLOAD DUP2 MSTORE SWAP1 PUSH1 0x1 ADD SWAP1 PUSH1 0x20 ADD DUP1 DUP4 GT PUSH2 0x1DD0 JUMPI DUP3 SWAP1 SUB PUSH1 0x1F AND DUP3 ADD SWAP2 JUMPDEST POP POP POP POP POP DUP2 MSTORE PUSH1 0x20 ADD PUSH1 0x6 DUP3 ADD DUP1 SLOAD PUSH2 0x1E06 SWAP1 PUSH2 0x2386 JUMP JUMPDEST DUP1 PUSH1 0x1F ADD PUSH1 0x20 DUP1 SWAP2 DIV MUL PUSH1 0x20 ADD PUSH1 0x40 MLOAD SWAP1 DUP2 ADD PUSH1 0x40 MSTORE DUP1 SWAP3 SWAP2 SWAP1 DUP2 DUP2 MSTORE PUSH1 0x20 ADD DUP3 DUP1 SLOAD PUSH2 0x1E32 SWAP1 PUSH2 0x2386 JUMP JUMPDEST DUP1 ISZERO PUSH2 0x1E7F JUMPI DUP1 PUSH1 0x1F LT PUSH2 0x1E54 JUMPI PUSH2 0x100 DUP1 DUP4 SLOAD DIV MUL DUP4 MSTORE SWAP2 PUSH1 0x20 ADD SWAP2 PUSH2 0x1E7F JUMP JUMPDEST DUP3 ADD SWAP2 SWAP1 PUSH1 0x0 MSTORE PUSH1 0x20 PUSH1 0x0 KECCAK256 SWAP1 JUMPDEST DUP2 SLOAD DUP2 MSTORE SWAP1 PUSH1 0x1 ADD SWAP1 PUSH1 0x20 ADD DUP1 DUP4 GT PUSH2 0x1E62 JUMPI DUP3 SWAP1 SUB PUSH1 0x1F AND DUP3 ADD SWAP2 JUMPDEST POP POP POP POP POP DUP2 MSTORE PUSH1 0x20 ADD PUSH1 0x7 DUP3 ADD DUP1 SLOAD PUSH2 0x1E98 SWAP1 PUSH2 0x2386 JUMP JUMPDEST DUP1 PUSH1 0x1F ADD PUSH1 0x20 DUP1 SWAP2 DIV MUL PUSH1 0x20 ADD PUSH1 0x40 MLOAD SWAP1 DUP2 ADD PUSH1 0x40 MSTORE DUP1 SWAP3 SWAP2 SWAP1 DUP2 DUP2 MSTORE PUSH1 0x20 ADD DUP3 DUP1 SLOAD PUSH2 0x1EC4 SWAP1 PUSH2 0x2386 JUMP JUMPDEST DUP1 ISZERO PUSH2 0x1F11 JUMPI DUP1 PUSH1 0x1F LT PUSH2 0x1EE6 JUMPI PUSH2 0x100 DUP1 DUP4 SLOAD DIV MUL DUP4 MSTORE SWAP2 PUSH1 0x20 ADD SWAP2 PUSH2 0x1F11 JUMP JUMPDEST DUP3 ADD SWAP2 SWAP1 PUSH1 0x0 MSTORE PUSH1 0x20 PUSH1 0x0 KECCAK256 SWAP1 JUMPDEST DUP2 SLOAD DUP2 MSTORE SWAP1 PUSH1 0x1 ADD SWAP1 PUSH1 0x20 ADD DUP1 DUP4 GT PUSH2 0x1EF4 JUMPI DUP3 SWAP1 SUB PUSH1 0x1F AND DUP3 ADD SWAP2 JUMPDEST POP POP POP POP POP DUP2 MSTORE PUSH1 0x20 ADD PUSH1 0x8 DUP3 ADD DUP1 SLOAD PUSH2 0x1F2A SWAP1 PUSH2 0x2386 JUMP JUMPDEST DUP1 PUSH1 0x1F ADD PUSH1 0x20 DUP1 SWAP2 DIV MUL PUSH1 0x20 ADD PUSH1 0x40 MLOAD SWAP1 DUP2 ADD PUSH1 0x40 MSTORE DUP1 SWAP3 SWAP2 SWAP1 DUP2 DUP2 MSTORE PUSH1 0x20 ADD DUP3 DUP1 SLOAD PUSH2 0x1F56 SWAP1 PUSH2 0x2386 JUMP JUMPDEST DUP1 ISZERO PUSH2 0x1FA3 JUMPI DUP1 PUSH1 0x1F LT PUSH2 0x1F78 JUMPI PUSH2 0x100 DUP1 DUP4 SLOAD DIV MUL DUP4 MSTORE SWAP2 PUSH1 0x20 ADD SWAP2 PUSH2 0x1FA3 JUMP JUMPDEST DUP3 ADD SWAP2 SWAP1 PUSH1 0x0 MSTORE PUSH1 0x20 PUSH1 0x0 KECCAK256 SWAP1 JUMPDEST DUP2 SLOAD DUP2 MSTORE SWAP1 PUSH1 0x1 ADD SWAP1 PUSH1 0x20 ADD DUP1 DUP4 GT PUSH2 0x1F86 JUMPI DUP3 SWAP1 SUB PUSH1 0x1F AND DUP3 ADD SWAP2 JUMPDEST POP POP POP POP POP DUP2 MSTORE POP POP DUP2 MSTORE PUSH1 0x20 ADD SWAP1 PUSH1 0x1 ADD SWAP1 PUSH2 0x1A66 JUMP JUMPDEST POP POP POP POP SWAP1 POP SWAP1 JUMP JUMPDEST PUSH4 0x4E487B71 PUSH1 0xE0 SHL PUSH1 0x0 MSTORE PUSH1 0x41 PUSH1 0x4 MSTORE PUSH1 0x24 PUSH1 0x0 REVERT JUMPDEST PUSH1 0x0 PUSH1 0x20 DUP3 DUP5 SUB SLT ISZERO PUSH2 0x1FEC JUMPI PUSH1 0x0 DUP1 REVERT JUMPDEST DUP2 CALLDATALOAD PUSH8 0xFFFFFFFFFFFFFFFF DUP1 DUP3 GT ISZERO PUSH2 0x2004 JUMPI PUSH1 0x0 DUP1 REVERT JUMPDEST DUP2 DUP5 ADD SWAP2 POP DUP5 PUSH1 0x1F DUP4 ADD SLT PUSH2 0x2018 JUMPI PUSH1 0x0 DUP1 REVERT JUMPDEST DUP2 CALLDATALOAD DUP2 DUP2 GT ISZERO PUSH2 0x202A JUMPI PUSH2 0x202A PUSH2 0x1FC4 JUMP JUMPDEST PUSH1 0x40 MLOAD PUSH1 0x1F DUP3 ADD PUSH1 0x1F NOT SWAP1 DUP2 AND PUSH1 0x3F ADD AND DUP2 ADD SWAP1 DUP4 DUP3 GT DUP2 DUP4 LT OR ISZERO PUSH2 0x2052 JUMPI PUSH2 0x2052 PUSH2 0x1FC4 JUMP JUMPDEST DUP2 PUSH1 0x40 MSTORE DUP3 DUP2 MSTORE DUP8 PUSH1 0x20 DUP5 DUP8 ADD ADD GT ISZERO PUSH2 0x206B JUMPI PUSH1 0x0 DUP1 REVERT JUMPDEST DUP3 PUSH1 0x20 DUP7 ADD PUSH1 0x20 DUP4 ADD CALLDATACOPY PUSH1 0x0 SWAP3 DUP2 ADD PUSH1 0x20 ADD SWAP3 SWAP1 SWAP3 MSTORE POP SWAP6 SWAP5 POP POP POP POP POP JUMP JUMPDEST PUSH1 0x0 JUMPDEST DUP4 DUP2 LT ISZERO PUSH2 0x20A6 JUMPI DUP2 DUP2 ADD MLOAD DUP4 DUP3 ADD MSTORE PUSH1 0x20 ADD PUSH2 0x208E JUMP JUMPDEST POP POP PUSH1 0x0 SWAP2 ADD MSTORE JUMP JUMPDEST PUSH1 0x0 DUP2 MLOAD DUP1 DUP5 MSTORE PUSH2 0x20C7 DUP2 PUSH1 0x20 DUP7 ADD PUSH1 0x20 DUP7 ADD PUSH2 0x208B JUMP JUMPDEST PUSH1 0x1F ADD PUSH1 0x1F NOT AND SWAP3 SWAP1 SWAP3 ADD PUSH1 0x20 ADD SWAP3 SWAP2 POP POP JUMP JUMPDEST PUSH1 0x0 PUSH1 0x20 DUP1 DUP4 ADD DUP2 DUP5 MSTORE DUP1 DUP6 MLOAD DUP1 DUP4 MSTORE PUSH1 0x40 SWAP3 POP DUP3 DUP7 ADD SWAP2 POP DUP3 DUP2 PUSH1 0x5 SHL DUP8 ADD ADD DUP5 DUP9 ADD PUSH1 0x0 JUMPDEST DUP4 DUP2 LT ISZERO PUSH2 0x2212 JUMPI PUSH1 0x3F NOT DUP10 DUP5 SUB ADD DUP6 MSTORE DUP2 MLOAD PUSH2 0x120 DUP2 MLOAD DUP2 DUP7 MSTORE PUSH2 0x2129 DUP3 DUP8 ADD DUP3 PUSH2 0x20AF JUMP JUMPDEST SWAP2 POP POP DUP9 DUP3 ADD MLOAD DUP6 DUP3 SUB DUP11 DUP8 ADD MSTORE PUSH2 0x2141 DUP3 DUP3 PUSH2 0x20AF JUMP JUMPDEST SWAP2 POP POP DUP8 DUP3 ADD MLOAD DUP6 DUP3 SUB DUP10 DUP8 ADD MSTORE PUSH2 0x2159 DUP3 DUP3 PUSH2 0x20AF JUMP JUMPDEST SWAP2 POP POP PUSH1 0x60 DUP1 DUP4 ADD MLOAD DUP7 DUP4 SUB DUP3 DUP9 ADD MSTORE PUSH2 0x2173 DUP4 DUP3 PUSH2 0x20AF JUMP JUMPDEST SWAP3 POP POP POP PUSH1 0x80 DUP1 DUP4 ADD MLOAD DUP7 DUP4 SUB DUP3 DUP9 ADD MSTORE PUSH2 0x218E DUP4 DUP3 PUSH2 0x20AF JUMP JUMPDEST SWAP3 POP POP POP PUSH1 0xA0 DUP1 DUP4 ADD MLOAD DUP7 DUP4 SUB DUP3 DUP9 ADD MSTORE PUSH2 0x21A9 DUP4 DUP3 PUSH2 0x20AF JUMP JUMPDEST SWAP3 POP POP POP PUSH1 0xC0 DUP1 DUP4 ADD MLOAD DUP7 DUP4 SUB DUP3 DUP9 ADD MSTORE PUSH2 0x21C4 DUP4 DUP3 PUSH2 0x20AF JUMP JUMPDEST SWAP3 POP POP POP PUSH1 0xE0 DUP1 DUP4 ADD MLOAD DUP7 DUP4 SUB DUP3 DUP9 ADD MSTORE PUSH2 0x21DF DUP4 DUP3 PUSH2 0x20AF JUMP JUMPDEST SWAP3 POP POP POP PUSH2 0x100 DUP1 DUP4 ADD MLOAD SWAP3 POP DUP6 DUP3 SUB DUP2 DUP8 ADD MSTORE POP PUSH2 0x21FE DUP2 DUP4 PUSH2 0x20AF JUMP JUMPDEST SWAP7 DUP10 ADD SWAP7 SWAP5 POP POP POP SWAP1 DUP7 ADD SWAP1 PUSH1 0x1 ADD PUSH2 0x2102 JUMP JUMPDEST POP SWAP1 SWAP9 SWAP8 POP POP POP POP POP POP POP POP JUMP JUMPDEST PUSH1 0x0 PUSH1 0x20 DUP3 DUP5 SUB SLT ISZERO PUSH2 0x2232 JUMPI PUSH1 0x0 DUP1 REVERT JUMPDEST POP CALLDATALOAD SWAP2 SWAP1 POP JUMP JUMPDEST PUSH1 0x0 PUSH2 0x120 DUP1 DUP4 MSTORE PUSH2 0x224D DUP2 DUP5 ADD DUP14 PUSH2 0x20AF JUMP JUMPDEST SWAP1 POP DUP3 DUP2 SUB PUSH1 0x20 DUP5 ADD MSTORE PUSH2 0x2261 DUP2 DUP13 PUSH2 0x20AF JUMP JUMPDEST SWAP1 POP DUP3 DUP2 SUB PUSH1 0x40 DUP5 ADD MSTORE PUSH2 0x2275 DUP2 DUP12 PUSH2 0x20AF JUMP JUMPDEST SWAP1 POP DUP3 DUP2 SUB PUSH1 0x60 DUP5 ADD MSTORE PUSH2 0x2289 DUP2 DUP11 PUSH2 0x20AF JUMP JUMPDEST SWAP1 POP DUP3 DUP2 SUB PUSH1 0x80 DUP5 ADD MSTORE PUSH2 0x229D DUP2 DUP10 PUSH2 0x20AF JUMP JUMPDEST SWAP1 POP DUP3 DUP2 SUB PUSH1 0xA0 DUP5 ADD MSTORE PUSH2 0x22B1 DUP2 DUP9 PUSH2 0x20AF JUMP JUMPDEST SWAP1 POP DUP3 DUP2 SUB PUSH1 0xC0 DUP5 ADD MSTORE PUSH2 0x22C5 DUP2 DUP8 PUSH2 0x20AF JUMP JUMPDEST SWAP1 POP DUP3 DUP2 SUB PUSH1 0xE0 DUP5 ADD MSTORE PUSH2 0x22D9 DUP2 DUP7 PUSH2 0x20AF JUMP JUMPDEST SWAP1 POP DUP3 DUP2 SUB PUSH2 0x100 DUP5 ADD MSTORE PUSH2 0x22EE DUP2 DUP6 PUSH2 0x20AF JUMP JUMPDEST SWAP13 SWAP12 POP POP POP POP POP POP POP POP POP POP POP POP JUMP JUMPDEST PUSH1 0x0 PUSH1 0x20 DUP3 DUP5 SUB SLT ISZERO PUSH2 0x2310 JUMPI PUSH1 0x0 DUP1 REVERT JUMPDEST DUP2 CALLDATALOAD PUSH1 0x1 PUSH1 0x1 PUSH1 0xA0 SHL SUB DUP2 AND DUP2 EQ PUSH2 0x2327 JUMPI PUSH1 0x0 DUP1 REVERT JUMPDEST SWAP4 SWAP3 POP POP POP JUMP JUMPDEST PUSH1 0x0 PUSH1 0x20 DUP3 DUP5 SUB SLT ISZERO PUSH2 0x2340 JUMPI PUSH1 0x0 DUP1 REVERT JUMPDEST DUP2 CALLDATALOAD PUSH8 0xFFFFFFFFFFFFFFFF DUP2 GT ISZERO PUSH2 0x2357 JUMPI PUSH1 0x0 DUP1 REVERT JUMPDEST DUP3 ADD PUSH2 0x120 DUP2 ADD DUP5 LT ISZERO PUSH2 0x2327 JUMPI PUSH1 0x0 DUP1 REVERT JUMPDEST PUSH1 0x0 DUP3 MLOAD PUSH2 0x237C DUP2 DUP5 PUSH1 0x20 DUP8 ADD PUSH2 0x208B JUMP JUMPDEST SWAP2 SWAP1 SWAP2 ADD SWAP3 SWAP2 POP POP JUMP JUMPDEST PUSH1 0x1 DUP2 DUP2 SHR SWAP1 DUP3 AND DUP1 PUSH2 0x239A JUMPI PUSH1 0x7F DUP3 AND SWAP2 POP JUMPDEST PUSH1 0x20 DUP3 LT DUP2 SUB PUSH2 0x23BA JUMPI PUSH4 0x4E487B71 PUSH1 0xE0 SHL PUSH1 0x0 MSTORE PUSH1 0x22 PUSH1 0x4 MSTORE PUSH1 0x24 PUSH1 0x0 REVERT JUMPDEST POP SWAP2 SWAP1 POP JUMP JUMPDEST PUSH4 0x4E487B71 PUSH1 0xE0 SHL PUSH1 0x0 MSTORE PUSH1 0x32 PUSH1 0x4 MSTORE PUSH1 0x24 PUSH1 0x0 REVERT JUMPDEST PUSH1 0x0 PUSH1 0x1 DUP3 ADD PUSH2 0x23F6 JUMPI PUSH4 0x4E487B71 PUSH1 0xE0 SHL PUSH1 0x0 MSTORE PUSH1 0x11 PUSH1 0x4 MSTORE PUSH1 0x24 PUSH1 0x0 REVERT JUMPDEST POP PUSH1 0x1 ADD SWAP1 JUMP JUMPDEST PUSH1 0x0 DUP1 DUP4 CALLDATALOAD PUSH1 0x1E NOT DUP5 CALLDATASIZE SUB ADD DUP2 SLT PUSH2 0x2414 JUMPI PUSH1 0x0 DUP1 REVERT JUMPDEST DUP4 ADD DUP1 CALLDATALOAD SWAP2 POP PUSH8 0xFFFFFFFFFFFFFFFF DUP3 GT ISZERO PUSH2 0x242F JUMPI PUSH1 0x0 DUP1 REVERT JUMPDEST PUSH1 0x20 ADD SWAP2 POP CALLDATASIZE DUP2 SWAP1 SUB DUP3 SGT ISZERO PUSH2 0x2444 JUMPI PUSH1 0x0 DUP1 REVERT JUMPDEST SWAP3 POP SWAP3 SWAP1 POP JUMP JUMPDEST PUSH1 0x1F DUP3 GT ISZERO PUSH2 0x2495 JUMPI PUSH1 0x0 DUP2 DUP2 MSTORE PUSH1 0x20 DUP2 KECCAK256 PUSH1 0x1F DUP6 ADD PUSH1 0x5 SHR DUP2 ADD PUSH1 0x20 DUP7 LT ISZERO PUSH2 0x2472 JUMPI POP DUP1 JUMPDEST PUSH1 0x1F DUP6 ADD PUSH1 0x5 SHR DUP3 ADD SWAP2 POP JUMPDEST DUP2 DUP2 LT ISZERO PUSH2 0x2491 JUMPI DUP3 DUP2 SSTORE PUSH1 0x1 ADD PUSH2 0x247E JUMP JUMPDEST POP POP POP JUMPDEST POP POP POP JUMP JUMPDEST DUP2 MLOAD PUSH8 0xFFFFFFFFFFFFFFFF DUP2 GT ISZERO PUSH2 0x24B4 JUMPI PUSH2 0x24B4 PUSH2 0x1FC4 JUMP JUMPDEST PUSH2 0x24C8 DUP2 PUSH2 0x24C2 DUP5 SLOAD PUSH2 0x2386 JUMP JUMPDEST DUP5 PUSH2 0x244B JUMP JUMPDEST PUSH1 0x20 DUP1 PUSH1 0x1F DUP4 GT PUSH1 0x1 DUP2 EQ PUSH2 0x24FD JUMPI PUSH1 0x0 DUP5 ISZERO PUSH2 0x24E5 JUMPI POP DUP6 DUP4 ADD MLOAD JUMPDEST PUSH1 0x0 NOT PUSH1 0x3 DUP7 SWAP1 SHL SHR NOT AND PUSH1 0x1 DUP6 SWAP1 SHL OR DUP6 SSTORE PUSH2 0x2491 JUMP JUMPDEST PUSH1 0x0 DUP6 DUP2 MSTORE PUSH1 0x20 DUP2 KECCAK256 PUSH1 0x1F NOT DUP7 AND SWAP2 JUMPDEST DUP3 DUP2 LT ISZERO PUSH2 0x252C JUMPI DUP9 DUP7 ADD MLOAD DUP3 SSTORE SWAP5 DUP5 ADD SWAP5 PUSH1 0x1 SWAP1 SWAP2 ADD SWAP1 DUP5 ADD PUSH2 0x250D JUMP JUMPDEST POP DUP6 DUP3 LT ISZERO PUSH2 0x254A JUMPI DUP8 DUP6 ADD MLOAD PUSH1 0x0 NOT PUSH1 0x3 DUP9 SWAP1 SHL PUSH1 0xF8 AND SHR NOT AND DUP2 SSTORE JUMPDEST POP POP POP POP POP PUSH1 0x1 SWAP1 DUP2 SHL ADD SWAP1 SSTORE POP JUMP JUMPDEST PUSH1 0x40 DUP2 MSTORE PUSH1 0x0 PUSH2 0x256D PUSH1 0x40 DUP4 ADD DUP6 PUSH2 0x20AF JUMP JUMPDEST DUP3 DUP2 SUB PUSH1 0x20 DUP5 ADD MSTORE PUSH2 0x257F DUP2 DUP6 PUSH2 0x20AF JUMP JUMPDEST SWAP6 SWAP5 POP POP POP POP POP JUMP INVALID LOG2 PUSH5 0x6970667358 0x22 SLT KECCAK256 0xBA 0xB0 0xEC SWAP4 CHAINID PUSH32 0xC035F19C0A58DBD8AAD7F89A62DF60EB87EE2589ECDDD0C1D4264736F6C6343 STOP ADDMOD SLT STOP CALLER "
				},
				"gasEstimates": {
					"creation": {
						"codeDepositCost": "1932400",
						"executionCost": "50506",
						"totalCost": "1982906"
					},
					"external": {
						"addData(string[9])": "infinite",
						"dataArray(uint256)": "infinite",
						"getAllCases()": "infinite",
						"getJudgeCases(string)": "infinite",
						"getLawyerCase(string)": "infinite",
						"giveAccess(address)": "53136"
					}
				},
				"methodIdentifiers": {
					"addData(string[9])": "d2024221",
					"dataArray(uint256)": "49f2e575",
					"getAllCases()": "fb40c22a",
					"getJudgeCases(string)": "a6ad3ed8",
					"getLawyerCase(string)": "400ecc63",
					"giveAccess(address)": "cf12e870"
				}
			},
			"storageLayout": {
				"storage": [
					{
						"astId": 4,
						"contract": "contracts/sih3.sol:evault",
						"label": "writeAccess",
						"offset": 0,
						"slot": "0",
						"type": "t_array(t_address)dyn_storage"
					},
					{
						"astId": 59,
						"contract": "contracts/sih3.sol:evault",
						"label": "dataArray",
						"offset": 0,
						"slot": "1",
						"type": "t_array(t_struct(structTemplate)34_storage)dyn_storage"
					},
					{
						"astId": 64,
						"contract": "contracts/sih3.sol:evault",
						"label": "dataMap",
						"offset": 0,
						"slot": "2",
						"type": "t_mapping(t_string_memory_ptr,t_struct(structTemplate)34_storage)"
					},
					{
						"astId": 70,
						"contract": "contracts/sih3.sol:evault",
						"label": "judgeMap",
						"offset": 0,
						"slot": "3",
						"type": "t_mapping(t_string_memory_ptr,t_array(t_struct(structTemplate)34_storage)dyn_storage)"
					},
					{
						"astId": 76,
						"contract": "contracts/sih3.sol:evault",
						"label": "lawyerMap",
						"offset": 0,
						"slot": "4",
						"type": "t_mapping(t_string_memory_ptr,t_array(t_struct(structTemplate)34_storage)dyn_storage)"
					}
				],
				"types": {
					"t_address": {
						"encoding": "inplace",
						"label": "address",
						"numberOfBytes": "20"
					},
					"t_array(t_address)dyn_storage": {
						"base": "t_address",
						"encoding": "dynamic_array",
						"label": "address[]",
						"numberOfBytes": "32"
					},
					"t_array(t_struct(structTemplate)34_storage)dyn_storage": {
						"base": "t_struct(structTemplate)34_storage",
						"encoding": "dynamic_array",
						"label": "struct evault.structTemplate[]",
						"numberOfBytes": "32"
					},
					"t_mapping(t_string_memory_ptr,t_array(t_struct(structTemplate)34_storage)dyn_storage)": {
						"encoding": "mapping",
						"key": "t_string_memory_ptr",
						"label": "mapping(string => struct evault.structTemplate[])",
						"numberOfBytes": "32",
						"value": "t_array(t_struct(structTemplate)34_storage)dyn_storage"
					},
					"t_mapping(t_string_memory_ptr,t_struct(structTemplate)34_storage)": {
						"encoding": "mapping",
						"key": "t_string_memory_ptr",
						"label": "mapping(string => struct evault.structTemplate)",
						"numberOfBytes": "32",
						"value": "t_struct(structTemplate)34_storage"
					},
					"t_string_memory_ptr": {
						"encoding": "bytes",
						"label": "string",
						"numberOfBytes": "32"
					},
					"t_string_storage": {
						"encoding": "bytes",
						"label": "string",
						"numberOfBytes": "32"
					},
					"t_struct(structTemplate)34_storage": {
						"encoding": "inplace",
						"label": "struct evault.structTemplate",
						"members": [
							{
								"astId": 17,
								"contract": "contracts/sih3.sol:evault",
								"label": "caseNo",
								"offset": 0,
								"slot": "0",
								"type": "t_string_storage"
							},
							{
								"astId": 19,
								"contract": "contracts/sih3.sol:evault",
								"label": "caseName",
								"offset": 0,
								"slot": "1",
								"type": "t_string_storage"
							},
							{
								"astId": 21,
								"contract": "contracts/sih3.sol:evault",
								"label": "judge",
								"offset": 0,
								"slot": "2",
								"type": "t_string_storage"
							},
							{
								"astId": 23,
								"contract": "contracts/sih3.sol:evault",
								"label": "prosecutorLawyerName",
								"offset": 0,
								"slot": "3",
								"type": "t_string_storage"
							},
							{
								"astId": 25,
								"contract": "contracts/sih3.sol:evault",
								"label": "defenderLawerName",
								"offset": 0,
								"slot": "4",
								"type": "t_string_storage"
							},
							{
								"astId": 27,
								"contract": "contracts/sih3.sol:evault",
								"label": "clientFiled",
								"offset": 0,
								"slot": "5",
								"type": "t_string_storage"
							},
							{
								"astId": 29,
								"contract": "contracts/sih3.sol:evault",
								"label": "clientDefending",
								"offset": 0,
								"slot": "6",
								"type": "t_string_storage"
							},
							{
								"astId": 31,
								"contract": "contracts/sih3.sol:evault",
								"label": "verdict",
								"offset": 0,
								"slot": "7",
								"type": "t_string_storage"
							},
							{
								"astId": 33,
								"contract": "contracts/sih3.sol:evault",
								"label": "url",
								"offset": 0,
								"slot": "8",
								"type": "t_string_storage"
							}
						],
						"numberOfBytes": "288"
					}
				}
			},
			"userdoc": {
				"kind": "user",
				"methods": {},
				"version": 1
			}
		}
	}
}