{
	"contracts/arrays.sol": {
		"array": {
			"abi": [
				{
					"inputs": [
						{
							"internalType": "uint256",
							"name": "",
							"type": "uint256"
						}
					],
					"name": "arr",
					"outputs": [
						{
							"internalType": "uint256",
							"name": "",
							"type": "uint256"
						}
					],
					"stateMutability": "view",
					"type": "function"
				},
				{
					"inputs": [
						{
							"internalType": "uint256",
							"name": "",
							"type": "uint256"
						}
					],
					"name": "arr2",
					"outputs": [
						{
							"internalType": "uint256",
							"name": "",
							"type": "uint256"
						}
					],
					"stateMutability": "view",
					"type": "function"
				},
				{
					"inputs": [
						{
							"internalType": "uint256",
							"name": "",
							"type": "uint256"
						}
					],
					"name": "arr3",
					"outputs": [
						{
							"internalType": "uint256",
							"name": "",
							"type": "uint256"
						}
					],
					"stateMutability": "view",
					"type": "function"
				},
				{
					"inputs": [],
					"name": "delLast",
					"outputs": [],
					"stateMutability": "nonpayable",
					"type": "function"
				},
				{
					"inputs": [
						{
							"internalType": "uint256",
							"name": "i",
							"type": "uint256"
						}
					],
					"name": "get",
					"outputs": [
						{
							"internalType": "uint256",
							"name": "",
							"type": "uint256"
						}
					],
					"stateMutability": "view",
					"type": "function"
				},
				{
					"inputs": [],
					"name": "getLen",
					"outputs": [
						{
							"internalType": "uint256",
							"name": "",
							"type": "uint256"
						}
					],
					"stateMutability": "view",
					"type": "function"
				},
				{
					"inputs": [
						{
							"internalType": "uint256",
							"name": "i",
							"type": "uint256"
						}
					],
					"name": "insert",
					"outputs": [],
					"stateMutability": "nonpayable",
					"type": "function"
				},
				{
					"inputs": [
						{
							"internalType": "uint256",
							"name": "ind",
							"type": "uint256"
						}
					],
					"name": "remove",
					"outputs": [],
					"stateMutability": "nonpayable",
					"type": "function"
				},
				{
					"inputs": [
						{
							"internalType": "uint256",
							"name": "_ind",
							"type": "uint256"
						}
					],
					"name": "removeCopy",
					"outputs": [],
					"stateMutability": "nonpayable",
					"type": "function"
				},
				{
					"inputs": [
						{
							"internalType": "uint256",
							"name": "_ind",
							"type": "uint256"
						}
					],
					"name": "removeShift",
					"outputs": [],
					"stateMutability": "nonpayable",
					"type": "function"
				}
			],
			"devdoc": {
				"kind": "dev",
				"methods": {},
				"version": 1
			},
			"evm": {
				"assembly": "    /* \"contracts/arrays.sol\":83:110  uint[] public arr = [1,2,3] */\n  0xe0\n    /* \"contracts/arrays.sol\":60:1047  contract array{... */\n  0x40\n    /* \"contracts/arrays.sol\":83:110  uint[] public arr = [1,2,3] */\n  mstore\n    /* \"contracts/arrays.sol\":104:105  1 */\n  0x01\n    /* \"contracts/arrays.sol\":60:1047  contract array{... */\n  0x80\n    /* \"contracts/arrays.sol\":83:110  uint[] public arr = [1,2,3] */\n  swap1\n  dup2\n  mstore\n    /* \"contracts/arrays.sol\":106:107  2 */\n  0x02\n    /* \"contracts/arrays.sol\":83:110  uint[] public arr = [1,2,3] */\n  0xa0\n  mstore\n    /* \"contracts/arrays.sol\":108:109  3 */\n  0x03\n    /* \"contracts/arrays.sol\":83:110  uint[] public arr = [1,2,3] */\n  0xc0\n  dup2\n  swap1\n  mstore\n  tag_1\n  swap2\n  0x00\n  swap2\n  tag_2\n  jump\t// in\ntag_1:\n  pop\n    /* \"contracts/arrays.sol\":60:1047  contract array{... */\n  callvalue\n  dup1\n  iszero\n  tag_3\n  jumpi\n  0x00\n  dup1\n  revert\ntag_3:\n  pop\n  jump(tag_4)\ntag_2:\n  dup3\n  dup1\n  sload\n  dup3\n  dup3\n  sstore\n  swap1\n  0x00\n  mstore\n  keccak256(0x00, 0x20)\n  swap1\n  dup2\n  add\n  swap3\n  dup3\n  iszero\n  tag_7\n  jumpi\n  swap2\n  0x20\n  mul\n  dup3\n  add\ntag_6:\n  dup3\n  dup2\n  gt\n  iszero\n  tag_7\n  jumpi\n  dup3\n  mload\n  dup3\n  swap1\n  0xff\n  and\n  swap1\n  sstore\n  swap2\n  0x20\n  add\n  swap2\n  swap1\n  0x01\n  add\n  swap1\n  jump(tag_6)\ntag_7:\n  pop\n  tag_8\n  swap3\n  swap2\n  pop\n  tag_9\n  jump\t// in\ntag_8:\n  pop\n  swap1\n  jump\t// out\ntag_9:\ntag_10:\n  dup1\n  dup3\n  gt\n  iszero\n  tag_8\n  jumpi\n  0x00\n  dup2\n  sstore\n  0x01\n  add\n  jump(tag_10)\ntag_4:\n  dataSize(sub_0)\n  dup1\n  dataOffset(sub_0)\n  0x00\n  codecopy\n  0x00\n  return\nstop\n\nsub_0: assembly {\n        /* \"contracts/arrays.sol\":60:1047  contract array{... */\n      mstore(0x40, 0x80)\n      callvalue\n      dup1\n      iszero\n      tag_1\n      jumpi\n      0x00\n      dup1\n      revert\n    tag_1:\n      pop\n      jumpi(tag_2, lt(calldatasize, 0x04))\n      shr(0xe0, calldataload(0x00))\n      dup1\n      0x8732ded8\n      gt\n      tag_13\n      jumpi\n      dup1\n      0x8732ded8\n      eq\n      tag_8\n      jumpi\n      dup1\n      0x90b5561d\n      eq\n      tag_9\n      jumpi\n      dup1\n      0x9507d39a\n      eq\n      tag_10\n      jumpi\n      dup1\n      0xc4cb60c4\n      eq\n      tag_11\n      jumpi\n      dup1\n      0xedf0099b\n      eq\n      tag_12\n      jumpi\n      0x00\n      dup1\n      revert\n    tag_13:\n      dup1\n      0x0be0c6d5\n      eq\n      tag_3\n      jumpi\n      dup1\n      0x1538bd46\n      eq\n      tag_4\n      jumpi\n      dup1\n      0x4a90be57\n      eq\n      tag_5\n      jumpi\n      dup1\n      0x4cc82215\n      eq\n      tag_6\n      jumpi\n      dup1\n      0x71e5ee5f\n      eq\n      tag_7\n      jumpi\n    tag_2:\n      0x00\n      dup1\n      revert\n        /* \"contracts/arrays.sol\":326:380  function delLast() public {... */\n    tag_3:\n      tag_14\n      tag_15\n      jump\t// in\n    tag_14:\n      stop\n        /* \"contracts/arrays.sol\":690:857  function removeShift(uint _ind) public {... */\n    tag_4:\n      tag_14\n      tag_17\n      calldatasize\n      0x04\n      tag_18\n      jump\t// in\n    tag_17:\n      tag_19\n      jump\t// in\n        /* \"contracts/arrays.sol\":388:467  function getLen() public view returns(uint){... */\n    tag_5:\n        /* \"contracts/arrays.sol\":426:430  uint */\n      0x00\n        /* \"contracts/arrays.sol\":449:459  arr.length */\n      sload\n        /* \"contracts/arrays.sol\":388:467  function getLen() public view returns(uint){... */\n    tag_20:\n      mload(0x40)\n        /* \"#utility.yul\":345:370   */\n      swap1\n      dup2\n      mstore\n        /* \"#utility.yul\":333:335   */\n      0x20\n        /* \"#utility.yul\":318:336   */\n      add\n        /* \"contracts/arrays.sol\":388:467  function getLen() public view returns(uint){... */\n      mload(0x40)\n      dup1\n      swap2\n      sub\n      swap1\n      return\n        /* \"contracts/arrays.sol\":577:643  function remove(uint ind) public{... */\n    tag_6:\n      tag_14\n      tag_25\n      calldatasize\n      0x04\n      tag_18\n      jump\t// in\n    tag_25:\n      tag_26\n      jump\t// in\n        /* \"contracts/arrays.sol\":83:110  uint[] public arr = [1,2,3] */\n    tag_7:\n      tag_20\n      tag_28\n      calldatasize\n      0x04\n      tag_18\n      jump\t// in\n    tag_28:\n      tag_29\n      jump\t// in\n        /* \"contracts/arrays.sol\":142:162  uint[10] public arr3 */\n    tag_8:\n      tag_20\n      tag_32\n      calldatasize\n      0x04\n      tag_18\n      jump\t// in\n    tag_32:\n      tag_33\n      jump\t// in\n        /* \"contracts/arrays.sol\":257:318  function insert(uint i) public {... */\n    tag_9:\n      tag_14\n      tag_36\n      calldatasize\n      0x04\n      tag_18\n      jump\t// in\n    tag_36:\n        /* \"contracts/arrays.sol\":299:302  arr */\n      0x00\n        /* \"contracts/arrays.sol\":299:310  arr.push(i) */\n      dup1\n      sload\n      0x01\n      dup2\n      add\n      dup3\n      sstore\n      swap1\n      dup1\n      mstore\n      0x290decd9548b62a8d60345a988386fc84ba6bc95484008f6362f93160ef3e563\n      add\n      sstore\n        /* \"contracts/arrays.sol\":257:318  function insert(uint i) public {... */\n      jump\n        /* \"contracts/arrays.sol\":171:249  function get(uint i) public view returns(uint){... */\n    tag_10:\n      tag_20\n      tag_39\n      calldatasize\n      0x04\n      tag_18\n      jump\t// in\n    tag_39:\n      tag_40\n      jump\t// in\n        /* \"contracts/arrays.sol\":940:1044  function removeCopy(uint _ind) public {... */\n    tag_11:\n      tag_14\n      tag_43\n      calldatasize\n      0x04\n      tag_18\n      jump\t// in\n    tag_43:\n      tag_44\n      jump\t// in\n        /* \"contracts/arrays.sol\":117:135  uint[] public arr2 */\n    tag_12:\n      tag_20\n      tag_46\n      calldatasize\n      0x04\n      tag_18\n      jump\t// in\n    tag_46:\n      tag_47\n      jump\t// in\n        /* \"contracts/arrays.sol\":326:380  function delLast() public {... */\n    tag_15:\n        /* \"contracts/arrays.sol\":363:366  arr */\n      0x00\n        /* \"contracts/arrays.sol\":363:372  arr.pop() */\n      dup1\n      sload\n      dup1\n      tag_51\n      jumpi\n      tag_51\n      tag_52\n      jump\t// in\n    tag_51:\n      0x01\n      swap1\n      sub\n      dup2\n      dup2\n      swap1\n      0x00\n      mstore\n      keccak256(0x00, 0x20)\n      add\n      0x00\n      swap1\n      sstore\n      swap1\n      sstore\n        /* \"contracts/arrays.sol\":326:380  function delLast() public {... */\n      jump\t// out\n        /* \"contracts/arrays.sol\":690:857  function removeShift(uint _ind) public {... */\n    tag_19:\n        /* \"contracts/arrays.sol\":762:766  _ind */\n      dup1\n        /* \"contracts/arrays.sol\":750:830  for(uint i =_ind; i<arr.length-1; i++){... */\n    tag_55:\n        /* \"contracts/arrays.sol\":770:773  arr */\n      0x00\n        /* \"contracts/arrays.sol\":770:780  arr.length */\n      sload\n        /* \"contracts/arrays.sol\":770:782  arr.length-1 */\n      tag_58\n      swap1\n        /* \"contracts/arrays.sol\":781:782  1 */\n      0x01\n      swap1\n        /* \"contracts/arrays.sol\":770:782  arr.length-1 */\n      tag_59\n      jump\t// in\n    tag_58:\n        /* \"contracts/arrays.sol\":768:769  i */\n      dup2\n        /* \"contracts/arrays.sol\":768:782  i<arr.length-1 */\n      lt\n        /* \"contracts/arrays.sol\":750:830  for(uint i =_ind; i<arr.length-1; i++){... */\n      iszero\n      tag_56\n      jumpi\n        /* \"contracts/arrays.sol\":810:813  arr */\n      0x00\n        /* \"contracts/arrays.sol\":814:817  i+1 */\n      tag_60\n        /* \"contracts/arrays.sol\":814:815  i */\n      dup3\n        /* \"contracts/arrays.sol\":816:817  1 */\n      0x01\n        /* \"contracts/arrays.sol\":814:817  i+1 */\n      tag_61\n      jump\t// in\n    tag_60:\n        /* \"contracts/arrays.sol\":810:818  arr[i+1] */\n      dup2\n      sload\n      dup2\n      lt\n      tag_63\n      jumpi\n      tag_63\n      tag_64\n      jump\t// in\n    tag_63:\n      swap1\n      0x00\n      mstore\n      keccak256(0x00, 0x20)\n      add\n      sload\n        /* \"contracts/arrays.sol\":803:806  arr */\n      0x00\n        /* \"contracts/arrays.sol\":807:808  i */\n      dup3\n        /* \"contracts/arrays.sol\":803:809  arr[i] */\n      dup2\n      sload\n      dup2\n      lt\n      tag_67\n      jumpi\n      tag_67\n      tag_64\n      jump\t// in\n    tag_67:\n      0x00\n      swap2\n      dup3\n      mstore\n      0x20\n      swap1\n      swap2\n      keccak256\n      add\n        /* \"contracts/arrays.sol\":803:818  arr[i]=arr[i+1] */\n      sstore\n        /* \"contracts/arrays.sol\":784:787  i++ */\n      dup1\n      tag_69\n      dup2\n      tag_70\n      jump\t// in\n    tag_69:\n      swap2\n      pop\n      pop\n        /* \"contracts/arrays.sol\":750:830  for(uint i =_ind; i<arr.length-1; i++){... */\n      jump(tag_55)\n    tag_56:\n      pop\n        /* \"contracts/arrays.sol\":840:843  arr */\n      0x00\n        /* \"contracts/arrays.sol\":840:849  arr.pop() */\n      dup1\n      sload\n      dup1\n      tag_72\n      jumpi\n      tag_72\n      tag_52\n      jump\t// in\n    tag_72:\n      0x01\n      swap1\n      sub\n      dup2\n      dup2\n      swap1\n      0x00\n      mstore\n      keccak256(0x00, 0x20)\n      add\n      0x00\n      swap1\n      sstore\n      swap1\n      sstore\n        /* \"contracts/arrays.sol\":690:857  function removeShift(uint _ind) public {... */\n      pop\n      jump\t// out\n        /* \"contracts/arrays.sol\":577:643  function remove(uint ind) public{... */\n    tag_26:\n        /* \"contracts/arrays.sol\":627:630  arr */\n      0x00\n        /* \"contracts/arrays.sol\":631:634  ind */\n      dup2\n        /* \"contracts/arrays.sol\":627:635  arr[ind] */\n      dup2\n      sload\n      dup2\n      lt\n      tag_77\n      jumpi\n      tag_77\n      tag_64\n      jump\t// in\n    tag_77:\n      0x00\n      swap2\n      dup3\n      mstore\n      0x20\n      dup3\n      keccak256\n      add\n        /* \"contracts/arrays.sol\":620:635  delete arr[ind] */\n      sstore\n      pop\n        /* \"contracts/arrays.sol\":577:643  function remove(uint ind) public{... */\n      jump\t// out\n        /* \"contracts/arrays.sol\":83:110  uint[] public arr = [1,2,3] */\n    tag_29:\n      0x00\n      dup2\n      dup2\n      sload\n      dup2\n      lt\n      tag_79\n      jumpi\n      0x00\n      dup1\n      revert\n    tag_79:\n      0x00\n      swap2\n      dup3\n      mstore\n      0x20\n      swap1\n      swap2\n      keccak256\n      add\n      sload\n      swap1\n      pop\n      dup2\n      jump\t// out\n        /* \"contracts/arrays.sol\":142:162  uint[10] public arr3 */\n    tag_33:\n      0x02\n      dup2\n      0x0a\n      dup2\n      lt\n      tag_81\n      jumpi\n      0x00\n      dup1\n      revert\n    tag_81:\n      add\n      sload\n      swap1\n      pop\n      dup2\n      jump\t// out\n        /* \"contracts/arrays.sol\":171:249  function get(uint i) public view returns(uint){... */\n    tag_40:\n        /* \"contracts/arrays.sol\":212:216  uint */\n      0x00\n        /* \"contracts/arrays.sol\":235:238  arr */\n      dup1\n        /* \"contracts/arrays.sol\":239:240  i */\n      dup3\n        /* \"contracts/arrays.sol\":235:241  arr[i] */\n      dup2\n      sload\n      dup2\n      lt\n      tag_87\n      jumpi\n      tag_87\n      tag_64\n      jump\t// in\n    tag_87:\n      swap1\n      0x00\n      mstore\n      keccak256(0x00, 0x20)\n      add\n      sload\n        /* \"contracts/arrays.sol\":228:241  return arr[i] */\n      swap1\n      pop\n        /* \"contracts/arrays.sol\":171:249  function get(uint i) public view returns(uint){... */\n      swap2\n      swap1\n      pop\n      jump\t// out\n        /* \"contracts/arrays.sol\":940:1044  function removeCopy(uint _ind) public {... */\n    tag_44:\n        /* \"contracts/arrays.sol\":999:1002  arr */\n      0x00\n        /* \"contracts/arrays.sol\":1003:1013  arr.length */\n      dup1\n      sload\n        /* \"contracts/arrays.sol\":1003:1015  arr.length-1 */\n      tag_90\n      swap1\n        /* \"contracts/arrays.sol\":1014:1015  1 */\n      0x01\n      swap1\n        /* \"contracts/arrays.sol\":1003:1015  arr.length-1 */\n      tag_59\n      jump\t// in\n    tag_90:\n        /* \"contracts/arrays.sol\":999:1016  arr[arr.length-1] */\n      dup2\n      sload\n      dup2\n      lt\n      tag_92\n      jumpi\n      tag_92\n      tag_64\n      jump\t// in\n    tag_92:\n      swap1\n      0x00\n      mstore\n      keccak256(0x00, 0x20)\n      add\n      sload\n        /* \"contracts/arrays.sol\":989:992  arr */\n      0x00\n        /* \"contracts/arrays.sol\":993:997  _ind */\n      dup3\n        /* \"contracts/arrays.sol\":989:998  arr[_ind] */\n      dup2\n      sload\n      dup2\n      lt\n      tag_95\n      jumpi\n      tag_95\n      tag_64\n      jump\t// in\n    tag_95:\n      swap1\n      0x00\n      mstore\n      keccak256(0x00, 0x20)\n      add\n        /* \"contracts/arrays.sol\":989:1016  arr[_ind]=arr[arr.length-1] */\n      dup2\n      swap1\n      sstore\n      pop\n        /* \"contracts/arrays.sol\":1027:1030  arr */\n      0x00\n        /* \"contracts/arrays.sol\":1027:1036  arr.pop() */\n      dup1\n      sload\n      dup1\n      tag_72\n      jumpi\n      tag_72\n      tag_52\n      jump\t// in\n        /* \"contracts/arrays.sol\":117:135  uint[] public arr2 */\n    tag_47:\n      0x01\n      dup2\n      dup2\n      sload\n      dup2\n      lt\n      tag_79\n      jumpi\n      0x00\n      dup1\n      revert\n        /* \"#utility.yul\":14:194   */\n    tag_18:\n        /* \"#utility.yul\":73:79   */\n      0x00\n        /* \"#utility.yul\":126:128   */\n      0x20\n        /* \"#utility.yul\":114:123   */\n      dup3\n        /* \"#utility.yul\":105:112   */\n      dup5\n        /* \"#utility.yul\":101:124   */\n      sub\n        /* \"#utility.yul\":97:129   */\n      slt\n        /* \"#utility.yul\":94:146   */\n      iszero\n      tag_105\n      jumpi\n        /* \"#utility.yul\":142:143   */\n      0x00\n        /* \"#utility.yul\":139:140   */\n      dup1\n        /* \"#utility.yul\":132:144   */\n      revert\n        /* \"#utility.yul\":94:146   */\n    tag_105:\n      pop\n        /* \"#utility.yul\":165:188   */\n      calldataload\n      swap2\n        /* \"#utility.yul\":14:194   */\n      swap1\n      pop\n      jump\t// out\n        /* \"#utility.yul\":381:508   */\n    tag_52:\n        /* \"#utility.yul\":442:452   */\n      0x4e487b71\n        /* \"#utility.yul\":437:440   */\n      0xe0\n        /* \"#utility.yul\":433:453   */\n      shl\n        /* \"#utility.yul\":430:431   */\n      0x00\n        /* \"#utility.yul\":423:454   */\n      mstore\n        /* \"#utility.yul\":473:477   */\n      0x31\n        /* \"#utility.yul\":470:471   */\n      0x04\n        /* \"#utility.yul\":463:478   */\n      mstore\n        /* \"#utility.yul\":497:501   */\n      0x24\n        /* \"#utility.yul\":494:495   */\n      0x00\n        /* \"#utility.yul\":487:502   */\n      revert\n        /* \"#utility.yul\":513:640   */\n    tag_102:\n        /* \"#utility.yul\":574:584   */\n      0x4e487b71\n        /* \"#utility.yul\":569:572   */\n      0xe0\n        /* \"#utility.yul\":565:585   */\n      shl\n        /* \"#utility.yul\":562:563   */\n      0x00\n        /* \"#utility.yul\":555:586   */\n      mstore\n        /* \"#utility.yul\":605:609   */\n      0x11\n        /* \"#utility.yul\":602:603   */\n      0x04\n        /* \"#utility.yul\":595:610   */\n      mstore\n        /* \"#utility.yul\":629:633   */\n      0x24\n        /* \"#utility.yul\":626:627   */\n      0x00\n        /* \"#utility.yul\":619:634   */\n      revert\n        /* \"#utility.yul\":645:773   */\n    tag_59:\n        /* \"#utility.yul\":712:721   */\n      dup2\n      dup2\n      sub\n        /* \"#utility.yul\":733:744   */\n      dup2\n      dup2\n      gt\n        /* \"#utility.yul\":730:767   */\n      iszero\n      tag_111\n      jumpi\n        /* \"#utility.yul\":747:765   */\n      tag_111\n      tag_102\n      jump\t// in\n    tag_111:\n        /* \"#utility.yul\":645:773   */\n      swap3\n      swap2\n      pop\n      pop\n      jump\t// out\n        /* \"#utility.yul\":778:903   */\n    tag_61:\n        /* \"#utility.yul\":843:852   */\n      dup1\n      dup3\n      add\n        /* \"#utility.yul\":864:874   */\n      dup1\n      dup3\n      gt\n        /* \"#utility.yul\":861:897   */\n      iszero\n      tag_111\n      jumpi\n        /* \"#utility.yul\":877:895   */\n      tag_111\n      tag_102\n      jump\t// in\n        /* \"#utility.yul\":908:1035   */\n    tag_64:\n        /* \"#utility.yul\":969:979   */\n      0x4e487b71\n        /* \"#utility.yul\":964:967   */\n      0xe0\n        /* \"#utility.yul\":960:980   */\n      shl\n        /* \"#utility.yul\":957:958   */\n      0x00\n        /* \"#utility.yul\":950:981   */\n      mstore\n        /* \"#utility.yul\":1000:1004   */\n      0x32\n        /* \"#utility.yul\":997:998   */\n      0x04\n        /* \"#utility.yul\":990:1005   */\n      mstore\n        /* \"#utility.yul\":1024:1028   */\n      0x24\n        /* \"#utility.yul\":1021:1022   */\n      0x00\n        /* \"#utility.yul\":1014:1029   */\n      revert\n        /* \"#utility.yul\":1040:1175   */\n    tag_70:\n        /* \"#utility.yul\":1079:1082   */\n      0x00\n        /* \"#utility.yul\":1100:1117   */\n      0x01\n      dup3\n      add\n        /* \"#utility.yul\":1097:1140   */\n      tag_118\n      jumpi\n        /* \"#utility.yul\":1120:1138   */\n      tag_118\n      tag_102\n      jump\t// in\n    tag_118:\n      pop\n        /* \"#utility.yul\":1167:1168   */\n      0x01\n        /* \"#utility.yul\":1156:1169   */\n      add\n      swap1\n        /* \"#utility.yul\":1040:1175   */\n      jump\t// out\n\n    auxdata: 0xa26469706673582212208344b968e95c3c7afc03a20f9f2af766cc538a727720bbd1e0d99ce61f4878c464736f6c63430008120033\n}\n",
				"bytecode": {
					"linkReferences": {},
					"object": "60e060405260016080908152600260a052600360c081905261002391600091610036565b5034801561003057600080fd5b5061009b565b828054828255906000526020600020908101928215610076579160200282015b82811115610076578251829060ff16905591602001919060010190610056565b50610082929150610086565b5090565b5b808211156100825760008155600101610087565b61040f806100aa6000396000f3fe608060405234801561001057600080fd5b506004361061009e5760003560e01c80638732ded8116100665780638732ded8146100fc57806390b5561d1461010f5780639507d39a1461014f578063c4cb60c414610162578063edf0099b1461017557600080fd5b80630be0c6d5146100a35780631538bd46146100ad5780634a90be57146100c05780634cc82215146100d657806371e5ee5f146100e9575b600080fd5b6100ab610188565b005b6100ab6100bb366004610339565b6101b1565b6000545b60405190815260200160405180910390f35b6100ab6100e4366004610339565b61024d565b6100c46100f7366004610339565b61026e565b6100c461010a366004610339565b61028f565b6100ab61011d366004610339565b600080546001810182559080527f290decd9548b62a8d60345a988386fc84ba6bc95484008f6362f93160ef3e5630155565b6100c461015d366004610339565b6102a6565b6100ab610170366004610339565b6102cc565b6100c4610183366004610339565b610329565b600080548061019957610199610352565b60019003818190600052602060002001600090559055565b805b6000546101c29060019061037e565b8110156102225760006101d6826001610397565b815481106101e6576101e66103aa565b906000526020600020015460008281548110610204576102046103aa565b6000918252602090912001558061021a816103c0565b9150506101b3565b50600080548061023457610234610352565b6001900381819060005260206000200160009055905550565b60008181548110610260576102606103aa565b600091825260208220015550565b6000818154811061027e57600080fd5b600091825260209091200154905081565b600281600a811061029f57600080fd5b0154905081565b60008082815481106102ba576102ba6103aa565b90600052602060002001549050919050565b600080546102dc9060019061037e565b815481106102ec576102ec6103aa565b90600052602060002001546000828154811061030a5761030a6103aa565b9060005260206000200181905550600080548061023457610234610352565b6001818154811061027e57600080fd5b60006020828403121561034b57600080fd5b5035919050565b634e487b7160e01b600052603160045260246000fd5b634e487b7160e01b600052601160045260246000fd5b8181038181111561039157610391610368565b92915050565b8082018082111561039157610391610368565b634e487b7160e01b600052603260045260246000fd5b6000600182016103d2576103d2610368565b506001019056fea26469706673582212208344b968e95c3c7afc03a20f9f2af766cc538a727720bbd1e0d99ce61f4878c464736f6c63430008120033",
					"opcodes": "PUSH1 0xE0 PUSH1 0x40 MSTORE PUSH1 0x1 PUSH1 0x80 SWAP1 DUP2 MSTORE PUSH1 0x2 PUSH1 0xA0 MSTORE PUSH1 0x3 PUSH1 0xC0 DUP2 SWAP1 MSTORE PUSH2 0x23 SWAP2 PUSH1 0x0 SWAP2 PUSH2 0x36 JUMP JUMPDEST POP CALLVALUE DUP1 ISZERO PUSH2 0x30 JUMPI PUSH1 0x0 DUP1 REVERT JUMPDEST POP PUSH2 0x9B JUMP JUMPDEST DUP3 DUP1 SLOAD DUP3 DUP3 SSTORE SWAP1 PUSH1 0x0 MSTORE PUSH1 0x20 PUSH1 0x0 KECCAK256 SWAP1 DUP2 ADD SWAP3 DUP3 ISZERO PUSH2 0x76 JUMPI SWAP2 PUSH1 0x20 MUL DUP3 ADD JUMPDEST DUP3 DUP2 GT ISZERO PUSH2 0x76 JUMPI DUP3 MLOAD DUP3 SWAP1 PUSH1 0xFF AND SWAP1 SSTORE SWAP2 PUSH1 0x20 ADD SWAP2 SWAP1 PUSH1 0x1 ADD SWAP1 PUSH2 0x56 JUMP JUMPDEST POP PUSH2 0x82 SWAP3 SWAP2 POP PUSH2 0x86 JUMP JUMPDEST POP SWAP1 JUMP JUMPDEST JUMPDEST DUP1 DUP3 GT ISZERO PUSH2 0x82 JUMPI PUSH1 0x0 DUP2 SSTORE PUSH1 0x1 ADD PUSH2 0x87 JUMP JUMPDEST PUSH2 0x40F DUP1 PUSH2 0xAA PUSH1 0x0 CODECOPY PUSH1 0x0 RETURN INVALID PUSH1 0x80 PUSH1 0x40 MSTORE CALLVALUE DUP1 ISZERO PUSH2 0x10 JUMPI PUSH1 0x0 DUP1 REVERT JUMPDEST POP PUSH1 0x4 CALLDATASIZE LT PUSH2 0x9E JUMPI PUSH1 0x0 CALLDATALOAD PUSH1 0xE0 SHR DUP1 PUSH4 0x8732DED8 GT PUSH2 0x66 JUMPI DUP1 PUSH4 0x8732DED8 EQ PUSH2 0xFC JUMPI DUP1 PUSH4 0x90B5561D EQ PUSH2 0x10F JUMPI DUP1 PUSH4 0x9507D39A EQ PUSH2 0x14F JUMPI DUP1 PUSH4 0xC4CB60C4 EQ PUSH2 0x162 JUMPI DUP1 PUSH4 0xEDF0099B EQ PUSH2 0x175 JUMPI PUSH1 0x0 DUP1 REVERT JUMPDEST DUP1 PUSH4 0xBE0C6D5 EQ PUSH2 0xA3 JUMPI DUP1 PUSH4 0x1538BD46 EQ PUSH2 0xAD JUMPI DUP1 PUSH4 0x4A90BE57 EQ PUSH2 0xC0 JUMPI DUP1 PUSH4 0x4CC82215 EQ PUSH2 0xD6 JUMPI DUP1 PUSH4 0x71E5EE5F EQ PUSH2 0xE9 JUMPI JUMPDEST PUSH1 0x0 DUP1 REVERT JUMPDEST PUSH2 0xAB PUSH2 0x188 JUMP JUMPDEST STOP JUMPDEST PUSH2 0xAB PUSH2 0xBB CALLDATASIZE PUSH1 0x4 PUSH2 0x339 JUMP JUMPDEST PUSH2 0x1B1 JUMP JUMPDEST PUSH1 0x0 SLOAD JUMPDEST PUSH1 0x40 MLOAD SWAP1 DUP2 MSTORE PUSH1 0x20 ADD PUSH1 0x40 MLOAD DUP1 SWAP2 SUB SWAP1 RETURN JUMPDEST PUSH2 0xAB PUSH2 0xE4 CALLDATASIZE PUSH1 0x4 PUSH2 0x339 JUMP JUMPDEST PUSH2 0x24D JUMP JUMPDEST PUSH2 0xC4 PUSH2 0xF7 CALLDATASIZE PUSH1 0x4 PUSH2 0x339 JUMP JUMPDEST PUSH2 0x26E JUMP JUMPDEST PUSH2 0xC4 PUSH2 0x10A CALLDATASIZE PUSH1 0x4 PUSH2 0x339 JUMP JUMPDEST PUSH2 0x28F JUMP JUMPDEST PUSH2 0xAB PUSH2 0x11D CALLDATASIZE PUSH1 0x4 PUSH2 0x339 JUMP JUMPDEST PUSH1 0x0 DUP1 SLOAD PUSH1 0x1 DUP2 ADD DUP3 SSTORE SWAP1 DUP1 MSTORE PUSH32 0x290DECD9548B62A8D60345A988386FC84BA6BC95484008F6362F93160EF3E563 ADD SSTORE JUMP JUMPDEST PUSH2 0xC4 PUSH2 0x15D CALLDATASIZE PUSH1 0x4 PUSH2 0x339 JUMP JUMPDEST PUSH2 0x2A6 JUMP JUMPDEST PUSH2 0xAB PUSH2 0x170 CALLDATASIZE PUSH1 0x4 PUSH2 0x339 JUMP JUMPDEST PUSH2 0x2CC JUMP JUMPDEST PUSH2 0xC4 PUSH2 0x183 CALLDATASIZE PUSH1 0x4 PUSH2 0x339 JUMP JUMPDEST PUSH2 0x329 JUMP JUMPDEST PUSH1 0x0 DUP1 SLOAD DUP1 PUSH2 0x199 JUMPI PUSH2 0x199 PUSH2 0x352 JUMP JUMPDEST PUSH1 0x1 SWAP1 SUB DUP2 DUP2 SWAP1 PUSH1 0x0 MSTORE PUSH1 0x20 PUSH1 0x0 KECCAK256 ADD PUSH1 0x0 SWAP1 SSTORE SWAP1 SSTORE JUMP JUMPDEST DUP1 JUMPDEST PUSH1 0x0 SLOAD PUSH2 0x1C2 SWAP1 PUSH1 0x1 SWAP1 PUSH2 0x37E JUMP JUMPDEST DUP2 LT ISZERO PUSH2 0x222 JUMPI PUSH1 0x0 PUSH2 0x1D6 DUP3 PUSH1 0x1 PUSH2 0x397 JUMP JUMPDEST DUP2 SLOAD DUP2 LT PUSH2 0x1E6 JUMPI PUSH2 0x1E6 PUSH2 0x3AA JUMP JUMPDEST SWAP1 PUSH1 0x0 MSTORE PUSH1 0x20 PUSH1 0x0 KECCAK256 ADD SLOAD PUSH1 0x0 DUP3 DUP2 SLOAD DUP2 LT PUSH2 0x204 JUMPI PUSH2 0x204 PUSH2 0x3AA JUMP JUMPDEST PUSH1 0x0 SWAP2 DUP3 MSTORE PUSH1 0x20 SWAP1 SWAP2 KECCAK256 ADD SSTORE DUP1 PUSH2 0x21A DUP2 PUSH2 0x3C0 JUMP JUMPDEST SWAP2 POP POP PUSH2 0x1B3 JUMP JUMPDEST POP PUSH1 0x0 DUP1 SLOAD DUP1 PUSH2 0x234 JUMPI PUSH2 0x234 PUSH2 0x352 JUMP JUMPDEST PUSH1 0x1 SWAP1 SUB DUP2 DUP2 SWAP1 PUSH1 0x0 MSTORE PUSH1 0x20 PUSH1 0x0 KECCAK256 ADD PUSH1 0x0 SWAP1 SSTORE SWAP1 SSTORE POP JUMP JUMPDEST PUSH1 0x0 DUP2 DUP2 SLOAD DUP2 LT PUSH2 0x260 JUMPI PUSH2 0x260 PUSH2 0x3AA JUMP JUMPDEST PUSH1 0x0 SWAP2 DUP3 MSTORE PUSH1 0x20 DUP3 KECCAK256 ADD SSTORE POP JUMP JUMPDEST PUSH1 0x0 DUP2 DUP2 SLOAD DUP2 LT PUSH2 0x27E JUMPI PUSH1 0x0 DUP1 REVERT JUMPDEST PUSH1 0x0 SWAP2 DUP3 MSTORE PUSH1 0x20 SWAP1 SWAP2 KECCAK256 ADD SLOAD SWAP1 POP DUP2 JUMP JUMPDEST PUSH1 0x2 DUP2 PUSH1 0xA DUP2 LT PUSH2 0x29F JUMPI PUSH1 0x0 DUP1 REVERT JUMPDEST ADD SLOAD SWAP1 POP DUP2 JUMP JUMPDEST PUSH1 0x0 DUP1 DUP3 DUP2 SLOAD DUP2 LT PUSH2 0x2BA JUMPI PUSH2 0x2BA PUSH2 0x3AA JUMP JUMPDEST SWAP1 PUSH1 0x0 MSTORE PUSH1 0x20 PUSH1 0x0 KECCAK256 ADD SLOAD SWAP1 POP SWAP2 SWAP1 POP JUMP JUMPDEST PUSH1 0x0 DUP1 SLOAD PUSH2 0x2DC SWAP1 PUSH1 0x1 SWAP1 PUSH2 0x37E JUMP JUMPDEST DUP2 SLOAD DUP2 LT PUSH2 0x2EC JUMPI PUSH2 0x2EC PUSH2 0x3AA JUMP JUMPDEST SWAP1 PUSH1 0x0 MSTORE PUSH1 0x20 PUSH1 0x0 KECCAK256 ADD SLOAD PUSH1 0x0 DUP3 DUP2 SLOAD DUP2 LT PUSH2 0x30A JUMPI PUSH2 0x30A PUSH2 0x3AA JUMP JUMPDEST SWAP1 PUSH1 0x0 MSTORE PUSH1 0x20 PUSH1 0x0 KECCAK256 ADD DUP2 SWAP1 SSTORE POP PUSH1 0x0 DUP1 SLOAD DUP1 PUSH2 0x234 JUMPI PUSH2 0x234 PUSH2 0x352 JUMP JUMPDEST PUSH1 0x1 DUP2 DUP2 SLOAD DUP2 LT PUSH2 0x27E JUMPI PUSH1 0x0 DUP1 REVERT JUMPDEST PUSH1 0x0 PUSH1 0x20 DUP3 DUP5 SUB SLT ISZERO PUSH2 0x34B JUMPI PUSH1 0x0 DUP1 REVERT JUMPDEST POP CALLDATALOAD SWAP2 SWAP1 POP JUMP JUMPDEST PUSH4 0x4E487B71 PUSH1 0xE0 SHL PUSH1 0x0 MSTORE PUSH1 0x31 PUSH1 0x4 MSTORE PUSH1 0x24 PUSH1 0x0 REVERT JUMPDEST PUSH4 0x4E487B71 PUSH1 0xE0 SHL PUSH1 0x0 MSTORE PUSH1 0x11 PUSH1 0x4 MSTORE PUSH1 0x24 PUSH1 0x0 REVERT JUMPDEST DUP2 DUP2 SUB DUP2 DUP2 GT ISZERO PUSH2 0x391 JUMPI PUSH2 0x391 PUSH2 0x368 JUMP JUMPDEST SWAP3 SWAP2 POP POP JUMP JUMPDEST DUP1 DUP3 ADD DUP1 DUP3 GT ISZERO PUSH2 0x391 JUMPI PUSH2 0x391 PUSH2 0x368 JUMP JUMPDEST PUSH4 0x4E487B71 PUSH1 0xE0 SHL PUSH1 0x0 MSTORE PUSH1 0x32 PUSH1 0x4 MSTORE PUSH1 0x24 PUSH1 0x0 REVERT JUMPDEST PUSH1 0x0 PUSH1 0x1 DUP3 ADD PUSH2 0x3D2 JUMPI PUSH2 0x3D2 PUSH2 0x368 JUMP JUMPDEST POP PUSH1 0x1 ADD SWAP1 JUMP INVALID LOG2 PUSH5 0x6970667358 0x22 SLT KECCAK256 DUP4 PREVRANDAO 0xB9 PUSH9 0xE95C3C7AFC03A20F9F 0x2A 0xF7 PUSH7 0xCC538A727720BB 0xD1 0xE0 0xD9 SWAP13 0xE6 0x1F BASEFEE PUSH25 0xC464736F6C6343000812003300000000000000000000000000 "
				},
				"gasEstimates": {
					"creation": {
						"codeDepositCost": "207800",
						"executionCost": "infinite",
						"totalCost": "infinite"
					},
					"external": {
						"arr(uint256)": "4652",
						"arr2(uint256)": "4651",
						"arr3(uint256)": "2406",
						"delLast()": "29446",
						"get(uint256)": "4609",
						"getLen()": "2314",
						"insert(uint256)": "46564",
						"remove(uint256)": "7476",
						"removeCopy(uint256)": "60342",
						"removeShift(uint256)": "infinite"
					}
				},
				"methodIdentifiers": {
					"arr(uint256)": "71e5ee5f",
					"arr2(uint256)": "edf0099b",
					"arr3(uint256)": "8732ded8",
					"delLast()": "0be0c6d5",
					"get(uint256)": "9507d39a",
					"getLen()": "4a90be57",
					"insert(uint256)": "90b5561d",
					"remove(uint256)": "4cc82215",
					"removeCopy(uint256)": "c4cb60c4",
					"removeShift(uint256)": "1538bd46"
				}
			},
			"storageLayout": {
				"storage": [
					{
						"astId": 8,
						"contract": "contracts/arrays.sol:array",
						"label": "arr",
						"offset": 0,
						"slot": "0",
						"type": "t_array(t_uint256)dyn_storage"
					},
					{
						"astId": 11,
						"contract": "contracts/arrays.sol:array",
						"label": "arr2",
						"offset": 0,
						"slot": "1",
						"type": "t_array(t_uint256)dyn_storage"
					},
					{
						"astId": 15,
						"contract": "contracts/arrays.sol:array",
						"label": "arr3",
						"offset": 0,
						"slot": "2",
						"type": "t_array(t_uint256)10_storage"
					}
				],
				"types": {
					"t_array(t_uint256)10_storage": {
						"base": "t_uint256",
						"encoding": "inplace",
						"label": "uint256[10]",
						"numberOfBytes": "320"
					},
					"t_array(t_uint256)dyn_storage": {
						"base": "t_uint256",
						"encoding": "dynamic_array",
						"label": "uint256[]",
						"numberOfBytes": "32"
					},
					"t_uint256": {
						"encoding": "inplace",
						"label": "uint256",
						"numberOfBytes": "32"
					}
				}
			},
			"userdoc": {
				"kind": "user",
				"methods": {},
				"version": 1
			}
		}
	}
}