{
	"contracts/advance solidity/payable2.sol": {
		"Payable": {
			"abi": [
				{
					"inputs": [],
					"stateMutability": "nonpayable",
					"type": "constructor"
				},
				{
					"inputs": [],
					"name": "deposit",
					"outputs": [],
					"stateMutability": "payable",
					"type": "function"
				},
				{
					"inputs": [],
					"name": "getBalance",
					"outputs": [
						{
							"internalType": "uint256",
							"name": "",
							"type": "uint256"
						}
					],
					"stateMutability": "view",
					"type": "function"
				},
				{
					"inputs": [],
					"name": "owner",
					"outputs": [
						{
							"internalType": "address payable",
							"name": "",
							"type": "address"
						}
					],
					"stateMutability": "view",
					"type": "function"
				}
			],
			"devdoc": {
				"kind": "dev",
				"methods": {},
				"version": 1
			},
			"evm": {
				"assembly": "    /* \"contracts/advance solidity/payable2.sol\":60:565  contract Payable {... */\n  mstore(0x40, 0x80)\n    /* \"contracts/advance solidity/payable2.sol\":179:239  constructor() {... */\n  callvalue\n  dup1\n  iszero\n  tag_1\n  jumpi\n  0x00\n  dup1\n  revert\ntag_1:\n  pop\n    /* \"contracts/advance solidity/payable2.sol\":204:209  owner */\n  0x00\n    /* \"contracts/advance solidity/payable2.sol\":204:231  owner = payable(msg.sender) */\n  dup1\n  sload\n  not(sub(shl(0xa0, 0x01), 0x01))\n  and\n    /* \"contracts/advance solidity/payable2.sol\":220:230  msg.sender */\n  caller\n    /* \"contracts/advance solidity/payable2.sol\":204:231  owner = payable(msg.sender) */\n  or\n  swap1\n  sstore\n    /* \"contracts/advance solidity/payable2.sol\":60:565  contract Payable {... */\n  dataSize(sub_0)\n  dup1\n  dataOffset(sub_0)\n  0x00\n  codecopy\n  0x00\n  return\nstop\n\nsub_0: assembly {\n        /* \"contracts/advance solidity/payable2.sol\":60:565  contract Payable {... */\n      mstore(0x40, 0x80)\n      jumpi(tag_1, lt(calldatasize, 0x04))\n      shr(0xe0, calldataload(0x00))\n      dup1\n      0x12065fe0\n      eq\n      tag_2\n      jumpi\n      dup1\n      0x8da5cb5b\n      eq\n      tag_3\n      jumpi\n      dup1\n      0xd0e30db0\n      eq\n      tag_4\n      jumpi\n    tag_1:\n      0x00\n      dup1\n      revert\n        /* \"contracts/advance solidity/payable2.sol\":466:562  function getBalance() public view returns(uint){... */\n    tag_2:\n      callvalue\n      dup1\n      iszero\n      tag_5\n      jumpi\n      0x00\n      dup1\n      revert\n    tag_5:\n      pop\n      mload(0x40)\n        /* \"contracts/advance solidity/payable2.sol\":533:554  address(this).balance */\n      selfbalance\n        /* \"#utility.yul\":160:185   */\n      dup2\n      mstore\n        /* \"#utility.yul\":148:150   */\n      0x20\n        /* \"#utility.yul\":133:151   */\n      add\n        /* \"contracts/advance solidity/payable2.sol\":466:562  function getBalance() public view returns(uint){... */\n    tag_8:\n      mload(0x40)\n      dup1\n      swap2\n      sub\n      swap1\n      return\n        /* \"contracts/advance solidity/payable2.sol\":142:170  address payable public owner */\n    tag_3:\n      callvalue\n      dup1\n      iszero\n      tag_10\n      jumpi\n      0x00\n      dup1\n      revert\n    tag_10:\n      pop\n      sload(0x00)\n      tag_11\n      swap1\n      sub(shl(0xa0, 0x01), 0x01)\n      and\n      dup2\n      jump\n    tag_11:\n      mload(0x40)\n      sub(shl(0xa0, 0x01), 0x01)\n        /* \"#utility.yul\":376:408   */\n      swap1\n      swap2\n      and\n        /* \"#utility.yul\":358:409   */\n      dup2\n      mstore\n        /* \"#utility.yul\":346:348   */\n      0x20\n        /* \"#utility.yul\":331:349   */\n      add\n        /* \"contracts/advance solidity/payable2.sol\":142:170  address payable public owner */\n      tag_8\n        /* \"#utility.yul\":196:415   */\n      jump\n        /* \"contracts/advance solidity/payable2.sol\":249:285  function deposit() payable public {} */\n    tag_4:\n      stop\n\n    auxdata: 0xa26469706673582212207445070a60fe4c9a29bfc35a6a82b6827fd7f2c1f7e8a32fd2e48dd8b742fd0964736f6c63430008120033\n}\n",
				"bytecode": {
					"linkReferences": {},
					"object": "608060405234801561001057600080fd5b50600080546001600160a01b0319163317905560c1806100316000396000f3fe60806040526004361060305760003560e01c806312065fe01460355780638da5cb5b146054578063d0e30db0146089575b600080fd5b348015604057600080fd5b506040514781526020015b60405180910390f35b348015605f57600080fd5b506000546072906001600160a01b031681565b6040516001600160a01b039091168152602001604b565b00fea26469706673582212207445070a60fe4c9a29bfc35a6a82b6827fd7f2c1f7e8a32fd2e48dd8b742fd0964736f6c63430008120033",
					"opcodes": "PUSH1 0x80 PUSH1 0x40 MSTORE CALLVALUE DUP1 ISZERO PUSH2 0x10 JUMPI PUSH1 0x0 DUP1 REVERT JUMPDEST POP PUSH1 0x0 DUP1 SLOAD PUSH1 0x1 PUSH1 0x1 PUSH1 0xA0 SHL SUB NOT AND CALLER OR SWAP1 SSTORE PUSH1 0xC1 DUP1 PUSH2 0x31 PUSH1 0x0 CODECOPY PUSH1 0x0 RETURN INVALID PUSH1 0x80 PUSH1 0x40 MSTORE PUSH1 0x4 CALLDATASIZE LT PUSH1 0x30 JUMPI PUSH1 0x0 CALLDATALOAD PUSH1 0xE0 SHR DUP1 PUSH4 0x12065FE0 EQ PUSH1 0x35 JUMPI DUP1 PUSH4 0x8DA5CB5B EQ PUSH1 0x54 JUMPI DUP1 PUSH4 0xD0E30DB0 EQ PUSH1 0x89 JUMPI JUMPDEST PUSH1 0x0 DUP1 REVERT JUMPDEST CALLVALUE DUP1 ISZERO PUSH1 0x40 JUMPI PUSH1 0x0 DUP1 REVERT JUMPDEST POP PUSH1 0x40 MLOAD SELFBALANCE DUP2 MSTORE PUSH1 0x20 ADD JUMPDEST PUSH1 0x40 MLOAD DUP1 SWAP2 SUB SWAP1 RETURN JUMPDEST CALLVALUE DUP1 ISZERO PUSH1 0x5F JUMPI PUSH1 0x0 DUP1 REVERT JUMPDEST POP PUSH1 0x0 SLOAD PUSH1 0x72 SWAP1 PUSH1 0x1 PUSH1 0x1 PUSH1 0xA0 SHL SUB AND DUP2 JUMP JUMPDEST PUSH1 0x40 MLOAD PUSH1 0x1 PUSH1 0x1 PUSH1 0xA0 SHL SUB SWAP1 SWAP2 AND DUP2 MSTORE PUSH1 0x20 ADD PUSH1 0x4B JUMP JUMPDEST STOP INVALID LOG2 PUSH5 0x6970667358 0x22 SLT KECCAK256 PUSH21 0x45070A60FE4C9A29BFC35A6A82B6827FD7F2C1F7E8 LOG3 0x2F 0xD2 0xE4 DUP14 0xD8 0xB7 TIMESTAMP REVERT MULMOD PUSH5 0x736F6C6343 STOP ADDMOD SLT STOP CALLER "
				},
				"gasEstimates": {
					"creation": {
						"codeDepositCost": "38600",
						"executionCost": "24328",
						"totalCost": "62928"
					},
					"external": {
						"deposit()": "118",
						"getBalance()": "146",
						"owner()": "2337"
					}
				},
				"methodIdentifiers": {
					"deposit()": "d0e30db0",
					"getBalance()": "12065fe0",
					"owner()": "8da5cb5b"
				}
			},
			"storageLayout": {
				"storage": [
					{
						"astId": 3,
						"contract": "contracts/advance solidity/payable2.sol:Payable",
						"label": "owner",
						"offset": 0,
						"slot": "0",
						"type": "t_address_payable"
					}
				],
				"types": {
					"t_address_payable": {
						"encoding": "inplace",
						"label": "address payable",
						"numberOfBytes": "20"
					}
				}
			},
			"userdoc": {
				"kind": "user",
				"methods": {},
				"version": 1
			}
		}
	}
}