{
	"contracts/advance solidity/transfer-send-call.sol": {
		"sendEther": {
			"abi": [
				{
					"inputs": [],
					"stateMutability": "payable",
					"type": "constructor"
				},
				{
					"inputs": [
						{
							"internalType": "address payable",
							"name": "_to",
							"type": "address"
						},
						{
							"internalType": "uint256",
							"name": "amount",
							"type": "uint256"
						}
					],
					"name": "sendViaSend",
					"outputs": [],
					"stateMutability": "payable",
					"type": "function"
				},
				{
					"inputs": [
						{
							"internalType": "address payable",
							"name": "_to",
							"type": "address"
						},
						{
							"internalType": "uint256",
							"name": "amount",
							"type": "uint256"
						}
					],
					"name": "sendViaTransfer",
					"outputs": [],
					"stateMutability": "payable",
					"type": "function"
				},
				{
					"stateMutability": "payable",
					"type": "receive"
				}
			],
			"devdoc": {
				"kind": "dev",
				"methods": {},
				"version": 1
			},
			"evm": {
				"assembly": "    /* \"contracts/advance solidity/transfer-send-call.sol\":1206:1595  contract  sendEther {... */\n  mstore(0x40, 0x80)\n  dataSize(sub_0)\n  dup1\n  dataOffset(sub_0)\n  0x00\n  codecopy\n  0x00\n  return\nstop\n\nsub_0: assembly {\n        /* \"contracts/advance solidity/transfer-send-call.sol\":1206:1595  contract  sendEther {... */\n      mstore(0x40, 0x80)\n      jumpi(tag_1, lt(calldatasize, 0x04))\n      shr(0xe0, calldataload(0x00))\n      dup1\n      0x8c7736f4\n      eq\n      tag_3\n      jumpi\n      dup1\n      0xd27f8e66\n      eq\n      tag_4\n      jumpi\n      0x00\n      dup1\n      revert\n    tag_1:\n      jumpi(tag_2, calldatasize)\n      stop\n    tag_2:\n      0x00\n      dup1\n      revert\n        /* \"contracts/advance solidity/transfer-send-call.sol\":1429:1592  function sendViaSend(address payable _to, uint amount) external payable {... */\n    tag_3:\n      tag_7\n      tag_8\n      calldatasize\n      0x04\n      tag_9\n      jump\t// in\n    tag_8:\n      tag_10\n      jump\t// in\n    tag_7:\n      stop\n        /* \"contracts/advance solidity/transfer-send-call.sol\":1301:1421  function sendViaTransfer(address payable _to, uint amount) external payable {... */\n    tag_4:\n      tag_7\n      tag_12\n      calldatasize\n      0x04\n      tag_9\n      jump\t// in\n    tag_12:\n      tag_13\n      jump\t// in\n        /* \"contracts/advance solidity/transfer-send-call.sol\":1429:1592  function sendViaSend(address payable _to, uint amount) external payable {... */\n    tag_10:\n        /* \"contracts/advance solidity/transfer-send-call.sol\":1512:1521  bool sent */\n      0x00\n      sub(shl(0xa0, 0x01), 0x01)\n        /* \"contracts/advance solidity/transfer-send-call.sol\":1524:1532  _to.send */\n      dup4\n      and\n        /* \"contracts/advance solidity/transfer-send-call.sol\":1524:1545  _to.send(amount*1e18) */\n      0x08fc\n        /* \"contracts/advance solidity/transfer-send-call.sol\":1533:1544  amount*1e18 */\n      tag_15\n        /* \"contracts/advance solidity/transfer-send-call.sol\":1533:1539  amount */\n      dup5\n        /* \"contracts/advance solidity/transfer-send-call.sol\":1540:1544  1e18 */\n      0x0de0b6b3a7640000\n        /* \"contracts/advance solidity/transfer-send-call.sol\":1533:1544  amount*1e18 */\n      tag_16\n      jump\t// in\n    tag_15:\n        /* \"contracts/advance solidity/transfer-send-call.sol\":1524:1545  _to.send(amount*1e18) */\n      mload(0x40)\n      dup2\n      iszero\n      swap1\n      swap3\n      mul\n      swap2\n      0x00\n      dup2\n      dup2\n      dup2\n      dup6\n      dup9\n      dup9\n      call\n      swap4\n      pop\n      pop\n      pop\n      pop\n        /* \"contracts/advance solidity/transfer-send-call.sol\":1512:1545  bool sent = _to.send(amount*1e18) */\n      swap1\n      pop\n        /* \"contracts/advance solidity/transfer-send-call.sol\":1564:1568  sent */\n      dup1\n        /* \"contracts/advance solidity/transfer-send-call.sol\":1556:1584  require(sent, \"call failed\") */\n      tag_18\n      jumpi\n      mload(0x40)\n      shl(0xe5, 0x461bcd)\n      dup2\n      mstore\n        /* \"#utility.yul\":853:855   */\n      0x20\n        /* \"contracts/advance solidity/transfer-send-call.sol\":1556:1584  require(sent, \"call failed\") */\n      0x04\n      dup3\n      add\n        /* \"#utility.yul\":835:856   */\n      mstore\n        /* \"#utility.yul\":892:894   */\n      0x0b\n        /* \"#utility.yul\":872:890   */\n      0x24\n      dup3\n      add\n        /* \"#utility.yul\":865:895   */\n      mstore\n      shl(0xaa, 0x18d85b1b0819985a5b1959)\n        /* \"#utility.yul\":911:929   */\n      0x44\n      dup3\n      add\n        /* \"#utility.yul\":904:945   */\n      mstore\n        /* \"#utility.yul\":962:980   */\n      0x64\n      add\n        /* \"contracts/advance solidity/transfer-send-call.sol\":1556:1584  require(sent, \"call failed\") */\n      mload(0x40)\n      dup1\n      swap2\n      sub\n      swap1\n      revert\n    tag_18:\n        /* \"contracts/advance solidity/transfer-send-call.sol\":1501:1592  {... */\n      pop\n        /* \"contracts/advance solidity/transfer-send-call.sol\":1429:1592  function sendViaSend(address payable _to, uint amount) external payable {... */\n      pop\n      pop\n      jump\t// out\n        /* \"contracts/advance solidity/transfer-send-call.sol\":1301:1421  function sendViaTransfer(address payable _to, uint amount) external payable {... */\n    tag_13:\n      sub(shl(0xa0, 0x01), 0x01)\n        /* \"contracts/advance solidity/transfer-send-call.sol\":1388:1400  _to.transfer */\n      dup3\n      and\n        /* \"contracts/advance solidity/transfer-send-call.sol\":1388:1413  _to.transfer(amount*1e18) */\n      0x08fc\n        /* \"contracts/advance solidity/transfer-send-call.sol\":1401:1412  amount*1e18 */\n      tag_22\n        /* \"contracts/advance solidity/transfer-send-call.sol\":1401:1407  amount */\n      dup4\n        /* \"contracts/advance solidity/transfer-send-call.sol\":1408:1412  1e18 */\n      0x0de0b6b3a7640000\n        /* \"contracts/advance solidity/transfer-send-call.sol\":1401:1412  amount*1e18 */\n      tag_16\n      jump\t// in\n    tag_22:\n        /* \"contracts/advance solidity/transfer-send-call.sol\":1388:1413  _to.transfer(amount*1e18) */\n      mload(0x40)\n      dup2\n      iszero\n      swap1\n      swap3\n      mul\n      swap2\n      0x00\n      dup2\n      dup2\n      dup2\n      dup6\n      dup9\n      dup9\n      call\n      swap4\n      pop\n      pop\n      pop\n      pop\n      iszero\n      dup1\n      iszero\n      tag_18\n      jumpi\n      returndatasize\n      0x00\n      dup1\n      returndatacopy\n      revert(0x00, returndatasize)\n        /* \"#utility.yul\":14:376   */\n    tag_9:\n        /* \"#utility.yul\":90:96   */\n      0x00\n        /* \"#utility.yul\":98:104   */\n      dup1\n        /* \"#utility.yul\":151:153   */\n      0x40\n        /* \"#utility.yul\":139:148   */\n      dup4\n        /* \"#utility.yul\":130:137   */\n      dup6\n        /* \"#utility.yul\":126:149   */\n      sub\n        /* \"#utility.yul\":122:154   */\n      slt\n        /* \"#utility.yul\":119:171   */\n      iszero\n      tag_27\n      jumpi\n        /* \"#utility.yul\":167:168   */\n      0x00\n        /* \"#utility.yul\":164:165   */\n      dup1\n        /* \"#utility.yul\":157:169   */\n      revert\n        /* \"#utility.yul\":119:171   */\n    tag_27:\n        /* \"#utility.yul\":193:216   */\n      dup3\n      calldataload\n      sub(shl(0xa0, 0x01), 0x01)\n        /* \"#utility.yul\":245:276   */\n      dup2\n      and\n        /* \"#utility.yul\":235:277   */\n      dup2\n      eq\n        /* \"#utility.yul\":225:295   */\n      tag_28\n      jumpi\n        /* \"#utility.yul\":291:292   */\n      0x00\n        /* \"#utility.yul\":288:289   */\n      dup1\n        /* \"#utility.yul\":281:293   */\n      revert\n        /* \"#utility.yul\":225:295   */\n    tag_28:\n        /* \"#utility.yul\":314:319   */\n      swap5\n        /* \"#utility.yul\":366:368   */\n      0x20\n        /* \"#utility.yul\":351:369   */\n      swap4\n      swap1\n      swap4\n      add\n        /* \"#utility.yul\":338:370   */\n      calldataload\n      swap4\n      pop\n      pop\n      pop\n        /* \"#utility.yul\":14:376   */\n      jump\t// out\n        /* \"#utility.yul\":381:646   */\n    tag_16:\n        /* \"#utility.yul\":454:463   */\n      dup1\n      dup3\n      mul\n        /* \"#utility.yul\":485:494   */\n      dup2\n      iszero\n        /* \"#utility.yul\":502:517   */\n      dup3\n      dup3\n      div\n        /* \"#utility.yul\":496:518   */\n      dup5\n      eq\n        /* \"#utility.yul\":482:519   */\n      or\n        /* \"#utility.yul\":472:640   */\n      tag_30\n      jumpi\n        /* \"#utility.yul\":562:572   */\n      0x4e487b71\n        /* \"#utility.yul\":557:560   */\n      0xe0\n        /* \"#utility.yul\":553:573   */\n      shl\n        /* \"#utility.yul\":550:551   */\n      0x00\n        /* \"#utility.yul\":543:574   */\n      mstore\n        /* \"#utility.yul\":597:601   */\n      0x11\n        /* \"#utility.yul\":594:595   */\n      0x04\n        /* \"#utility.yul\":587:602   */\n      mstore\n        /* \"#utility.yul\":625:629   */\n      0x24\n        /* \"#utility.yul\":622:623   */\n      0x00\n        /* \"#utility.yul\":615:630   */\n      revert\n        /* \"#utility.yul\":472:640   */\n    tag_30:\n        /* \"#utility.yul\":381:646   */\n      swap3\n      swap2\n      pop\n      pop\n      jump\t// out\n\n    auxdata: 0xa26469706673582212206ceaf2fe17fcf7c43a305011f27c9b287568c8c9fc3f406fab8cbb5cc0b84e1264736f6c63430008120033\n}\n",
				"bytecode": {
					"linkReferences": {},
					"object": "60806040526101bf806100136000396000f3fe60806040526004361061002d5760003560e01c80638c7736f414610039578063d27f8e661461004e57600080fd5b3661003457005b600080fd5b61004c610047366004610126565b610061565b005b61004c61005c366004610126565b6100df565b60006001600160a01b0383166108fc61008284670de0b6b3a764000061015e565b6040518115909202916000818181858888f193505050509050806100da5760405162461bcd60e51b815260206004820152600b60248201526a18d85b1b0819985a5b195960aa1b604482015260640160405180910390fd5b505050565b6001600160a01b0382166108fc6100fe83670de0b6b3a764000061015e565b6040518115909202916000818181858888f193505050501580156100da573d6000803e3d6000fd5b6000806040838503121561013957600080fd5b82356001600160a01b038116811461015057600080fd5b946020939093013593505050565b808202811582820484141761018357634e487b7160e01b600052601160045260246000fd5b9291505056fea26469706673582212206ceaf2fe17fcf7c43a305011f27c9b287568c8c9fc3f406fab8cbb5cc0b84e1264736f6c63430008120033",
					"opcodes": "PUSH1 0x80 PUSH1 0x40 MSTORE PUSH2 0x1BF DUP1 PUSH2 0x13 PUSH1 0x0 CODECOPY PUSH1 0x0 RETURN INVALID PUSH1 0x80 PUSH1 0x40 MSTORE PUSH1 0x4 CALLDATASIZE LT PUSH2 0x2D JUMPI PUSH1 0x0 CALLDATALOAD PUSH1 0xE0 SHR DUP1 PUSH4 0x8C7736F4 EQ PUSH2 0x39 JUMPI DUP1 PUSH4 0xD27F8E66 EQ PUSH2 0x4E JUMPI PUSH1 0x0 DUP1 REVERT JUMPDEST CALLDATASIZE PUSH2 0x34 JUMPI STOP JUMPDEST PUSH1 0x0 DUP1 REVERT JUMPDEST PUSH2 0x4C PUSH2 0x47 CALLDATASIZE PUSH1 0x4 PUSH2 0x126 JUMP JUMPDEST PUSH2 0x61 JUMP JUMPDEST STOP JUMPDEST PUSH2 0x4C PUSH2 0x5C CALLDATASIZE PUSH1 0x4 PUSH2 0x126 JUMP JUMPDEST PUSH2 0xDF JUMP JUMPDEST PUSH1 0x0 PUSH1 0x1 PUSH1 0x1 PUSH1 0xA0 SHL SUB DUP4 AND PUSH2 0x8FC PUSH2 0x82 DUP5 PUSH8 0xDE0B6B3A7640000 PUSH2 0x15E JUMP JUMPDEST PUSH1 0x40 MLOAD DUP2 ISZERO SWAP1 SWAP3 MUL SWAP2 PUSH1 0x0 DUP2 DUP2 DUP2 DUP6 DUP9 DUP9 CALL SWAP4 POP POP POP POP SWAP1 POP DUP1 PUSH2 0xDA JUMPI PUSH1 0x40 MLOAD PUSH3 0x461BCD PUSH1 0xE5 SHL DUP2 MSTORE PUSH1 0x20 PUSH1 0x4 DUP3 ADD MSTORE PUSH1 0xB PUSH1 0x24 DUP3 ADD MSTORE PUSH11 0x18D85B1B0819985A5B1959 PUSH1 0xAA SHL PUSH1 0x44 DUP3 ADD MSTORE PUSH1 0x64 ADD PUSH1 0x40 MLOAD DUP1 SWAP2 SUB SWAP1 REVERT JUMPDEST POP POP POP JUMP JUMPDEST PUSH1 0x1 PUSH1 0x1 PUSH1 0xA0 SHL SUB DUP3 AND PUSH2 0x8FC PUSH2 0xFE DUP4 PUSH8 0xDE0B6B3A7640000 PUSH2 0x15E JUMP JUMPDEST PUSH1 0x40 MLOAD DUP2 ISZERO SWAP1 SWAP3 MUL SWAP2 PUSH1 0x0 DUP2 DUP2 DUP2 DUP6 DUP9 DUP9 CALL SWAP4 POP POP POP POP ISZERO DUP1 ISZERO PUSH2 0xDA JUMPI RETURNDATASIZE PUSH1 0x0 DUP1 RETURNDATACOPY RETURNDATASIZE PUSH1 0x0 REVERT JUMPDEST PUSH1 0x0 DUP1 PUSH1 0x40 DUP4 DUP6 SUB SLT ISZERO PUSH2 0x139 JUMPI PUSH1 0x0 DUP1 REVERT JUMPDEST DUP3 CALLDATALOAD PUSH1 0x1 PUSH1 0x1 PUSH1 0xA0 SHL SUB DUP2 AND DUP2 EQ PUSH2 0x150 JUMPI PUSH1 0x0 DUP1 REVERT JUMPDEST SWAP5 PUSH1 0x20 SWAP4 SWAP1 SWAP4 ADD CALLDATALOAD SWAP4 POP POP POP JUMP JUMPDEST DUP1 DUP3 MUL DUP2 ISZERO DUP3 DUP3 DIV DUP5 EQ OR PUSH2 0x183 JUMPI PUSH4 0x4E487B71 PUSH1 0xE0 SHL PUSH1 0x0 MSTORE PUSH1 0x11 PUSH1 0x4 MSTORE PUSH1 0x24 PUSH1 0x0 REVERT JUMPDEST SWAP3 SWAP2 POP POP JUMP INVALID LOG2 PUSH5 0x6970667358 0x22 SLT KECCAK256 PUSH13 0xEAF2FE17FCF7C43A305011F27C SWAP12 0x28 PUSH22 0x68C8C9FC3F406FAB8CBB5CC0B84E1264736F6C634300 ADDMOD SLT STOP CALLER "
				},
				"gasEstimates": {
					"creation": {
						"codeDepositCost": "89400",
						"executionCost": "111",
						"totalCost": "89511"
					},
					"external": {
						"sendViaSend(address,uint256)": "infinite",
						"sendViaTransfer(address,uint256)": "infinite"
					}
				},
				"methodIdentifiers": {
					"sendViaSend(address,uint256)": "8c7736f4",
					"sendViaTransfer(address,uint256)": "d27f8e66"
				}
			},
			"storageLayout": {
				"storage": [],
				"types": null
			},
			"userdoc": {
				"kind": "user",
				"methods": {},
				"version": 1
			}
		}
	}
}