{
	"contracts/advance solidity/calling-contract-from-other-practice.sol": {
		"callTestContract": {
			"abi": [
				{
					"inputs": [
						{
							"internalType": "address",
							"name": "_testContractAddress",
							"type": "address"
						}
					],
					"name": "getX1",
					"outputs": [
						{
							"internalType": "uint256",
							"name": "_x",
							"type": "uint256"
						}
					],
					"stateMutability": "view",
					"type": "function"
				},
				{
					"inputs": [
						{
							"internalType": "contract testContract",
							"name": "_test",
							"type": "address"
						}
					],
					"name": "getXandvalue1",
					"outputs": [
						{
							"internalType": "uint256",
							"name": "_x",
							"type": "uint256"
						},
						{
							"internalType": "uint256",
							"name": "_value",
							"type": "uint256"
						}
					],
					"stateMutability": "view",
					"type": "function"
				},
				{
					"inputs": [
						{
							"internalType": "address",
							"name": "_testContractAddress",
							"type": "address"
						},
						{
							"internalType": "uint256",
							"name": "_x",
							"type": "uint256"
						}
					],
					"name": "setX1",
					"outputs": [],
					"stateMutability": "nonpayable",
					"type": "function"
				},
				{
					"inputs": [
						{
							"internalType": "contract testContract",
							"name": "_test",
							"type": "address"
						},
						{
							"internalType": "uint256",
							"name": "_x",
							"type": "uint256"
						}
					],
					"name": "setX2",
					"outputs": [],
					"stateMutability": "nonpayable",
					"type": "function"
				},
				{
					"inputs": [
						{
							"internalType": "contract testContract",
							"name": "_testAddress",
							"type": "address"
						},
						{
							"internalType": "uint256",
							"name": "_x",
							"type": "uint256"
						}
					],
					"name": "setXAndEth",
					"outputs": [],
					"stateMutability": "payable",
					"type": "function"
				}
			],
			"devdoc": {
				"kind": "dev",
				"methods": {},
				"version": 1
			},
			"evm": {
				"assembly": "    /* \"contracts/advance solidity/calling-contract-from-other-practice.sol\":60:847  contract callTestContract {... */\n  mstore(0x40, 0x80)\n  callvalue\n  dup1\n  iszero\n  tag_1\n  jumpi\n  0x00\n  dup1\n  revert\ntag_1:\n  pop\n  dataSize(sub_0)\n  dup1\n  dataOffset(sub_0)\n  0x00\n  codecopy\n  0x00\n  return\nstop\n\nsub_0: assembly {\n        /* \"contracts/advance solidity/calling-contract-from-other-practice.sol\":60:847  contract callTestContract {... */\n      mstore(0x40, 0x80)\n      jumpi(tag_1, lt(calldatasize, 0x04))\n      shr(0xe0, calldataload(0x00))\n      dup1\n      0x7a8fe110\n      eq\n      tag_2\n      jumpi\n      dup1\n      0x90a10755\n      eq\n      tag_3\n      jumpi\n      dup1\n      0xa263701a\n      eq\n      tag_4\n      jumpi\n      dup1\n      0xd7b102ca\n      eq\n      tag_5\n      jumpi\n      dup1\n      0xef7aea62\n      eq\n      tag_4\n      jumpi\n    tag_1:\n      0x00\n      dup1\n      revert\n        /* \"contracts/advance solidity/calling-contract-from-other-practice.sol\":702:840  function getXandvalue1(testContract _test) public view returns(uint _x, uint _value){... */\n    tag_2:\n      callvalue\n      dup1\n      iszero\n      tag_7\n      jumpi\n      0x00\n      dup1\n      revert\n    tag_7:\n      pop\n      tag_8\n      tag_9\n      calldatasize\n      0x04\n      tag_10\n      jump\t// in\n    tag_9:\n      tag_11\n      jump\t// in\n    tag_8:\n      0x40\n      dup1\n      mload\n        /* \"#utility.yul\":624:649   */\n      swap3\n      dup4\n      mstore\n        /* \"#utility.yul\":680:682   */\n      0x20\n        /* \"#utility.yul\":665:683   */\n      dup4\n      add\n        /* \"#utility.yul\":658:692   */\n      swap2\n      swap1\n      swap2\n      mstore\n        /* \"#utility.yul\":597:615   */\n      add\n        /* \"contracts/advance solidity/calling-contract-from-other-practice.sol\":702:840  function getXandvalue1(testContract _test) public view returns(uint _x, uint _value){... */\n    tag_12:\n      mload(0x40)\n      dup1\n      swap2\n      sub\n      swap1\n      return\n        /* \"contracts/advance solidity/calling-contract-from-other-practice.sol\":551:694  function setXAndEth(testContract _testAddress, uint _x) public payable {... */\n    tag_3:\n      tag_14\n      tag_15\n      calldatasize\n      0x04\n      tag_16\n      jump\t// in\n    tag_15:\n      tag_17\n      jump\t// in\n    tag_14:\n      stop\n        /* \"contracts/advance solidity/calling-contract-from-other-practice.sol\":127:250  function setX1(address _testContractAddress, uint _x) public {... */\n    tag_4:\n      callvalue\n      dup1\n      iszero\n      tag_18\n      jumpi\n      0x00\n      dup1\n      revert\n    tag_18:\n      pop\n      tag_14\n      tag_20\n      calldatasize\n      0x04\n      tag_16\n      jump\t// in\n    tag_20:\n      tag_22\n      jump\t// in\n        /* \"contracts/advance solidity/calling-contract-from-other-practice.sol\":404:543  function getX1(address _testContractAddress) public view returns(uint _x) {... */\n    tag_5:\n      callvalue\n      dup1\n      iszero\n      tag_23\n      jumpi\n      0x00\n      dup1\n      revert\n    tag_23:\n      pop\n      tag_24\n      tag_25\n      calldatasize\n      0x04\n      tag_10\n      jump\t// in\n    tag_25:\n      tag_27\n      jump\t// in\n    tag_24:\n      mload(0x40)\n        /* \"#utility.yul\":1803:1828   */\n      swap1\n      dup2\n      mstore\n        /* \"#utility.yul\":1791:1793   */\n      0x20\n        /* \"#utility.yul\":1776:1794   */\n      add\n        /* \"contracts/advance solidity/calling-contract-from-other-practice.sol\":404:543  function getX1(address _testContractAddress) public view returns(uint _x) {... */\n      tag_12\n        /* \"#utility.yul\":1657:1834   */\n      jump\n        /* \"contracts/advance solidity/calling-contract-from-other-practice.sol\":702:840  function getXandvalue1(testContract _test) public view returns(uint _x, uint _value){... */\n    tag_11:\n        /* \"contracts/advance solidity/calling-contract-from-other-practice.sol\":765:772  uint _x */\n      0x00\n        /* \"contracts/advance solidity/calling-contract-from-other-practice.sol\":774:785  uint _value */\n      dup1\n        /* \"contracts/advance solidity/calling-contract-from-other-practice.sol\":812:817  _test */\n      dup3\n      sub(shl(0xa0, 0x01), 0x01)\n        /* \"contracts/advance solidity/calling-contract-from-other-practice.sol\":812:830  _test.getXandValue */\n      and\n      0xd6c7a3be\n        /* \"contracts/advance solidity/calling-contract-from-other-practice.sol\":812:832  _test.getXandValue() */\n      mload(0x40)\n      dup2\n      0xffffffff\n      and\n      0xe0\n      shl\n      dup2\n      mstore\n      0x04\n      add\n      0x40\n      dup1\n      mload\n      dup1\n      dup4\n      sub\n      dup2\n      dup7\n      gas\n      staticcall\n      iszero\n      dup1\n      iszero\n      tag_36\n      jumpi\n      returndatasize\n      0x00\n      dup1\n      returndatacopy\n      revert(0x00, returndatasize)\n    tag_36:\n      pop\n      pop\n      pop\n      pop\n      mload(0x40)\n      returndatasize\n      not(0x1f)\n      0x1f\n      dup3\n      add\n      and\n      dup3\n      add\n      dup1\n      0x40\n      mstore\n      pop\n      dup2\n      add\n      swap1\n      tag_37\n      swap2\n      swap1\n      tag_38\n      jump\t// in\n    tag_37:\n        /* \"contracts/advance solidity/calling-contract-from-other-practice.sol\":797:832  (_x, _value) = _test.getXandValue() */\n      swap1\n      swap5\n      swap1\n      swap4\n      pop\n        /* \"contracts/advance solidity/calling-contract-from-other-practice.sol\":702:840  function getXandvalue1(testContract _test) public view returns(uint _x, uint _value){... */\n      swap2\n      pop\n      pop\n      jump\t// out\n        /* \"contracts/advance solidity/calling-contract-from-other-practice.sol\":551:694  function setXAndEth(testContract _testAddress, uint _x) public payable {... */\n    tag_17:\n        /* \"contracts/advance solidity/calling-contract-from-other-practice.sol\":633:686  _testAddress.setXAndTransferEth{value: msg.value}(_x) */\n      mload(0x40)\n      shl(0xe0, 0xf1340681)\n      dup2\n      mstore\n      0x04\n      dup2\n      add\n        /* \"#utility.yul\":1803:1828   */\n      dup3\n      swap1\n      mstore\n      sub(shl(0xa0, 0x01), 0x01)\n        /* \"contracts/advance solidity/calling-contract-from-other-practice.sol\":633:664  _testAddress.setXAndTransferEth */\n      dup4\n      and\n      swap1\n      0xf1340681\n      swap1\n        /* \"contracts/advance solidity/calling-contract-from-other-practice.sol\":672:681  msg.value */\n      callvalue\n      swap1\n        /* \"#utility.yul\":1776:1794   */\n      0x24\n      add\n        /* \"contracts/advance solidity/calling-contract-from-other-practice.sol\":633:686  _testAddress.setXAndTransferEth{value: msg.value}(_x) */\n      0x00\n      mload(0x40)\n      dup1\n      dup4\n      sub\n      dup2\n      dup6\n      dup9\n      dup1\n      extcodesize\n      iszero\n      dup1\n      iszero\n      tag_41\n      jumpi\n      0x00\n      dup1\n      revert\n    tag_41:\n      pop\n      gas\n      call\n      iszero\n      dup1\n      iszero\n      tag_43\n      jumpi\n      returndatasize\n      0x00\n      dup1\n      returndatacopy\n      revert(0x00, returndatasize)\n    tag_43:\n      pop\n      pop\n      pop\n      pop\n      pop\n        /* \"contracts/advance solidity/calling-contract-from-other-practice.sol\":551:694  function setXAndEth(testContract _testAddress, uint _x) public payable {... */\n      pop\n      pop\n      jump\t// out\n        /* \"contracts/advance solidity/calling-contract-from-other-practice.sol\":127:250  function setX1(address _testContractAddress, uint _x) public {... */\n    tag_22:\n        /* \"contracts/advance solidity/calling-contract-from-other-practice.sol\":199:242  testContract(_testContractAddress).setX(_x) */\n      mload(0x40)\n      shl(0xe1, 0x200c6cd5)\n      dup2\n      mstore\n      0x04\n      dup2\n      add\n        /* \"#utility.yul\":1803:1828   */\n      dup3\n      swap1\n      mstore\n      sub(shl(0xa0, 0x01), 0x01)\n        /* \"contracts/advance solidity/calling-contract-from-other-practice.sol\":199:238  testContract(_testContractAddress).setX */\n      dup4\n      and\n      swap1\n      0x4018d9aa\n      swap1\n        /* \"#utility.yul\":1776:1794   */\n      0x24\n      add\n        /* \"contracts/advance solidity/calling-contract-from-other-practice.sol\":199:242  testContract(_testContractAddress).setX(_x) */\n      0x00\n      mload(0x40)\n      dup1\n      dup4\n      sub\n      dup2\n      0x00\n      dup8\n      dup1\n      extcodesize\n      iszero\n      dup1\n      iszero\n      tag_46\n      jumpi\n      0x00\n      dup1\n      revert\n    tag_46:\n      pop\n      gas\n      call\n      iszero\n      dup1\n      iszero\n      tag_48\n      jumpi\n      returndatasize\n      0x00\n      dup1\n      returndatacopy\n      revert(0x00, returndatasize)\n    tag_48:\n      pop\n      pop\n      pop\n      pop\n        /* \"contracts/advance solidity/calling-contract-from-other-practice.sol\":127:250  function setX1(address _testContractAddress, uint _x) public {... */\n      pop\n      pop\n      jump\t// out\n        /* \"contracts/advance solidity/calling-contract-from-other-practice.sol\":404:543  function getX1(address _testContractAddress) public view returns(uint _x) {... */\n    tag_27:\n        /* \"contracts/advance solidity/calling-contract-from-other-practice.sol\":469:476  uint _x */\n      0x00\n        /* \"contracts/advance solidity/calling-contract-from-other-practice.sol\":507:527  _testContractAddress */\n      dup2\n      sub(shl(0xa0, 0x01), 0x01)\n        /* \"contracts/advance solidity/calling-contract-from-other-practice.sol\":494:533  testContract(_testContractAddress).getX */\n      and\n      0x5197c7aa\n        /* \"contracts/advance solidity/calling-contract-from-other-practice.sol\":494:535  testContract(_testContractAddress).getX() */\n      mload(0x40)\n      dup2\n      0xffffffff\n      and\n      0xe0\n      shl\n      dup2\n      mstore\n      0x04\n      add\n      0x20\n      mload(0x40)\n      dup1\n      dup4\n      sub\n      dup2\n      dup7\n      gas\n      staticcall\n      iszero\n      dup1\n      iszero\n      tag_51\n      jumpi\n      returndatasize\n      0x00\n      dup1\n      returndatacopy\n      revert(0x00, returndatasize)\n    tag_51:\n      pop\n      pop\n      pop\n      pop\n      mload(0x40)\n      returndatasize\n      not(0x1f)\n      0x1f\n      dup3\n      add\n      and\n      dup3\n      add\n      dup1\n      0x40\n      mstore\n      pop\n      dup2\n      add\n      swap1\n      tag_52\n      swap2\n      swap1\n      tag_53\n      jump\t// in\n    tag_52:\n        /* \"contracts/advance solidity/calling-contract-from-other-practice.sol\":489:535  _x = testContract(_testContractAddress).getX() */\n      swap3\n        /* \"contracts/advance solidity/calling-contract-from-other-practice.sol\":404:543  function getX1(address _testContractAddress) public view returns(uint _x) {... */\n      swap2\n      pop\n      pop\n      jump\t// out\n        /* \"#utility.yul\":14:159   */\n    tag_59:\n      sub(shl(0xa0, 0x01), 0x01)\n        /* \"#utility.yul\":103:134   */\n      dup2\n      and\n        /* \"#utility.yul\":93:135   */\n      dup2\n      eq\n        /* \"#utility.yul\":83:153   */\n      tag_62\n      jumpi\n        /* \"#utility.yul\":149:150   */\n      0x00\n        /* \"#utility.yul\":146:147   */\n      dup1\n        /* \"#utility.yul\":139:151   */\n      revert\n        /* \"#utility.yul\":83:153   */\n    tag_62:\n        /* \"#utility.yul\":14:159   */\n      pop\n      jump\t// out\n        /* \"#utility.yul\":164:445   */\n    tag_10:\n        /* \"#utility.yul\":243:249   */\n      0x00\n        /* \"#utility.yul\":296:298   */\n      0x20\n        /* \"#utility.yul\":284:293   */\n      dup3\n        /* \"#utility.yul\":275:282   */\n      dup5\n        /* \"#utility.yul\":271:294   */\n      sub\n        /* \"#utility.yul\":267:299   */\n      slt\n        /* \"#utility.yul\":264:316   */\n      iszero\n      tag_64\n      jumpi\n        /* \"#utility.yul\":312:313   */\n      0x00\n        /* \"#utility.yul\":309:310   */\n      dup1\n        /* \"#utility.yul\":302:314   */\n      revert\n        /* \"#utility.yul\":264:316   */\n    tag_64:\n        /* \"#utility.yul\":351:360   */\n      dup2\n        /* \"#utility.yul\":338:361   */\n      calldataload\n        /* \"#utility.yul\":370:415   */\n      tag_65\n        /* \"#utility.yul\":409:414   */\n      dup2\n        /* \"#utility.yul\":370:415   */\n      tag_59\n      jump\t// in\n    tag_65:\n        /* \"#utility.yul\":434:439   */\n      swap4\n        /* \"#utility.yul\":164:445   */\n      swap3\n      pop\n      pop\n      pop\n      jump\t// out\n        /* \"#utility.yul\":703:1052   */\n    tag_16:\n        /* \"#utility.yul\":791:797   */\n      0x00\n        /* \"#utility.yul\":799:805   */\n      dup1\n        /* \"#utility.yul\":852:854   */\n      0x40\n        /* \"#utility.yul\":840:849   */\n      dup4\n        /* \"#utility.yul\":831:838   */\n      dup6\n        /* \"#utility.yul\":827:850   */\n      sub\n        /* \"#utility.yul\":823:855   */\n      slt\n        /* \"#utility.yul\":820:872   */\n      iszero\n      tag_68\n      jumpi\n        /* \"#utility.yul\":868:869   */\n      0x00\n        /* \"#utility.yul\":865:866   */\n      dup1\n        /* \"#utility.yul\":858:870   */\n      revert\n        /* \"#utility.yul\":820:872   */\n    tag_68:\n        /* \"#utility.yul\":907:916   */\n      dup3\n        /* \"#utility.yul\":894:917   */\n      calldataload\n        /* \"#utility.yul\":926:971   */\n      tag_69\n        /* \"#utility.yul\":965:970   */\n      dup2\n        /* \"#utility.yul\":926:971   */\n      tag_59\n      jump\t// in\n    tag_69:\n        /* \"#utility.yul\":990:995   */\n      swap5\n        /* \"#utility.yul\":1042:1044   */\n      0x20\n        /* \"#utility.yul\":1027:1045   */\n      swap4\n      swap1\n      swap4\n      add\n        /* \"#utility.yul\":1014:1046   */\n      calldataload\n      swap4\n      pop\n      pop\n      pop\n        /* \"#utility.yul\":703:1052   */\n      jump\t// out\n        /* \"#utility.yul\":1839:2084   */\n    tag_38:\n        /* \"#utility.yul\":1918:1924   */\n      0x00\n        /* \"#utility.yul\":1926:1932   */\n      dup1\n        /* \"#utility.yul\":1979:1981   */\n      0x40\n        /* \"#utility.yul\":1967:1976   */\n      dup4\n        /* \"#utility.yul\":1958:1965   */\n      dup6\n        /* \"#utility.yul\":1954:1977   */\n      sub\n        /* \"#utility.yul\":1950:1982   */\n      slt\n        /* \"#utility.yul\":1947:1999   */\n      iszero\n      tag_78\n      jumpi\n        /* \"#utility.yul\":1995:1996   */\n      0x00\n        /* \"#utility.yul\":1992:1993   */\n      dup1\n        /* \"#utility.yul\":1985:1997   */\n      revert\n        /* \"#utility.yul\":1947:1999   */\n    tag_78:\n      pop\n      pop\n        /* \"#utility.yul\":2018:2034   */\n      dup1\n      mload\n        /* \"#utility.yul\":2074:2076   */\n      0x20\n        /* \"#utility.yul\":2059:2077   */\n      swap1\n      swap2\n      add\n        /* \"#utility.yul\":2053:2078   */\n      mload\n        /* \"#utility.yul\":2018:2034   */\n      swap1\n      swap3\n        /* \"#utility.yul\":2053:2078   */\n      swap1\n      swap2\n      pop\n        /* \"#utility.yul\":1839:2084   */\n      jump\t// out\n        /* \"#utility.yul\":2089:2273   */\n    tag_53:\n        /* \"#utility.yul\":2159:2165   */\n      0x00\n        /* \"#utility.yul\":2212:2214   */\n      0x20\n        /* \"#utility.yul\":2200:2209   */\n      dup3\n        /* \"#utility.yul\":2191:2198   */\n      dup5\n        /* \"#utility.yul\":2187:2210   */\n      sub\n        /* \"#utility.yul\":2183:2215   */\n      slt\n        /* \"#utility.yul\":2180:2232   */\n      iszero\n      tag_80\n      jumpi\n        /* \"#utility.yul\":2228:2229   */\n      0x00\n        /* \"#utility.yul\":2225:2226   */\n      dup1\n        /* \"#utility.yul\":2218:2230   */\n      revert\n        /* \"#utility.yul\":2180:2232   */\n    tag_80:\n      pop\n        /* \"#utility.yul\":2251:2267   */\n      mload\n      swap2\n        /* \"#utility.yul\":2089:2273   */\n      swap1\n      pop\n      jump\t// out\n\n    auxdata: 0xa26469706673582212204b6a41d7f8df4ab4799efd82e88b6487dad78127e26043a32a914cafdcabe5dd64736f6c63430008120033\n}\n",
				"bytecode": {
					"linkReferences": {},
					"object": "608060405234801561001057600080fd5b5061035d806100206000396000f3fe60806040526004361061004a5760003560e01c80637a8fe1101461004f57806390a1075514610089578063a263701a1461009e578063d7b102ca146100be578063ef7aea621461009e575b600080fd5b34801561005b57600080fd5b5061006f61006a36600461029a565b6100ec565b604080519283526020830191909152015b60405180910390f35b61009c6100973660046102be565b61015a565b005b3480156100aa57600080fd5b5061009c6100b93660046102be565b6101ba565b3480156100ca57600080fd5b506100de6100d936600461029a565b610218565b604051908152602001610080565b600080826001600160a01b031663d6c7a3be6040518163ffffffff1660e01b81526004016040805180830381865afa15801561012c573d6000803e3d6000fd5b505050506040513d601f19601f8201168201806040525081019061015091906102ea565b9094909350915050565b60405163f134068160e01b8152600481018290526001600160a01b0383169063f13406819034906024016000604051808303818588803b15801561019d57600080fd5b505af11580156101b1573d6000803e3d6000fd5b50505050505050565b60405163200c6cd560e11b8152600481018290526001600160a01b03831690634018d9aa90602401600060405180830381600087803b1580156101fc57600080fd5b505af1158015610210573d6000803e3d6000fd5b505050505050565b6000816001600160a01b0316635197c7aa6040518163ffffffff1660e01b8152600401602060405180830381865afa158015610258573d6000803e3d6000fd5b505050506040513d601f19601f8201168201806040525081019061027c919061030e565b92915050565b6001600160a01b038116811461029757600080fd5b50565b6000602082840312156102ac57600080fd5b81356102b781610282565b9392505050565b600080604083850312156102d157600080fd5b82356102dc81610282565b946020939093013593505050565b600080604083850312156102fd57600080fd5b505080516020909101519092909150565b60006020828403121561032057600080fd5b505191905056fea26469706673582212204b6a41d7f8df4ab4799efd82e88b6487dad78127e26043a32a914cafdcabe5dd64736f6c63430008120033",
					"opcodes": "PUSH1 0x80 PUSH1 0x40 MSTORE CALLVALUE DUP1 ISZERO PUSH2 0x10 JUMPI PUSH1 0x0 DUP1 REVERT JUMPDEST POP PUSH2 0x35D DUP1 PUSH2 0x20 PUSH1 0x0 CODECOPY PUSH1 0x0 RETURN INVALID PUSH1 0x80 PUSH1 0x40 MSTORE PUSH1 0x4 CALLDATASIZE LT PUSH2 0x4A JUMPI PUSH1 0x0 CALLDATALOAD PUSH1 0xE0 SHR DUP1 PUSH4 0x7A8FE110 EQ PUSH2 0x4F JUMPI DUP1 PUSH4 0x90A10755 EQ PUSH2 0x89 JUMPI DUP1 PUSH4 0xA263701A EQ PUSH2 0x9E JUMPI DUP1 PUSH4 0xD7B102CA EQ PUSH2 0xBE JUMPI DUP1 PUSH4 0xEF7AEA62 EQ PUSH2 0x9E JUMPI JUMPDEST PUSH1 0x0 DUP1 REVERT JUMPDEST CALLVALUE DUP1 ISZERO PUSH2 0x5B JUMPI PUSH1 0x0 DUP1 REVERT JUMPDEST POP PUSH2 0x6F PUSH2 0x6A CALLDATASIZE PUSH1 0x4 PUSH2 0x29A JUMP JUMPDEST PUSH2 0xEC JUMP JUMPDEST PUSH1 0x40 DUP1 MLOAD SWAP3 DUP4 MSTORE PUSH1 0x20 DUP4 ADD SWAP2 SWAP1 SWAP2 MSTORE ADD JUMPDEST PUSH1 0x40 MLOAD DUP1 SWAP2 SUB SWAP1 RETURN JUMPDEST PUSH2 0x9C PUSH2 0x97 CALLDATASIZE PUSH1 0x4 PUSH2 0x2BE JUMP JUMPDEST PUSH2 0x15A JUMP JUMPDEST STOP JUMPDEST CALLVALUE DUP1 ISZERO PUSH2 0xAA JUMPI PUSH1 0x0 DUP1 REVERT JUMPDEST POP PUSH2 0x9C PUSH2 0xB9 CALLDATASIZE PUSH1 0x4 PUSH2 0x2BE JUMP JUMPDEST PUSH2 0x1BA JUMP JUMPDEST CALLVALUE DUP1 ISZERO PUSH2 0xCA JUMPI PUSH1 0x0 DUP1 REVERT JUMPDEST POP PUSH2 0xDE PUSH2 0xD9 CALLDATASIZE PUSH1 0x4 PUSH2 0x29A JUMP JUMPDEST PUSH2 0x218 JUMP JUMPDEST PUSH1 0x40 MLOAD SWAP1 DUP2 MSTORE PUSH1 0x20 ADD PUSH2 0x80 JUMP JUMPDEST PUSH1 0x0 DUP1 DUP3 PUSH1 0x1 PUSH1 0x1 PUSH1 0xA0 SHL SUB AND PUSH4 0xD6C7A3BE PUSH1 0x40 MLOAD DUP2 PUSH4 0xFFFFFFFF AND PUSH1 0xE0 SHL DUP2 MSTORE PUSH1 0x4 ADD PUSH1 0x40 DUP1 MLOAD DUP1 DUP4 SUB DUP2 DUP7 GAS STATICCALL ISZERO DUP1 ISZERO PUSH2 0x12C JUMPI RETURNDATASIZE PUSH1 0x0 DUP1 RETURNDATACOPY RETURNDATASIZE PUSH1 0x0 REVERT JUMPDEST POP POP POP POP PUSH1 0x40 MLOAD RETURNDATASIZE PUSH1 0x1F NOT PUSH1 0x1F DUP3 ADD AND DUP3 ADD DUP1 PUSH1 0x40 MSTORE POP DUP2 ADD SWAP1 PUSH2 0x150 SWAP2 SWAP1 PUSH2 0x2EA JUMP JUMPDEST SWAP1 SWAP5 SWAP1 SWAP4 POP SWAP2 POP POP JUMP JUMPDEST PUSH1 0x40 MLOAD PUSH4 0xF1340681 PUSH1 0xE0 SHL DUP2 MSTORE PUSH1 0x4 DUP2 ADD DUP3 SWAP1 MSTORE PUSH1 0x1 PUSH1 0x1 PUSH1 0xA0 SHL SUB DUP4 AND SWAP1 PUSH4 0xF1340681 SWAP1 CALLVALUE SWAP1 PUSH1 0x24 ADD PUSH1 0x0 PUSH1 0x40 MLOAD DUP1 DUP4 SUB DUP2 DUP6 DUP9 DUP1 EXTCODESIZE ISZERO DUP1 ISZERO PUSH2 0x19D JUMPI PUSH1 0x0 DUP1 REVERT JUMPDEST POP GAS CALL ISZERO DUP1 ISZERO PUSH2 0x1B1 JUMPI RETURNDATASIZE PUSH1 0x0 DUP1 RETURNDATACOPY RETURNDATASIZE PUSH1 0x0 REVERT JUMPDEST POP POP POP POP POP POP POP JUMP JUMPDEST PUSH1 0x40 MLOAD PUSH4 0x200C6CD5 PUSH1 0xE1 SHL DUP2 MSTORE PUSH1 0x4 DUP2 ADD DUP3 SWAP1 MSTORE PUSH1 0x1 PUSH1 0x1 PUSH1 0xA0 SHL SUB DUP4 AND SWAP1 PUSH4 0x4018D9AA SWAP1 PUSH1 0x24 ADD PUSH1 0x0 PUSH1 0x40 MLOAD DUP1 DUP4 SUB DUP2 PUSH1 0x0 DUP8 DUP1 EXTCODESIZE ISZERO DUP1 ISZERO PUSH2 0x1FC JUMPI PUSH1 0x0 DUP1 REVERT JUMPDEST POP GAS CALL ISZERO DUP1 ISZERO PUSH2 0x210 JUMPI RETURNDATASIZE PUSH1 0x0 DUP1 RETURNDATACOPY RETURNDATASIZE PUSH1 0x0 REVERT JUMPDEST POP POP POP POP POP POP JUMP JUMPDEST PUSH1 0x0 DUP2 PUSH1 0x1 PUSH1 0x1 PUSH1 0xA0 SHL SUB AND PUSH4 0x5197C7AA PUSH1 0x40 MLOAD DUP2 PUSH4 0xFFFFFFFF AND PUSH1 0xE0 SHL DUP2 MSTORE PUSH1 0x4 ADD PUSH1 0x20 PUSH1 0x40 MLOAD DUP1 DUP4 SUB DUP2 DUP7 GAS STATICCALL ISZERO DUP1 ISZERO PUSH2 0x258 JUMPI RETURNDATASIZE PUSH1 0x0 DUP1 RETURNDATACOPY RETURNDATASIZE PUSH1 0x0 REVERT JUMPDEST POP POP POP POP PUSH1 0x40 MLOAD RETURNDATASIZE PUSH1 0x1F NOT PUSH1 0x1F DUP3 ADD AND DUP3 ADD DUP1 PUSH1 0x40 MSTORE POP DUP2 ADD SWAP1 PUSH2 0x27C SWAP2 SWAP1 PUSH2 0x30E JUMP JUMPDEST SWAP3 SWAP2 POP POP JUMP JUMPDEST PUSH1 0x1 PUSH1 0x1 PUSH1 0xA0 SHL SUB DUP2 AND DUP2 EQ PUSH2 0x297 JUMPI PUSH1 0x0 DUP1 REVERT JUMPDEST POP JUMP JUMPDEST PUSH1 0x0 PUSH1 0x20 DUP3 DUP5 SUB SLT ISZERO PUSH2 0x2AC JUMPI PUSH1 0x0 DUP1 REVERT JUMPDEST DUP2 CALLDATALOAD PUSH2 0x2B7 DUP2 PUSH2 0x282 JUMP JUMPDEST SWAP4 SWAP3 POP POP POP JUMP JUMPDEST PUSH1 0x0 DUP1 PUSH1 0x40 DUP4 DUP6 SUB SLT ISZERO PUSH2 0x2D1 JUMPI PUSH1 0x0 DUP1 REVERT JUMPDEST DUP3 CALLDATALOAD PUSH2 0x2DC DUP2 PUSH2 0x282 JUMP JUMPDEST SWAP5 PUSH1 0x20 SWAP4 SWAP1 SWAP4 ADD CALLDATALOAD SWAP4 POP POP POP JUMP JUMPDEST PUSH1 0x0 DUP1 PUSH1 0x40 DUP4 DUP6 SUB SLT ISZERO PUSH2 0x2FD JUMPI PUSH1 0x0 DUP1 REVERT JUMPDEST POP POP DUP1 MLOAD PUSH1 0x20 SWAP1 SWAP2 ADD MLOAD SWAP1 SWAP3 SWAP1 SWAP2 POP JUMP JUMPDEST PUSH1 0x0 PUSH1 0x20 DUP3 DUP5 SUB SLT ISZERO PUSH2 0x320 JUMPI PUSH1 0x0 DUP1 REVERT JUMPDEST POP MLOAD SWAP2 SWAP1 POP JUMP INVALID LOG2 PUSH5 0x6970667358 0x22 SLT KECCAK256 0x4B PUSH11 0x41D7F8DF4AB4799EFD82E8 DUP12 PUSH5 0x87DAD78127 0xE2 PUSH1 0x43 LOG3 0x2A SWAP2 0x4C 0xAF 0xDC 0xAB 0xE5 0xDD PUSH5 0x736F6C6343 STOP ADDMOD SLT STOP CALLER "
				},
				"gasEstimates": {
					"creation": {
						"codeDepositCost": "172200",
						"executionCost": "214",
						"totalCost": "172414"
					},
					"external": {
						"getX1(address)": "infinite",
						"getXandvalue1(address)": "infinite",
						"setX1(address,uint256)": "infinite",
						"setX2(address,uint256)": "infinite",
						"setXAndEth(address,uint256)": "infinite"
					}
				},
				"methodIdentifiers": {
					"getX1(address)": "d7b102ca",
					"getXandvalue1(address)": "7a8fe110",
					"setX1(address,uint256)": "a263701a",
					"setX2(address,uint256)": "ef7aea62",
					"setXAndEth(address,uint256)": "90a10755"
				}
			},
			"storageLayout": {
				"storage": [],
				"types": null
			},
			"userdoc": {
				"kind": "user",
				"methods": {},
				"version": 1
			}
		}
	}
}