{
	"contracts/advance solidity/calling-contract-from-other-practice.sol": {
		"testContract": {
			"abi": [
				{
					"inputs": [],
					"name": "getX",
					"outputs": [
						{
							"internalType": "uint256",
							"name": "_x",
							"type": "uint256"
						}
					],
					"stateMutability": "view",
					"type": "function"
				},
				{
					"inputs": [],
					"name": "getXandValue",
					"outputs": [
						{
							"internalType": "uint256",
							"name": "_x",
							"type": "uint256"
						},
						{
							"internalType": "uint256",
							"name": "_value",
							"type": "uint256"
						}
					],
					"stateMutability": "view",
					"type": "function"
				},
				{
					"inputs": [
						{
							"internalType": "uint256",
							"name": "_x",
							"type": "uint256"
						}
					],
					"name": "setX",
					"outputs": [],
					"stateMutability": "nonpayable",
					"type": "function"
				},
				{
					"inputs": [
						{
							"internalType": "uint256",
							"name": "_x",
							"type": "uint256"
						}
					],
					"name": "setXAndTransferEth",
					"outputs": [],
					"stateMutability": "payable",
					"type": "function"
				}
			],
			"devdoc": {
				"kind": "dev",
				"methods": {},
				"version": 1
			},
			"evm": {
				"assembly": "    /* \"contracts/advance solidity/calling-contract-from-other-practice.sol\":851:1334  contract testContract {... */\n  mstore(0x40, 0x80)\n  callvalue\n  dup1\n  iszero\n  tag_1\n  jumpi\n  0x00\n  dup1\n  revert\ntag_1:\n  pop\n  dataSize(sub_0)\n  dup1\n  dataOffset(sub_0)\n  0x00\n  codecopy\n  0x00\n  return\nstop\n\nsub_0: assembly {\n        /* \"contracts/advance solidity/calling-contract-from-other-practice.sol\":851:1334  contract testContract {... */\n      mstore(0x40, 0x80)\n      jumpi(tag_1, lt(calldatasize, 0x04))\n      shr(0xe0, calldataload(0x00))\n      dup1\n      0x4018d9aa\n      eq\n      tag_2\n      jumpi\n      dup1\n      0x5197c7aa\n      eq\n      tag_3\n      jumpi\n      dup1\n      0xd6c7a3be\n      eq\n      tag_4\n      jumpi\n      dup1\n      0xf1340681\n      eq\n      tag_5\n      jumpi\n    tag_1:\n      0x00\n      dup1\n      revert\n        /* \"contracts/advance solidity/calling-contract-from-other-practice.sol\":927:982  function setX(uint _x) external {... */\n    tag_2:\n      callvalue\n      dup1\n      iszero\n      tag_6\n      jumpi\n      0x00\n      dup1\n      revert\n    tag_6:\n      pop\n      tag_7\n      tag_8\n      calldatasize\n      0x04\n      tag_9\n      jump\t// in\n    tag_8:\n        /* \"contracts/advance solidity/calling-contract-from-other-practice.sol\":970:971  x */\n      0x00\n        /* \"contracts/advance solidity/calling-contract-from-other-practice.sol\":970:974  x=_x */\n      sstore\n        /* \"contracts/advance solidity/calling-contract-from-other-practice.sol\":927:982  function setX(uint _x) external {... */\n      jump\n    tag_7:\n      stop\n        /* \"contracts/advance solidity/calling-contract-from-other-practice.sol\":990:1061  function getX() external view returns(uint _x){... */\n    tag_3:\n      callvalue\n      dup1\n      iszero\n      tag_11\n      jumpi\n      0x00\n      dup1\n      revert\n    tag_11:\n      pop\n        /* \"contracts/advance solidity/calling-contract-from-other-practice.sol\":1028:1035  uint _x */\n      0x00\n        /* \"contracts/advance solidity/calling-contract-from-other-practice.sol\":1052:1053  x */\n      sload\n        /* \"contracts/advance solidity/calling-contract-from-other-practice.sol\":990:1061  function getX() external view returns(uint _x){... */\n      mload(0x40)\n        /* \"#utility.yul\":345:370   */\n      swap1\n      dup2\n      mstore\n        /* \"#utility.yul\":333:335   */\n      0x20\n        /* \"#utility.yul\":318:336   */\n      add\n        /* \"contracts/advance solidity/calling-contract-from-other-practice.sol\":990:1061  function getX() external view returns(uint _x){... */\n    tag_14:\n      mload(0x40)\n      dup1\n      swap2\n      sub\n      swap1\n      return\n        /* \"contracts/advance solidity/calling-contract-from-other-practice.sol\":1197:1327  function getXandValue() external view returns(uint _x, uint _value){... */\n    tag_4:\n      callvalue\n      dup1\n      iszero\n      tag_16\n      jumpi\n      0x00\n      dup1\n      revert\n    tag_16:\n      pop\n        /* \"contracts/advance solidity/calling-contract-from-other-practice.sol\":1243:1250  uint _x */\n      0x00\n        /* \"contracts/advance solidity/calling-contract-from-other-practice.sol\":1280:1281  x */\n      sload\n        /* \"contracts/advance solidity/calling-contract-from-other-practice.sol\":1301:1319  ethValueInContract */\n      sload(0x01)\n        /* \"contracts/advance solidity/calling-contract-from-other-practice.sol\":1197:1327  function getXandValue() external view returns(uint _x, uint _value){... */\n      0x40\n      dup1\n      mload\n        /* \"#utility.yul\":555:580   */\n      swap3\n      dup4\n      mstore\n        /* \"#utility.yul\":611:613   */\n      0x20\n        /* \"#utility.yul\":596:614   */\n      dup4\n      add\n        /* \"#utility.yul\":589:623   */\n      swap2\n      swap1\n      swap2\n      mstore\n        /* \"#utility.yul\":528:546   */\n      add\n        /* \"contracts/advance solidity/calling-contract-from-other-practice.sol\":1197:1327  function getXandValue() external view returns(uint _x, uint _value){... */\n      tag_14\n        /* \"#utility.yul\":381:629   */\n      jump\n        /* \"contracts/advance solidity/calling-contract-from-other-practice.sol\":1069:1189  function setXAndTransferEth(uint _x) external payable {... */\n    tag_5:\n      tag_7\n      tag_22\n      calldatasize\n      0x04\n      tag_9\n      jump\t// in\n    tag_22:\n        /* \"contracts/advance solidity/calling-contract-from-other-practice.sol\":1134:1135  x */\n      0x00\n        /* \"contracts/advance solidity/calling-contract-from-other-practice.sol\":1134:1140  x = _x */\n      sstore\n        /* \"contracts/advance solidity/calling-contract-from-other-practice.sol\":1172:1181  msg.value */\n      callvalue\n        /* \"contracts/advance solidity/calling-contract-from-other-practice.sol\":1151:1169  ethValueInContract */\n      0x01\n        /* \"contracts/advance solidity/calling-contract-from-other-practice.sol\":1151:1181  ethValueInContract = msg.value */\n      sstore\n        /* \"contracts/advance solidity/calling-contract-from-other-practice.sol\":1069:1189  function setXAndTransferEth(uint _x) external payable {... */\n      jump\n        /* \"#utility.yul\":14:194   */\n    tag_9:\n        /* \"#utility.yul\":73:79   */\n      0x00\n        /* \"#utility.yul\":126:128   */\n      0x20\n        /* \"#utility.yul\":114:123   */\n      dup3\n        /* \"#utility.yul\":105:112   */\n      dup5\n        /* \"#utility.yul\":101:124   */\n      sub\n        /* \"#utility.yul\":97:129   */\n      slt\n        /* \"#utility.yul\":94:146   */\n      iszero\n      tag_30\n      jumpi\n        /* \"#utility.yul\":142:143   */\n      0x00\n        /* \"#utility.yul\":139:140   */\n      dup1\n        /* \"#utility.yul\":132:144   */\n      revert\n        /* \"#utility.yul\":94:146   */\n    tag_30:\n      pop\n        /* \"#utility.yul\":165:188   */\n      calldataload\n      swap2\n        /* \"#utility.yul\":14:194   */\n      swap1\n      pop\n      jump\t// out\n\n    auxdata: 0xa2646970667358221220b0f644d013823cf7e9ccb70beae9792bba0f09d815609ab6baa4a6ba3485cea964736f6c63430008120033\n}\n",
				"bytecode": {
					"linkReferences": {},
					"object": "608060405234801561001057600080fd5b50610107806100206000396000f3fe608060405260043610603a5760003560e01c80634018d9aa14603f5780635197c7aa14605d578063d6c7a3be14607f578063f13406811460a5575b600080fd5b348015604a57600080fd5b50605b605636600460b9565b600055565b005b348015606857600080fd5b506000546040519081526020015b60405180910390f35b348015608a57600080fd5b50600054600154604080519283526020830191909152016076565b605b60b036600460b9565b60005534600155565b60006020828403121560ca57600080fd5b503591905056fea2646970667358221220b0f644d013823cf7e9ccb70beae9792bba0f09d815609ab6baa4a6ba3485cea964736f6c63430008120033",
					"opcodes": "PUSH1 0x80 PUSH1 0x40 MSTORE CALLVALUE DUP1 ISZERO PUSH2 0x10 JUMPI PUSH1 0x0 DUP1 REVERT JUMPDEST POP PUSH2 0x107 DUP1 PUSH2 0x20 PUSH1 0x0 CODECOPY PUSH1 0x0 RETURN INVALID PUSH1 0x80 PUSH1 0x40 MSTORE PUSH1 0x4 CALLDATASIZE LT PUSH1 0x3A JUMPI PUSH1 0x0 CALLDATALOAD PUSH1 0xE0 SHR DUP1 PUSH4 0x4018D9AA EQ PUSH1 0x3F JUMPI DUP1 PUSH4 0x5197C7AA EQ PUSH1 0x5D JUMPI DUP1 PUSH4 0xD6C7A3BE EQ PUSH1 0x7F JUMPI DUP1 PUSH4 0xF1340681 EQ PUSH1 0xA5 JUMPI JUMPDEST PUSH1 0x0 DUP1 REVERT JUMPDEST CALLVALUE DUP1 ISZERO PUSH1 0x4A JUMPI PUSH1 0x0 DUP1 REVERT JUMPDEST POP PUSH1 0x5B PUSH1 0x56 CALLDATASIZE PUSH1 0x4 PUSH1 0xB9 JUMP JUMPDEST PUSH1 0x0 SSTORE JUMP JUMPDEST STOP JUMPDEST CALLVALUE DUP1 ISZERO PUSH1 0x68 JUMPI PUSH1 0x0 DUP1 REVERT JUMPDEST POP PUSH1 0x0 SLOAD PUSH1 0x40 MLOAD SWAP1 DUP2 MSTORE PUSH1 0x20 ADD JUMPDEST PUSH1 0x40 MLOAD DUP1 SWAP2 SUB SWAP1 RETURN JUMPDEST CALLVALUE DUP1 ISZERO PUSH1 0x8A JUMPI PUSH1 0x0 DUP1 REVERT JUMPDEST POP PUSH1 0x0 SLOAD PUSH1 0x1 SLOAD PUSH1 0x40 DUP1 MLOAD SWAP3 DUP4 MSTORE PUSH1 0x20 DUP4 ADD SWAP2 SWAP1 SWAP2 MSTORE ADD PUSH1 0x76 JUMP JUMPDEST PUSH1 0x5B PUSH1 0xB0 CALLDATASIZE PUSH1 0x4 PUSH1 0xB9 JUMP JUMPDEST PUSH1 0x0 SSTORE CALLVALUE PUSH1 0x1 SSTORE JUMP JUMPDEST PUSH1 0x0 PUSH1 0x20 DUP3 DUP5 SUB SLT ISZERO PUSH1 0xCA JUMPI PUSH1 0x0 DUP1 REVERT JUMPDEST POP CALLDATALOAD SWAP2 SWAP1 POP JUMP INVALID LOG2 PUSH5 0x6970667358 0x22 SLT KECCAK256 0xB0 0xF6 PREVRANDAO 0xD0 SGT DUP3 EXTCODECOPY 0xF7 0xE9 0xCC 0xB7 SIGNEXTEND 0xEA 0xE9 PUSH26 0x2BBA0F09D815609AB6BAA4A6BA3485CEA964736F6C6343000812 STOP CALLER "
				},
				"gasEstimates": {
					"creation": {
						"codeDepositCost": "52600",
						"executionCost": "105",
						"totalCost": "52705"
					},
					"external": {
						"getX()": "2269",
						"getXandValue()": "4429",
						"setX(uint256)": "22290",
						"setXAndTransferEth(uint256)": "44437"
					}
				},
				"methodIdentifiers": {
					"getX()": "5197c7aa",
					"getXandValue()": "d6c7a3be",
					"setX(uint256)": "4018d9aa",
					"setXAndTransferEth(uint256)": "f1340681"
				}
			},
			"storageLayout": {
				"storage": [
					{
						"astId": 87,
						"contract": "contracts/advance solidity/calling-contract-from-other-practice.sol:testContract",
						"label": "x",
						"offset": 0,
						"slot": "0",
						"type": "t_uint256"
					},
					{
						"astId": 89,
						"contract": "contracts/advance solidity/calling-contract-from-other-practice.sol:testContract",
						"label": "ethValueInContract",
						"offset": 0,
						"slot": "1",
						"type": "t_uint256"
					}
				],
				"types": {
					"t_uint256": {
						"encoding": "inplace",
						"label": "uint256",
						"numberOfBytes": "32"
					}
				}
			},
			"userdoc": {
				"kind": "user",
				"methods": {},
				"version": 1
			}
		}
	}
}