{
	"contracts/advance solidity/calling-smart-contract-from-other-con.sol": {
		"testContract": {
			"abi": [
				{
					"inputs": [],
					"name": "getX",
					"outputs": [
						{
							"internalType": "uint256",
							"name": "",
							"type": "uint256"
						}
					],
					"stateMutability": "view",
					"type": "function"
				},
				{
					"inputs": [],
					"name": "getXAndValue",
					"outputs": [
						{
							"internalType": "uint256",
							"name": "",
							"type": "uint256"
						},
						{
							"internalType": "uint256",
							"name": "",
							"type": "uint256"
						}
					],
					"stateMutability": "view",
					"type": "function"
				},
				{
					"inputs": [
						{
							"internalType": "uint256",
							"name": "_x",
							"type": "uint256"
						}
					],
					"name": "setX",
					"outputs": [],
					"stateMutability": "nonpayable",
					"type": "function"
				},
				{
					"inputs": [
						{
							"internalType": "uint256",
							"name": "_x",
							"type": "uint256"
						}
					],
					"name": "setXAndReceiveEther",
					"outputs": [],
					"stateMutability": "payable",
					"type": "function"
				},
				{
					"inputs": [],
					"name": "valueInContract",
					"outputs": [
						{
							"internalType": "uint256",
							"name": "",
							"type": "uint256"
						}
					],
					"stateMutability": "view",
					"type": "function"
				},
				{
					"inputs": [],
					"name": "x",
					"outputs": [
						{
							"internalType": "uint256",
							"name": "",
							"type": "uint256"
						}
					],
					"stateMutability": "view",
					"type": "function"
				}
			],
			"devdoc": {
				"kind": "dev",
				"methods": {},
				"version": 1
			},
			"evm": {
				"assembly": "    /* \"contracts/advance solidity/calling-smart-contract-from-other-con.sol\":980:1442  contract testContract {... */\n  mstore(0x40, 0x80)\n  callvalue\n  dup1\n  iszero\n  tag_1\n  jumpi\n  0x00\n  dup1\n  revert\ntag_1:\n  pop\n  dataSize(sub_0)\n  dup1\n  dataOffset(sub_0)\n  0x00\n  codecopy\n  0x00\n  return\nstop\n\nsub_0: assembly {\n        /* \"contracts/advance solidity/calling-smart-contract-from-other-con.sol\":980:1442  contract testContract {... */\n      mstore(0x40, 0x80)\n      jumpi(tag_1, lt(calldatasize, 0x04))\n      shr(0xe0, calldataload(0x00))\n      dup1\n      0x0c55699c\n      eq\n      tag_2\n      jumpi\n      dup1\n      0x2b5d6086\n      eq\n      tag_3\n      jumpi\n      dup1\n      0x4018d9aa\n      eq\n      tag_4\n      jumpi\n      dup1\n      0x5197c7aa\n      eq\n      tag_5\n      jumpi\n      dup1\n      0xba2cc278\n      eq\n      tag_6\n      jumpi\n      dup1\n      0xc9c4e00f\n      eq\n      tag_7\n      jumpi\n    tag_1:\n      0x00\n      dup1\n      revert\n        /* \"contracts/advance solidity/calling-smart-contract-from-other-con.sol\":1011:1024  uint public x */\n    tag_2:\n      callvalue\n      dup1\n      iszero\n      tag_8\n      jumpi\n      0x00\n      dup1\n      revert\n    tag_8:\n      pop\n      tag_9\n      sload(0x00)\n      dup2\n      jump\n    tag_9:\n      mload(0x40)\n        /* \"#utility.yul\":160:185   */\n      swap1\n      dup2\n      mstore\n        /* \"#utility.yul\":148:150   */\n      0x20\n        /* \"#utility.yul\":133:151   */\n      add\n        /* \"contracts/advance solidity/calling-smart-contract-from-other-con.sol\":1011:1024  uint public x */\n    tag_11:\n      mload(0x40)\n      dup1\n      swap2\n      sub\n      swap1\n      return\n        /* \"contracts/advance solidity/calling-smart-contract-from-other-con.sol\":1332:1437  function getXAndValue() external view returns(uint , uint){... */\n    tag_3:\n      callvalue\n      dup1\n      iszero\n      tag_13\n      jumpi\n      0x00\n      dup1\n      revert\n    tag_13:\n      pop\n        /* \"contracts/advance solidity/calling-smart-contract-from-other-con.sol\":1378:1382  uint */\n      0x00\n        /* \"contracts/advance solidity/calling-smart-contract-from-other-con.sol\":1410:1411  x */\n      sload\n        /* \"contracts/advance solidity/calling-smart-contract-from-other-con.sol\":1413:1428  valueInContract */\n      sload(0x01)\n        /* \"contracts/advance solidity/calling-smart-contract-from-other-con.sol\":1332:1437  function getXAndValue() external view returns(uint , uint){... */\n      0x40\n      dup1\n      mload\n        /* \"#utility.yul\":370:395   */\n      swap3\n      dup4\n      mstore\n        /* \"#utility.yul\":426:428   */\n      0x20\n        /* \"#utility.yul\":411:429   */\n      dup4\n      add\n        /* \"#utility.yul\":404:438   */\n      swap2\n      swap1\n      swap2\n      mstore\n        /* \"#utility.yul\":343:361   */\n      add\n        /* \"contracts/advance solidity/calling-smart-contract-from-other-con.sol\":1332:1437  function getXAndValue() external view returns(uint , uint){... */\n      tag_11\n        /* \"#utility.yul\":196:444   */\n      jump\n        /* \"contracts/advance solidity/calling-smart-contract-from-other-con.sol\":1067:1122  function setX(uint _x) public {... */\n    tag_4:\n      callvalue\n      dup1\n      iszero\n      tag_18\n      jumpi\n      0x00\n      dup1\n      revert\n    tag_18:\n      pop\n      tag_19\n      tag_20\n      calldatasize\n      0x04\n      tag_21\n      jump\t// in\n    tag_20:\n        /* \"contracts/advance solidity/calling-smart-contract-from-other-con.sol\":1108:1109  x */\n      0x00\n        /* \"contracts/advance solidity/calling-smart-contract-from-other-con.sol\":1108:1114  x = _x */\n      sstore\n        /* \"contracts/advance solidity/calling-smart-contract-from-other-con.sol\":1067:1122  function setX(uint _x) public {... */\n      jump\n    tag_19:\n      stop\n        /* \"contracts/advance solidity/calling-smart-contract-from-other-con.sol\":1130:1198  function getX() public view returns(uint){... */\n    tag_5:\n      callvalue\n      dup1\n      iszero\n      tag_23\n      jumpi\n      0x00\n      dup1\n      revert\n    tag_23:\n      pop\n        /* \"contracts/advance solidity/calling-smart-contract-from-other-con.sol\":1166:1170  uint */\n      0x00\n        /* \"contracts/advance solidity/calling-smart-contract-from-other-con.sol\":1189:1190  x */\n      sload\n        /* \"contracts/advance solidity/calling-smart-contract-from-other-con.sol\":1130:1198  function getX() public view returns(uint){... */\n      jump(tag_9)\n        /* \"contracts/advance solidity/calling-smart-contract-from-other-con.sol\":1031:1058  uint public valueInContract */\n    tag_6:\n      callvalue\n      dup1\n      iszero\n      tag_27\n      jumpi\n      0x00\n      dup1\n      revert\n    tag_27:\n      pop\n      tag_9\n      sload(0x01)\n      dup2\n      jump\n        /* \"contracts/advance solidity/calling-smart-contract-from-other-con.sol\":1206:1324  function setXAndReceiveEther(uint _x) external payable {... */\n    tag_7:\n      tag_19\n      tag_32\n      calldatasize\n      0x04\n      tag_21\n      jump\t// in\n    tag_32:\n        /* \"contracts/advance solidity/calling-smart-contract-from-other-con.sol\":1272:1273  x */\n      0x00\n        /* \"contracts/advance solidity/calling-smart-contract-from-other-con.sol\":1272:1278  x = _x */\n      sstore\n        /* \"contracts/advance solidity/calling-smart-contract-from-other-con.sol\":1307:1316  msg.value */\n      callvalue\n        /* \"contracts/advance solidity/calling-smart-contract-from-other-con.sol\":1289:1304  valueInContract */\n      0x01\n        /* \"contracts/advance solidity/calling-smart-contract-from-other-con.sol\":1289:1316  valueInContract = msg.value */\n      sstore\n        /* \"contracts/advance solidity/calling-smart-contract-from-other-con.sol\":1206:1324  function setXAndReceiveEther(uint _x) external payable {... */\n      jump\n        /* \"#utility.yul\":449:629   */\n    tag_21:\n        /* \"#utility.yul\":508:514   */\n      0x00\n        /* \"#utility.yul\":561:563   */\n      0x20\n        /* \"#utility.yul\":549:558   */\n      dup3\n        /* \"#utility.yul\":540:547   */\n      dup5\n        /* \"#utility.yul\":536:559   */\n      sub\n        /* \"#utility.yul\":532:564   */\n      slt\n        /* \"#utility.yul\":529:581   */\n      iszero\n      tag_42\n      jumpi\n        /* \"#utility.yul\":577:578   */\n      0x00\n        /* \"#utility.yul\":574:575   */\n      dup1\n        /* \"#utility.yul\":567:579   */\n      revert\n        /* \"#utility.yul\":529:581   */\n    tag_42:\n      pop\n        /* \"#utility.yul\":600:623   */\n      calldataload\n      swap2\n        /* \"#utility.yul\":449:629   */\n      swap1\n      pop\n      jump\t// out\n\n    auxdata: 0xa2646970667358221220c8c49cd756c8f077367bc08ba44733b5b1a1bce9476e2b013d6f9f41b61e0d4d64736f6c63430008120033\n}\n",
				"bytecode": {
					"linkReferences": {},
					"object": "608060405234801561001057600080fd5b5061015e806100206000396000f3fe6080604052600436106100555760003560e01c80630c55699c1461005a5780632b5d6086146100835780634018d9aa146100ab5780635197c7aa146100cd578063ba2cc278146100e2578063c9c4e00f146100f8575b600080fd5b34801561006657600080fd5b5061007060005481565b6040519081526020015b60405180910390f35b34801561008f57600080fd5b506000546001546040805192835260208301919091520161007a565b3480156100b757600080fd5b506100cb6100c636600461010f565b600055565b005b3480156100d957600080fd5b50600054610070565b3480156100ee57600080fd5b5061007060015481565b6100cb61010636600461010f565b60005534600155565b60006020828403121561012157600080fd5b503591905056fea2646970667358221220c8c49cd756c8f077367bc08ba44733b5b1a1bce9476e2b013d6f9f41b61e0d4d64736f6c63430008120033",
					"opcodes": "PUSH1 0x80 PUSH1 0x40 MSTORE CALLVALUE DUP1 ISZERO PUSH2 0x10 JUMPI PUSH1 0x0 DUP1 REVERT JUMPDEST POP PUSH2 0x15E DUP1 PUSH2 0x20 PUSH1 0x0 CODECOPY PUSH1 0x0 RETURN INVALID PUSH1 0x80 PUSH1 0x40 MSTORE PUSH1 0x4 CALLDATASIZE LT PUSH2 0x55 JUMPI PUSH1 0x0 CALLDATALOAD PUSH1 0xE0 SHR DUP1 PUSH4 0xC55699C EQ PUSH2 0x5A JUMPI DUP1 PUSH4 0x2B5D6086 EQ PUSH2 0x83 JUMPI DUP1 PUSH4 0x4018D9AA EQ PUSH2 0xAB JUMPI DUP1 PUSH4 0x5197C7AA EQ PUSH2 0xCD JUMPI DUP1 PUSH4 0xBA2CC278 EQ PUSH2 0xE2 JUMPI DUP1 PUSH4 0xC9C4E00F EQ PUSH2 0xF8 JUMPI JUMPDEST PUSH1 0x0 DUP1 REVERT JUMPDEST CALLVALUE DUP1 ISZERO PUSH2 0x66 JUMPI PUSH1 0x0 DUP1 REVERT JUMPDEST POP PUSH2 0x70 PUSH1 0x0 SLOAD DUP2 JUMP JUMPDEST PUSH1 0x40 MLOAD SWAP1 DUP2 MSTORE PUSH1 0x20 ADD JUMPDEST PUSH1 0x40 MLOAD DUP1 SWAP2 SUB SWAP1 RETURN JUMPDEST CALLVALUE DUP1 ISZERO PUSH2 0x8F JUMPI PUSH1 0x0 DUP1 REVERT JUMPDEST POP PUSH1 0x0 SLOAD PUSH1 0x1 SLOAD PUSH1 0x40 DUP1 MLOAD SWAP3 DUP4 MSTORE PUSH1 0x20 DUP4 ADD SWAP2 SWAP1 SWAP2 MSTORE ADD PUSH2 0x7A JUMP JUMPDEST CALLVALUE DUP1 ISZERO PUSH2 0xB7 JUMPI PUSH1 0x0 DUP1 REVERT JUMPDEST POP PUSH2 0xCB PUSH2 0xC6 CALLDATASIZE PUSH1 0x4 PUSH2 0x10F JUMP JUMPDEST PUSH1 0x0 SSTORE JUMP JUMPDEST STOP JUMPDEST CALLVALUE DUP1 ISZERO PUSH2 0xD9 JUMPI PUSH1 0x0 DUP1 REVERT JUMPDEST POP PUSH1 0x0 SLOAD PUSH2 0x70 JUMP JUMPDEST CALLVALUE DUP1 ISZERO PUSH2 0xEE JUMPI PUSH1 0x0 DUP1 REVERT JUMPDEST POP PUSH2 0x70 PUSH1 0x1 SLOAD DUP2 JUMP JUMPDEST PUSH2 0xCB PUSH2 0x106 CALLDATASIZE PUSH1 0x4 PUSH2 0x10F JUMP JUMPDEST PUSH1 0x0 SSTORE CALLVALUE PUSH1 0x1 SSTORE JUMP JUMPDEST PUSH1 0x0 PUSH1 0x20 DUP3 DUP5 SUB SLT ISZERO PUSH2 0x121 JUMPI PUSH1 0x0 DUP1 REVERT JUMPDEST POP CALLDATALOAD SWAP2 SWAP1 POP JUMP INVALID LOG2 PUSH5 0x6970667358 0x22 SLT KECCAK256 0xC8 0xC4 SWAP13 0xD7 JUMP 0xC8 CREATE PUSH24 0x367BC08BA44733B5B1A1BCE9476E2B013D6F9F41B61E0D4D PUSH5 0x736F6C6343 STOP ADDMOD SLT STOP CALLER "
				},
				"gasEstimates": {
					"creation": {
						"codeDepositCost": "70000",
						"executionCost": "117",
						"totalCost": "70117"
					},
					"external": {
						"getX()": "2325",
						"getXAndValue()": "4407",
						"setX(uint256)": "22334",
						"setXAndReceiveEther(uint256)": "44481",
						"valueInContract()": "2350",
						"x()": "2262"
					}
				},
				"methodIdentifiers": {
					"getX()": "5197c7aa",
					"getXAndValue()": "2b5d6086",
					"setX(uint256)": "4018d9aa",
					"setXAndReceiveEther(uint256)": "c9c4e00f",
					"valueInContract()": "ba2cc278",
					"x()": "0c55699c"
				}
			},
			"storageLayout": {
				"storage": [
					{
						"astId": 87,
						"contract": "contracts/advance solidity/calling-smart-contract-from-other-con.sol:testContract",
						"label": "x",
						"offset": 0,
						"slot": "0",
						"type": "t_uint256"
					},
					{
						"astId": 89,
						"contract": "contracts/advance solidity/calling-smart-contract-from-other-con.sol:testContract",
						"label": "valueInContract",
						"offset": 0,
						"slot": "1",
						"type": "t_uint256"
					}
				],
				"types": {
					"t_uint256": {
						"encoding": "inplace",
						"label": "uint256",
						"numberOfBytes": "32"
					}
				}
			},
			"userdoc": {
				"kind": "user",
				"methods": {},
				"version": 1
			}
		}
	}
}