{
	"data": {
		"bytecode": {
			"linkReferences": {},
			"object": "608060405234801561001057600080fd5b50610ab3806100206000396000f3fe60806040526004361061003f5760003560e01c806325caa2621461004457806328c8df591461006f57806371c731be1461009857806373d4a13a146100b4575b600080fd5b34801561005057600080fd5b506100596100df565b6040516100669190610415565b60405180910390f35b34801561007b57600080fd5b5061009660048036038101906100919190610493565b6100e7565b005b6100b260048036038101906100ad9190610493565b61021a565b005b3480156100c057600080fd5b506100c961036e565b6040516100d69190610550565b60405180910390f35b600047905090565b60008173ffffffffffffffffffffffffffffffffffffffff166040516024016040516020818303038152906040527fc2113c05000000000000000000000000000000000000000000000000000000007bffffffffffffffffffffffffffffffffffffffffffffffffffffffff19166020820180517bffffffffffffffffffffffffffffffffffffffffffffffffffffffff838183161783525050505060405161019091906105ae565b6000604051808303816000865af19150503d80600081146101cd576040519150601f19603f3d011682016040523d82523d6000602084013e6101d2565b606091505b5050905080610216576040517f08c379a000000000000000000000000000000000000000000000000000000000815260040161020d90610622565b60405180910390fd5b5050565b6000808273ffffffffffffffffffffffffffffffffffffffff166085607b60405160240161024891906106e0565b6040516020818303038152906040527f8a42ebe9000000000000000000000000000000000000000000000000000000007bffffffffffffffffffffffffffffffffffffffffffffffffffffffff19166020820180517bffffffffffffffffffffffffffffffffffffffffffffffffffffffff83818316178352505050506040516102d291906105ae565b60006040518083038185875af1925050503d806000811461030f576040519150601f19603f3d011682016040523d82523d6000602084013e610314565b606091505b509150915081610359576040517f08c379a00000000000000000000000000000000000000000000000000000000081526004016103509061075a565b60405180910390fd5b806000908161036891906109ab565b50505050565b6000805461037b906107d8565b80601f01602080910402602001604051908101604052809291908181526020018280546103a7906107d8565b80156103f45780601f106103c9576101008083540402835291602001916103f4565b820191906000526020600020905b8154815290600101906020018083116103d757829003601f168201915b505050505081565b6000819050919050565b61040f816103fc565b82525050565b600060208201905061042a6000830184610406565b92915050565b600080fd5b600073ffffffffffffffffffffffffffffffffffffffff82169050919050565b600061046082610435565b9050919050565b61047081610455565b811461047b57600080fd5b50565b60008135905061048d81610467565b92915050565b6000602082840312156104a9576104a8610430565b5b60006104b78482850161047e565b91505092915050565b600081519050919050565b600082825260208201905092915050565b60005b838110156104fa5780820151818401526020810190506104df565b60008484015250505050565b6000601f19601f8301169050919050565b6000610522826104c0565b61052c81856104cb565b935061053c8185602086016104dc565b61054581610506565b840191505092915050565b6000602082019050818103600083015261056a8184610517565b905092915050565b600081905092915050565b6000610588826104c0565b6105928185610572565b93506105a28185602086016104dc565b80840191505092915050565b60006105ba828461057d565b915081905092915050565b600082825260208201905092915050565b7f63616c6c206661696c6564000000000000000000000000000000000000000000600082015250565b600061060c600b836105c5565b9150610617826105d6565b602082019050919050565b6000602082019050818103600083015261063b816105ff565b9050919050565b7f63616c6c696e6700000000000000000000000000000000000000000000000000600082015250565b60006106786007836105c5565b915061068382610642565b602082019050919050565b6000819050919050565b600060ff82169050919050565b6000819050919050565b60006106ca6106c56106c08461068e565b6106a5565b610698565b9050919050565b6106da816106af565b82525050565b600060408201905081810360008301526106f98161066b565b905061070860208301846106d1565b92915050565b7f63616c6c696e6720636f6e7472616374206661696c6564000000000000000000600082015250565b60006107446017836105c5565b915061074f8261070e565b602082019050919050565b6000602082019050818103600083015261077381610737565b9050919050565b7f4e487b7100000000000000000000000000000000000000000000000000000000600052604160045260246000fd5b7f4e487b7100000000000000000000000000000000000000000000000000000000600052602260045260246000fd5b600060028204905060018216806107f057607f821691505b602082108103610803576108026107a9565b5b50919050565b60008190508160005260206000209050919050565b60006020601f8301049050919050565b600082821b905092915050565b60006008830261086b7fffffffffffffffffffffffffffffffffffffffffffffffffffffffffffffffff8261082e565b610875868361082e565b95508019841693508086168417925050509392505050565b60006108a86108a361089e846103fc565b6106a5565b6103fc565b9050919050565b6000819050919050565b6108c28361088d565b6108d66108ce826108af565b84845461083b565b825550505050565b600090565b6108eb6108de565b6108f68184846108b9565b505050565b5b8181101561091a5761090f6000826108e3565b6001810190506108fc565b5050565b601f82111561095f5761093081610809565b6109398461081e565b81016020851015610948578190505b61095c6109548561081e565b8301826108fb565b50505b505050565b600082821c905092915050565b600061098260001984600802610964565b1980831691505092915050565b600061099b8383610971565b9150826002028217905092915050565b6109b4826104c0565b67ffffffffffffffff8111156109cd576109cc61077a565b5b6109d782546107d8565b6109e282828561091e565b600060209050601f831160018114610a155760008415610a03578287015190505b610a0d858261098f565b865550610a75565b601f198416610a2386610809565b60005b82811015610a4b57848901518255600182019150602085019450602081019050610a26565b86831015610a685784890151610a64601f891682610971565b8355505b6001600288020188555050505b50505050505056fea2646970667358221220b4a4db0551a33f65c976303d884ac01dd88ea118c5843d7826145a11faf46c1e64736f6c63430008120033",
			"opcodes": "PUSH1 0x80 PUSH1 0x40 MSTORE CALLVALUE DUP1 ISZERO PUSH2 0x10 JUMPI PUSH1 0x0 DUP1 REVERT JUMPDEST POP PUSH2 0xAB3 DUP1 PUSH2 0x20 PUSH1 0x0 CODECOPY PUSH1 0x0 RETURN INVALID PUSH1 0x80 PUSH1 0x40 MSTORE PUSH1 0x4 CALLDATASIZE LT PUSH2 0x3F JUMPI PUSH1 0x0 CALLDATALOAD PUSH1 0xE0 SHR DUP1 PUSH4 0x25CAA262 EQ PUSH2 0x44 JUMPI DUP1 PUSH4 0x28C8DF59 EQ PUSH2 0x6F JUMPI DUP1 PUSH4 0x71C731BE EQ PUSH2 0x98 JUMPI DUP1 PUSH4 0x73D4A13A EQ PUSH2 0xB4 JUMPI JUMPDEST PUSH1 0x0 DUP1 REVERT JUMPDEST CALLVALUE DUP1 ISZERO PUSH2 0x50 JUMPI PUSH1 0x0 DUP1 REVERT JUMPDEST POP PUSH2 0x59 PUSH2 0xDF JUMP JUMPDEST PUSH1 0x40 MLOAD PUSH2 0x66 SWAP2 SWAP1 PUSH2 0x415 JUMP JUMPDEST PUSH1 0x40 MLOAD DUP1 SWAP2 SUB SWAP1 RETURN JUMPDEST CALLVALUE DUP1 ISZERO PUSH2 0x7B JUMPI PUSH1 0x0 DUP1 REVERT JUMPDEST POP PUSH2 0x96 PUSH1 0x4 DUP1 CALLDATASIZE SUB DUP2 ADD SWAP1 PUSH2 0x91 SWAP2 SWAP1 PUSH2 0x493 JUMP JUMPDEST PUSH2 0xE7 JUMP JUMPDEST STOP JUMPDEST PUSH2 0xB2 PUSH1 0x4 DUP1 CALLDATASIZE SUB DUP2 ADD SWAP1 PUSH2 0xAD SWAP2 SWAP1 PUSH2 0x493 JUMP JUMPDEST PUSH2 0x21A JUMP JUMPDEST STOP JUMPDEST CALLVALUE DUP1 ISZERO PUSH2 0xC0 JUMPI PUSH1 0x0 DUP1 REVERT JUMPDEST POP PUSH2 0xC9 PUSH2 0x36E JUMP JUMPDEST PUSH1 0x40 MLOAD PUSH2 0xD6 SWAP2 SWAP1 PUSH2 0x550 JUMP JUMPDEST PUSH1 0x40 MLOAD DUP1 SWAP2 SUB SWAP1 RETURN JUMPDEST PUSH1 0x0 SELFBALANCE SWAP1 POP SWAP1 JUMP JUMPDEST PUSH1 0x0 DUP2 PUSH20 0xFFFFFFFFFFFFFFFFFFFFFFFFFFFFFFFFFFFFFFFF AND PUSH1 0x40 MLOAD PUSH1 0x24 ADD PUSH1 0x40 MLOAD PUSH1 0x20 DUP2 DUP4 SUB SUB DUP2 MSTORE SWAP1 PUSH1 0x40 MSTORE PUSH32 0xC2113C0500000000000000000000000000000000000000000000000000000000 PUSH28 0xFFFFFFFFFFFFFFFFFFFFFFFFFFFFFFFFFFFFFFFFFFFFFFFFFFFFFFFF NOT AND PUSH1 0x20 DUP3 ADD DUP1 MLOAD PUSH28 0xFFFFFFFFFFFFFFFFFFFFFFFFFFFFFFFFFFFFFFFFFFFFFFFFFFFFFFFF DUP4 DUP2 DUP4 AND OR DUP4 MSTORE POP POP POP POP PUSH1 0x40 MLOAD PUSH2 0x190 SWAP2 SWAP1 PUSH2 0x5AE JUMP JUMPDEST PUSH1 0x0 PUSH1 0x40 MLOAD DUP1 DUP4 SUB DUP2 PUSH1 0x0 DUP7 GAS CALL SWAP2 POP POP RETURNDATASIZE DUP1 PUSH1 0x0 DUP2 EQ PUSH2 0x1CD JUMPI PUSH1 0x40 MLOAD SWAP2 POP PUSH1 0x1F NOT PUSH1 0x3F RETURNDATASIZE ADD AND DUP3 ADD PUSH1 0x40 MSTORE RETURNDATASIZE DUP3 MSTORE RETURNDATASIZE PUSH1 0x0 PUSH1 0x20 DUP5 ADD RETURNDATACOPY PUSH2 0x1D2 JUMP JUMPDEST PUSH1 0x60 SWAP2 POP JUMPDEST POP POP SWAP1 POP DUP1 PUSH2 0x216 JUMPI PUSH1 0x40 MLOAD PUSH32 0x8C379A000000000000000000000000000000000000000000000000000000000 DUP2 MSTORE PUSH1 0x4 ADD PUSH2 0x20D SWAP1 PUSH2 0x622 JUMP JUMPDEST PUSH1 0x40 MLOAD DUP1 SWAP2 SUB SWAP1 REVERT JUMPDEST POP POP JUMP JUMPDEST PUSH1 0x0 DUP1 DUP3 PUSH20 0xFFFFFFFFFFFFFFFFFFFFFFFFFFFFFFFFFFFFFFFF AND PUSH1 0x85 PUSH1 0x7B PUSH1 0x40 MLOAD PUSH1 0x24 ADD PUSH2 0x248 SWAP2 SWAP1 PUSH2 0x6E0 JUMP JUMPDEST PUSH1 0x40 MLOAD PUSH1 0x20 DUP2 DUP4 SUB SUB DUP2 MSTORE SWAP1 PUSH1 0x40 MSTORE PUSH32 0x8A42EBE900000000000000000000000000000000000000000000000000000000 PUSH28 0xFFFFFFFFFFFFFFFFFFFFFFFFFFFFFFFFFFFFFFFFFFFFFFFFFFFFFFFF NOT AND PUSH1 0x20 DUP3 ADD DUP1 MLOAD PUSH28 0xFFFFFFFFFFFFFFFFFFFFFFFFFFFFFFFFFFFFFFFFFFFFFFFFFFFFFFFF DUP4 DUP2 DUP4 AND OR DUP4 MSTORE POP POP POP POP PUSH1 0x40 MLOAD PUSH2 0x2D2 SWAP2 SWAP1 PUSH2 0x5AE JUMP JUMPDEST PUSH1 0x0 PUSH1 0x40 MLOAD DUP1 DUP4 SUB DUP2 DUP6 DUP8 GAS CALL SWAP3 POP POP POP RETURNDATASIZE DUP1 PUSH1 0x0 DUP2 EQ PUSH2 0x30F JUMPI PUSH1 0x40 MLOAD SWAP2 POP PUSH1 0x1F NOT PUSH1 0x3F RETURNDATASIZE ADD AND DUP3 ADD PUSH1 0x40 MSTORE RETURNDATASIZE DUP3 MSTORE RETURNDATASIZE PUSH1 0x0 PUSH1 0x20 DUP5 ADD RETURNDATACOPY PUSH2 0x314 JUMP JUMPDEST PUSH1 0x60 SWAP2 POP JUMPDEST POP SWAP2 POP SWAP2 POP DUP2 PUSH2 0x359 JUMPI PUSH1 0x40 MLOAD PUSH32 0x8C379A000000000000000000000000000000000000000000000000000000000 DUP2 MSTORE PUSH1 0x4 ADD PUSH2 0x350 SWAP1 PUSH2 0x75A JUMP JUMPDEST PUSH1 0x40 MLOAD DUP1 SWAP2 SUB SWAP1 REVERT JUMPDEST DUP1 PUSH1 0x0 SWAP1 DUP2 PUSH2 0x368 SWAP2 SWAP1 PUSH2 0x9AB JUMP JUMPDEST POP POP POP POP JUMP JUMPDEST PUSH1 0x0 DUP1 SLOAD PUSH2 0x37B SWAP1 PUSH2 0x7D8 JUMP JUMPDEST DUP1 PUSH1 0x1F ADD PUSH1 0x20 DUP1 SWAP2 DIV MUL PUSH1 0x20 ADD PUSH1 0x40 MLOAD SWAP1 DUP2 ADD PUSH1 0x40 MSTORE DUP1 SWAP3 SWAP2 SWAP1 DUP2 DUP2 MSTORE PUSH1 0x20 ADD DUP3 DUP1 SLOAD PUSH2 0x3A7 SWAP1 PUSH2 0x7D8 JUMP JUMPDEST DUP1 ISZERO PUSH2 0x3F4 JUMPI DUP1 PUSH1 0x1F LT PUSH2 0x3C9 JUMPI PUSH2 0x100 DUP1 DUP4 SLOAD DIV MUL DUP4 MSTORE SWAP2 PUSH1 0x20 ADD SWAP2 PUSH2 0x3F4 JUMP JUMPDEST DUP3 ADD SWAP2 SWAP1 PUSH1 0x0 MSTORE PUSH1 0x20 PUSH1 0x0 KECCAK256 SWAP1 JUMPDEST DUP2 SLOAD DUP2 MSTORE SWAP1 PUSH1 0x1 ADD SWAP1 PUSH1 0x20 ADD DUP1 DUP4 GT PUSH2 0x3D7 JUMPI DUP3 SWAP1 SUB PUSH1 0x1F AND DUP3 ADD SWAP2 JUMPDEST POP POP POP POP POP DUP2 JUMP JUMPDEST PUSH1 0x0 DUP2 SWAP1 POP SWAP2 SWAP1 POP JUMP JUMPDEST PUSH2 0x40F DUP2 PUSH2 0x3FC JUMP JUMPDEST DUP3 MSTORE POP POP JUMP JUMPDEST PUSH1 0x0 PUSH1 0x20 DUP3 ADD SWAP1 POP PUSH2 0x42A PUSH1 0x0 DUP4 ADD DUP5 PUSH2 0x406 JUMP JUMPDEST SWAP3 SWAP2 POP POP JUMP JUMPDEST PUSH1 0x0 DUP1 REVERT JUMPDEST PUSH1 0x0 PUSH20 0xFFFFFFFFFFFFFFFFFFFFFFFFFFFFFFFFFFFFFFFF DUP3 AND SWAP1 POP SWAP2 SWAP1 POP JUMP JUMPDEST PUSH1 0x0 PUSH2 0x460 DUP3 PUSH2 0x435 JUMP JUMPDEST SWAP1 POP SWAP2 SWAP1 POP JUMP JUMPDEST PUSH2 0x470 DUP2 PUSH2 0x455 JUMP JUMPDEST DUP2 EQ PUSH2 0x47B JUMPI PUSH1 0x0 DUP1 REVERT JUMPDEST POP JUMP JUMPDEST PUSH1 0x0 DUP2 CALLDATALOAD SWAP1 POP PUSH2 0x48D DUP2 PUSH2 0x467 JUMP JUMPDEST SWAP3 SWAP2 POP POP JUMP JUMPDEST PUSH1 0x0 PUSH1 0x20 DUP3 DUP5 SUB SLT ISZERO PUSH2 0x4A9 JUMPI PUSH2 0x4A8 PUSH2 0x430 JUMP JUMPDEST JUMPDEST PUSH1 0x0 PUSH2 0x4B7 DUP5 DUP3 DUP6 ADD PUSH2 0x47E JUMP JUMPDEST SWAP2 POP POP SWAP3 SWAP2 POP POP JUMP JUMPDEST PUSH1 0x0 DUP2 MLOAD SWAP1 POP SWAP2 SWAP1 POP JUMP JUMPDEST PUSH1 0x0 DUP3 DUP3 MSTORE PUSH1 0x20 DUP3 ADD SWAP1 POP SWAP3 SWAP2 POP POP JUMP JUMPDEST PUSH1 0x0 JUMPDEST DUP4 DUP2 LT ISZERO PUSH2 0x4FA JUMPI DUP1 DUP3 ADD MLOAD DUP2 DUP5 ADD MSTORE PUSH1 0x20 DUP2 ADD SWAP1 POP PUSH2 0x4DF JUMP JUMPDEST PUSH1 0x0 DUP5 DUP5 ADD MSTORE POP POP POP POP JUMP JUMPDEST PUSH1 0x0 PUSH1 0x1F NOT PUSH1 0x1F DUP4 ADD AND SWAP1 POP SWAP2 SWAP1 POP JUMP JUMPDEST PUSH1 0x0 PUSH2 0x522 DUP3 PUSH2 0x4C0 JUMP JUMPDEST PUSH2 0x52C DUP2 DUP6 PUSH2 0x4CB JUMP JUMPDEST SWAP4 POP PUSH2 0x53C DUP2 DUP6 PUSH1 0x20 DUP7 ADD PUSH2 0x4DC JUMP JUMPDEST PUSH2 0x545 DUP2 PUSH2 0x506 JUMP JUMPDEST DUP5 ADD SWAP2 POP POP SWAP3 SWAP2 POP POP JUMP JUMPDEST PUSH1 0x0 PUSH1 0x20 DUP3 ADD SWAP1 POP DUP2 DUP2 SUB PUSH1 0x0 DUP4 ADD MSTORE PUSH2 0x56A DUP2 DUP5 PUSH2 0x517 JUMP JUMPDEST SWAP1 POP SWAP3 SWAP2 POP POP JUMP JUMPDEST PUSH1 0x0 DUP2 SWAP1 POP SWAP3 SWAP2 POP POP JUMP JUMPDEST PUSH1 0x0 PUSH2 0x588 DUP3 PUSH2 0x4C0 JUMP JUMPDEST PUSH2 0x592 DUP2 DUP6 PUSH2 0x572 JUMP JUMPDEST SWAP4 POP PUSH2 0x5A2 DUP2 DUP6 PUSH1 0x20 DUP7 ADD PUSH2 0x4DC JUMP JUMPDEST DUP1 DUP5 ADD SWAP2 POP POP SWAP3 SWAP2 POP POP JUMP JUMPDEST PUSH1 0x0 PUSH2 0x5BA DUP3 DUP5 PUSH2 0x57D JUMP JUMPDEST SWAP2 POP DUP2 SWAP1 POP SWAP3 SWAP2 POP POP JUMP JUMPDEST PUSH1 0x0 DUP3 DUP3 MSTORE PUSH1 0x20 DUP3 ADD SWAP1 POP SWAP3 SWAP2 POP POP JUMP JUMPDEST PUSH32 0x63616C6C206661696C6564000000000000000000000000000000000000000000 PUSH1 0x0 DUP3 ADD MSTORE POP JUMP JUMPDEST PUSH1 0x0 PUSH2 0x60C PUSH1 0xB DUP4 PUSH2 0x5C5 JUMP JUMPDEST SWAP2 POP PUSH2 0x617 DUP3 PUSH2 0x5D6 JUMP JUMPDEST PUSH1 0x20 DUP3 ADD SWAP1 POP SWAP2 SWAP1 POP JUMP JUMPDEST PUSH1 0x0 PUSH1 0x20 DUP3 ADD SWAP1 POP DUP2 DUP2 SUB PUSH1 0x0 DUP4 ADD MSTORE PUSH2 0x63B DUP2 PUSH2 0x5FF JUMP JUMPDEST SWAP1 POP SWAP2 SWAP1 POP JUMP JUMPDEST PUSH32 0x63616C6C696E6700000000000000000000000000000000000000000000000000 PUSH1 0x0 DUP3 ADD MSTORE POP JUMP JUMPDEST PUSH1 0x0 PUSH2 0x678 PUSH1 0x7 DUP4 PUSH2 0x5C5 JUMP JUMPDEST SWAP2 POP PUSH2 0x683 DUP3 PUSH2 0x642 JUMP JUMPDEST PUSH1 0x20 DUP3 ADD SWAP1 POP SWAP2 SWAP1 POP JUMP JUMPDEST PUSH1 0x0 DUP2 SWAP1 POP SWAP2 SWAP1 POP JUMP JUMPDEST PUSH1 0x0 PUSH1 0xFF DUP3 AND SWAP1 POP SWAP2 SWAP1 POP JUMP JUMPDEST PUSH1 0x0 DUP2 SWAP1 POP SWAP2 SWAP1 POP JUMP JUMPDEST PUSH1 0x0 PUSH2 0x6CA PUSH2 0x6C5 PUSH2 0x6C0 DUP5 PUSH2 0x68E JUMP JUMPDEST PUSH2 0x6A5 JUMP JUMPDEST PUSH2 0x698 JUMP JUMPDEST SWAP1 POP SWAP2 SWAP1 POP JUMP JUMPDEST PUSH2 0x6DA DUP2 PUSH2 0x6AF JUMP JUMPDEST DUP3 MSTORE POP POP JUMP JUMPDEST PUSH1 0x0 PUSH1 0x40 DUP3 ADD SWAP1 POP DUP2 DUP2 SUB PUSH1 0x0 DUP4 ADD MSTORE PUSH2 0x6F9 DUP2 PUSH2 0x66B JUMP JUMPDEST SWAP1 POP PUSH2 0x708 PUSH1 0x20 DUP4 ADD DUP5 PUSH2 0x6D1 JUMP JUMPDEST SWAP3 SWAP2 POP POP JUMP JUMPDEST PUSH32 0x63616C6C696E6720636F6E7472616374206661696C6564000000000000000000 PUSH1 0x0 DUP3 ADD MSTORE POP JUMP JUMPDEST PUSH1 0x0 PUSH2 0x744 PUSH1 0x17 DUP4 PUSH2 0x5C5 JUMP JUMPDEST SWAP2 POP PUSH2 0x74F DUP3 PUSH2 0x70E JUMP JUMPDEST PUSH1 0x20 DUP3 ADD SWAP1 POP SWAP2 SWAP1 POP JUMP JUMPDEST PUSH1 0x0 PUSH1 0x20 DUP3 ADD SWAP1 POP DUP2 DUP2 SUB PUSH1 0x0 DUP4 ADD MSTORE PUSH2 0x773 DUP2 PUSH2 0x737 JUMP JUMPDEST SWAP1 POP SWAP2 SWAP1 POP JUMP JUMPDEST PUSH32 0x4E487B7100000000000000000000000000000000000000000000000000000000 PUSH1 0x0 MSTORE PUSH1 0x41 PUSH1 0x4 MSTORE PUSH1 0x24 PUSH1 0x0 REVERT JUMPDEST PUSH32 0x4E487B7100000000000000000000000000000000000000000000000000000000 PUSH1 0x0 MSTORE PUSH1 0x22 PUSH1 0x4 MSTORE PUSH1 0x24 PUSH1 0x0 REVERT JUMPDEST PUSH1 0x0 PUSH1 0x2 DUP3 DIV SWAP1 POP PUSH1 0x1 DUP3 AND DUP1 PUSH2 0x7F0 JUMPI PUSH1 0x7F DUP3 AND SWAP2 POP JUMPDEST PUSH1 0x20 DUP3 LT DUP2 SUB PUSH2 0x803 JUMPI PUSH2 0x802 PUSH2 0x7A9 JUMP JUMPDEST JUMPDEST POP SWAP2 SWAP1 POP JUMP JUMPDEST PUSH1 0x0 DUP2 SWAP1 POP DUP2 PUSH1 0x0 MSTORE PUSH1 0x20 PUSH1 0x0 KECCAK256 SWAP1 POP SWAP2 SWAP1 POP JUMP JUMPDEST PUSH1 0x0 PUSH1 0x20 PUSH1 0x1F DUP4 ADD DIV SWAP1 POP SWAP2 SWAP1 POP JUMP JUMPDEST PUSH1 0x0 DUP3 DUP3 SHL SWAP1 POP SWAP3 SWAP2 POP POP JUMP JUMPDEST PUSH1 0x0 PUSH1 0x8 DUP4 MUL PUSH2 0x86B PUSH32 0xFFFFFFFFFFFFFFFFFFFFFFFFFFFFFFFFFFFFFFFFFFFFFFFFFFFFFFFFFFFFFFFF DUP3 PUSH2 0x82E JUMP JUMPDEST PUSH2 0x875 DUP7 DUP4 PUSH2 0x82E JUMP JUMPDEST SWAP6 POP DUP1 NOT DUP5 AND SWAP4 POP DUP1 DUP7 AND DUP5 OR SWAP3 POP POP POP SWAP4 SWAP3 POP POP POP JUMP JUMPDEST PUSH1 0x0 PUSH2 0x8A8 PUSH2 0x8A3 PUSH2 0x89E DUP5 PUSH2 0x3FC JUMP JUMPDEST PUSH2 0x6A5 JUMP JUMPDEST PUSH2 0x3FC JUMP JUMPDEST SWAP1 POP SWAP2 SWAP1 POP JUMP JUMPDEST PUSH1 0x0 DUP2 SWAP1 POP SWAP2 SWAP1 POP JUMP JUMPDEST PUSH2 0x8C2 DUP4 PUSH2 0x88D JUMP JUMPDEST PUSH2 0x8D6 PUSH2 0x8CE DUP3 PUSH2 0x8AF JUMP JUMPDEST DUP5 DUP5 SLOAD PUSH2 0x83B JUMP JUMPDEST DUP3 SSTORE POP POP POP POP JUMP JUMPDEST PUSH1 0x0 SWAP1 JUMP JUMPDEST PUSH2 0x8EB PUSH2 0x8DE JUMP JUMPDEST PUSH2 0x8F6 DUP2 DUP5 DUP5 PUSH2 0x8B9 JUMP JUMPDEST POP POP POP JUMP JUMPDEST JUMPDEST DUP2 DUP2 LT ISZERO PUSH2 0x91A JUMPI PUSH2 0x90F PUSH1 0x0 DUP3 PUSH2 0x8E3 JUMP JUMPDEST PUSH1 0x1 DUP2 ADD SWAP1 POP PUSH2 0x8FC JUMP JUMPDEST POP POP JUMP JUMPDEST PUSH1 0x1F DUP3 GT ISZERO PUSH2 0x95F JUMPI PUSH2 0x930 DUP2 PUSH2 0x809 JUMP JUMPDEST PUSH2 0x939 DUP5 PUSH2 0x81E JUMP JUMPDEST DUP2 ADD PUSH1 0x20 DUP6 LT ISZERO PUSH2 0x948 JUMPI DUP2 SWAP1 POP JUMPDEST PUSH2 0x95C PUSH2 0x954 DUP6 PUSH2 0x81E JUMP JUMPDEST DUP4 ADD DUP3 PUSH2 0x8FB JUMP JUMPDEST POP POP JUMPDEST POP POP POP JUMP JUMPDEST PUSH1 0x0 DUP3 DUP3 SHR SWAP1 POP SWAP3 SWAP2 POP POP JUMP JUMPDEST PUSH1 0x0 PUSH2 0x982 PUSH1 0x0 NOT DUP5 PUSH1 0x8 MUL PUSH2 0x964 JUMP JUMPDEST NOT DUP1 DUP4 AND SWAP2 POP POP SWAP3 SWAP2 POP POP JUMP JUMPDEST PUSH1 0x0 PUSH2 0x99B DUP4 DUP4 PUSH2 0x971 JUMP JUMPDEST SWAP2 POP DUP3 PUSH1 0x2 MUL DUP3 OR SWAP1 POP SWAP3 SWAP2 POP POP JUMP JUMPDEST PUSH2 0x9B4 DUP3 PUSH2 0x4C0 JUMP JUMPDEST PUSH8 0xFFFFFFFFFFFFFFFF DUP2 GT ISZERO PUSH2 0x9CD JUMPI PUSH2 0x9CC PUSH2 0x77A JUMP JUMPDEST JUMPDEST PUSH2 0x9D7 DUP3 SLOAD PUSH2 0x7D8 JUMP JUMPDEST PUSH2 0x9E2 DUP3 DUP3 DUP6 PUSH2 0x91E JUMP JUMPDEST PUSH1 0x0 PUSH1 0x20 SWAP1 POP PUSH1 0x1F DUP4 GT PUSH1 0x1 DUP2 EQ PUSH2 0xA15 JUMPI PUSH1 0x0 DUP5 ISZERO PUSH2 0xA03 JUMPI DUP3 DUP8 ADD MLOAD SWAP1 POP JUMPDEST PUSH2 0xA0D DUP6 DUP3 PUSH2 0x98F JUMP JUMPDEST DUP7 SSTORE POP PUSH2 0xA75 JUMP JUMPDEST PUSH1 0x1F NOT DUP5 AND PUSH2 0xA23 DUP7 PUSH2 0x809 JUMP JUMPDEST PUSH1 0x0 JUMPDEST DUP3 DUP2 LT ISZERO PUSH2 0xA4B JUMPI DUP5 DUP10 ADD MLOAD DUP3 SSTORE PUSH1 0x1 DUP3 ADD SWAP2 POP PUSH1 0x20 DUP6 ADD SWAP5 POP PUSH1 0x20 DUP2 ADD SWAP1 POP PUSH2 0xA26 JUMP JUMPDEST DUP7 DUP4 LT ISZERO PUSH2 0xA68 JUMPI DUP5 DUP10 ADD MLOAD PUSH2 0xA64 PUSH1 0x1F DUP10 AND DUP3 PUSH2 0x971 JUMP JUMPDEST DUP4 SSTORE POP JUMPDEST PUSH1 0x1 PUSH1 0x2 DUP9 MUL ADD DUP9 SSTORE POP POP POP JUMPDEST POP POP POP POP POP POP JUMP INVALID LOG2 PUSH5 0x6970667358 0x22 SLT KECCAK256 0xB4 LOG4 0xDB SDIV MLOAD LOG3 EXTCODEHASH PUSH6 0xC976303D884A 0xC0 SAR 0xD8 DUP15 LOG1 XOR 0xC5 DUP5 RETURNDATASIZE PUSH25 0x26145A11FAF46C1E64736F6C63430008120033000000000000 "
		},
		"gasEstimates": {
			"creation": {
				"codeDepositCost": "547800",
				"executionCost": "581",
				"totalCost": "548381"
			},
			"external": {
				"data()": "infinite",
				"doesNotExist(address)": "infinite",
				"getBal()": "317",
				"set1(address)": "infinite"
			}
		},
		"methodIdentifiers": {
			"data()": "73d4a13a",
			"doesNotExist(address)": "28c8df59",
			"getBal()": "25caa262",
			"set1(address)": "71c731be"
		}
	},
	"abi": [
		{
			"inputs": [],
			"name": "data",
			"outputs": [
				{
					"internalType": "bytes",
					"name": "",
					"type": "bytes"
				}
			],
			"stateMutability": "view",
			"type": "function"
		},
		{
			"inputs": [
				{
					"internalType": "address",
					"name": "_test",
					"type": "address"
				}
			],
			"name": "doesNotExist",
			"outputs": [],
			"stateMutability": "nonpayable",
			"type": "function"
		},
		{
			"inputs": [],
			"name": "getBal",
			"outputs": [
				{
					"internalType": "uint256",
					"name": "",
					"type": "uint256"
				}
			],
			"stateMutability": "view",
			"type": "function"
		},
		{
			"inputs": [
				{
					"internalType": "address",
					"name": "_testAdd",
					"type": "address"
				}
			],
			"name": "set1",
			"outputs": [],
			"stateMutability": "payable",
			"type": "function"
		}
	]
}