{
	"data": {
		"bytecode": {
			"linkReferences": {},
			"object": "608060405260ef806100126000396000f3fe60806040526004361060305760003560e01c806312065fe0146032578063830c29ae146051578063b41932c2146051575b005b348015603d57600080fd5b504760405190815260200160405180910390f35b6030605c366004608b565b6040516000906001600160a01b0383169082906801158e460913d000009082818181858883f150505050505050565b600060208284031215609c57600080fd5b81356001600160a01b038116811460b257600080fd5b939250505056fea2646970667358221220bbf0b1a3ab16cc8b69c3b33aeaf31d5c90d541437bb9532e22f1b8f08894eb8e64736f6c63430008120033",
			"opcodes": "PUSH1 0x80 PUSH1 0x40 MSTORE PUSH1 0xEF DUP1 PUSH2 0x12 PUSH1 0x0 CODECOPY PUSH1 0x0 RETURN INVALID PUSH1 0x80 PUSH1 0x40 MSTORE PUSH1 0x4 CALLDATASIZE LT PUSH1 0x30 JUMPI PUSH1 0x0 CALLDATALOAD PUSH1 0xE0 SHR DUP1 PUSH4 0x12065FE0 EQ PUSH1 0x32 JUMPI DUP1 PUSH4 0x830C29AE EQ PUSH1 0x51 JUMPI DUP1 PUSH4 0xB41932C2 EQ PUSH1 0x51 JUMPI JUMPDEST STOP JUMPDEST CALLVALUE DUP1 ISZERO PUSH1 0x3D JUMPI PUSH1 0x0 DUP1 REVERT JUMPDEST POP SELFBALANCE PUSH1 0x40 MLOAD SWAP1 DUP2 MSTORE PUSH1 0x20 ADD PUSH1 0x40 MLOAD DUP1 SWAP2 SUB SWAP1 RETURN JUMPDEST PUSH1 0x30 PUSH1 0x5C CALLDATASIZE PUSH1 0x4 PUSH1 0x8B JUMP JUMPDEST PUSH1 0x40 MLOAD PUSH1 0x0 SWAP1 PUSH1 0x1 PUSH1 0x1 PUSH1 0xA0 SHL SUB DUP4 AND SWAP1 DUP3 SWAP1 PUSH9 0x1158E460913D00000 SWAP1 DUP3 DUP2 DUP2 DUP2 DUP6 DUP9 DUP4 CALL POP POP POP POP POP POP POP JUMP JUMPDEST PUSH1 0x0 PUSH1 0x20 DUP3 DUP5 SUB SLT ISZERO PUSH1 0x9C JUMPI PUSH1 0x0 DUP1 REVERT JUMPDEST DUP2 CALLDATALOAD PUSH1 0x1 PUSH1 0x1 PUSH1 0xA0 SHL SUB DUP2 AND DUP2 EQ PUSH1 0xB2 JUMPI PUSH1 0x0 DUP1 REVERT JUMPDEST SWAP4 SWAP3 POP POP POP JUMP INVALID LOG2 PUSH5 0x6970667358 0x22 SLT KECCAK256 0xBB CREATE 0xB1 LOG3 0xAB AND 0xCC DUP12 PUSH10 0xC3B33AEAF31D5C90D541 NUMBER PUSH28 0xB9532E22F1B8F08894EB8E64736F6C63430008120033000000000000 "
		},
		"gasEstimates": {
			"creation": {
				"codeDepositCost": "47800",
				"executionCost": "75",
				"totalCost": "47875"
			},
			"external": {
				"": "118",
				"getBalance()": "148",
				"sendTransfer(address)": "infinite",
				"sendViaCall(address)": "infinite"
			}
		},
		"methodIdentifiers": {
			"getBalance()": "12065fe0",
			"sendTransfer(address)": "b41932c2",
			"sendViaCall(address)": "830c29ae"
		}
	},
	"abi": [
		{
			"inputs": [],
			"stateMutability": "payable",
			"type": "constructor"
		},
		{
			"stateMutability": "payable",
			"type": "fallback"
		},
		{
			"inputs": [],
			"name": "getBalance",
			"outputs": [
				{
					"internalType": "uint256",
					"name": "",
					"type": "uint256"
				}
			],
			"stateMutability": "view",
			"type": "function"
		},
		{
			"inputs": [
				{
					"internalType": "address payable",
					"name": "_to",
					"type": "address"
				}
			],
			"name": "sendTransfer",
			"outputs": [],
			"stateMutability": "payable",
			"type": "function"
		},
		{
			"inputs": [
				{
					"internalType": "address payable",
					"name": "_to",
					"type": "address"
				}
			],
			"name": "sendViaCall",
			"outputs": [],
			"stateMutability": "payable",
			"type": "function"
		}
	]
}