{
	"data": {
		"bytecode": {
			"linkReferences": {},
			"object": "60806040526101bf806100136000396000f3fe60806040526004361061002d5760003560e01c80638c7736f414610039578063d27f8e661461004e57600080fd5b3661003457005b600080fd5b61004c610047366004610126565b610061565b005b61004c61005c366004610126565b6100df565b60006001600160a01b0383166108fc61008284670de0b6b3a764000061015e565b6040518115909202916000818181858888f193505050509050806100da5760405162461bcd60e51b815260206004820152600b60248201526a18d85b1b0819985a5b195960aa1b604482015260640160405180910390fd5b505050565b6001600160a01b0382166108fc6100fe83670de0b6b3a764000061015e565b6040518115909202916000818181858888f193505050501580156100da573d6000803e3d6000fd5b6000806040838503121561013957600080fd5b82356001600160a01b038116811461015057600080fd5b946020939093013593505050565b808202811582820484141761018357634e487b7160e01b600052601160045260246000fd5b9291505056fea2646970667358221220d450e52c12733f5e924d230de41ff0c3348b501e43fe983b79cc35afd0fd5bc364736f6c63430008120033",
			"opcodes": "PUSH1 0x80 PUSH1 0x40 MSTORE PUSH2 0x1BF DUP1 PUSH2 0x13 PUSH1 0x0 CODECOPY PUSH1 0x0 RETURN INVALID PUSH1 0x80 PUSH1 0x40 MSTORE PUSH1 0x4 CALLDATASIZE LT PUSH2 0x2D JUMPI PUSH1 0x0 CALLDATALOAD PUSH1 0xE0 SHR DUP1 PUSH4 0x8C7736F4 EQ PUSH2 0x39 JUMPI DUP1 PUSH4 0xD27F8E66 EQ PUSH2 0x4E JUMPI PUSH1 0x0 DUP1 REVERT JUMPDEST CALLDATASIZE PUSH2 0x34 JUMPI STOP JUMPDEST PUSH1 0x0 DUP1 REVERT JUMPDEST PUSH2 0x4C PUSH2 0x47 CALLDATASIZE PUSH1 0x4 PUSH2 0x126 JUMP JUMPDEST PUSH2 0x61 JUMP JUMPDEST STOP JUMPDEST PUSH2 0x4C PUSH2 0x5C CALLDATASIZE PUSH1 0x4 PUSH2 0x126 JUMP JUMPDEST PUSH2 0xDF JUMP JUMPDEST PUSH1 0x0 PUSH1 0x1 PUSH1 0x1 PUSH1 0xA0 SHL SUB DUP4 AND PUSH2 0x8FC PUSH2 0x82 DUP5 PUSH8 0xDE0B6B3A7640000 PUSH2 0x15E JUMP JUMPDEST PUSH1 0x40 MLOAD DUP2 ISZERO SWAP1 SWAP3 MUL SWAP2 PUSH1 0x0 DUP2 DUP2 DUP2 DUP6 DUP9 DUP9 CALL SWAP4 POP POP POP POP SWAP1 POP DUP1 PUSH2 0xDA JUMPI PUSH1 0x40 MLOAD PUSH3 0x461BCD PUSH1 0xE5 SHL DUP2 MSTORE PUSH1 0x20 PUSH1 0x4 DUP3 ADD MSTORE PUSH1 0xB PUSH1 0x24 DUP3 ADD MSTORE PUSH11 0x18D85B1B0819985A5B1959 PUSH1 0xAA SHL PUSH1 0x44 DUP3 ADD MSTORE PUSH1 0x64 ADD PUSH1 0x40 MLOAD DUP1 SWAP2 SUB SWAP1 REVERT JUMPDEST POP POP POP JUMP JUMPDEST PUSH1 0x1 PUSH1 0x1 PUSH1 0xA0 SHL SUB DUP3 AND PUSH2 0x8FC PUSH2 0xFE DUP4 PUSH8 0xDE0B6B3A7640000 PUSH2 0x15E JUMP JUMPDEST PUSH1 0x40 MLOAD DUP2 ISZERO SWAP1 SWAP3 MUL SWAP2 PUSH1 0x0 DUP2 DUP2 DUP2 DUP6 DUP9 DUP9 CALL SWAP4 POP POP POP POP ISZERO DUP1 ISZERO PUSH2 0xDA JUMPI RETURNDATASIZE PUSH1 0x0 DUP1 RETURNDATACOPY RETURNDATASIZE PUSH1 0x0 REVERT JUMPDEST PUSH1 0x0 DUP1 PUSH1 0x40 DUP4 DUP6 SUB SLT ISZERO PUSH2 0x139 JUMPI PUSH1 0x0 DUP1 REVERT JUMPDEST DUP3 CALLDATALOAD PUSH1 0x1 PUSH1 0x1 PUSH1 0xA0 SHL SUB DUP2 AND DUP2 EQ PUSH2 0x150 JUMPI PUSH1 0x0 DUP1 REVERT JUMPDEST SWAP5 PUSH1 0x20 SWAP4 SWAP1 SWAP4 ADD CALLDATALOAD SWAP4 POP POP POP JUMP JUMPDEST DUP1 DUP3 MUL DUP2 ISZERO DUP3 DUP3 DIV DUP5 EQ OR PUSH2 0x183 JUMPI PUSH4 0x4E487B71 PUSH1 0xE0 SHL PUSH1 0x0 MSTORE PUSH1 0x11 PUSH1 0x4 MSTORE PUSH1 0x24 PUSH1 0x0 REVERT JUMPDEST SWAP3 SWAP2 POP POP JUMP INVALID LOG2 PUSH5 0x6970667358 0x22 SLT KECCAK256 0xD4 POP 0xE5 0x2C SLT PUSH20 0x3F5E924D230DE41FF0C3348B501E43FE983B79CC CALLDATALOAD 0xAF 0xD0 REVERT JUMPDEST 0xC3 PUSH5 0x736F6C6343 STOP ADDMOD SLT STOP CALLER "
		},
		"gasEstimates": {
			"creation": {
				"codeDepositCost": "89400",
				"executionCost": "111",
				"totalCost": "89511"
			},
			"external": {
				"sendViaSend(address,uint256)": "infinite",
				"sendViaTransfer(address,uint256)": "infinite"
			}
		},
		"methodIdentifiers": {
			"sendViaSend(address,uint256)": "8c7736f4",
			"sendViaTransfer(address,uint256)": "d27f8e66"
		}
	},
	"abi": [
		{
			"inputs": [],
			"stateMutability": "payable",
			"type": "constructor"
		},
		{
			"inputs": [
				{
					"internalType": "address payable",
					"name": "_to",
					"type": "address"
				},
				{
					"internalType": "uint256",
					"name": "amount",
					"type": "uint256"
				}
			],
			"name": "sendViaSend",
			"outputs": [],
			"stateMutability": "payable",
			"type": "function"
		},
		{
			"inputs": [
				{
					"internalType": "address payable",
					"name": "_to",
					"type": "address"
				},
				{
					"internalType": "uint256",
					"name": "amount",
					"type": "uint256"
				}
			],
			"name": "sendViaTransfer",
			"outputs": [],
			"stateMutability": "payable",
			"type": "function"
		},
		{
			"stateMutability": "payable",
			"type": "receive"
		}
	]
}